{
	"data": {
		"bytecode": {
			"linkReferences": {},
			"object": "60806040523480156200001157600080fd5b506040516200213738038062002137833981016040819052620000349162000236565b604080518082018252600681526515185bd3919560d21b60208083019182528351808501909452600384526215139560ea1b9084015281519192916200007d9160009162000190565b5080516200009390600190602084019062000190565b505050620000b0620000aa620000c260201b60201c565b620000c6565b620000bb8162000118565b5062000365565b3390565b600a80546001600160a01b038381166001600160a01b0319831681179093556040519116919082907f8be0079c531659141344cd1fd0a4f28419497f9722a3daafe3b4186f6b6457e090600090a35050565b600a546001600160a01b03163314620001775760405162461bcd60e51b815260206004820181905260248201527f4f776e61626c653a2063616c6c6572206973206e6f7420746865206f776e6572604482015260640160405180910390fd5b80516200018c90600c90602084019062000190565b5050565b8280546200019e9062000312565b90600052602060002090601f016020900481019282620001c257600085556200020d565b82601f10620001dd57805160ff19168380011785556200020d565b828001600101855582156200020d579182015b828111156200020d578251825591602001919060010190620001f0565b506200021b9291506200021f565b5090565b5b808211156200021b576000815560010162000220565b600060208083850312156200024a57600080fd5b82516001600160401b03808211156200026257600080fd5b818501915085601f8301126200027757600080fd5b8151818111156200028c576200028c6200034f565b604051601f8201601f19908116603f01168101908382118183101715620002b757620002b76200034f565b816040528281528886848701011115620002d057600080fd5b600093505b82841015620002f45784840186015181850187015292850192620002d5565b82841115620003065760008684830101525b98975050505050505050565b600181811c908216806200032757607f821691505b602082108114156200034957634e487b7160e01b600052602260045260246000fd5b50919050565b634e487b7160e01b600052604160045260246000fd5b611dc280620003756000396000f3fe608060405234801561001057600080fd5b50600436106101735760003560e01c806355f804b3116100de57806395d89b4111610097578063c87b56dd11610071578063c87b56dd1461031a578063d547cfb71461032d578063e985e9c514610335578063f2fde38b1461037157600080fd5b806395d89b41146102ec578063a22cb465146102f4578063b88d4fde1461030757600080fd5b806355f804b31461027a5780636352211e1461028d57806370a08231146102a0578063715018a6146102b35780638462151c146102bb5780638da5cb5b146102db57600080fd5b806323b872dd1161013057806323b872dd146102135780632f745c591461022657806332cb6b0c146102395780633b4b13811461024157806342842e0e146102545780634f6ccce71461026757600080fd5b806301ffc9a71461017857806306fdde03146101a0578063081812fc146101b5578063095ea7b3146101e057806309d42b30146101f557806318160ddd1461020b575b600080fd5b61018b6101863660046119cc565b610384565b60405190151581526020015b60405180910390f35b6101a86103af565b6040516101979190611b44565b6101c86101c3366004611a4f565b610441565b6040516001600160a01b039091168152602001610197565b6101f36101ee3660046119a2565b6104db565b005b6101fd600181565b604051908152602001610197565b6008546101fd565b6101f36102213660046118ae565b6105f1565b6101fd6102343660046119a2565b610622565b6101fd600781565b6101f361024f366004611a4f565b6106b8565b6101f36102623660046118ae565b61073c565b6101fd610275366004611a4f565b610757565b6101f3610288366004611a06565b6107ea565b6101c861029b366004611a4f565b61082b565b6101fd6102ae366004611860565b6108a2565b6101f3610929565b6102ce6102c9366004611860565b61095f565b6040516101979190611b00565b600a546001600160a01b03166101c8565b6101a8610a01565b6101f3610302366004611966565b610a10565b6101f36103153660046118ea565b610a1b565b6101a8610328366004611a4f565b610a53565b6101a8610b2e565b61018b61034336600461187b565b6001600160a01b03918216600090815260056020908152604080832093909416825291909152205460ff1690565b6101f361037f366004611860565b610bbc565b60006001600160e01b0319821663780e9d6360e01b14806103a957506103a982610c57565b92915050565b6060600080546103be90611c9e565b80601f01602080910402602001604051908101604052809291908181526020018280546103ea90611c9e565b80156104375780601f1061040c57610100808354040283529160200191610437565b820191906000526020600020905b81548152906001019060200180831161041a57829003601f168201915b5050505050905090565b6000818152600260205260408120546001600160a01b03166104bf5760405162461bcd60e51b815260206004820152602c60248201527f4552433732313a20617070726f76656420717565727920666f72206e6f6e657860448201526b34b9ba32b73a103a37b5b2b760a11b60648201526084015b60405180910390fd5b506000908152600460205260409020546001600160a01b031690565b60006104e68261082b565b9050806001600160a01b0316836001600160a01b031614156105545760405162461bcd60e51b815260206004820152602160248201527f4552433732313a20617070726f76616c20746f2063757272656e74206f776e656044820152603960f91b60648201526084016104b6565b336001600160a01b038216148061057057506105708133610343565b6105e25760405162461bcd60e51b815260206004820152603860248201527f4552433732313a20617070726f76652063616c6c6572206973206e6f74206f7760448201527f6e6572206e6f7220617070726f76656420666f7220616c6c000000000000000060648201526084016104b6565b6105ec8383610ca7565b505050565b6105fb3382610d15565b6106175760405162461bcd60e51b81526004016104b690611bde565b6105ec838383610e0c565b600061062d836108a2565b821061068f5760405162461bcd60e51b815260206004820152602b60248201527f455243373231456e756d657261626c653a206f776e657220696e646578206f7560448201526a74206f6620626f756e647360a81b60648201526084016104b6565b506001600160a01b03919091166000908152600660209081526040808320938352929052205490565b60006106c3600b5490565b905060076106d18284610fb3565b11156107175760405162461bcd60e51b81526020600482015260156024820152744e6f7420656e6f756768204e465473206c6566742160581b60448201526064016104b6565b60005b828110156105ec5761072a610fbf565b8061073481611cd9565b91505061071a565b6105ec83838360405180602001604052806000815250610a1b565b600061076260085490565b82106107c55760405162461bcd60e51b815260206004820152602c60248201527f455243373231456e756d657261626c653a20676c6f62616c20696e646578206f60448201526b7574206f6620626f756e647360a01b60648201526084016104b6565b600882815481106107d8576107d8611d4a565b90600052602060002001549050919050565b600a546001600160a01b031633146108145760405162461bcd60e51b81526004016104b690611ba9565b805161082790600c906020840190611735565b5050565b6000818152600260205260408120546001600160a01b0316806103a95760405162461bcd60e51b815260206004820152602960248201527f4552433732313a206f776e657220717565727920666f72206e6f6e657869737460448201526832b73a103a37b5b2b760b91b60648201526084016104b6565b60006001600160a01b03821661090d5760405162461bcd60e51b815260206004820152602a60248201527f4552433732313a2062616c616e636520717565727920666f7220746865207a65604482015269726f206164647265737360b01b60648201526084016104b6565b506001600160a01b031660009081526003602052604090205490565b600a546001600160a01b031633146109535760405162461bcd60e51b81526004016104b690611ba9565b61095d6000610fe4565b565b6060600061096c836108a2565b905060008167ffffffffffffffff81111561098957610989611d60565b6040519080825280602002602001820160405280156109b2578160200160208202803683370190505b50905060005b828110156109f9576109ca8582610622565b8282815181106109dc576109dc611d4a565b6020908102919091010152806109f181611cd9565b9150506109b8565b509392505050565b6060600180546103be90611c9e565b610827338383611036565b610a253383610d15565b610a415760405162461bcd60e51b81526004016104b690611bde565b610a4d84848484611105565b50505050565b6000818152600260205260409020546060906001600160a01b0316610ad25760405162461bcd60e51b815260206004820152602f60248201527f4552433732314d657461646174613a2055524920717565727920666f72206e6f60448201526e3732bc34b9ba32b73a103a37b5b2b760891b60648201526084016104b6565b6000610adc611138565b90506000815111610afc5760405180602001604052806000815250610b27565b80610b0684611147565b604051602001610b17929190611a94565b6040516020818303038152906040525b9392505050565b600c8054610b3b90611c9e565b80601f0160208091040260200160405190810160405280929190818152602001828054610b6790611c9e565b8015610bb45780601f10610b8957610100808354040283529160200191610bb4565b820191906000526020600020905b815481529060010190602001808311610b9757829003601f168201915b505050505081565b600a546001600160a01b03163314610be65760405162461bcd60e51b81526004016104b690611ba9565b6001600160a01b038116610c4b5760405162461bcd60e51b815260206004820152602660248201527f4f776e61626c653a206e6577206f776e657220697320746865207a65726f206160448201526564647265737360d01b60648201526084016104b6565b610c5481610fe4565b50565b60006001600160e01b031982166380ac58cd60e01b1480610c8857506001600160e01b03198216635b5e139f60e01b145b806103a957506301ffc9a760e01b6001600160e01b03198316146103a9565b600081815260046020526040902080546001600160a01b0319166001600160a01b0384169081179091558190610cdc8261082b565b6001600160a01b03167f8c5be1e5ebec7d5bd14f71427d1e84f3dd0314c0f7b2291e5b200ac8c7c3b92560405160405180910390a45050565b6000818152600260205260408120546001600160a01b0316610d8e5760405162461bcd60e51b815260206004820152602c60248201527f4552433732313a206f70657261746f7220717565727920666f72206e6f6e657860448201526b34b9ba32b73a103a37b5b2b760a11b60648201526084016104b6565b6000610d998361082b565b9050806001600160a01b0316846001600160a01b03161480610dd45750836001600160a01b0316610dc984610441565b6001600160a01b0316145b80610e0457506001600160a01b0380821660009081526005602090815260408083209388168352929052205460ff165b949350505050565b826001600160a01b0316610e1f8261082b565b6001600160a01b031614610e835760405162461bcd60e51b815260206004820152602560248201527f4552433732313a207472616e736665722066726f6d20696e636f72726563742060448201526437bbb732b960d91b60648201526084016104b6565b6001600160a01b038216610ee55760405162461bcd60e51b8152602060048201526024808201527f4552433732313a207472616e7366657220746f20746865207a65726f206164646044820152637265737360e01b60648201526084016104b6565b610ef0838383611245565b610efb600082610ca7565b6001600160a01b0383166000908152600360205260408120805460019290610f24908490611c5b565b90915550506001600160a01b0382166000908152600360205260408120805460019290610f52908490611c2f565b909155505060008181526002602052604080822080546001600160a01b0319166001600160a01b0386811691821790925591518493918716917fddf252ad1be2c89b69c2b068fc378daa952ba7f163c4a11628f55a4df523b3ef91a4505050565b6000610b278284611c2f565b6000610fca600b5490565b9050610fd633826112fd565b610c54600b80546001019055565b600a80546001600160a01b038381166001600160a01b0319831681179093556040519116919082907f8be0079c531659141344cd1fd0a4f28419497f9722a3daafe3b4186f6b6457e090600090a35050565b816001600160a01b0316836001600160a01b031614156110985760405162461bcd60e51b815260206004820152601960248201527f4552433732313a20617070726f766520746f2063616c6c65720000000000000060448201526064016104b6565b6001600160a01b03838116600081815260056020908152604080832094871680845294825291829020805460ff191686151590811790915591519182527f17307eab39ab6107e8899845ad3d59bd9653f200f220920489ca2b5937696c31910160405180910390a3505050565b611110848484610e0c565b61111c84848484611317565b610a4d5760405162461bcd60e51b81526004016104b690611b57565b6060600c80546103be90611c9e565b60608161116b5750506040805180820190915260018152600360fc1b602082015290565b8160005b8115611195578061117f81611cd9565b915061118e9050600a83611c47565b915061116f565b60008167ffffffffffffffff8111156111b0576111b0611d60565b6040519080825280601f01601f1916602001820160405280156111da576020820181803683370190505b5090505b8415610e04576111ef600183611c5b565b91506111fc600a86611cf4565b611207906030611c2f565b60f81b81838151811061121c5761121c611d4a565b60200101906001600160f81b031916908160001a90535061123e600a86611c47565b94506111de565b6001600160a01b0383166112a05761129b81600880546000838152600960205260408120829055600182018355919091527ff3f7a9fe364faab93b216da50a3214154f22a0a2b415b23a84c8169e8b636ee30155565b6112c3565b816001600160a01b0316836001600160a01b0316146112c3576112c38382611424565b6001600160a01b0382166112da576105ec816114c1565b826001600160a01b0316826001600160a01b0316146105ec576105ec8282611570565b6108278282604051806020016040528060008152506115b4565b60006001600160a01b0384163b1561141957604051630a85bd0160e11b81526001600160a01b0385169063150b7a029061135b903390899088908890600401611ac3565b602060405180830381600087803b15801561137557600080fd5b505af19250505080156113a5575060408051601f3d908101601f191682019092526113a2918101906119e9565b60015b6113ff573d8080156113d3576040519150601f19603f3d011682016040523d82523d6000602084013e6113d8565b606091505b5080516113f75760405162461bcd60e51b81526004016104b690611b57565b805181602001fd5b6001600160e01b031916630a85bd0160e11b149050610e04565b506001949350505050565b60006001611431846108a2565b61143b9190611c5b565b60008381526007602052604090205490915080821461148e576001600160a01b03841660009081526006602090815260408083208584528252808320548484528184208190558352600790915290208190555b5060009182526007602090815260408084208490556001600160a01b039094168352600681528383209183525290812055565b6008546000906114d390600190611c5b565b600083815260096020526040812054600880549394509092849081106114fb576114fb611d4a565b90600052602060002001549050806008838154811061151c5761151c611d4a565b600091825260208083209091019290925582815260099091526040808220849055858252812055600880548061155457611554611d34565b6001900381819060005260206000200160009055905550505050565b600061157b836108a2565b6001600160a01b039093166000908152600660209081526040808320868452825280832085905593825260079052919091209190915550565b6115be83836115e7565b6115cb6000848484611317565b6105ec5760405162461bcd60e51b81526004016104b690611b57565b6001600160a01b03821661163d5760405162461bcd60e51b815260206004820181905260248201527f4552433732313a206d696e7420746f20746865207a65726f206164647265737360448201526064016104b6565b6000818152600260205260409020546001600160a01b0316156116a25760405162461bcd60e51b815260206004820152601c60248201527f4552433732313a20746f6b656e20616c7265616479206d696e7465640000000060448201526064016104b6565b6116ae60008383611245565b6001600160a01b03821660009081526003602052604081208054600192906116d7908490611c2f565b909155505060008181526002602052604080822080546001600160a01b0319166001600160a01b03861690811790915590518392907fddf252ad1be2c89b69c2b068fc378daa952ba7f163c4a11628f55a4df523b3ef908290a45050565b82805461174190611c9e565b90600052602060002090601f01602090048101928261176357600085556117a9565b82601f1061177c57805160ff19168380011785556117a9565b828001600101855582156117a9579182015b828111156117a957825182559160200191906001019061178e565b506117b59291506117b9565b5090565b5b808211156117b557600081556001016117ba565b600067ffffffffffffffff808411156117e9576117e9611d60565b604051601f8501601f19908116603f0116810190828211818310171561181157611811611d60565b8160405280935085815286868601111561182a57600080fd5b858560208301376000602087830101525050509392505050565b80356001600160a01b038116811461185b57600080fd5b919050565b60006020828403121561187257600080fd5b610b2782611844565b6000806040838503121561188e57600080fd5b61189783611844565b91506118a560208401611844565b90509250929050565b6000806000606084860312156118c357600080fd5b6118cc84611844565b92506118da60208501611844565b9150604084013590509250925092565b6000806000806080858703121561190057600080fd5b61190985611844565b935061191760208601611844565b925060408501359150606085013567ffffffffffffffff81111561193a57600080fd5b8501601f8101871361194b57600080fd5b61195a878235602084016117ce565b91505092959194509250565b6000806040838503121561197957600080fd5b61198283611844565b91506020830135801515811461199757600080fd5b809150509250929050565b600080604083850312156119b557600080fd5b6119be83611844565b946020939093013593505050565b6000602082840312156119de57600080fd5b8135610b2781611d76565b6000602082840312156119fb57600080fd5b8151610b2781611d76565b600060208284031215611a1857600080fd5b813567ffffffffffffffff811115611a2f57600080fd5b8201601f81018413611a4057600080fd5b610e04848235602084016117ce565b600060208284031215611a6157600080fd5b5035919050565b60008151808452611a80816020860160208601611c72565b601f01601f19169290920160200192915050565b60008351611aa6818460208801611c72565b835190830190611aba818360208801611c72565b01949350505050565b6001600160a01b0385811682528416602082015260408101839052608060608201819052600090611af690830184611a68565b9695505050505050565b6020808252825182820181905260009190848201906040850190845b81811015611b3857835183529284019291840191600101611b1c565b50909695505050505050565b602081526000610b276020830184611a68565b60208082526032908201527f4552433732313a207472616e7366657220746f206e6f6e20455243373231526560408201527131b2b4bb32b91034b6b83632b6b2b73a32b960711b606082015260800190565b6020808252818101527f4f776e61626c653a2063616c6c6572206973206e6f7420746865206f776e6572604082015260600190565b60208082526031908201527f4552433732313a207472616e736665722063616c6c6572206973206e6f74206f6040820152701ddb995c881b9bdc88185c1c1c9bdd9959607a1b606082015260800190565b60008219821115611c4257611c42611d08565b500190565b600082611c5657611c56611d1e565b500490565b600082821015611c6d57611c6d611d08565b500390565b60005b83811015611c8d578181015183820152602001611c75565b83811115610a4d5750506000910152565b600181811c90821680611cb257607f821691505b60208210811415611cd357634e487b7160e01b600052602260045260246000fd5b50919050565b6000600019821415611ced57611ced611d08565b5060010190565b600082611d0357611d03611d1e565b500690565b634e487b7160e01b600052601160045260246000fd5b634e487b7160e01b600052601260045260246000fd5b634e487b7160e01b600052603160045260246000fd5b634e487b7160e01b600052603260045260246000fd5b634e487b7160e01b600052604160045260246000fd5b6001600160e01b031981168114610c5457600080fdfea26469706673582212205645b439165e355dd9531af6498a8867066e5d3cddc586cefa7eea09a4f9131a64736f6c63430008060033",
			"opcodes": "PUSH1 0x80 PUSH1 0x40 MSTORE CALLVALUE DUP1 ISZERO PUSH3 0x11 JUMPI PUSH1 0x0 DUP1 REVERT JUMPDEST POP PUSH1 0x40 MLOAD PUSH3 0x2137 CODESIZE SUB DUP1 PUSH3 0x2137 DUP4 CODECOPY DUP2 ADD PUSH1 0x40 DUP2 SWAP1 MSTORE PUSH3 0x34 SWAP2 PUSH3 0x236 JUMP JUMPDEST PUSH1 0x40 DUP1 MLOAD DUP1 DUP3 ADD DUP3 MSTORE PUSH1 0x6 DUP2 MSTORE PUSH6 0x15185BD39195 PUSH1 0xD2 SHL PUSH1 0x20 DUP1 DUP4 ADD SWAP2 DUP3 MSTORE DUP4 MLOAD DUP1 DUP6 ADD SWAP1 SWAP5 MSTORE PUSH1 0x3 DUP5 MSTORE PUSH3 0x151395 PUSH1 0xEA SHL SWAP1 DUP5 ADD MSTORE DUP2 MLOAD SWAP2 SWAP3 SWAP2 PUSH3 0x7D SWAP2 PUSH1 0x0 SWAP2 PUSH3 0x190 JUMP JUMPDEST POP DUP1 MLOAD PUSH3 0x93 SWAP1 PUSH1 0x1 SWAP1 PUSH1 0x20 DUP5 ADD SWAP1 PUSH3 0x190 JUMP JUMPDEST POP POP POP PUSH3 0xB0 PUSH3 0xAA PUSH3 0xC2 PUSH1 0x20 SHL PUSH1 0x20 SHR JUMP JUMPDEST PUSH3 0xC6 JUMP JUMPDEST PUSH3 0xBB DUP2 PUSH3 0x118 JUMP JUMPDEST POP PUSH3 0x365 JUMP JUMPDEST CALLER SWAP1 JUMP JUMPDEST PUSH1 0xA DUP1 SLOAD PUSH1 0x1 PUSH1 0x1 PUSH1 0xA0 SHL SUB DUP4 DUP2 AND PUSH1 0x1 PUSH1 0x1 PUSH1 0xA0 SHL SUB NOT DUP4 AND DUP2 OR SWAP1 SWAP4 SSTORE PUSH1 0x40 MLOAD SWAP2 AND SWAP2 SWAP1 DUP3 SWAP1 PUSH32 0x8BE0079C531659141344CD1FD0A4F28419497F9722A3DAAFE3B4186F6B6457E0 SWAP1 PUSH1 0x0 SWAP1 LOG3 POP POP JUMP JUMPDEST PUSH1 0xA SLOAD PUSH1 0x1 PUSH1 0x1 PUSH1 0xA0 SHL SUB AND CALLER EQ PUSH3 0x177 JUMPI PUSH1 0x40 MLOAD PUSH3 0x461BCD PUSH1 0xE5 SHL DUP2 MSTORE PUSH1 0x20 PUSH1 0x4 DUP3 ADD DUP2 SWAP1 MSTORE PUSH1 0x24 DUP3 ADD MSTORE PUSH32 0x4F776E61626C653A2063616C6C6572206973206E6F7420746865206F776E6572 PUSH1 0x44 DUP3 ADD MSTORE PUSH1 0x64 ADD PUSH1 0x40 MLOAD DUP1 SWAP2 SUB SWAP1 REVERT JUMPDEST DUP1 MLOAD PUSH3 0x18C SWAP1 PUSH1 0xC SWAP1 PUSH1 0x20 DUP5 ADD SWAP1 PUSH3 0x190 JUMP JUMPDEST POP POP JUMP JUMPDEST DUP3 DUP1 SLOAD PUSH3 0x19E SWAP1 PUSH3 0x312 JUMP JUMPDEST SWAP1 PUSH1 0x0 MSTORE PUSH1 0x20 PUSH1 0x0 KECCAK256 SWAP1 PUSH1 0x1F ADD PUSH1 0x20 SWAP1 DIV DUP2 ADD SWAP3 DUP3 PUSH3 0x1C2 JUMPI PUSH1 0x0 DUP6 SSTORE PUSH3 0x20D JUMP JUMPDEST DUP3 PUSH1 0x1F LT PUSH3 0x1DD JUMPI DUP1 MLOAD PUSH1 0xFF NOT AND DUP4 DUP1 ADD OR DUP6 SSTORE PUSH3 0x20D JUMP JUMPDEST DUP3 DUP1 ADD PUSH1 0x1 ADD DUP6 SSTORE DUP3 ISZERO PUSH3 0x20D JUMPI SWAP2 DUP3 ADD JUMPDEST DUP3 DUP2 GT ISZERO PUSH3 0x20D JUMPI DUP3 MLOAD DUP3 SSTORE SWAP2 PUSH1 0x20 ADD SWAP2 SWAP1 PUSH1 0x1 ADD SWAP1 PUSH3 0x1F0 JUMP JUMPDEST POP PUSH3 0x21B SWAP3 SWAP2 POP PUSH3 0x21F JUMP JUMPDEST POP SWAP1 JUMP JUMPDEST JUMPDEST DUP1 DUP3 GT ISZERO PUSH3 0x21B JUMPI PUSH1 0x0 DUP2 SSTORE PUSH1 0x1 ADD PUSH3 0x220 JUMP JUMPDEST PUSH1 0x0 PUSH1 0x20 DUP1 DUP4 DUP6 SUB SLT ISZERO PUSH3 0x24A JUMPI PUSH1 0x0 DUP1 REVERT JUMPDEST DUP3 MLOAD PUSH1 0x1 PUSH1 0x1 PUSH1 0x40 SHL SUB DUP1 DUP3 GT ISZERO PUSH3 0x262 JUMPI PUSH1 0x0 DUP1 REVERT JUMPDEST DUP2 DUP6 ADD SWAP2 POP DUP6 PUSH1 0x1F DUP4 ADD SLT PUSH3 0x277 JUMPI PUSH1 0x0 DUP1 REVERT JUMPDEST DUP2 MLOAD DUP2 DUP2 GT ISZERO PUSH3 0x28C JUMPI PUSH3 0x28C PUSH3 0x34F JUMP JUMPDEST PUSH1 0x40 MLOAD PUSH1 0x1F DUP3 ADD PUSH1 0x1F NOT SWAP1 DUP2 AND PUSH1 0x3F ADD AND DUP2 ADD SWAP1 DUP4 DUP3 GT DUP2 DUP4 LT OR ISZERO PUSH3 0x2B7 JUMPI PUSH3 0x2B7 PUSH3 0x34F JUMP JUMPDEST DUP2 PUSH1 0x40 MSTORE DUP3 DUP2 MSTORE DUP9 DUP7 DUP5 DUP8 ADD ADD GT ISZERO PUSH3 0x2D0 JUMPI PUSH1 0x0 DUP1 REVERT JUMPDEST PUSH1 0x0 SWAP4 POP JUMPDEST DUP3 DUP5 LT ISZERO PUSH3 0x2F4 JUMPI DUP5 DUP5 ADD DUP7 ADD MLOAD DUP2 DUP6 ADD DUP8 ADD MSTORE SWAP3 DUP6 ADD SWAP3 PUSH3 0x2D5 JUMP JUMPDEST DUP3 DUP5 GT ISZERO PUSH3 0x306 JUMPI PUSH1 0x0 DUP7 DUP5 DUP4 ADD ADD MSTORE JUMPDEST SWAP9 SWAP8 POP POP POP POP POP POP POP POP JUMP JUMPDEST PUSH1 0x1 DUP2 DUP2 SHR SWAP1 DUP3 AND DUP1 PUSH3 0x327 JUMPI PUSH1 0x7F DUP3 AND SWAP2 POP JUMPDEST PUSH1 0x20 DUP3 LT DUP2 EQ ISZERO PUSH3 0x349 JUMPI PUSH4 0x4E487B71 PUSH1 0xE0 SHL PUSH1 0x0 MSTORE PUSH1 0x22 PUSH1 0x4 MSTORE PUSH1 0x24 PUSH1 0x0 REVERT JUMPDEST POP SWAP2 SWAP1 POP JUMP JUMPDEST PUSH4 0x4E487B71 PUSH1 0xE0 SHL PUSH1 0x0 MSTORE PUSH1 0x41 PUSH1 0x4 MSTORE PUSH1 0x24 PUSH1 0x0 REVERT JUMPDEST PUSH2 0x1DC2 DUP1 PUSH3 0x375 PUSH1 0x0 CODECOPY PUSH1 0x0 RETURN INVALID PUSH1 0x80 PUSH1 0x40 MSTORE CALLVALUE DUP1 ISZERO PUSH2 0x10 JUMPI PUSH1 0x0 DUP1 REVERT JUMPDEST POP PUSH1 0x4 CALLDATASIZE LT PUSH2 0x173 JUMPI PUSH1 0x0 CALLDATALOAD PUSH1 0xE0 SHR DUP1 PUSH4 0x55F804B3 GT PUSH2 0xDE JUMPI DUP1 PUSH4 0x95D89B41 GT PUSH2 0x97 JUMPI DUP1 PUSH4 0xC87B56DD GT PUSH2 0x71 JUMPI DUP1 PUSH4 0xC87B56DD EQ PUSH2 0x31A JUMPI DUP1 PUSH4 0xD547CFB7 EQ PUSH2 0x32D JUMPI DUP1 PUSH4 0xE985E9C5 EQ PUSH2 0x335 JUMPI DUP1 PUSH4 0xF2FDE38B EQ PUSH2 0x371 JUMPI PUSH1 0x0 DUP1 REVERT JUMPDEST DUP1 PUSH4 0x95D89B41 EQ PUSH2 0x2EC JUMPI DUP1 PUSH4 0xA22CB465 EQ PUSH2 0x2F4 JUMPI DUP1 PUSH4 0xB88D4FDE EQ PUSH2 0x307 JUMPI PUSH1 0x0 DUP1 REVERT JUMPDEST DUP1 PUSH4 0x55F804B3 EQ PUSH2 0x27A JUMPI DUP1 PUSH4 0x6352211E EQ PUSH2 0x28D JUMPI DUP1 PUSH4 0x70A08231 EQ PUSH2 0x2A0 JUMPI DUP1 PUSH4 0x715018A6 EQ PUSH2 0x2B3 JUMPI DUP1 PUSH4 0x8462151C EQ PUSH2 0x2BB JUMPI DUP1 PUSH4 0x8DA5CB5B EQ PUSH2 0x2DB JUMPI PUSH1 0x0 DUP1 REVERT JUMPDEST DUP1 PUSH4 0x23B872DD GT PUSH2 0x130 JUMPI DUP1 PUSH4 0x23B872DD EQ PUSH2 0x213 JUMPI DUP1 PUSH4 0x2F745C59 EQ PUSH2 0x226 JUMPI DUP1 PUSH4 0x32CB6B0C EQ PUSH2 0x239 JUMPI DUP1 PUSH4 0x3B4B1381 EQ PUSH2 0x241 JUMPI DUP1 PUSH4 0x42842E0E EQ PUSH2 0x254 JUMPI DUP1 PUSH4 0x4F6CCCE7 EQ PUSH2 0x267 JUMPI PUSH1 0x0 DUP1 REVERT JUMPDEST DUP1 PUSH4 0x1FFC9A7 EQ PUSH2 0x178 JUMPI DUP1 PUSH4 0x6FDDE03 EQ PUSH2 0x1A0 JUMPI DUP1 PUSH4 0x81812FC EQ PUSH2 0x1B5 JUMPI DUP1 PUSH4 0x95EA7B3 EQ PUSH2 0x1E0 JUMPI DUP1 PUSH4 0x9D42B30 EQ PUSH2 0x1F5 JUMPI DUP1 PUSH4 0x18160DDD EQ PUSH2 0x20B JUMPI JUMPDEST PUSH1 0x0 DUP1 REVERT JUMPDEST PUSH2 0x18B PUSH2 0x186 CALLDATASIZE PUSH1 0x4 PUSH2 0x19CC JUMP JUMPDEST PUSH2 0x384 JUMP JUMPDEST PUSH1 0x40 MLOAD SWAP1 ISZERO ISZERO DUP2 MSTORE PUSH1 0x20 ADD JUMPDEST PUSH1 0x40 MLOAD DUP1 SWAP2 SUB SWAP1 RETURN JUMPDEST PUSH2 0x1A8 PUSH2 0x3AF JUMP JUMPDEST PUSH1 0x40 MLOAD PUSH2 0x197 SWAP2 SWAP1 PUSH2 0x1B44 JUMP JUMPDEST PUSH2 0x1C8 PUSH2 0x1C3 CALLDATASIZE PUSH1 0x4 PUSH2 0x1A4F JUMP JUMPDEST PUSH2 0x441 JUMP JUMPDEST PUSH1 0x40 MLOAD PUSH1 0x1 PUSH1 0x1 PUSH1 0xA0 SHL SUB SWAP1 SWAP2 AND DUP2 MSTORE PUSH1 0x20 ADD PUSH2 0x197 JUMP JUMPDEST PUSH2 0x1F3 PUSH2 0x1EE CALLDATASIZE PUSH1 0x4 PUSH2 0x19A2 JUMP JUMPDEST PUSH2 0x4DB JUMP JUMPDEST STOP JUMPDEST PUSH2 0x1FD PUSH1 0x1 DUP2 JUMP JUMPDEST PUSH1 0x40 MLOAD SWAP1 DUP2 MSTORE PUSH1 0x20 ADD PUSH2 0x197 JUMP JUMPDEST PUSH1 0x8 SLOAD PUSH2 0x1FD JUMP JUMPDEST PUSH2 0x1F3 PUSH2 0x221 CALLDATASIZE PUSH1 0x4 PUSH2 0x18AE JUMP JUMPDEST PUSH2 0x5F1 JUMP JUMPDEST PUSH2 0x1FD PUSH2 0x234 CALLDATASIZE PUSH1 0x4 PUSH2 0x19A2 JUMP JUMPDEST PUSH2 0x622 JUMP JUMPDEST PUSH2 0x1FD PUSH1 0x7 DUP2 JUMP JUMPDEST PUSH2 0x1F3 PUSH2 0x24F CALLDATASIZE PUSH1 0x4 PUSH2 0x1A4F JUMP JUMPDEST PUSH2 0x6B8 JUMP JUMPDEST PUSH2 0x1F3 PUSH2 0x262 CALLDATASIZE PUSH1 0x4 PUSH2 0x18AE JUMP JUMPDEST PUSH2 0x73C JUMP JUMPDEST PUSH2 0x1FD PUSH2 0x275 CALLDATASIZE PUSH1 0x4 PUSH2 0x1A4F JUMP JUMPDEST PUSH2 0x757 JUMP JUMPDEST PUSH2 0x1F3 PUSH2 0x288 CALLDATASIZE PUSH1 0x4 PUSH2 0x1A06 JUMP JUMPDEST PUSH2 0x7EA JUMP JUMPDEST PUSH2 0x1C8 PUSH2 0x29B CALLDATASIZE PUSH1 0x4 PUSH2 0x1A4F JUMP JUMPDEST PUSH2 0x82B JUMP JUMPDEST PUSH2 0x1FD PUSH2 0x2AE CALLDATASIZE PUSH1 0x4 PUSH2 0x1860 JUMP JUMPDEST PUSH2 0x8A2 JUMP JUMPDEST PUSH2 0x1F3 PUSH2 0x929 JUMP JUMPDEST PUSH2 0x2CE PUSH2 0x2C9 CALLDATASIZE PUSH1 0x4 PUSH2 0x1860 JUMP JUMPDEST PUSH2 0x95F JUMP JUMPDEST PUSH1 0x40 MLOAD PUSH2 0x197 SWAP2 SWAP1 PUSH2 0x1B00 JUMP JUMPDEST PUSH1 0xA SLOAD PUSH1 0x1 PUSH1 0x1 PUSH1 0xA0 SHL SUB AND PUSH2 0x1C8 JUMP JUMPDEST PUSH2 0x1A8 PUSH2 0xA01 JUMP JUMPDEST PUSH2 0x1F3 PUSH2 0x302 CALLDATASIZE PUSH1 0x4 PUSH2 0x1966 JUMP JUMPDEST PUSH2 0xA10 JUMP JUMPDEST PUSH2 0x1F3 PUSH2 0x315 CALLDATASIZE PUSH1 0x4 PUSH2 0x18EA JUMP JUMPDEST PUSH2 0xA1B JUMP JUMPDEST PUSH2 0x1A8 PUSH2 0x328 CALLDATASIZE PUSH1 0x4 PUSH2 0x1A4F JUMP JUMPDEST PUSH2 0xA53 JUMP JUMPDEST PUSH2 0x1A8 PUSH2 0xB2E JUMP JUMPDEST PUSH2 0x18B PUSH2 0x343 CALLDATASIZE PUSH1 0x4 PUSH2 0x187B JUMP JUMPDEST PUSH1 0x1 PUSH1 0x1 PUSH1 0xA0 SHL SUB SWAP2 DUP3 AND PUSH1 0x0 SWAP1 DUP2 MSTORE PUSH1 0x5 PUSH1 0x20 SWAP1 DUP2 MSTORE PUSH1 0x40 DUP1 DUP4 KECCAK256 SWAP4 SWAP1 SWAP5 AND DUP3 MSTORE SWAP2 SWAP1 SWAP2 MSTORE KECCAK256 SLOAD PUSH1 0xFF AND SWAP1 JUMP JUMPDEST PUSH2 0x1F3 PUSH2 0x37F CALLDATASIZE PUSH1 0x4 PUSH2 0x1860 JUMP JUMPDEST PUSH2 0xBBC JUMP JUMPDEST PUSH1 0x0 PUSH1 0x1 PUSH1 0x1 PUSH1 0xE0 SHL SUB NOT DUP3 AND PUSH4 0x780E9D63 PUSH1 0xE0 SHL EQ DUP1 PUSH2 0x3A9 JUMPI POP PUSH2 0x3A9 DUP3 PUSH2 0xC57 JUMP JUMPDEST SWAP3 SWAP2 POP POP JUMP JUMPDEST PUSH1 0x60 PUSH1 0x0 DUP1 SLOAD PUSH2 0x3BE SWAP1 PUSH2 0x1C9E JUMP JUMPDEST DUP1 PUSH1 0x1F ADD PUSH1 0x20 DUP1 SWAP2 DIV MUL PUSH1 0x20 ADD PUSH1 0x40 MLOAD SWAP1 DUP2 ADD PUSH1 0x40 MSTORE DUP1 SWAP3 SWAP2 SWAP1 DUP2 DUP2 MSTORE PUSH1 0x20 ADD DUP3 DUP1 SLOAD PUSH2 0x3EA SWAP1 PUSH2 0x1C9E JUMP JUMPDEST DUP1 ISZERO PUSH2 0x437 JUMPI DUP1 PUSH1 0x1F LT PUSH2 0x40C JUMPI PUSH2 0x100 DUP1 DUP4 SLOAD DIV MUL DUP4 MSTORE SWAP2 PUSH1 0x20 ADD SWAP2 PUSH2 0x437 JUMP JUMPDEST DUP3 ADD SWAP2 SWAP1 PUSH1 0x0 MSTORE PUSH1 0x20 PUSH1 0x0 KECCAK256 SWAP1 JUMPDEST DUP2 SLOAD DUP2 MSTORE SWAP1 PUSH1 0x1 ADD SWAP1 PUSH1 0x20 ADD DUP1 DUP4 GT PUSH2 0x41A JUMPI DUP3 SWAP1 SUB PUSH1 0x1F AND DUP3 ADD SWAP2 JUMPDEST POP POP POP POP POP SWAP1 POP SWAP1 JUMP JUMPDEST PUSH1 0x0 DUP2 DUP2 MSTORE PUSH1 0x2 PUSH1 0x20 MSTORE PUSH1 0x40 DUP2 KECCAK256 SLOAD PUSH1 0x1 PUSH1 0x1 PUSH1 0xA0 SHL SUB AND PUSH2 0x4BF JUMPI PUSH1 0x40 MLOAD PUSH3 0x461BCD PUSH1 0xE5 SHL DUP2 MSTORE PUSH1 0x20 PUSH1 0x4 DUP3 ADD MSTORE PUSH1 0x2C PUSH1 0x24 DUP3 ADD MSTORE PUSH32 0x4552433732313A20617070726F76656420717565727920666F72206E6F6E6578 PUSH1 0x44 DUP3 ADD MSTORE PUSH12 0x34B9BA32B73A103A37B5B2B7 PUSH1 0xA1 SHL PUSH1 0x64 DUP3 ADD MSTORE PUSH1 0x84 ADD JUMPDEST PUSH1 0x40 MLOAD DUP1 SWAP2 SUB SWAP1 REVERT JUMPDEST POP PUSH1 0x0 SWAP1 DUP2 MSTORE PUSH1 0x4 PUSH1 0x20 MSTORE PUSH1 0x40 SWAP1 KECCAK256 SLOAD PUSH1 0x1 PUSH1 0x1 PUSH1 0xA0 SHL SUB AND SWAP1 JUMP JUMPDEST PUSH1 0x0 PUSH2 0x4E6 DUP3 PUSH2 0x82B JUMP JUMPDEST SWAP1 POP DUP1 PUSH1 0x1 PUSH1 0x1 PUSH1 0xA0 SHL SUB AND DUP4 PUSH1 0x1 PUSH1 0x1 PUSH1 0xA0 SHL SUB AND EQ ISZERO PUSH2 0x554 JUMPI PUSH1 0x40 MLOAD PUSH3 0x461BCD PUSH1 0xE5 SHL DUP2 MSTORE PUSH1 0x20 PUSH1 0x4 DUP3 ADD MSTORE PUSH1 0x21 PUSH1 0x24 DUP3 ADD MSTORE PUSH32 0x4552433732313A20617070726F76616C20746F2063757272656E74206F776E65 PUSH1 0x44 DUP3 ADD MSTORE PUSH1 0x39 PUSH1 0xF9 SHL PUSH1 0x64 DUP3 ADD MSTORE PUSH1 0x84 ADD PUSH2 0x4B6 JUMP JUMPDEST CALLER PUSH1 0x1 PUSH1 0x1 PUSH1 0xA0 SHL SUB DUP3 AND EQ DUP1 PUSH2 0x570 JUMPI POP PUSH2 0x570 DUP2 CALLER PUSH2 0x343 JUMP JUMPDEST PUSH2 0x5E2 JUMPI PUSH1 0x40 MLOAD PUSH3 0x461BCD PUSH1 0xE5 SHL DUP2 MSTORE PUSH1 0x20 PUSH1 0x4 DUP3 ADD MSTORE PUSH1 0x38 PUSH1 0x24 DUP3 ADD MSTORE PUSH32 0x4552433732313A20617070726F76652063616C6C6572206973206E6F74206F77 PUSH1 0x44 DUP3 ADD MSTORE PUSH32 0x6E6572206E6F7220617070726F76656420666F7220616C6C0000000000000000 PUSH1 0x64 DUP3 ADD MSTORE PUSH1 0x84 ADD PUSH2 0x4B6 JUMP JUMPDEST PUSH2 0x5EC DUP4 DUP4 PUSH2 0xCA7 JUMP JUMPDEST POP POP POP JUMP JUMPDEST PUSH2 0x5FB CALLER DUP3 PUSH2 0xD15 JUMP JUMPDEST PUSH2 0x617 JUMPI PUSH1 0x40 MLOAD PUSH3 0x461BCD PUSH1 0xE5 SHL DUP2 MSTORE PUSH1 0x4 ADD PUSH2 0x4B6 SWAP1 PUSH2 0x1BDE JUMP JUMPDEST PUSH2 0x5EC DUP4 DUP4 DUP4 PUSH2 0xE0C JUMP JUMPDEST PUSH1 0x0 PUSH2 0x62D DUP4 PUSH2 0x8A2 JUMP JUMPDEST DUP3 LT PUSH2 0x68F JUMPI PUSH1 0x40 MLOAD PUSH3 0x461BCD PUSH1 0xE5 SHL DUP2 MSTORE PUSH1 0x20 PUSH1 0x4 DUP3 ADD MSTORE PUSH1 0x2B PUSH1 0x24 DUP3 ADD MSTORE PUSH32 0x455243373231456E756D657261626C653A206F776E657220696E646578206F75 PUSH1 0x44 DUP3 ADD MSTORE PUSH11 0x74206F6620626F756E6473 PUSH1 0xA8 SHL PUSH1 0x64 DUP3 ADD MSTORE PUSH1 0x84 ADD PUSH2 0x4B6 JUMP JUMPDEST POP PUSH1 0x1 PUSH1 0x1 PUSH1 0xA0 SHL SUB SWAP2 SWAP1 SWAP2 AND PUSH1 0x0 SWAP1 DUP2 MSTORE PUSH1 0x6 PUSH1 0x20 SWAP1 DUP2 MSTORE PUSH1 0x40 DUP1 DUP4 KECCAK256 SWAP4 DUP4 MSTORE SWAP3 SWAP1 MSTORE KECCAK256 SLOAD SWAP1 JUMP JUMPDEST PUSH1 0x0 PUSH2 0x6C3 PUSH1 0xB SLOAD SWAP1 JUMP JUMPDEST SWAP1 POP PUSH1 0x7 PUSH2 0x6D1 DUP3 DUP5 PUSH2 0xFB3 JUMP JUMPDEST GT ISZERO PUSH2 0x717 JUMPI PUSH1 0x40 MLOAD PUSH3 0x461BCD PUSH1 0xE5 SHL DUP2 MSTORE PUSH1 0x20 PUSH1 0x4 DUP3 ADD MSTORE PUSH1 0x15 PUSH1 0x24 DUP3 ADD MSTORE PUSH21 0x4E6F7420656E6F756768204E465473206C65667421 PUSH1 0x58 SHL PUSH1 0x44 DUP3 ADD MSTORE PUSH1 0x64 ADD PUSH2 0x4B6 JUMP JUMPDEST PUSH1 0x0 JUMPDEST DUP3 DUP2 LT ISZERO PUSH2 0x5EC JUMPI PUSH2 0x72A PUSH2 0xFBF JUMP JUMPDEST DUP1 PUSH2 0x734 DUP2 PUSH2 0x1CD9 JUMP JUMPDEST SWAP2 POP POP PUSH2 0x71A JUMP JUMPDEST PUSH2 0x5EC DUP4 DUP4 DUP4 PUSH1 0x40 MLOAD DUP1 PUSH1 0x20 ADD PUSH1 0x40 MSTORE DUP1 PUSH1 0x0 DUP2 MSTORE POP PUSH2 0xA1B JUMP JUMPDEST PUSH1 0x0 PUSH2 0x762 PUSH1 0x8 SLOAD SWAP1 JUMP JUMPDEST DUP3 LT PUSH2 0x7C5 JUMPI PUSH1 0x40 MLOAD PUSH3 0x461BCD PUSH1 0xE5 SHL DUP2 MSTORE PUSH1 0x20 PUSH1 0x4 DUP3 ADD MSTORE PUSH1 0x2C PUSH1 0x24 DUP3 ADD MSTORE PUSH32 0x455243373231456E756D657261626C653A20676C6F62616C20696E646578206F PUSH1 0x44 DUP3 ADD MSTORE PUSH12 0x7574206F6620626F756E6473 PUSH1 0xA0 SHL PUSH1 0x64 DUP3 ADD MSTORE PUSH1 0x84 ADD PUSH2 0x4B6 JUMP JUMPDEST PUSH1 0x8 DUP3 DUP2 SLOAD DUP2 LT PUSH2 0x7D8 JUMPI PUSH2 0x7D8 PUSH2 0x1D4A JUMP JUMPDEST SWAP1 PUSH1 0x0 MSTORE PUSH1 0x20 PUSH1 0x0 KECCAK256 ADD SLOAD SWAP1 POP SWAP2 SWAP1 POP JUMP JUMPDEST PUSH1 0xA SLOAD PUSH1 0x1 PUSH1 0x1 PUSH1 0xA0 SHL SUB AND CALLER EQ PUSH2 0x814 JUMPI PUSH1 0x40 MLOAD PUSH3 0x461BCD PUSH1 0xE5 SHL DUP2 MSTORE PUSH1 0x4 ADD PUSH2 0x4B6 SWAP1 PUSH2 0x1BA9 JUMP JUMPDEST DUP1 MLOAD PUSH2 0x827 SWAP1 PUSH1 0xC SWAP1 PUSH1 0x20 DUP5 ADD SWAP1 PUSH2 0x1735 JUMP JUMPDEST POP POP JUMP JUMPDEST PUSH1 0x0 DUP2 DUP2 MSTORE PUSH1 0x2 PUSH1 0x20 MSTORE PUSH1 0x40 DUP2 KECCAK256 SLOAD PUSH1 0x1 PUSH1 0x1 PUSH1 0xA0 SHL SUB AND DUP1 PUSH2 0x3A9 JUMPI PUSH1 0x40 MLOAD PUSH3 0x461BCD PUSH1 0xE5 SHL DUP2 MSTORE PUSH1 0x20 PUSH1 0x4 DUP3 ADD MSTORE PUSH1 0x29 PUSH1 0x24 DUP3 ADD MSTORE PUSH32 0x4552433732313A206F776E657220717565727920666F72206E6F6E6578697374 PUSH1 0x44 DUP3 ADD MSTORE PUSH9 0x32B73A103A37B5B2B7 PUSH1 0xB9 SHL PUSH1 0x64 DUP3 ADD MSTORE PUSH1 0x84 ADD PUSH2 0x4B6 JUMP JUMPDEST PUSH1 0x0 PUSH1 0x1 PUSH1 0x1 PUSH1 0xA0 SHL SUB DUP3 AND PUSH2 0x90D JUMPI PUSH1 0x40 MLOAD PUSH3 0x461BCD PUSH1 0xE5 SHL DUP2 MSTORE PUSH1 0x20 PUSH1 0x4 DUP3 ADD MSTORE PUSH1 0x2A PUSH1 0x24 DUP3 ADD MSTORE PUSH32 0x4552433732313A2062616C616E636520717565727920666F7220746865207A65 PUSH1 0x44 DUP3 ADD MSTORE PUSH10 0x726F2061646472657373 PUSH1 0xB0 SHL PUSH1 0x64 DUP3 ADD MSTORE PUSH1 0x84 ADD PUSH2 0x4B6 JUMP JUMPDEST POP PUSH1 0x1 PUSH1 0x1 PUSH1 0xA0 SHL SUB AND PUSH1 0x0 SWAP1 DUP2 MSTORE PUSH1 0x3 PUSH1 0x20 MSTORE PUSH1 0x40 SWAP1 KECCAK256 SLOAD SWAP1 JUMP JUMPDEST PUSH1 0xA SLOAD PUSH1 0x1 PUSH1 0x1 PUSH1 0xA0 SHL SUB AND CALLER EQ PUSH2 0x953 JUMPI PUSH1 0x40 MLOAD PUSH3 0x461BCD PUSH1 0xE5 SHL DUP2 MSTORE PUSH1 0x4 ADD PUSH2 0x4B6 SWAP1 PUSH2 0x1BA9 JUMP JUMPDEST PUSH2 0x95D PUSH1 0x0 PUSH2 0xFE4 JUMP JUMPDEST JUMP JUMPDEST PUSH1 0x60 PUSH1 0x0 PUSH2 0x96C DUP4 PUSH2 0x8A2 JUMP JUMPDEST SWAP1 POP PUSH1 0x0 DUP2 PUSH8 0xFFFFFFFFFFFFFFFF DUP2 GT ISZERO PUSH2 0x989 JUMPI PUSH2 0x989 PUSH2 0x1D60 JUMP JUMPDEST PUSH1 0x40 MLOAD SWAP1 DUP1 DUP3 MSTORE DUP1 PUSH1 0x20 MUL PUSH1 0x20 ADD DUP3 ADD PUSH1 0x40 MSTORE DUP1 ISZERO PUSH2 0x9B2 JUMPI DUP2 PUSH1 0x20 ADD PUSH1 0x20 DUP3 MUL DUP1 CALLDATASIZE DUP4 CALLDATACOPY ADD SWAP1 POP JUMPDEST POP SWAP1 POP PUSH1 0x0 JUMPDEST DUP3 DUP2 LT ISZERO PUSH2 0x9F9 JUMPI PUSH2 0x9CA DUP6 DUP3 PUSH2 0x622 JUMP JUMPDEST DUP3 DUP3 DUP2 MLOAD DUP2 LT PUSH2 0x9DC JUMPI PUSH2 0x9DC PUSH2 0x1D4A JUMP JUMPDEST PUSH1 0x20 SWAP1 DUP2 MUL SWAP2 SWAP1 SWAP2 ADD ADD MSTORE DUP1 PUSH2 0x9F1 DUP2 PUSH2 0x1CD9 JUMP JUMPDEST SWAP2 POP POP PUSH2 0x9B8 JUMP JUMPDEST POP SWAP4 SWAP3 POP POP POP JUMP JUMPDEST PUSH1 0x60 PUSH1 0x1 DUP1 SLOAD PUSH2 0x3BE SWAP1 PUSH2 0x1C9E JUMP JUMPDEST PUSH2 0x827 CALLER DUP4 DUP4 PUSH2 0x1036 JUMP JUMPDEST PUSH2 0xA25 CALLER DUP4 PUSH2 0xD15 JUMP JUMPDEST PUSH2 0xA41 JUMPI PUSH1 0x40 MLOAD PUSH3 0x461BCD PUSH1 0xE5 SHL DUP2 MSTORE PUSH1 0x4 ADD PUSH2 0x4B6 SWAP1 PUSH2 0x1BDE JUMP JUMPDEST PUSH2 0xA4D DUP5 DUP5 DUP5 DUP5 PUSH2 0x1105 JUMP JUMPDEST POP POP POP POP JUMP JUMPDEST PUSH1 0x0 DUP2 DUP2 MSTORE PUSH1 0x2 PUSH1 0x20 MSTORE PUSH1 0x40 SWAP1 KECCAK256 SLOAD PUSH1 0x60 SWAP1 PUSH1 0x1 PUSH1 0x1 PUSH1 0xA0 SHL SUB AND PUSH2 0xAD2 JUMPI PUSH1 0x40 MLOAD PUSH3 0x461BCD PUSH1 0xE5 SHL DUP2 MSTORE PUSH1 0x20 PUSH1 0x4 DUP3 ADD MSTORE PUSH1 0x2F PUSH1 0x24 DUP3 ADD MSTORE PUSH32 0x4552433732314D657461646174613A2055524920717565727920666F72206E6F PUSH1 0x44 DUP3 ADD MSTORE PUSH15 0x3732BC34B9BA32B73A103A37B5B2B7 PUSH1 0x89 SHL PUSH1 0x64 DUP3 ADD MSTORE PUSH1 0x84 ADD PUSH2 0x4B6 JUMP JUMPDEST PUSH1 0x0 PUSH2 0xADC PUSH2 0x1138 JUMP JUMPDEST SWAP1 POP PUSH1 0x0 DUP2 MLOAD GT PUSH2 0xAFC JUMPI PUSH1 0x40 MLOAD DUP1 PUSH1 0x20 ADD PUSH1 0x40 MSTORE DUP1 PUSH1 0x0 DUP2 MSTORE POP PUSH2 0xB27 JUMP JUMPDEST DUP1 PUSH2 0xB06 DUP5 PUSH2 0x1147 JUMP JUMPDEST PUSH1 0x40 MLOAD PUSH1 0x20 ADD PUSH2 0xB17 SWAP3 SWAP2 SWAP1 PUSH2 0x1A94 JUMP JUMPDEST PUSH1 0x40 MLOAD PUSH1 0x20 DUP2 DUP4 SUB SUB DUP2 MSTORE SWAP1 PUSH1 0x40 MSTORE JUMPDEST SWAP4 SWAP3 POP POP POP JUMP JUMPDEST PUSH1 0xC DUP1 SLOAD PUSH2 0xB3B SWAP1 PUSH2 0x1C9E JUMP JUMPDEST DUP1 PUSH1 0x1F ADD PUSH1 0x20 DUP1 SWAP2 DIV MUL PUSH1 0x20 ADD PUSH1 0x40 MLOAD SWAP1 DUP2 ADD PUSH1 0x40 MSTORE DUP1 SWAP3 SWAP2 SWAP1 DUP2 DUP2 MSTORE PUSH1 0x20 ADD DUP3 DUP1 SLOAD PUSH2 0xB67 SWAP1 PUSH2 0x1C9E JUMP JUMPDEST DUP1 ISZERO PUSH2 0xBB4 JUMPI DUP1 PUSH1 0x1F LT PUSH2 0xB89 JUMPI PUSH2 0x100 DUP1 DUP4 SLOAD DIV MUL DUP4 MSTORE SWAP2 PUSH1 0x20 ADD SWAP2 PUSH2 0xBB4 JUMP JUMPDEST DUP3 ADD SWAP2 SWAP1 PUSH1 0x0 MSTORE PUSH1 0x20 PUSH1 0x0 KECCAK256 SWAP1 JUMPDEST DUP2 SLOAD DUP2 MSTORE SWAP1 PUSH1 0x1 ADD SWAP1 PUSH1 0x20 ADD DUP1 DUP4 GT PUSH2 0xB97 JUMPI DUP3 SWAP1 SUB PUSH1 0x1F AND DUP3 ADD SWAP2 JUMPDEST POP POP POP POP POP DUP2 JUMP JUMPDEST PUSH1 0xA SLOAD PUSH1 0x1 PUSH1 0x1 PUSH1 0xA0 SHL SUB AND CALLER EQ PUSH2 0xBE6 JUMPI PUSH1 0x40 MLOAD PUSH3 0x461BCD PUSH1 0xE5 SHL DUP2 MSTORE PUSH1 0x4 ADD PUSH2 0x4B6 SWAP1 PUSH2 0x1BA9 JUMP JUMPDEST PUSH1 0x1 PUSH1 0x1 PUSH1 0xA0 SHL SUB DUP2 AND PUSH2 0xC4B JUMPI PUSH1 0x40 MLOAD PUSH3 0x461BCD PUSH1 0xE5 SHL DUP2 MSTORE PUSH1 0x20 PUSH1 0x4 DUP3 ADD MSTORE PUSH1 0x26 PUSH1 0x24 DUP3 ADD MSTORE PUSH32 0x4F776E61626C653A206E6577206F776E657220697320746865207A65726F2061 PUSH1 0x44 DUP3 ADD MSTORE PUSH6 0x646472657373 PUSH1 0xD0 SHL PUSH1 0x64 DUP3 ADD MSTORE PUSH1 0x84 ADD PUSH2 0x4B6 JUMP JUMPDEST PUSH2 0xC54 DUP2 PUSH2 0xFE4 JUMP JUMPDEST POP JUMP JUMPDEST PUSH1 0x0 PUSH1 0x1 PUSH1 0x1 PUSH1 0xE0 SHL SUB NOT DUP3 AND PUSH4 0x80AC58CD PUSH1 0xE0 SHL EQ DUP1 PUSH2 0xC88 JUMPI POP PUSH1 0x1 PUSH1 0x1 PUSH1 0xE0 SHL SUB NOT DUP3 AND PUSH4 0x5B5E139F PUSH1 0xE0 SHL EQ JUMPDEST DUP1 PUSH2 0x3A9 JUMPI POP PUSH4 0x1FFC9A7 PUSH1 0xE0 SHL PUSH1 0x1 PUSH1 0x1 PUSH1 0xE0 SHL SUB NOT DUP4 AND EQ PUSH2 0x3A9 JUMP JUMPDEST PUSH1 0x0 DUP2 DUP2 MSTORE PUSH1 0x4 PUSH1 0x20 MSTORE PUSH1 0x40 SWAP1 KECCAK256 DUP1 SLOAD PUSH1 0x1 PUSH1 0x1 PUSH1 0xA0 SHL SUB NOT AND PUSH1 0x1 PUSH1 0x1 PUSH1 0xA0 SHL SUB DUP5 AND SWAP1 DUP2 OR SWAP1 SWAP2 SSTORE DUP2 SWAP1 PUSH2 0xCDC DUP3 PUSH2 0x82B JUMP JUMPDEST PUSH1 0x1 PUSH1 0x1 PUSH1 0xA0 SHL SUB AND PUSH32 0x8C5BE1E5EBEC7D5BD14F71427D1E84F3DD0314C0F7B2291E5B200AC8C7C3B925 PUSH1 0x40 MLOAD PUSH1 0x40 MLOAD DUP1 SWAP2 SUB SWAP1 LOG4 POP POP JUMP JUMPDEST PUSH1 0x0 DUP2 DUP2 MSTORE PUSH1 0x2 PUSH1 0x20 MSTORE PUSH1 0x40 DUP2 KECCAK256 SLOAD PUSH1 0x1 PUSH1 0x1 PUSH1 0xA0 SHL SUB AND PUSH2 0xD8E JUMPI PUSH1 0x40 MLOAD PUSH3 0x461BCD PUSH1 0xE5 SHL DUP2 MSTORE PUSH1 0x20 PUSH1 0x4 DUP3 ADD MSTORE PUSH1 0x2C PUSH1 0x24 DUP3 ADD MSTORE PUSH32 0x4552433732313A206F70657261746F7220717565727920666F72206E6F6E6578 PUSH1 0x44 DUP3 ADD MSTORE PUSH12 0x34B9BA32B73A103A37B5B2B7 PUSH1 0xA1 SHL PUSH1 0x64 DUP3 ADD MSTORE PUSH1 0x84 ADD PUSH2 0x4B6 JUMP JUMPDEST PUSH1 0x0 PUSH2 0xD99 DUP4 PUSH2 0x82B JUMP JUMPDEST SWAP1 POP DUP1 PUSH1 0x1 PUSH1 0x1 PUSH1 0xA0 SHL SUB AND DUP5 PUSH1 0x1 PUSH1 0x1 PUSH1 0xA0 SHL SUB AND EQ DUP1 PUSH2 0xDD4 JUMPI POP DUP4 PUSH1 0x1 PUSH1 0x1 PUSH1 0xA0 SHL SUB AND PUSH2 0xDC9 DUP5 PUSH2 0x441 JUMP JUMPDEST PUSH1 0x1 PUSH1 0x1 PUSH1 0xA0 SHL SUB AND EQ JUMPDEST DUP1 PUSH2 0xE04 JUMPI POP PUSH1 0x1 PUSH1 0x1 PUSH1 0xA0 SHL SUB DUP1 DUP3 AND PUSH1 0x0 SWAP1 DUP2 MSTORE PUSH1 0x5 PUSH1 0x20 SWAP1 DUP2 MSTORE PUSH1 0x40 DUP1 DUP4 KECCAK256 SWAP4 DUP9 AND DUP4 MSTORE SWAP3 SWAP1 MSTORE KECCAK256 SLOAD PUSH1 0xFF AND JUMPDEST SWAP5 SWAP4 POP POP POP POP JUMP JUMPDEST DUP3 PUSH1 0x1 PUSH1 0x1 PUSH1 0xA0 SHL SUB AND PUSH2 0xE1F DUP3 PUSH2 0x82B JUMP JUMPDEST PUSH1 0x1 PUSH1 0x1 PUSH1 0xA0 SHL SUB AND EQ PUSH2 0xE83 JUMPI PUSH1 0x40 MLOAD PUSH3 0x461BCD PUSH1 0xE5 SHL DUP2 MSTORE PUSH1 0x20 PUSH1 0x4 DUP3 ADD MSTORE PUSH1 0x25 PUSH1 0x24 DUP3 ADD MSTORE PUSH32 0x4552433732313A207472616E736665722066726F6D20696E636F727265637420 PUSH1 0x44 DUP3 ADD MSTORE PUSH5 0x37BBB732B9 PUSH1 0xD9 SHL PUSH1 0x64 DUP3 ADD MSTORE PUSH1 0x84 ADD PUSH2 0x4B6 JUMP JUMPDEST PUSH1 0x1 PUSH1 0x1 PUSH1 0xA0 SHL SUB DUP3 AND PUSH2 0xEE5 JUMPI PUSH1 0x40 MLOAD PUSH3 0x461BCD PUSH1 0xE5 SHL DUP2 MSTORE PUSH1 0x20 PUSH1 0x4 DUP3 ADD MSTORE PUSH1 0x24 DUP1 DUP3 ADD MSTORE PUSH32 0x4552433732313A207472616E7366657220746F20746865207A65726F20616464 PUSH1 0x44 DUP3 ADD MSTORE PUSH4 0x72657373 PUSH1 0xE0 SHL PUSH1 0x64 DUP3 ADD MSTORE PUSH1 0x84 ADD PUSH2 0x4B6 JUMP JUMPDEST PUSH2 0xEF0 DUP4 DUP4 DUP4 PUSH2 0x1245 JUMP JUMPDEST PUSH2 0xEFB PUSH1 0x0 DUP3 PUSH2 0xCA7 JUMP JUMPDEST PUSH1 0x1 PUSH1 0x1 PUSH1 0xA0 SHL SUB DUP4 AND PUSH1 0x0 SWAP1 DUP2 MSTORE PUSH1 0x3 PUSH1 0x20 MSTORE PUSH1 0x40 DUP2 KECCAK256 DUP1 SLOAD PUSH1 0x1 SWAP3 SWAP1 PUSH2 0xF24 SWAP1 DUP5 SWAP1 PUSH2 0x1C5B JUMP JUMPDEST SWAP1 SWAP2 SSTORE POP POP PUSH1 0x1 PUSH1 0x1 PUSH1 0xA0 SHL SUB DUP3 AND PUSH1 0x0 SWAP1 DUP2 MSTORE PUSH1 0x3 PUSH1 0x20 MSTORE PUSH1 0x40 DUP2 KECCAK256 DUP1 SLOAD PUSH1 0x1 SWAP3 SWAP1 PUSH2 0xF52 SWAP1 DUP5 SWAP1 PUSH2 0x1C2F JUMP JUMPDEST SWAP1 SWAP2 SSTORE POP POP PUSH1 0x0 DUP2 DUP2 MSTORE PUSH1 0x2 PUSH1 0x20 MSTORE PUSH1 0x40 DUP1 DUP3 KECCAK256 DUP1 SLOAD PUSH1 0x1 PUSH1 0x1 PUSH1 0xA0 SHL SUB NOT AND PUSH1 0x1 PUSH1 0x1 PUSH1 0xA0 SHL SUB DUP7 DUP2 AND SWAP2 DUP3 OR SWAP1 SWAP3 SSTORE SWAP2 MLOAD DUP5 SWAP4 SWAP2 DUP8 AND SWAP2 PUSH32 0xDDF252AD1BE2C89B69C2B068FC378DAA952BA7F163C4A11628F55A4DF523B3EF SWAP2 LOG4 POP POP POP JUMP JUMPDEST PUSH1 0x0 PUSH2 0xB27 DUP3 DUP5 PUSH2 0x1C2F JUMP JUMPDEST PUSH1 0x0 PUSH2 0xFCA PUSH1 0xB SLOAD SWAP1 JUMP JUMPDEST SWAP1 POP PUSH2 0xFD6 CALLER DUP3 PUSH2 0x12FD JUMP JUMPDEST PUSH2 0xC54 PUSH1 0xB DUP1 SLOAD PUSH1 0x1 ADD SWAP1 SSTORE JUMP JUMPDEST PUSH1 0xA DUP1 SLOAD PUSH1 0x1 PUSH1 0x1 PUSH1 0xA0 SHL SUB DUP4 DUP2 AND PUSH1 0x1 PUSH1 0x1 PUSH1 0xA0 SHL SUB NOT DUP4 AND DUP2 OR SWAP1 SWAP4 SSTORE PUSH1 0x40 MLOAD SWAP2 AND SWAP2 SWAP1 DUP3 SWAP1 PUSH32 0x8BE0079C531659141344CD1FD0A4F28419497F9722A3DAAFE3B4186F6B6457E0 SWAP1 PUSH1 0x0 SWAP1 LOG3 POP POP JUMP JUMPDEST DUP2 PUSH1 0x1 PUSH1 0x1 PUSH1 0xA0 SHL SUB AND DUP4 PUSH1 0x1 PUSH1 0x1 PUSH1 0xA0 SHL SUB AND EQ ISZERO PUSH2 0x1098 JUMPI PUSH1 0x40 MLOAD PUSH3 0x461BCD PUSH1 0xE5 SHL DUP2 MSTORE PUSH1 0x20 PUSH1 0x4 DUP3 ADD MSTORE PUSH1 0x19 PUSH1 0x24 DUP3 ADD MSTORE PUSH32 0x4552433732313A20617070726F766520746F2063616C6C657200000000000000 PUSH1 0x44 DUP3 ADD MSTORE PUSH1 0x64 ADD PUSH2 0x4B6 JUMP JUMPDEST PUSH1 0x1 PUSH1 0x1 PUSH1 0xA0 SHL SUB DUP4 DUP2 AND PUSH1 0x0 DUP2 DUP2 MSTORE PUSH1 0x5 PUSH1 0x20 SWAP1 DUP2 MSTORE PUSH1 0x40 DUP1 DUP4 KECCAK256 SWAP5 DUP8 AND DUP1 DUP5 MSTORE SWAP5 DUP3 MSTORE SWAP2 DUP3 SWAP1 KECCAK256 DUP1 SLOAD PUSH1 0xFF NOT AND DUP7 ISZERO ISZERO SWAP1 DUP2 OR SWAP1 SWAP2 SSTORE SWAP2 MLOAD SWAP2 DUP3 MSTORE PUSH32 0x17307EAB39AB6107E8899845AD3D59BD9653F200F220920489CA2B5937696C31 SWAP2 ADD PUSH1 0x40 MLOAD DUP1 SWAP2 SUB SWAP1 LOG3 POP POP POP JUMP JUMPDEST PUSH2 0x1110 DUP5 DUP5 DUP5 PUSH2 0xE0C JUMP JUMPDEST PUSH2 0x111C DUP5 DUP5 DUP5 DUP5 PUSH2 0x1317 JUMP JUMPDEST PUSH2 0xA4D JUMPI PUSH1 0x40 MLOAD PUSH3 0x461BCD PUSH1 0xE5 SHL DUP2 MSTORE PUSH1 0x4 ADD PUSH2 0x4B6 SWAP1 PUSH2 0x1B57 JUMP JUMPDEST PUSH1 0x60 PUSH1 0xC DUP1 SLOAD PUSH2 0x3BE SWAP1 PUSH2 0x1C9E JUMP JUMPDEST PUSH1 0x60 DUP2 PUSH2 0x116B JUMPI POP POP PUSH1 0x40 DUP1 MLOAD DUP1 DUP3 ADD SWAP1 SWAP2 MSTORE PUSH1 0x1 DUP2 MSTORE PUSH1 0x3 PUSH1 0xFC SHL PUSH1 0x20 DUP3 ADD MSTORE SWAP1 JUMP JUMPDEST DUP2 PUSH1 0x0 JUMPDEST DUP2 ISZERO PUSH2 0x1195 JUMPI DUP1 PUSH2 0x117F DUP2 PUSH2 0x1CD9 JUMP JUMPDEST SWAP2 POP PUSH2 0x118E SWAP1 POP PUSH1 0xA DUP4 PUSH2 0x1C47 JUMP JUMPDEST SWAP2 POP PUSH2 0x116F JUMP JUMPDEST PUSH1 0x0 DUP2 PUSH8 0xFFFFFFFFFFFFFFFF DUP2 GT ISZERO PUSH2 0x11B0 JUMPI PUSH2 0x11B0 PUSH2 0x1D60 JUMP JUMPDEST PUSH1 0x40 MLOAD SWAP1 DUP1 DUP3 MSTORE DUP1 PUSH1 0x1F ADD PUSH1 0x1F NOT AND PUSH1 0x20 ADD DUP3 ADD PUSH1 0x40 MSTORE DUP1 ISZERO PUSH2 0x11DA JUMPI PUSH1 0x20 DUP3 ADD DUP2 DUP1 CALLDATASIZE DUP4 CALLDATACOPY ADD SWAP1 POP JUMPDEST POP SWAP1 POP JUMPDEST DUP5 ISZERO PUSH2 0xE04 JUMPI PUSH2 0x11EF PUSH1 0x1 DUP4 PUSH2 0x1C5B JUMP JUMPDEST SWAP2 POP PUSH2 0x11FC PUSH1 0xA DUP7 PUSH2 0x1CF4 JUMP JUMPDEST PUSH2 0x1207 SWAP1 PUSH1 0x30 PUSH2 0x1C2F JUMP JUMPDEST PUSH1 0xF8 SHL DUP2 DUP4 DUP2 MLOAD DUP2 LT PUSH2 0x121C JUMPI PUSH2 0x121C PUSH2 0x1D4A JUMP JUMPDEST PUSH1 0x20 ADD ADD SWAP1 PUSH1 0x1 PUSH1 0x1 PUSH1 0xF8 SHL SUB NOT AND SWAP1 DUP2 PUSH1 0x0 BYTE SWAP1 MSTORE8 POP PUSH2 0x123E PUSH1 0xA DUP7 PUSH2 0x1C47 JUMP JUMPDEST SWAP5 POP PUSH2 0x11DE JUMP JUMPDEST PUSH1 0x1 PUSH1 0x1 PUSH1 0xA0 SHL SUB DUP4 AND PUSH2 0x12A0 JUMPI PUSH2 0x129B DUP2 PUSH1 0x8 DUP1 SLOAD PUSH1 0x0 DUP4 DUP2 MSTORE PUSH1 0x9 PUSH1 0x20 MSTORE PUSH1 0x40 DUP2 KECCAK256 DUP3 SWAP1 SSTORE PUSH1 0x1 DUP3 ADD DUP4 SSTORE SWAP2 SWAP1 SWAP2 MSTORE PUSH32 0xF3F7A9FE364FAAB93B216DA50A3214154F22A0A2B415B23A84C8169E8B636EE3 ADD SSTORE JUMP JUMPDEST PUSH2 0x12C3 JUMP JUMPDEST DUP2 PUSH1 0x1 PUSH1 0x1 PUSH1 0xA0 SHL SUB AND DUP4 PUSH1 0x1 PUSH1 0x1 PUSH1 0xA0 SHL SUB AND EQ PUSH2 0x12C3 JUMPI PUSH2 0x12C3 DUP4 DUP3 PUSH2 0x1424 JUMP JUMPDEST PUSH1 0x1 PUSH1 0x1 PUSH1 0xA0 SHL SUB DUP3 AND PUSH2 0x12DA JUMPI PUSH2 0x5EC DUP2 PUSH2 0x14C1 JUMP JUMPDEST DUP3 PUSH1 0x1 PUSH1 0x1 PUSH1 0xA0 SHL SUB AND DUP3 PUSH1 0x1 PUSH1 0x1 PUSH1 0xA0 SHL SUB AND EQ PUSH2 0x5EC JUMPI PUSH2 0x5EC DUP3 DUP3 PUSH2 0x1570 JUMP JUMPDEST PUSH2 0x827 DUP3 DUP3 PUSH1 0x40 MLOAD DUP1 PUSH1 0x20 ADD PUSH1 0x40 MSTORE DUP1 PUSH1 0x0 DUP2 MSTORE POP PUSH2 0x15B4 JUMP JUMPDEST PUSH1 0x0 PUSH1 0x1 PUSH1 0x1 PUSH1 0xA0 SHL SUB DUP5 AND EXTCODESIZE ISZERO PUSH2 0x1419 JUMPI PUSH1 0x40 MLOAD PUSH4 0xA85BD01 PUSH1 0xE1 SHL DUP2 MSTORE PUSH1 0x1 PUSH1 0x1 PUSH1 0xA0 SHL SUB DUP6 AND SWAP1 PUSH4 0x150B7A02 SWAP1 PUSH2 0x135B SWAP1 CALLER SWAP1 DUP10 SWAP1 DUP9 SWAP1 DUP9 SWAP1 PUSH1 0x4 ADD PUSH2 0x1AC3 JUMP JUMPDEST PUSH1 0x20 PUSH1 0x40 MLOAD DUP1 DUP4 SUB DUP2 PUSH1 0x0 DUP8 DUP1 EXTCODESIZE ISZERO DUP1 ISZERO PUSH2 0x1375 JUMPI PUSH1 0x0 DUP1 REVERT JUMPDEST POP GAS CALL SWAP3 POP POP POP DUP1 ISZERO PUSH2 0x13A5 JUMPI POP PUSH1 0x40 DUP1 MLOAD PUSH1 0x1F RETURNDATASIZE SWAP1 DUP2 ADD PUSH1 0x1F NOT AND DUP3 ADD SWAP1 SWAP3 MSTORE PUSH2 0x13A2 SWAP2 DUP2 ADD SWAP1 PUSH2 0x19E9 JUMP JUMPDEST PUSH1 0x1 JUMPDEST PUSH2 0x13FF JUMPI RETURNDATASIZE DUP1 DUP1 ISZERO PUSH2 0x13D3 JUMPI PUSH1 0x40 MLOAD SWAP2 POP PUSH1 0x1F NOT PUSH1 0x3F RETURNDATASIZE ADD AND DUP3 ADD PUSH1 0x40 MSTORE RETURNDATASIZE DUP3 MSTORE RETURNDATASIZE PUSH1 0x0 PUSH1 0x20 DUP5 ADD RETURNDATACOPY PUSH2 0x13D8 JUMP JUMPDEST PUSH1 0x60 SWAP2 POP JUMPDEST POP DUP1 MLOAD PUSH2 0x13F7 JUMPI PUSH1 0x40 MLOAD PUSH3 0x461BCD PUSH1 0xE5 SHL DUP2 MSTORE PUSH1 0x4 ADD PUSH2 0x4B6 SWAP1 PUSH2 0x1B57 JUMP JUMPDEST DUP1 MLOAD DUP2 PUSH1 0x20 ADD REVERT JUMPDEST PUSH1 0x1 PUSH1 0x1 PUSH1 0xE0 SHL SUB NOT AND PUSH4 0xA85BD01 PUSH1 0xE1 SHL EQ SWAP1 POP PUSH2 0xE04 JUMP JUMPDEST POP PUSH1 0x1 SWAP5 SWAP4 POP POP POP POP JUMP JUMPDEST PUSH1 0x0 PUSH1 0x1 PUSH2 0x1431 DUP5 PUSH2 0x8A2 JUMP JUMPDEST PUSH2 0x143B SWAP2 SWAP1 PUSH2 0x1C5B JUMP JUMPDEST PUSH1 0x0 DUP4 DUP2 MSTORE PUSH1 0x7 PUSH1 0x20 MSTORE PUSH1 0x40 SWAP1 KECCAK256 SLOAD SWAP1 SWAP2 POP DUP1 DUP3 EQ PUSH2 0x148E JUMPI PUSH1 0x1 PUSH1 0x1 PUSH1 0xA0 SHL SUB DUP5 AND PUSH1 0x0 SWAP1 DUP2 MSTORE PUSH1 0x6 PUSH1 0x20 SWAP1 DUP2 MSTORE PUSH1 0x40 DUP1 DUP4 KECCAK256 DUP6 DUP5 MSTORE DUP3 MSTORE DUP1 DUP4 KECCAK256 SLOAD DUP5 DUP5 MSTORE DUP2 DUP5 KECCAK256 DUP2 SWAP1 SSTORE DUP4 MSTORE PUSH1 0x7 SWAP1 SWAP2 MSTORE SWAP1 KECCAK256 DUP2 SWAP1 SSTORE JUMPDEST POP PUSH1 0x0 SWAP2 DUP3 MSTORE PUSH1 0x7 PUSH1 0x20 SWAP1 DUP2 MSTORE PUSH1 0x40 DUP1 DUP5 KECCAK256 DUP5 SWAP1 SSTORE PUSH1 0x1 PUSH1 0x1 PUSH1 0xA0 SHL SUB SWAP1 SWAP5 AND DUP4 MSTORE PUSH1 0x6 DUP2 MSTORE DUP4 DUP4 KECCAK256 SWAP2 DUP4 MSTORE MSTORE SWAP1 DUP2 KECCAK256 SSTORE JUMP JUMPDEST PUSH1 0x8 SLOAD PUSH1 0x0 SWAP1 PUSH2 0x14D3 SWAP1 PUSH1 0x1 SWAP1 PUSH2 0x1C5B JUMP JUMPDEST PUSH1 0x0 DUP4 DUP2 MSTORE PUSH1 0x9 PUSH1 0x20 MSTORE PUSH1 0x40 DUP2 KECCAK256 SLOAD PUSH1 0x8 DUP1 SLOAD SWAP4 SWAP5 POP SWAP1 SWAP3 DUP5 SWAP1 DUP2 LT PUSH2 0x14FB JUMPI PUSH2 0x14FB PUSH2 0x1D4A JUMP JUMPDEST SWAP1 PUSH1 0x0 MSTORE PUSH1 0x20 PUSH1 0x0 KECCAK256 ADD SLOAD SWAP1 POP DUP1 PUSH1 0x8 DUP4 DUP2 SLOAD DUP2 LT PUSH2 0x151C JUMPI PUSH2 0x151C PUSH2 0x1D4A JUMP JUMPDEST PUSH1 0x0 SWAP2 DUP3 MSTORE PUSH1 0x20 DUP1 DUP4 KECCAK256 SWAP1 SWAP2 ADD SWAP3 SWAP1 SWAP3 SSTORE DUP3 DUP2 MSTORE PUSH1 0x9 SWAP1 SWAP2 MSTORE PUSH1 0x40 DUP1 DUP3 KECCAK256 DUP5 SWAP1 SSTORE DUP6 DUP3 MSTORE DUP2 KECCAK256 SSTORE PUSH1 0x8 DUP1 SLOAD DUP1 PUSH2 0x1554 JUMPI PUSH2 0x1554 PUSH2 0x1D34 JUMP JUMPDEST PUSH1 0x1 SWAP1 SUB DUP2 DUP2 SWAP1 PUSH1 0x0 MSTORE PUSH1 0x20 PUSH1 0x0 KECCAK256 ADD PUSH1 0x0 SWAP1 SSTORE SWAP1 SSTORE POP POP POP POP JUMP JUMPDEST PUSH1 0x0 PUSH2 0x157B DUP4 PUSH2 0x8A2 JUMP JUMPDEST PUSH1 0x1 PUSH1 0x1 PUSH1 0xA0 SHL SUB SWAP1 SWAP4 AND PUSH1 0x0 SWAP1 DUP2 MSTORE PUSH1 0x6 PUSH1 0x20 SWAP1 DUP2 MSTORE PUSH1 0x40 DUP1 DUP4 KECCAK256 DUP7 DUP5 MSTORE DUP3 MSTORE DUP1 DUP4 KECCAK256 DUP6 SWAP1 SSTORE SWAP4 DUP3 MSTORE PUSH1 0x7 SWAP1 MSTORE SWAP2 SWAP1 SWAP2 KECCAK256 SWAP2 SWAP1 SWAP2 SSTORE POP JUMP JUMPDEST PUSH2 0x15BE DUP4 DUP4 PUSH2 0x15E7 JUMP JUMPDEST PUSH2 0x15CB PUSH1 0x0 DUP5 DUP5 DUP5 PUSH2 0x1317 JUMP JUMPDEST PUSH2 0x5EC JUMPI PUSH1 0x40 MLOAD PUSH3 0x461BCD PUSH1 0xE5 SHL DUP2 MSTORE PUSH1 0x4 ADD PUSH2 0x4B6 SWAP1 PUSH2 0x1B57 JUMP JUMPDEST PUSH1 0x1 PUSH1 0x1 PUSH1 0xA0 SHL SUB DUP3 AND PUSH2 0x163D JUMPI PUSH1 0x40 MLOAD PUSH3 0x461BCD PUSH1 0xE5 SHL DUP2 MSTORE PUSH1 0x20 PUSH1 0x4 DUP3 ADD DUP2 SWAP1 MSTORE PUSH1 0x24 DUP3 ADD MSTORE PUSH32 0x4552433732313A206D696E7420746F20746865207A65726F2061646472657373 PUSH1 0x44 DUP3 ADD MSTORE PUSH1 0x64 ADD PUSH2 0x4B6 JUMP JUMPDEST PUSH1 0x0 DUP2 DUP2 MSTORE PUSH1 0x2 PUSH1 0x20 MSTORE PUSH1 0x40 SWAP1 KECCAK256 SLOAD PUSH1 0x1 PUSH1 0x1 PUSH1 0xA0 SHL SUB AND ISZERO PUSH2 0x16A2 JUMPI PUSH1 0x40 MLOAD PUSH3 0x461BCD PUSH1 0xE5 SHL DUP2 MSTORE PUSH1 0x20 PUSH1 0x4 DUP3 ADD MSTORE PUSH1 0x1C PUSH1 0x24 DUP3 ADD MSTORE PUSH32 0x4552433732313A20746F6B656E20616C7265616479206D696E74656400000000 PUSH1 0x44 DUP3 ADD MSTORE PUSH1 0x64 ADD PUSH2 0x4B6 JUMP JUMPDEST PUSH2 0x16AE PUSH1 0x0 DUP4 DUP4 PUSH2 0x1245 JUMP JUMPDEST PUSH1 0x1 PUSH1 0x1 PUSH1 0xA0 SHL SUB DUP3 AND PUSH1 0x0 SWAP1 DUP2 MSTORE PUSH1 0x3 PUSH1 0x20 MSTORE PUSH1 0x40 DUP2 KECCAK256 DUP1 SLOAD PUSH1 0x1 SWAP3 SWAP1 PUSH2 0x16D7 SWAP1 DUP5 SWAP1 PUSH2 0x1C2F JUMP JUMPDEST SWAP1 SWAP2 SSTORE POP POP PUSH1 0x0 DUP2 DUP2 MSTORE PUSH1 0x2 PUSH1 0x20 MSTORE PUSH1 0x40 DUP1 DUP3 KECCAK256 DUP1 SLOAD PUSH1 0x1 PUSH1 0x1 PUSH1 0xA0 SHL SUB NOT AND PUSH1 0x1 PUSH1 0x1 PUSH1 0xA0 SHL SUB DUP7 AND SWAP1 DUP2 OR SWAP1 SWAP2 SSTORE SWAP1 MLOAD DUP4 SWAP3 SWAP1 PUSH32 0xDDF252AD1BE2C89B69C2B068FC378DAA952BA7F163C4A11628F55A4DF523B3EF SWAP1 DUP3 SWAP1 LOG4 POP POP JUMP JUMPDEST DUP3 DUP1 SLOAD PUSH2 0x1741 SWAP1 PUSH2 0x1C9E JUMP JUMPDEST SWAP1 PUSH1 0x0 MSTORE PUSH1 0x20 PUSH1 0x0 KECCAK256 SWAP1 PUSH1 0x1F ADD PUSH1 0x20 SWAP1 DIV DUP2 ADD SWAP3 DUP3 PUSH2 0x1763 JUMPI PUSH1 0x0 DUP6 SSTORE PUSH2 0x17A9 JUMP JUMPDEST DUP3 PUSH1 0x1F LT PUSH2 0x177C JUMPI DUP1 MLOAD PUSH1 0xFF NOT AND DUP4 DUP1 ADD OR DUP6 SSTORE PUSH2 0x17A9 JUMP JUMPDEST DUP3 DUP1 ADD PUSH1 0x1 ADD DUP6 SSTORE DUP3 ISZERO PUSH2 0x17A9 JUMPI SWAP2 DUP3 ADD JUMPDEST DUP3 DUP2 GT ISZERO PUSH2 0x17A9 JUMPI DUP3 MLOAD DUP3 SSTORE SWAP2 PUSH1 0x20 ADD SWAP2 SWAP1 PUSH1 0x1 ADD SWAP1 PUSH2 0x178E JUMP JUMPDEST POP PUSH2 0x17B5 SWAP3 SWAP2 POP PUSH2 0x17B9 JUMP JUMPDEST POP SWAP1 JUMP JUMPDEST JUMPDEST DUP1 DUP3 GT ISZERO PUSH2 0x17B5 JUMPI PUSH1 0x0 DUP2 SSTORE PUSH1 0x1 ADD PUSH2 0x17BA JUMP JUMPDEST PUSH1 0x0 PUSH8 0xFFFFFFFFFFFFFFFF DUP1 DUP5 GT ISZERO PUSH2 0x17E9 JUMPI PUSH2 0x17E9 PUSH2 0x1D60 JUMP JUMPDEST PUSH1 0x40 MLOAD PUSH1 0x1F DUP6 ADD PUSH1 0x1F NOT SWAP1 DUP2 AND PUSH1 0x3F ADD AND DUP2 ADD SWAP1 DUP3 DUP3 GT DUP2 DUP4 LT OR ISZERO PUSH2 0x1811 JUMPI PUSH2 0x1811 PUSH2 0x1D60 JUMP JUMPDEST DUP2 PUSH1 0x40 MSTORE DUP1 SWAP4 POP DUP6 DUP2 MSTORE DUP7 DUP7 DUP7 ADD GT ISZERO PUSH2 0x182A JUMPI PUSH1 0x0 DUP1 REVERT JUMPDEST DUP6 DUP6 PUSH1 0x20 DUP4 ADD CALLDATACOPY PUSH1 0x0 PUSH1 0x20 DUP8 DUP4 ADD ADD MSTORE POP POP POP SWAP4 SWAP3 POP POP POP JUMP JUMPDEST DUP1 CALLDATALOAD PUSH1 0x1 PUSH1 0x1 PUSH1 0xA0 SHL SUB DUP2 AND DUP2 EQ PUSH2 0x185B JUMPI PUSH1 0x0 DUP1 REVERT JUMPDEST SWAP2 SWAP1 POP JUMP JUMPDEST PUSH1 0x0 PUSH1 0x20 DUP3 DUP5 SUB SLT ISZERO PUSH2 0x1872 JUMPI PUSH1 0x0 DUP1 REVERT JUMPDEST PUSH2 0xB27 DUP3 PUSH2 0x1844 JUMP JUMPDEST PUSH1 0x0 DUP1 PUSH1 0x40 DUP4 DUP6 SUB SLT ISZERO PUSH2 0x188E JUMPI PUSH1 0x0 DUP1 REVERT JUMPDEST PUSH2 0x1897 DUP4 PUSH2 0x1844 JUMP JUMPDEST SWAP2 POP PUSH2 0x18A5 PUSH1 0x20 DUP5 ADD PUSH2 0x1844 JUMP JUMPDEST SWAP1 POP SWAP3 POP SWAP3 SWAP1 POP JUMP JUMPDEST PUSH1 0x0 DUP1 PUSH1 0x0 PUSH1 0x60 DUP5 DUP7 SUB SLT ISZERO PUSH2 0x18C3 JUMPI PUSH1 0x0 DUP1 REVERT JUMPDEST PUSH2 0x18CC DUP5 PUSH2 0x1844 JUMP JUMPDEST SWAP3 POP PUSH2 0x18DA PUSH1 0x20 DUP6 ADD PUSH2 0x1844 JUMP JUMPDEST SWAP2 POP PUSH1 0x40 DUP5 ADD CALLDATALOAD SWAP1 POP SWAP3 POP SWAP3 POP SWAP3 JUMP JUMPDEST PUSH1 0x0 DUP1 PUSH1 0x0 DUP1 PUSH1 0x80 DUP6 DUP8 SUB SLT ISZERO PUSH2 0x1900 JUMPI PUSH1 0x0 DUP1 REVERT JUMPDEST PUSH2 0x1909 DUP6 PUSH2 0x1844 JUMP JUMPDEST SWAP4 POP PUSH2 0x1917 PUSH1 0x20 DUP7 ADD PUSH2 0x1844 JUMP JUMPDEST SWAP3 POP PUSH1 0x40 DUP6 ADD CALLDATALOAD SWAP2 POP PUSH1 0x60 DUP6 ADD CALLDATALOAD PUSH8 0xFFFFFFFFFFFFFFFF DUP2 GT ISZERO PUSH2 0x193A JUMPI PUSH1 0x0 DUP1 REVERT JUMPDEST DUP6 ADD PUSH1 0x1F DUP2 ADD DUP8 SGT PUSH2 0x194B JUMPI PUSH1 0x0 DUP1 REVERT JUMPDEST PUSH2 0x195A DUP8 DUP3 CALLDATALOAD PUSH1 0x20 DUP5 ADD PUSH2 0x17CE JUMP JUMPDEST SWAP2 POP POP SWAP3 SWAP6 SWAP2 SWAP5 POP SWAP3 POP JUMP JUMPDEST PUSH1 0x0 DUP1 PUSH1 0x40 DUP4 DUP6 SUB SLT ISZERO PUSH2 0x1979 JUMPI PUSH1 0x0 DUP1 REVERT JUMPDEST PUSH2 0x1982 DUP4 PUSH2 0x1844 JUMP JUMPDEST SWAP2 POP PUSH1 0x20 DUP4 ADD CALLDATALOAD DUP1 ISZERO ISZERO DUP2 EQ PUSH2 0x1997 JUMPI PUSH1 0x0 DUP1 REVERT JUMPDEST DUP1 SWAP2 POP POP SWAP3 POP SWAP3 SWAP1 POP JUMP JUMPDEST PUSH1 0x0 DUP1 PUSH1 0x40 DUP4 DUP6 SUB SLT ISZERO PUSH2 0x19B5 JUMPI PUSH1 0x0 DUP1 REVERT JUMPDEST PUSH2 0x19BE DUP4 PUSH2 0x1844 JUMP JUMPDEST SWAP5 PUSH1 0x20 SWAP4 SWAP1 SWAP4 ADD CALLDATALOAD SWAP4 POP POP POP JUMP JUMPDEST PUSH1 0x0 PUSH1 0x20 DUP3 DUP5 SUB SLT ISZERO PUSH2 0x19DE JUMPI PUSH1 0x0 DUP1 REVERT JUMPDEST DUP2 CALLDATALOAD PUSH2 0xB27 DUP2 PUSH2 0x1D76 JUMP JUMPDEST PUSH1 0x0 PUSH1 0x20 DUP3 DUP5 SUB SLT ISZERO PUSH2 0x19FB JUMPI PUSH1 0x0 DUP1 REVERT JUMPDEST DUP2 MLOAD PUSH2 0xB27 DUP2 PUSH2 0x1D76 JUMP JUMPDEST PUSH1 0x0 PUSH1 0x20 DUP3 DUP5 SUB SLT ISZERO PUSH2 0x1A18 JUMPI PUSH1 0x0 DUP1 REVERT JUMPDEST DUP2 CALLDATALOAD PUSH8 0xFFFFFFFFFFFFFFFF DUP2 GT ISZERO PUSH2 0x1A2F JUMPI PUSH1 0x0 DUP1 REVERT JUMPDEST DUP3 ADD PUSH1 0x1F DUP2 ADD DUP5 SGT PUSH2 0x1A40 JUMPI PUSH1 0x0 DUP1 REVERT JUMPDEST PUSH2 0xE04 DUP5 DUP3 CALLDATALOAD PUSH1 0x20 DUP5 ADD PUSH2 0x17CE JUMP JUMPDEST PUSH1 0x0 PUSH1 0x20 DUP3 DUP5 SUB SLT ISZERO PUSH2 0x1A61 JUMPI PUSH1 0x0 DUP1 REVERT JUMPDEST POP CALLDATALOAD SWAP2 SWAP1 POP JUMP JUMPDEST PUSH1 0x0 DUP2 MLOAD DUP1 DUP5 MSTORE PUSH2 0x1A80 DUP2 PUSH1 0x20 DUP7 ADD PUSH1 0x20 DUP7 ADD PUSH2 0x1C72 JUMP JUMPDEST PUSH1 0x1F ADD PUSH1 0x1F NOT AND SWAP3 SWAP1 SWAP3 ADD PUSH1 0x20 ADD SWAP3 SWAP2 POP POP JUMP JUMPDEST PUSH1 0x0 DUP4 MLOAD PUSH2 0x1AA6 DUP2 DUP5 PUSH1 0x20 DUP9 ADD PUSH2 0x1C72 JUMP JUMPDEST DUP4 MLOAD SWAP1 DUP4 ADD SWAP1 PUSH2 0x1ABA DUP2 DUP4 PUSH1 0x20 DUP9 ADD PUSH2 0x1C72 JUMP JUMPDEST ADD SWAP5 SWAP4 POP POP POP POP JUMP JUMPDEST PUSH1 0x1 PUSH1 0x1 PUSH1 0xA0 SHL SUB DUP6 DUP2 AND DUP3 MSTORE DUP5 AND PUSH1 0x20 DUP3 ADD MSTORE PUSH1 0x40 DUP2 ADD DUP4 SWAP1 MSTORE PUSH1 0x80 PUSH1 0x60 DUP3 ADD DUP2 SWAP1 MSTORE PUSH1 0x0 SWAP1 PUSH2 0x1AF6 SWAP1 DUP4 ADD DUP5 PUSH2 0x1A68 JUMP JUMPDEST SWAP7 SWAP6 POP POP POP POP POP POP JUMP JUMPDEST PUSH1 0x20 DUP1 DUP3 MSTORE DUP3 MLOAD DUP3 DUP3 ADD DUP2 SWAP1 MSTORE PUSH1 0x0 SWAP2 SWAP1 DUP5 DUP3 ADD SWAP1 PUSH1 0x40 DUP6 ADD SWAP1 DUP5 JUMPDEST DUP2 DUP2 LT ISZERO PUSH2 0x1B38 JUMPI DUP4 MLOAD DUP4 MSTORE SWAP3 DUP5 ADD SWAP3 SWAP2 DUP5 ADD SWAP2 PUSH1 0x1 ADD PUSH2 0x1B1C JUMP JUMPDEST POP SWAP1 SWAP7 SWAP6 POP POP POP POP POP POP JUMP JUMPDEST PUSH1 0x20 DUP2 MSTORE PUSH1 0x0 PUSH2 0xB27 PUSH1 0x20 DUP4 ADD DUP5 PUSH2 0x1A68 JUMP JUMPDEST PUSH1 0x20 DUP1 DUP3 MSTORE PUSH1 0x32 SWAP1 DUP3 ADD MSTORE PUSH32 0x4552433732313A207472616E7366657220746F206E6F6E204552433732315265 PUSH1 0x40 DUP3 ADD MSTORE PUSH18 0x31B2B4BB32B91034B6B83632B6B2B73A32B9 PUSH1 0x71 SHL PUSH1 0x60 DUP3 ADD MSTORE PUSH1 0x80 ADD SWAP1 JUMP JUMPDEST PUSH1 0x20 DUP1 DUP3 MSTORE DUP2 DUP2 ADD MSTORE PUSH32 0x4F776E61626C653A2063616C6C6572206973206E6F7420746865206F776E6572 PUSH1 0x40 DUP3 ADD MSTORE PUSH1 0x60 ADD SWAP1 JUMP JUMPDEST PUSH1 0x20 DUP1 DUP3 MSTORE PUSH1 0x31 SWAP1 DUP3 ADD MSTORE PUSH32 0x4552433732313A207472616E736665722063616C6C6572206973206E6F74206F PUSH1 0x40 DUP3 ADD MSTORE PUSH17 0x1DDB995C881B9BDC88185C1C1C9BDD9959 PUSH1 0x7A SHL PUSH1 0x60 DUP3 ADD MSTORE PUSH1 0x80 ADD SWAP1 JUMP JUMPDEST PUSH1 0x0 DUP3 NOT DUP3 GT ISZERO PUSH2 0x1C42 JUMPI PUSH2 0x1C42 PUSH2 0x1D08 JUMP JUMPDEST POP ADD SWAP1 JUMP JUMPDEST PUSH1 0x0 DUP3 PUSH2 0x1C56 JUMPI PUSH2 0x1C56 PUSH2 0x1D1E JUMP JUMPDEST POP DIV SWAP1 JUMP JUMPDEST PUSH1 0x0 DUP3 DUP3 LT ISZERO PUSH2 0x1C6D JUMPI PUSH2 0x1C6D PUSH2 0x1D08 JUMP JUMPDEST POP SUB SWAP1 JUMP JUMPDEST PUSH1 0x0 JUMPDEST DUP4 DUP2 LT ISZERO PUSH2 0x1C8D JUMPI DUP2 DUP2 ADD MLOAD DUP4 DUP3 ADD MSTORE PUSH1 0x20 ADD PUSH2 0x1C75 JUMP JUMPDEST DUP4 DUP2 GT ISZERO PUSH2 0xA4D JUMPI POP POP PUSH1 0x0 SWAP2 ADD MSTORE JUMP JUMPDEST PUSH1 0x1 DUP2 DUP2 SHR SWAP1 DUP3 AND DUP1 PUSH2 0x1CB2 JUMPI PUSH1 0x7F DUP3 AND SWAP2 POP JUMPDEST PUSH1 0x20 DUP3 LT DUP2 EQ ISZERO PUSH2 0x1CD3 JUMPI PUSH4 0x4E487B71 PUSH1 0xE0 SHL PUSH1 0x0 MSTORE PUSH1 0x22 PUSH1 0x4 MSTORE PUSH1 0x24 PUSH1 0x0 REVERT JUMPDEST POP SWAP2 SWAP1 POP JUMP JUMPDEST PUSH1 0x0 PUSH1 0x0 NOT DUP3 EQ ISZERO PUSH2 0x1CED JUMPI PUSH2 0x1CED PUSH2 0x1D08 JUMP JUMPDEST POP PUSH1 0x1 ADD SWAP1 JUMP JUMPDEST PUSH1 0x0 DUP3 PUSH2 0x1D03 JUMPI PUSH2 0x1D03 PUSH2 0x1D1E JUMP JUMPDEST POP MOD SWAP1 JUMP JUMPDEST PUSH4 0x4E487B71 PUSH1 0xE0 SHL PUSH1 0x0 MSTORE PUSH1 0x11 PUSH1 0x4 MSTORE PUSH1 0x24 PUSH1 0x0 REVERT JUMPDEST PUSH4 0x4E487B71 PUSH1 0xE0 SHL PUSH1 0x0 MSTORE PUSH1 0x12 PUSH1 0x4 MSTORE PUSH1 0x24 PUSH1 0x0 REVERT JUMPDEST PUSH4 0x4E487B71 PUSH1 0xE0 SHL PUSH1 0x0 MSTORE PUSH1 0x31 PUSH1 0x4 MSTORE PUSH1 0x24 PUSH1 0x0 REVERT JUMPDEST PUSH4 0x4E487B71 PUSH1 0xE0 SHL PUSH1 0x0 MSTORE PUSH1 0x32 PUSH1 0x4 MSTORE PUSH1 0x24 PUSH1 0x0 REVERT JUMPDEST PUSH4 0x4E487B71 PUSH1 0xE0 SHL PUSH1 0x0 MSTORE PUSH1 0x41 PUSH1 0x4 MSTORE PUSH1 0x24 PUSH1 0x0 REVERT JUMPDEST PUSH1 0x1 PUSH1 0x1 PUSH1 0xE0 SHL SUB NOT DUP2 AND DUP2 EQ PUSH2 0xC54 JUMPI PUSH1 0x0 DUP1 REVERT INVALID LOG2 PUSH5 0x6970667358 0x22 SLT KECCAK256 JUMP GASLIMIT 0xB4 CODECOPY AND 0x5E CALLDATALOAD 0x5D 0xD9 MSTORE8 BYTE 0xF6 0x49 DUP11 DUP9 PUSH8 0x66E5D3CDDC586CE STATICCALL PUSH31 0xEA09A4F9131A64736F6C634300080600330000000000000000000000000000 "
		},
		"gasEstimates": {
			"creation": {
				"codeDepositCost": "1523600",
				"executionCost": "infinite",
				"totalCost": "infinite"
			},
			"external": {
				"MAX_PER_MINT()": "307",
				"MAX_SUPPLY()": "262",
				"approve(address,uint256)": "infinite",
				"balanceOf(address)": "2656",
				"baseTokenURI()": "infinite",
				"getApproved(uint256)": "4760",
				"isApprovedForAll(address,address)": "infinite",
				"mintNFTs(uint256)": "infinite",
				"name()": "infinite",
				"owner()": "2464",
				"ownerOf(uint256)": "2601",
				"renounceOwnership()": "28206",
				"safeTransferFrom(address,address,uint256)": "infinite",
				"safeTransferFrom(address,address,uint256,bytes)": "infinite",
				"setApprovalForAll(address,bool)": "26753",
				"setBaseURI(string)": "infinite",
				"supportsInterface(bytes4)": "infinite",
				"symbol()": "infinite",
				"tokenByIndex(uint256)": "6848",
				"tokenOfOwnerByIndex(address,uint256)": "4975",
				"tokenURI(uint256)": "infinite",
				"tokensOfOwner(address)": "infinite",
				"totalSupply()": "2426",
				"transferFrom(address,address,uint256)": "infinite",
				"transferOwnership(address)": "28422"
			},
			"internal": {
				"_baseURI()": "infinite",
				"_mintSingleNFT()": "infinite"
			}
		},
		"methodIdentifiers": {
			"MAX_PER_MINT()": "09d42b30",
			"MAX_SUPPLY()": "32cb6b0c",
			"approve(address,uint256)": "095ea7b3",
			"balanceOf(address)": "70a08231",
			"baseTokenURI()": "d547cfb7",
			"getApproved(uint256)": "081812fc",
			"isApprovedForAll(address,address)": "e985e9c5",
			"mintNFTs(uint256)": "3b4b1381",
			"name()": "06fdde03",
			"owner()": "8da5cb5b",
			"ownerOf(uint256)": "6352211e",
			"renounceOwnership()": "715018a6",
			"safeTransferFrom(address,address,uint256)": "42842e0e",
			"safeTransferFrom(address,address,uint256,bytes)": "b88d4fde",
			"setApprovalForAll(address,bool)": "a22cb465",
			"setBaseURI(string)": "55f804b3",
			"supportsInterface(bytes4)": "01ffc9a7",
			"symbol()": "95d89b41",
			"tokenByIndex(uint256)": "4f6ccce7",
			"tokenOfOwnerByIndex(address,uint256)": "2f745c59",
			"tokenURI(uint256)": "c87b56dd",
			"tokensOfOwner(address)": "8462151c",
			"totalSupply()": "18160ddd",
			"transferFrom(address,address,uint256)": "23b872dd",
			"transferOwnership(address)": "f2fde38b"
		}
	},
	"abi": [
		{
			"inputs": [
				{
					"internalType": "string",
					"name": "baseURI",
					"type": "string"
				}
			],
			"stateMutability": "nonpayable",
			"type": "constructor"
		},
		{
			"anonymous": false,
			"inputs": [
				{
					"indexed": true,
					"internalType": "address",
					"name": "owner",
					"type": "address"
				},
				{
					"indexed": true,
					"internalType": "address",
					"name": "approved",
					"type": "address"
				},
				{
					"indexed": true,
					"internalType": "uint256",
					"name": "tokenId",
					"type": "uint256"
				}
			],
			"name": "Approval",
			"type": "event"
		},
		{
			"anonymous": false,
			"inputs": [
				{
					"indexed": true,
					"internalType": "address",
					"name": "owner",
					"type": "address"
				},
				{
					"indexed": true,
					"internalType": "address",
					"name": "operator",
					"type": "address"
				},
				{
					"indexed": false,
					"internalType": "bool",
					"name": "approved",
					"type": "bool"
				}
			],
			"name": "ApprovalForAll",
			"type": "event"
		},
		{
			"anonymous": false,
			"inputs": [
				{
					"indexed": true,
					"internalType": "address",
					"name": "previousOwner",
					"type": "address"
				},
				{
					"indexed": true,
					"internalType": "address",
					"name": "newOwner",
					"type": "address"
				}
			],
			"name": "OwnershipTransferred",
			"type": "event"
		},
		{
			"anonymous": false,
			"inputs": [
				{
					"indexed": true,
					"internalType": "address",
					"name": "from",
					"type": "address"
				},
				{
					"indexed": true,
					"internalType": "address",
					"name": "to",
					"type": "address"
				},
				{
					"indexed": true,
					"internalType": "uint256",
					"name": "tokenId",
					"type": "uint256"
				}
			],
			"name": "Transfer",
			"type": "event"
		},
		{
			"inputs": [],
			"name": "MAX_PER_MINT",
			"outputs": [
				{
					"internalType": "uint256",
					"name": "",
					"type": "uint256"
				}
			],
			"stateMutability": "view",
			"type": "function"
		},
		{
			"inputs": [],
			"name": "MAX_SUPPLY",
			"outputs": [
				{
					"internalType": "uint256",
					"name": "",
					"type": "uint256"
				}
			],
			"stateMutability": "view",
			"type": "function"
		},
		{
			"inputs": [
				{
					"internalType": "address",
					"name": "to",
					"type": "address"
				},
				{
					"internalType": "uint256",
					"name": "tokenId",
					"type": "uint256"
				}
			],
			"name": "approve",
			"outputs": [],
			"stateMutability": "nonpayable",
			"type": "function"
		},
		{
			"inputs": [
				{
					"internalType": "address",
					"name": "owner",
					"type": "address"
				}
			],
			"name": "balanceOf",
			"outputs": [
				{
					"internalType": "uint256",
					"name": "",
					"type": "uint256"
				}
			],
			"stateMutability": "view",
			"type": "function"
		},
		{
			"inputs": [],
			"name": "baseTokenURI",
			"outputs": [
				{
					"internalType": "string",
					"name": "",
					"type": "string"
				}
			],
			"stateMutability": "view",
			"type": "function"
		},
		{
			"inputs": [
				{
					"internalType": "uint256",
					"name": "tokenId",
					"type": "uint256"
				}
			],
			"name": "getApproved",
			"outputs": [
				{
					"internalType": "address",
					"name": "",
					"type": "address"
				}
			],
			"stateMutability": "view",
			"type": "function"
		},
		{
			"inputs": [
				{
					"internalType": "address",
					"name": "owner",
					"type": "address"
				},
				{
					"internalType": "address",
					"name": "operator",
					"type": "address"
				}
			],
			"name": "isApprovedForAll",
			"outputs": [
				{
					"internalType": "bool",
					"name": "",
					"type": "bool"
				}
			],
			"stateMutability": "view",
			"type": "function"
		},
		{
			"inputs": [
				{
					"internalType": "uint256",
					"name": "_count",
					"type": "uint256"
				}
			],
			"name": "mintNFTs",
			"outputs": [],
			"stateMutability": "nonpayable",
			"type": "function"
		},
		{
			"inputs": [],
			"name": "name",
			"outputs": [
				{
					"internalType": "string",
					"name": "",
					"type": "string"
				}
			],
			"stateMutability": "view",
			"type": "function"
		},
		{
			"inputs": [],
			"name": "owner",
			"outputs": [
				{
					"internalType": "address",
					"name": "",
					"type": "address"
				}
			],
			"stateMutability": "view",
			"type": "function"
		},
		{
			"inputs": [
				{
					"internalType": "uint256",
					"name": "tokenId",
					"type": "uint256"
				}
			],
			"name": "ownerOf",
			"outputs": [
				{
					"internalType": "address",
					"name": "",
					"type": "address"
				}
			],
			"stateMutability": "view",
			"type": "function"
		},
		{
			"inputs": [],
			"name": "renounceOwnership",
			"outputs": [],
			"stateMutability": "nonpayable",
			"type": "function"
		},
		{
			"inputs": [
				{
					"internalType": "address",
					"name": "from",
					"type": "address"
				},
				{
					"internalType": "address",
					"name": "to",
					"type": "address"
				},
				{
					"internalType": "uint256",
					"name": "tokenId",
					"type": "uint256"
				}
			],
			"name": "safeTransferFrom",
			"outputs": [],
			"stateMutability": "nonpayable",
			"type": "function"
		},
		{
			"inputs": [
				{
					"internalType": "address",
					"name": "from",
					"type": "address"
				},
				{
					"internalType": "address",
					"name": "to",
					"type": "address"
				},
				{
					"internalType": "uint256",
					"name": "tokenId",
					"type": "uint256"
				},
				{
					"internalType": "bytes",
					"name": "_data",
					"type": "bytes"
				}
			],
			"name": "safeTransferFrom",
			"outputs": [],
			"stateMutability": "nonpayable",
			"type": "function"
		},
		{
			"inputs": [
				{
					"internalType": "address",
					"name": "operator",
					"type": "address"
				},
				{
					"internalType": "bool",
					"name": "approved",
					"type": "bool"
				}
			],
			"name": "setApprovalForAll",
			"outputs": [],
			"stateMutability": "nonpayable",
			"type": "function"
		},
		{
			"inputs": [
				{
					"internalType": "string",
					"name": "_baseTokenURI",
					"type": "string"
				}
			],
			"name": "setBaseURI",
			"outputs": [],
			"stateMutability": "nonpayable",
			"type": "function"
		},
		{
			"inputs": [
				{
					"internalType": "bytes4",
					"name": "interfaceId",
					"type": "bytes4"
				}
			],
			"name": "supportsInterface",
			"outputs": [
				{
					"internalType": "bool",
					"name": "",
					"type": "bool"
				}
			],
			"stateMutability": "view",
			"type": "function"
		},
		{
			"inputs": [],
			"name": "symbol",
			"outputs": [
				{
					"internalType": "string",
					"name": "",
					"type": "string"
				}
			],
			"stateMutability": "view",
			"type": "function"
		},
		{
			"inputs": [
				{
					"internalType": "uint256",
					"name": "index",
					"type": "uint256"
				}
			],
			"name": "tokenByIndex",
			"outputs": [
				{
					"internalType": "uint256",
					"name": "",
					"type": "uint256"
				}
			],
			"stateMutability": "view",
			"type": "function"
		},
		{
			"inputs": [
				{
					"internalType": "address",
					"name": "owner",
					"type": "address"
				},
				{
					"internalType": "uint256",
					"name": "index",
					"type": "uint256"
				}
			],
			"name": "tokenOfOwnerByIndex",
			"outputs": [
				{
					"internalType": "uint256",
					"name": "",
					"type": "uint256"
				}
			],
			"stateMutability": "view",
			"type": "function"
		},
		{
			"inputs": [
				{
					"internalType": "uint256",
					"name": "tokenId",
					"type": "uint256"
				}
			],
			"name": "tokenURI",
			"outputs": [
				{
					"internalType": "string",
					"name": "",
					"type": "string"
				}
			],
			"stateMutability": "view",
			"type": "function"
		},
		{
			"inputs": [
				{
					"internalType": "address",
					"name": "_owner",
					"type": "address"
				}
			],
			"name": "tokensOfOwner",
			"outputs": [
				{
					"internalType": "uint256[]",
					"name": "",
					"type": "uint256[]"
				}
			],
			"stateMutability": "view",
			"type": "function"
		},
		{
			"inputs": [],
			"name": "totalSupply",
			"outputs": [
				{
					"internalType": "uint256",
					"name": "",
					"type": "uint256"
				}
			],
			"stateMutability": "view",
			"type": "function"
		},
		{
			"inputs": [
				{
					"internalType": "address",
					"name": "from",
					"type": "address"
				},
				{
					"internalType": "address",
					"name": "to",
					"type": "address"
				},
				{
					"internalType": "uint256",
					"name": "tokenId",
					"type": "uint256"
				}
			],
			"name": "transferFrom",
			"outputs": [],
			"stateMutability": "nonpayable",
			"type": "function"
		},
		{
			"inputs": [
				{
					"internalType": "address",
					"name": "newOwner",
					"type": "address"
				}
			],
			"name": "transferOwnership",
			"outputs": [],
			"stateMutability": "nonpayable",
			"type": "function"
		}
	]
}