{
	"@openzeppelin/contracts/token/ERC721/ERC721.sol": {
		"ERC721": {
			"abi": [
				{
					"inputs": [
						{
							"internalType": "string",
							"name": "name_",
							"type": "string"
						},
						{
							"internalType": "string",
							"name": "symbol_",
							"type": "string"
						}
					],
					"stateMutability": "nonpayable",
					"type": "constructor"
				},
				{
					"anonymous": false,
					"inputs": [
						{
							"indexed": true,
							"internalType": "address",
							"name": "owner",
							"type": "address"
						},
						{
							"indexed": true,
							"internalType": "address",
							"name": "approved",
							"type": "address"
						},
						{
							"indexed": true,
							"internalType": "uint256",
							"name": "tokenId",
							"type": "uint256"
						}
					],
					"name": "Approval",
					"type": "event"
				},
				{
					"anonymous": false,
					"inputs": [
						{
							"indexed": true,
							"internalType": "address",
							"name": "owner",
							"type": "address"
						},
						{
							"indexed": true,
							"internalType": "address",
							"name": "operator",
							"type": "address"
						},
						{
							"indexed": false,
							"internalType": "bool",
							"name": "approved",
							"type": "bool"
						}
					],
					"name": "ApprovalForAll",
					"type": "event"
				},
				{
					"anonymous": false,
					"inputs": [
						{
							"indexed": true,
							"internalType": "address",
							"name": "from",
							"type": "address"
						},
						{
							"indexed": true,
							"internalType": "address",
							"name": "to",
							"type": "address"
						},
						{
							"indexed": true,
							"internalType": "uint256",
							"name": "tokenId",
							"type": "uint256"
						}
					],
					"name": "Transfer",
					"type": "event"
				},
				{
					"inputs": [
						{
							"internalType": "address",
							"name": "to",
							"type": "address"
						},
						{
							"internalType": "uint256",
							"name": "tokenId",
							"type": "uint256"
						}
					],
					"name": "approve",
					"outputs": [],
					"stateMutability": "nonpayable",
					"type": "function"
				},
				{
					"inputs": [
						{
							"internalType": "address",
							"name": "owner",
							"type": "address"
						}
					],
					"name": "balanceOf",
					"outputs": [
						{
							"internalType": "uint256",
							"name": "",
							"type": "uint256"
						}
					],
					"stateMutability": "view",
					"type": "function"
				},
				{
					"inputs": [
						{
							"internalType": "uint256",
							"name": "tokenId",
							"type": "uint256"
						}
					],
					"name": "getApproved",
					"outputs": [
						{
							"internalType": "address",
							"name": "",
							"type": "address"
						}
					],
					"stateMutability": "view",
					"type": "function"
				},
				{
					"inputs": [
						{
							"internalType": "address",
							"name": "owner",
							"type": "address"
						},
						{
							"internalType": "address",
							"name": "operator",
							"type": "address"
						}
					],
					"name": "isApprovedForAll",
					"outputs": [
						{
							"internalType": "bool",
							"name": "",
							"type": "bool"
						}
					],
					"stateMutability": "view",
					"type": "function"
				},
				{
					"inputs": [],
					"name": "name",
					"outputs": [
						{
							"internalType": "string",
							"name": "",
							"type": "string"
						}
					],
					"stateMutability": "view",
					"type": "function"
				},
				{
					"inputs": [
						{
							"internalType": "uint256",
							"name": "tokenId",
							"type": "uint256"
						}
					],
					"name": "ownerOf",
					"outputs": [
						{
							"internalType": "address",
							"name": "",
							"type": "address"
						}
					],
					"stateMutability": "view",
					"type": "function"
				},
				{
					"inputs": [
						{
							"internalType": "address",
							"name": "from",
							"type": "address"
						},
						{
							"internalType": "address",
							"name": "to",
							"type": "address"
						},
						{
							"internalType": "uint256",
							"name": "tokenId",
							"type": "uint256"
						}
					],
					"name": "safeTransferFrom",
					"outputs": [],
					"stateMutability": "nonpayable",
					"type": "function"
				},
				{
					"inputs": [
						{
							"internalType": "address",
							"name": "from",
							"type": "address"
						},
						{
							"internalType": "address",
							"name": "to",
							"type": "address"
						},
						{
							"internalType": "uint256",
							"name": "tokenId",
							"type": "uint256"
						},
						{
							"internalType": "bytes",
							"name": "_data",
							"type": "bytes"
						}
					],
					"name": "safeTransferFrom",
					"outputs": [],
					"stateMutability": "nonpayable",
					"type": "function"
				},
				{
					"inputs": [
						{
							"internalType": "address",
							"name": "operator",
							"type": "address"
						},
						{
							"internalType": "bool",
							"name": "approved",
							"type": "bool"
						}
					],
					"name": "setApprovalForAll",
					"outputs": [],
					"stateMutability": "nonpayable",
					"type": "function"
				},
				{
					"inputs": [
						{
							"internalType": "bytes4",
							"name": "interfaceId",
							"type": "bytes4"
						}
					],
					"name": "supportsInterface",
					"outputs": [
						{
							"internalType": "bool",
							"name": "",
							"type": "bool"
						}
					],
					"stateMutability": "view",
					"type": "function"
				},
				{
					"inputs": [],
					"name": "symbol",
					"outputs": [
						{
							"internalType": "string",
							"name": "",
							"type": "string"
						}
					],
					"stateMutability": "view",
					"type": "function"
				},
				{
					"inputs": [
						{
							"internalType": "uint256",
							"name": "tokenId",
							"type": "uint256"
						}
					],
					"name": "tokenURI",
					"outputs": [
						{
							"internalType": "string",
							"name": "",
							"type": "string"
						}
					],
					"stateMutability": "view",
					"type": "function"
				},
				{
					"inputs": [
						{
							"internalType": "address",
							"name": "from",
							"type": "address"
						},
						{
							"internalType": "address",
							"name": "to",
							"type": "address"
						},
						{
							"internalType": "uint256",
							"name": "tokenId",
							"type": "uint256"
						}
					],
					"name": "transferFrom",
					"outputs": [],
					"stateMutability": "nonpayable",
					"type": "function"
				}
			],
			"devdoc": {
				"details": "Implementation of https://eips.ethereum.org/EIPS/eip-721[ERC721] Non-Fungible Token Standard, including the Metadata extension, but not including the Enumerable extension, which is available separately as {ERC721Enumerable}.",
				"kind": "dev",
				"methods": {
					"approve(address,uint256)": {
						"details": "See {IERC721-approve}."
					},
					"balanceOf(address)": {
						"details": "See {IERC721-balanceOf}."
					},
					"constructor": {
						"details": "Initializes the contract by setting a `name` and a `symbol` to the token collection."
					},
					"getApproved(uint256)": {
						"details": "See {IERC721-getApproved}."
					},
					"isApprovedForAll(address,address)": {
						"details": "See {IERC721-isApprovedForAll}."
					},
					"name()": {
						"details": "See {IERC721Metadata-name}."
					},
					"ownerOf(uint256)": {
						"details": "See {IERC721-ownerOf}."
					},
					"safeTransferFrom(address,address,uint256)": {
						"details": "See {IERC721-safeTransferFrom}."
					},
					"safeTransferFrom(address,address,uint256,bytes)": {
						"details": "See {IERC721-safeTransferFrom}."
					},
					"setApprovalForAll(address,bool)": {
						"details": "See {IERC721-setApprovalForAll}."
					},
					"supportsInterface(bytes4)": {
						"details": "See {IERC165-supportsInterface}."
					},
					"symbol()": {
						"details": "See {IERC721Metadata-symbol}."
					},
					"tokenURI(uint256)": {
						"details": "See {IERC721Metadata-tokenURI}."
					},
					"transferFrom(address,address,uint256)": {
						"details": "See {IERC721-transferFrom}."
					}
				},
				"version": 1
			},
			"evm": {
				"assembly": "    /* \"@openzeppelin/contracts/token/ERC721/ERC721.sol\":628:14285  contract ERC721 is Context, ERC165, IERC721, IERC721Metadata {... */\n  mstore(0x40, 0x80)\n    /* \"@openzeppelin/contracts/token/ERC721/ERC721.sol\":1390:1503  constructor(string memory name_, string memory symbol_) {... */\n  callvalue\n  dup1\n  iszero\n  tag_1\n  jumpi\n  0x00\n  dup1\n  revert\ntag_1:\n  pop\n  mload(0x40)\n  sub(codesize, bytecodeSize)\n  dup1\n  bytecodeSize\n  dup4\n  codecopy\n  dup2\n  add\n  0x40\n  dup2\n  swap1\n  mstore\n  tag_2\n  swap2\n  tag_3\n  jump\t// in\ntag_2:\n    /* \"@openzeppelin/contracts/token/ERC721/ERC721.sol\":1456:1469  _name = name_ */\n  dup2\n  mload\n  tag_6\n  swap1\n    /* \"@openzeppelin/contracts/token/ERC721/ERC721.sol\":1456:1461  _name */\n  0x00\n  swap1\n    /* \"@openzeppelin/contracts/token/ERC721/ERC721.sol\":1456:1469  _name = name_ */\n  0x20\n  dup6\n  add\n  swap1\n  tag_7\n  jump\t// in\ntag_6:\n  pop\n    /* \"@openzeppelin/contracts/token/ERC721/ERC721.sol\":1479:1496  _symbol = symbol_ */\n  dup1\n  mload\n  tag_8\n  swap1\n    /* \"@openzeppelin/contracts/token/ERC721/ERC721.sol\":1479:1486  _symbol */\n  0x01\n  swap1\n    /* \"@openzeppelin/contracts/token/ERC721/ERC721.sol\":1479:1496  _symbol = symbol_ */\n  0x20\n  dup5\n  add\n  swap1\n  tag_7\n  jump\t// in\ntag_8:\n  pop\n    /* \"@openzeppelin/contracts/token/ERC721/ERC721.sol\":1390:1503  constructor(string memory name_, string memory symbol_) {... */\n  pop\n  pop\n    /* \"@openzeppelin/contracts/token/ERC721/ERC721.sol\":628:14285  contract ERC721 is Context, ERC165, IERC721, IERC721Metadata {... */\n  jump(tag_21)\ntag_7:\n  dup3\n  dup1\n  sload\n  tag_10\n  swap1\n  tag_11\n  jump\t// in\ntag_10:\n  swap1\n  0x00\n  mstore\n  keccak256(0x00, 0x20)\n  swap1\n  0x1f\n  add\n  0x20\n  swap1\n  div\n  dup2\n  add\n  swap3\n  dup3\n  tag_13\n  jumpi\n  0x00\n  dup6\n  sstore\n  jump(tag_16)\ntag_13:\n  dup3\n  0x1f\n  lt\n  tag_14\n  jumpi\n  dup1\n  mload\n  not(0xff)\n  and\n  dup4\n  dup1\n  add\n  or\n  dup6\n  sstore\n  jump(tag_16)\ntag_14:\n  dup3\n  dup1\n  add\n  0x01\n  add\n  dup6\n  sstore\n  dup3\n  iszero\n  tag_16\n  jumpi\n  swap2\n  dup3\n  add\ntag_15:\n  dup3\n  dup2\n  gt\n  iszero\n  tag_16\n  jumpi\n  dup3\n  mload\n  dup3\n  sstore\n  swap2\n  0x20\n  add\n  swap2\n  swap1\n  0x01\n  add\n  swap1\n  jump(tag_15)\ntag_16:\n  pop\n  tag_17\n  swap3\n  swap2\n  pop\n  tag_18\n  jump\t// in\ntag_17:\n  pop\n  swap1\n  jump\t// out\ntag_18:\ntag_19:\n  dup1\n  dup3\n  gt\n  iszero\n  tag_17\n  jumpi\n  0x00\n  dup2\n  sstore\n  0x01\n  add\n  jump(tag_19)\n    /* \"#utility.yul\":14:899   */\ntag_22:\n    /* \"#utility.yul\":68:73   */\n  0x00\n    /* \"#utility.yul\":121:124   */\n  dup3\n    /* \"#utility.yul\":114:118   */\n  0x1f\n    /* \"#utility.yul\":106:112   */\n  dup4\n    /* \"#utility.yul\":102:119   */\n  add\n    /* \"#utility.yul\":98:125   */\n  slt\n    /* \"#utility.yul\":88:90   */\n  tag_24\n  jumpi\n    /* \"#utility.yul\":139:140   */\n  0x00\n    /* \"#utility.yul\":136:137   */\n  dup1\n    /* \"#utility.yul\":129:141   */\n  revert\n    /* \"#utility.yul\":88:90   */\ntag_24:\n    /* \"#utility.yul\":162:175   */\n  dup2\n  mload\n  sub(shl(0x40, 0x01), 0x01)\n    /* \"#utility.yul\":224:234   */\n  dup1\n  dup3\n  gt\n    /* \"#utility.yul\":221:223   */\n  iszero\n  tag_26\n  jumpi\n    /* \"#utility.yul\":237:255   */\n  tag_26\n  tag_27\n  jump\t// in\ntag_26:\n    /* \"#utility.yul\":312:314   */\n  0x40\n    /* \"#utility.yul\":306:315   */\n  mload\n    /* \"#utility.yul\":280:282   */\n  0x1f\n    /* \"#utility.yul\":366:379   */\n  dup4\n  add\n  not(0x1f)\n    /* \"#utility.yul\":362:384   */\n  swap1\n  dup2\n  and\n    /* \"#utility.yul\":386:388   */\n  0x3f\n    /* \"#utility.yul\":358:389   */\n  add\n    /* \"#utility.yul\":354:394   */\n  and\n    /* \"#utility.yul\":342:395   */\n  dup2\n  add\n  swap1\n    /* \"#utility.yul\":410:428   */\n  dup3\n  dup3\n  gt\n    /* \"#utility.yul\":430:452   */\n  dup2\n  dup4\n  lt\n    /* \"#utility.yul\":407:453   */\n  or\n    /* \"#utility.yul\":404:406   */\n  iszero\n  tag_29\n  jumpi\n    /* \"#utility.yul\":456:474   */\n  tag_29\n  tag_27\n  jump\t// in\ntag_29:\n    /* \"#utility.yul\":496:506   */\n  dup2\n    /* \"#utility.yul\":492:494   */\n  0x40\n    /* \"#utility.yul\":485:507   */\n  mstore\n    /* \"#utility.yul\":531:533   */\n  dup4\n    /* \"#utility.yul\":523:529   */\n  dup2\n    /* \"#utility.yul\":516:534   */\n  mstore\n    /* \"#utility.yul\":553:557   */\n  0x20\n    /* \"#utility.yul\":543:557   */\n  swap3\n  pop\n    /* \"#utility.yul\":598:601   */\n  dup7\n    /* \"#utility.yul\":593:595   */\n  dup4\n    /* \"#utility.yul\":588:590   */\n  dup6\n    /* \"#utility.yul\":580:586   */\n  dup9\n    /* \"#utility.yul\":576:591   */\n  add\n    /* \"#utility.yul\":572:596   */\n  add\n    /* \"#utility.yul\":569:602   */\n  gt\n    /* \"#utility.yul\":566:568   */\n  iszero\n  tag_30\n  jumpi\n    /* \"#utility.yul\":615:616   */\n  0x00\n    /* \"#utility.yul\":612:613   */\n  dup1\n    /* \"#utility.yul\":605:617   */\n  revert\n    /* \"#utility.yul\":566:568   */\ntag_30:\n    /* \"#utility.yul\":637:638   */\n  0x00\n    /* \"#utility.yul\":628:638   */\n  swap2\n  pop\n    /* \"#utility.yul\":647:780   */\ntag_31:\n    /* \"#utility.yul\":661:663   */\n  dup4\n    /* \"#utility.yul\":658:659   */\n  dup3\n    /* \"#utility.yul\":655:664   */\n  lt\n    /* \"#utility.yul\":647:780   */\n  iszero\n  tag_33\n  jumpi\n    /* \"#utility.yul\":749:763   */\n  dup6\n  dup3\n  add\n    /* \"#utility.yul\":745:768   */\n  dup4\n  add\n    /* \"#utility.yul\":739:769   */\n  mload\n    /* \"#utility.yul\":718:732   */\n  dup2\n  dup4\n  add\n    /* \"#utility.yul\":714:737   */\n  dup5\n  add\n    /* \"#utility.yul\":707:770   */\n  mstore\n    /* \"#utility.yul\":672:682   */\n  swap1\n  dup3\n  add\n  swap1\n    /* \"#utility.yul\":647:780   */\n  jump(tag_31)\ntag_33:\n    /* \"#utility.yul\":798:800   */\n  dup4\n    /* \"#utility.yul\":795:796   */\n  dup3\n    /* \"#utility.yul\":792:801   */\n  gt\n    /* \"#utility.yul\":789:791   */\n  iszero\n  tag_34\n  jumpi\n    /* \"#utility.yul\":857:858   */\n  0x00\n    /* \"#utility.yul\":852:854   */\n  dup4\n    /* \"#utility.yul\":847:849   */\n  dup6\n    /* \"#utility.yul\":839:845   */\n  dup4\n    /* \"#utility.yul\":835:850   */\n  add\n    /* \"#utility.yul\":831:855   */\n  add\n    /* \"#utility.yul\":824:859   */\n  mstore\n    /* \"#utility.yul\":789:791   */\ntag_34:\n    /* \"#utility.yul\":887:893   */\n  swap7\n    /* \"#utility.yul\":78:899   */\n  swap6\n  pop\n  pop\n  pop\n  pop\n  pop\n  pop\n  jump\t// out\n    /* \"#utility.yul\":904:1466   */\ntag_3:\n    /* \"#utility.yul\":1003:1009   */\n  0x00\n    /* \"#utility.yul\":1011:1017   */\n  dup1\n    /* \"#utility.yul\":1064:1066   */\n  0x40\n    /* \"#utility.yul\":1052:1061   */\n  dup4\n    /* \"#utility.yul\":1043:1050   */\n  dup6\n    /* \"#utility.yul\":1039:1062   */\n  sub\n    /* \"#utility.yul\":1035:1067   */\n  slt\n    /* \"#utility.yul\":1032:1034   */\n  iszero\n  tag_36\n  jumpi\n    /* \"#utility.yul\":1080:1081   */\n  0x00\n    /* \"#utility.yul\":1077:1078   */\n  dup1\n    /* \"#utility.yul\":1070:1082   */\n  revert\n    /* \"#utility.yul\":1032:1034   */\ntag_36:\n    /* \"#utility.yul\":1107:1123   */\n  dup3\n  mload\n  sub(shl(0x40, 0x01), 0x01)\n    /* \"#utility.yul\":1172:1186   */\n  dup1\n  dup3\n  gt\n    /* \"#utility.yul\":1169:1171   */\n  iszero\n  tag_37\n  jumpi\n    /* \"#utility.yul\":1199:1200   */\n  0x00\n    /* \"#utility.yul\":1196:1197   */\n  dup1\n    /* \"#utility.yul\":1189:1201   */\n  revert\n    /* \"#utility.yul\":1169:1171   */\ntag_37:\n    /* \"#utility.yul\":1222:1283   */\n  tag_38\n    /* \"#utility.yul\":1275:1282   */\n  dup7\n    /* \"#utility.yul\":1266:1272   */\n  dup4\n    /* \"#utility.yul\":1255:1264   */\n  dup8\n    /* \"#utility.yul\":1251:1273   */\n  add\n    /* \"#utility.yul\":1222:1283   */\n  tag_22\n  jump\t// in\ntag_38:\n    /* \"#utility.yul\":1212:1283   */\n  swap4\n  pop\n    /* \"#utility.yul\":1329:1331   */\n  0x20\n    /* \"#utility.yul\":1318:1327   */\n  dup6\n    /* \"#utility.yul\":1314:1332   */\n  add\n    /* \"#utility.yul\":1308:1333   */\n  mload\n    /* \"#utility.yul\":1292:1333   */\n  swap2\n  pop\n    /* \"#utility.yul\":1358:1360   */\n  dup1\n    /* \"#utility.yul\":1348:1356   */\n  dup3\n    /* \"#utility.yul\":1345:1361   */\n  gt\n    /* \"#utility.yul\":1342:1344   */\n  iszero\n  tag_39\n  jumpi\n    /* \"#utility.yul\":1374:1375   */\n  0x00\n    /* \"#utility.yul\":1371:1372   */\n  dup1\n    /* \"#utility.yul\":1364:1376   */\n  revert\n    /* \"#utility.yul\":1342:1344   */\ntag_39:\n  pop\n    /* \"#utility.yul\":1397:1460   */\n  tag_40\n    /* \"#utility.yul\":1452:1459   */\n  dup6\n    /* \"#utility.yul\":1441:1449   */\n  dup3\n    /* \"#utility.yul\":1430:1439   */\n  dup7\n    /* \"#utility.yul\":1426:1450   */\n  add\n    /* \"#utility.yul\":1397:1460   */\n  tag_22\n  jump\t// in\ntag_40:\n    /* \"#utility.yul\":1387:1460   */\n  swap2\n  pop\n  pop\n    /* \"#utility.yul\":1022:1466   */\n  swap3\n  pop\n  swap3\n  swap1\n  pop\n  jump\t// out\n    /* \"#utility.yul\":1471:1851   */\ntag_11:\n    /* \"#utility.yul\":1550:1551   */\n  0x01\n    /* \"#utility.yul\":1546:1558   */\n  dup2\n  dup2\n  shr\n  swap1\n    /* \"#utility.yul\":1593:1605   */\n  dup3\n  and\n  dup1\n    /* \"#utility.yul\":1614:1616   */\n  tag_42\n  jumpi\n    /* \"#utility.yul\":1668:1672   */\n  0x7f\n    /* \"#utility.yul\":1660:1666   */\n  dup3\n    /* \"#utility.yul\":1656:1673   */\n  and\n    /* \"#utility.yul\":1646:1673   */\n  swap2\n  pop\n    /* \"#utility.yul\":1614:1616   */\ntag_42:\n    /* \"#utility.yul\":1721:1723   */\n  0x20\n    /* \"#utility.yul\":1713:1719   */\n  dup3\n    /* \"#utility.yul\":1710:1724   */\n  lt\n    /* \"#utility.yul\":1690:1708   */\n  dup2\n    /* \"#utility.yul\":1687:1725   */\n  eq\n    /* \"#utility.yul\":1684:1686   */\n  iszero\n  tag_43\n  jumpi\n    /* \"#utility.yul\":1767:1777   */\n  0x4e487b71\n    /* \"#utility.yul\":1762:1765   */\n  0xe0\n    /* \"#utility.yul\":1758:1778   */\n  shl\n    /* \"#utility.yul\":1755:1756   */\n  0x00\n    /* \"#utility.yul\":1748:1779   */\n  mstore\n    /* \"#utility.yul\":1802:1806   */\n  0x22\n    /* \"#utility.yul\":1799:1800   */\n  0x04\n    /* \"#utility.yul\":1792:1807   */\n  mstore\n    /* \"#utility.yul\":1830:1834   */\n  0x24\n    /* \"#utility.yul\":1827:1828   */\n  0x00\n    /* \"#utility.yul\":1820:1835   */\n  revert\n    /* \"#utility.yul\":1684:1686   */\ntag_43:\n  pop\n    /* \"#utility.yul\":1526:1851   */\n  swap2\n  swap1\n  pop\n  jump\t// out\n    /* \"#utility.yul\":1856:1983   */\ntag_27:\n    /* \"#utility.yul\":1917:1927   */\n  0x4e487b71\n    /* \"#utility.yul\":1912:1915   */\n  0xe0\n    /* \"#utility.yul\":1908:1928   */\n  shl\n    /* \"#utility.yul\":1905:1906   */\n  0x00\n    /* \"#utility.yul\":1898:1929   */\n  mstore\n    /* \"#utility.yul\":1948:1952   */\n  0x41\n    /* \"#utility.yul\":1945:1946   */\n  0x04\n    /* \"#utility.yul\":1938:1953   */\n  mstore\n    /* \"#utility.yul\":1972:1976   */\n  0x24\n    /* \"#utility.yul\":1969:1970   */\n  0x00\n    /* \"#utility.yul\":1962:1977   */\n  revert\n    /* \"#utility.yul\":1888:1983   */\ntag_21:\n    /* \"@openzeppelin/contracts/token/ERC721/ERC721.sol\":628:14285  contract ERC721 is Context, ERC165, IERC721, IERC721Metadata {... */\n  dataSize(sub_0)\n  dup1\n  dataOffset(sub_0)\n  0x00\n  codecopy\n  0x00\n  return\nstop\n\nsub_0: assembly {\n        /* \"@openzeppelin/contracts/token/ERC721/ERC721.sol\":628:14285  contract ERC721 is Context, ERC165, IERC721, IERC721Metadata {... */\n      mstore(0x40, 0x80)\n      callvalue\n      dup1\n      iszero\n      tag_1\n      jumpi\n      0x00\n      dup1\n      revert\n    tag_1:\n      pop\n      jumpi(tag_2, lt(calldatasize, 0x04))\n      shr(0xe0, calldataload(0x00))\n      dup1\n      0x6352211e\n      gt\n      tag_16\n      jumpi\n      dup1\n      0xa22cb465\n      gt\n      tag_17\n      jumpi\n      dup1\n      0xa22cb465\n      eq\n      tag_12\n      jumpi\n      dup1\n      0xb88d4fde\n      eq\n      tag_13\n      jumpi\n      dup1\n      0xc87b56dd\n      eq\n      tag_14\n      jumpi\n      dup1\n      0xe985e9c5\n      eq\n      tag_15\n      jumpi\n      0x00\n      dup1\n      revert\n    tag_17:\n      dup1\n      0x6352211e\n      eq\n      tag_9\n      jumpi\n      dup1\n      0x70a08231\n      eq\n      tag_10\n      jumpi\n      dup1\n      0x95d89b41\n      eq\n      tag_11\n      jumpi\n      0x00\n      dup1\n      revert\n    tag_16:\n      dup1\n      0x01ffc9a7\n      eq\n      tag_3\n      jumpi\n      dup1\n      0x06fdde03\n      eq\n      tag_4\n      jumpi\n      dup1\n      0x081812fc\n      eq\n      tag_5\n      jumpi\n      dup1\n      0x095ea7b3\n      eq\n      tag_6\n      jumpi\n      dup1\n      0x23b872dd\n      eq\n      tag_7\n      jumpi\n      dup1\n      0x42842e0e\n      eq\n      tag_8\n      jumpi\n    tag_2:\n      0x00\n      dup1\n      revert\n        /* \"@openzeppelin/contracts/token/ERC721/ERC721.sol\":1570:1870  function supportsInterface(bytes4 interfaceId) public view virtual override(ERC165, IERC165) returns (bool) {... */\n    tag_3:\n      tag_18\n      tag_19\n      calldatasize\n      0x04\n      tag_20\n      jump\t// in\n    tag_19:\n      tag_21\n      jump\t// in\n    tag_18:\n      mload(0x40)\n        /* \"#utility.yul\":5027:5041   */\n      swap1\n      iszero\n        /* \"#utility.yul\":5020:5042   */\n      iszero\n        /* \"#utility.yul\":5002:5043   */\n      dup2\n      mstore\n        /* \"#utility.yul\":4990:4992   */\n      0x20\n        /* \"#utility.yul\":4975:4993   */\n      add\n        /* \"@openzeppelin/contracts/token/ERC721/ERC721.sol\":1570:1870  function supportsInterface(bytes4 interfaceId) public view virtual override(ERC165, IERC165) returns (bool) {... */\n    tag_22:\n      mload(0x40)\n      dup1\n      swap2\n      sub\n      swap1\n      return\n        /* \"@openzeppelin/contracts/token/ERC721/ERC721.sol\":2488:2586  function name() public view virtual override returns (string memory) {... */\n    tag_4:\n      tag_24\n      tag_25\n      jump\t// in\n    tag_24:\n      mload(0x40)\n      tag_22\n      swap2\n      swap1\n      tag_27\n      jump\t// in\n        /* \"@openzeppelin/contracts/token/ERC721/ERC721.sol\":3999:4216  function getApproved(uint256 tokenId) public view virtual override returns (address) {... */\n    tag_5:\n      tag_28\n      tag_29\n      calldatasize\n      0x04\n      tag_30\n      jump\t// in\n    tag_29:\n      tag_31\n      jump\t// in\n    tag_28:\n      mload(0x40)\n      sub(shl(0xa0, 0x01), 0x01)\n        /* \"#utility.yul\":4325:4357   */\n      swap1\n      swap2\n      and\n        /* \"#utility.yul\":4307:4358   */\n      dup2\n      mstore\n        /* \"#utility.yul\":4295:4297   */\n      0x20\n        /* \"#utility.yul\":4280:4298   */\n      add\n        /* \"@openzeppelin/contracts/token/ERC721/ERC721.sol\":3999:4216  function getApproved(uint256 tokenId) public view virtual override returns (address) {... */\n      tag_22\n        /* \"#utility.yul\":4262:4364   */\n      jump\n        /* \"@openzeppelin/contracts/token/ERC721/ERC721.sol\":3537:3938  function approve(address to, uint256 tokenId) public virtual override {... */\n    tag_6:\n      tag_34\n      tag_35\n      calldatasize\n      0x04\n      tag_36\n      jump\t// in\n    tag_35:\n      tag_37\n      jump\t// in\n    tag_34:\n      stop\n        /* \"@openzeppelin/contracts/token/ERC721/ERC721.sol\":4726:5056  function transferFrom(... */\n    tag_7:\n      tag_34\n      tag_39\n      calldatasize\n      0x04\n      tag_40\n      jump\t// in\n    tag_39:\n      tag_41\n      jump\t// in\n        /* \"@openzeppelin/contracts/token/ERC721/ERC721.sol\":5122:5301  function safeTransferFrom(... */\n    tag_8:\n      tag_34\n      tag_43\n      calldatasize\n      0x04\n      tag_40\n      jump\t// in\n    tag_43:\n      tag_44\n      jump\t// in\n        /* \"@openzeppelin/contracts/token/ERC721/ERC721.sol\":2191:2426  function ownerOf(uint256 tokenId) public view virtual override returns (address) {... */\n    tag_9:\n      tag_28\n      tag_46\n      calldatasize\n      0x04\n      tag_30\n      jump\t// in\n    tag_46:\n      tag_47\n      jump\t// in\n        /* \"@openzeppelin/contracts/token/ERC721/ERC721.sol\":1929:2134  function balanceOf(address owner) public view virtual override returns (uint256) {... */\n    tag_10:\n      tag_49\n      tag_50\n      calldatasize\n      0x04\n      tag_51\n      jump\t// in\n    tag_50:\n      tag_52\n      jump\t// in\n    tag_49:\n      mload(0x40)\n        /* \"#utility.yul\":10316:10341   */\n      swap1\n      dup2\n      mstore\n        /* \"#utility.yul\":10304:10306   */\n      0x20\n        /* \"#utility.yul\":10289:10307   */\n      add\n        /* \"@openzeppelin/contracts/token/ERC721/ERC721.sol\":1929:2134  function balanceOf(address owner) public view virtual override returns (uint256) {... */\n      tag_22\n        /* \"#utility.yul\":10271:10347   */\n      jump\n        /* \"@openzeppelin/contracts/token/ERC721/ERC721.sol\":2650:2752  function symbol() public view virtual override returns (string memory) {... */\n    tag_11:\n      tag_24\n      tag_56\n      jump\t// in\n        /* \"@openzeppelin/contracts/token/ERC721/ERC721.sol\":4283:4436  function setApprovalForAll(address operator, bool approved) public virtual override {... */\n    tag_12:\n      tag_34\n      tag_59\n      calldatasize\n      0x04\n      tag_60\n      jump\t// in\n    tag_59:\n      tag_61\n      jump\t// in\n        /* \"@openzeppelin/contracts/token/ERC721/ERC721.sol\":5367:5687  function safeTransferFrom(... */\n    tag_13:\n      tag_34\n      tag_63\n      calldatasize\n      0x04\n      tag_64\n      jump\t// in\n    tag_63:\n      tag_65\n      jump\t// in\n        /* \"@openzeppelin/contracts/token/ERC721/ERC721.sol\":2818:3147  function tokenURI(uint256 tokenId) public view virtual override returns (string memory) {... */\n    tag_14:\n      tag_24\n      tag_67\n      calldatasize\n      0x04\n      tag_30\n      jump\t// in\n    tag_67:\n      tag_68\n      jump\t// in\n        /* \"@openzeppelin/contracts/token/ERC721/ERC721.sol\":4502:4664  function isApprovedForAll(address owner, address operator) public view virtual override returns (bool) {... */\n    tag_15:\n      tag_18\n      tag_71\n      calldatasize\n      0x04\n      tag_72\n      jump\t// in\n    tag_71:\n      sub(shl(0xa0, 0x01), 0x01)\n        /* \"@openzeppelin/contracts/token/ERC721/ERC721.sol\":4622:4647  _operatorApprovals[owner] */\n      swap2\n      dup3\n      and\n        /* \"@openzeppelin/contracts/token/ERC721/ERC721.sol\":4599:4603  bool */\n      0x00\n        /* \"@openzeppelin/contracts/token/ERC721/ERC721.sol\":4622:4647  _operatorApprovals[owner] */\n      swap1\n      dup2\n      mstore\n        /* \"@openzeppelin/contracts/token/ERC721/ERC721.sol\":4622:4640  _operatorApprovals */\n      0x05\n        /* \"@openzeppelin/contracts/token/ERC721/ERC721.sol\":4622:4647  _operatorApprovals[owner] */\n      0x20\n      swap1\n      dup2\n      mstore\n      0x40\n      dup1\n      dup4\n      keccak256\n        /* \"@openzeppelin/contracts/token/ERC721/ERC721.sol\":4622:4657  _operatorApprovals[owner][operator] */\n      swap4\n      swap1\n      swap5\n      and\n      dup3\n      mstore\n      swap2\n      swap1\n      swap2\n      mstore\n      keccak256\n      sload\n      0xff\n      and\n      swap1\n        /* \"@openzeppelin/contracts/token/ERC721/ERC721.sol\":4502:4664  function isApprovedForAll(address owner, address operator) public view virtual override returns (bool) {... */\n      jump\n        /* \"@openzeppelin/contracts/token/ERC721/ERC721.sol\":1570:1870  function supportsInterface(bytes4 interfaceId) public view virtual override(ERC165, IERC165) returns (bool) {... */\n    tag_21:\n        /* \"@openzeppelin/contracts/token/ERC721/ERC721.sol\":1672:1676  bool */\n      0x00\n      not(sub(shl(0xe0, 0x01), 0x01))\n        /* \"@openzeppelin/contracts/token/ERC721/ERC721.sol\":1707:1747  interfaceId == type(IERC721).interfaceId */\n      dup3\n      and\n      shl(0xe0, 0x80ac58cd)\n      eq\n      dup1\n        /* \"@openzeppelin/contracts/token/ERC721/ERC721.sol\":1707:1811  interfaceId == type(IERC721).interfaceId ||... */\n      tag_76\n      jumpi\n      pop\n      not(sub(shl(0xe0, 0x01), 0x01))\n        /* \"@openzeppelin/contracts/token/ERC721/ERC721.sol\":1763:1811  interfaceId == type(IERC721Metadata).interfaceId */\n      dup3\n      and\n      shl(0xe0, 0x5b5e139f)\n      eq\n        /* \"@openzeppelin/contracts/token/ERC721/ERC721.sol\":1707:1811  interfaceId == type(IERC721).interfaceId ||... */\n    tag_76:\n        /* \"@openzeppelin/contracts/token/ERC721/ERC721.sol\":1707:1863  interfaceId == type(IERC721).interfaceId ||... */\n      dup1\n      tag_78\n      jumpi\n      pop\n      shl(0xe0, 0x01ffc9a7)\n      not(sub(shl(0xe0, 0x01), 0x01))\n        /* \"@openzeppelin/contracts/utils/introspection/ERC165.sol\":937:977  interfaceId == type(IERC165).interfaceId */\n      dup4\n      and\n      eq\n        /* \"@openzeppelin/contracts/token/ERC721/ERC721.sol\":1827:1863  super.supportsInterface(interfaceId) */\n    tag_78:\n        /* \"@openzeppelin/contracts/token/ERC721/ERC721.sol\":1688:1863  return... */\n      swap3\n        /* \"@openzeppelin/contracts/token/ERC721/ERC721.sol\":1570:1870  function supportsInterface(bytes4 interfaceId) public view virtual override(ERC165, IERC165) returns (bool) {... */\n      swap2\n      pop\n      pop\n      jump\t// out\n        /* \"@openzeppelin/contracts/token/ERC721/ERC721.sol\":2488:2586  function name() public view virtual override returns (string memory) {... */\n    tag_25:\n        /* \"@openzeppelin/contracts/token/ERC721/ERC721.sol\":2542:2555  string memory */\n      0x60\n        /* \"@openzeppelin/contracts/token/ERC721/ERC721.sol\":2574:2579  _name */\n      0x00\n        /* \"@openzeppelin/contracts/token/ERC721/ERC721.sol\":2567:2579  return _name */\n      dup1\n      sload\n      tag_81\n      swap1\n      tag_82\n      jump\t// in\n    tag_81:\n      dup1\n      0x1f\n      add\n      0x20\n      dup1\n      swap2\n      div\n      mul\n      0x20\n      add\n      mload(0x40)\n      swap1\n      dup2\n      add\n      0x40\n      mstore\n      dup1\n      swap3\n      swap2\n      swap1\n      dup2\n      dup2\n      mstore\n      0x20\n      add\n      dup3\n      dup1\n      sload\n      tag_83\n      swap1\n      tag_82\n      jump\t// in\n    tag_83:\n      dup1\n      iszero\n      tag_84\n      jumpi\n      dup1\n      0x1f\n      lt\n      tag_85\n      jumpi\n      0x0100\n      dup1\n      dup4\n      sload\n      div\n      mul\n      dup4\n      mstore\n      swap2\n      0x20\n      add\n      swap2\n      jump(tag_84)\n    tag_85:\n      dup3\n      add\n      swap2\n      swap1\n      0x00\n      mstore\n      keccak256(0x00, 0x20)\n      swap1\n    tag_86:\n      dup2\n      sload\n      dup2\n      mstore\n      swap1\n      0x01\n      add\n      swap1\n      0x20\n      add\n      dup1\n      dup4\n      gt\n      tag_86\n      jumpi\n      dup3\n      swap1\n      sub\n      0x1f\n      and\n      dup3\n      add\n      swap2\n    tag_84:\n      pop\n      pop\n      pop\n      pop\n      pop\n      swap1\n      pop\n        /* \"@openzeppelin/contracts/token/ERC721/ERC721.sol\":2488:2586  function name() public view virtual override returns (string memory) {... */\n      swap1\n      jump\t// out\n        /* \"@openzeppelin/contracts/token/ERC721/ERC721.sol\":3999:4216  function getApproved(uint256 tokenId) public view virtual override returns (address) {... */\n    tag_31:\n        /* \"@openzeppelin/contracts/token/ERC721/ERC721.sol\":4075:4082  address */\n      0x00\n        /* \"@openzeppelin/contracts/token/ERC721/ERC721.sol\":7247:7263  _owners[tokenId] */\n      dup2\n      dup2\n      mstore\n        /* \"@openzeppelin/contracts/token/ERC721/ERC721.sol\":7247:7254  _owners */\n      0x02\n        /* \"@openzeppelin/contracts/token/ERC721/ERC721.sol\":7247:7263  _owners[tokenId] */\n      0x20\n      mstore\n      0x40\n      dup2\n      keccak256\n      sload\n      sub(shl(0xa0, 0x01), 0x01)\n      and\n        /* \"@openzeppelin/contracts/token/ERC721/ERC721.sol\":4094:4167  require(_exists(tokenId), \"ERC721: approved query for nonexistent token\") */\n      tag_90\n      jumpi\n      mload(0x40)\n      shl(0xe5, 0x461bcd)\n      dup2\n      mstore\n        /* \"#utility.yul\":8723:8725   */\n      0x20\n        /* \"@openzeppelin/contracts/token/ERC721/ERC721.sol\":4094:4167  require(_exists(tokenId), \"ERC721: approved query for nonexistent token\") */\n      0x04\n      dup3\n      add\n        /* \"#utility.yul\":8705:8726   */\n      mstore\n        /* \"#utility.yul\":8762:8764   */\n      0x2c\n        /* \"#utility.yul\":8742:8760   */\n      0x24\n      dup3\n      add\n        /* \"#utility.yul\":8735:8765   */\n      mstore\n        /* \"#utility.yul\":8801:8835   */\n      0x4552433732313a20617070726f76656420717565727920666f72206e6f6e6578\n        /* \"#utility.yul\":8781:8799   */\n      0x44\n      dup3\n      add\n        /* \"#utility.yul\":8774:8836   */\n      mstore\n      shl(0xa1, 0x34b9ba32b73a103a37b5b2b7)\n        /* \"#utility.yul\":8852:8870   */\n      0x64\n      dup3\n      add\n        /* \"#utility.yul\":8845:8887   */\n      mstore\n        /* \"#utility.yul\":8904:8923   */\n      0x84\n      add\n        /* \"@openzeppelin/contracts/token/ERC721/ERC721.sol\":4094:4167  require(_exists(tokenId), \"ERC721: approved query for nonexistent token\") */\n    tag_91:\n      mload(0x40)\n      dup1\n      swap2\n      sub\n      swap1\n      revert\n    tag_90:\n      pop\n        /* \"@openzeppelin/contracts/token/ERC721/ERC721.sol\":4185:4209  _tokenApprovals[tokenId] */\n      0x00\n      swap1\n      dup2\n      mstore\n        /* \"@openzeppelin/contracts/token/ERC721/ERC721.sol\":4185:4200  _tokenApprovals */\n      0x04\n        /* \"@openzeppelin/contracts/token/ERC721/ERC721.sol\":4185:4209  _tokenApprovals[tokenId] */\n      0x20\n      mstore\n      0x40\n      swap1\n      keccak256\n      sload\n      sub(shl(0xa0, 0x01), 0x01)\n      and\n      swap1\n        /* \"@openzeppelin/contracts/token/ERC721/ERC721.sol\":3999:4216  function getApproved(uint256 tokenId) public view virtual override returns (address) {... */\n      jump\t// out\n        /* \"@openzeppelin/contracts/token/ERC721/ERC721.sol\":3537:3938  function approve(address to, uint256 tokenId) public virtual override {... */\n    tag_37:\n        /* \"@openzeppelin/contracts/token/ERC721/ERC721.sol\":3617:3630  address owner */\n      0x00\n        /* \"@openzeppelin/contracts/token/ERC721/ERC721.sol\":3633:3656  ERC721.ownerOf(tokenId) */\n      tag_94\n        /* \"@openzeppelin/contracts/token/ERC721/ERC721.sol\":3648:3655  tokenId */\n      dup3\n        /* \"@openzeppelin/contracts/token/ERC721/ERC721.sol\":3633:3647  ERC721.ownerOf */\n      tag_47\n        /* \"@openzeppelin/contracts/token/ERC721/ERC721.sol\":3633:3656  ERC721.ownerOf(tokenId) */\n      jump\t// in\n    tag_94:\n        /* \"@openzeppelin/contracts/token/ERC721/ERC721.sol\":3617:3656  address owner = ERC721.ownerOf(tokenId) */\n      swap1\n      pop\n        /* \"@openzeppelin/contracts/token/ERC721/ERC721.sol\":3680:3685  owner */\n      dup1\n      sub(shl(0xa0, 0x01), 0x01)\n        /* \"@openzeppelin/contracts/token/ERC721/ERC721.sol\":3674:3685  to != owner */\n      and\n        /* \"@openzeppelin/contracts/token/ERC721/ERC721.sol\":3674:3676  to */\n      dup4\n      sub(shl(0xa0, 0x01), 0x01)\n        /* \"@openzeppelin/contracts/token/ERC721/ERC721.sol\":3674:3685  to != owner */\n      and\n      eq\n      iszero\n        /* \"@openzeppelin/contracts/token/ERC721/ERC721.sol\":3666:3723  require(to != owner, \"ERC721: approval to current owner\") */\n      tag_95\n      jumpi\n      mload(0x40)\n      shl(0xe5, 0x461bcd)\n      dup2\n      mstore\n        /* \"#utility.yul\":9552:9554   */\n      0x20\n        /* \"@openzeppelin/contracts/token/ERC721/ERC721.sol\":3666:3723  require(to != owner, \"ERC721: approval to current owner\") */\n      0x04\n      dup3\n      add\n        /* \"#utility.yul\":9534:9555   */\n      mstore\n        /* \"#utility.yul\":9591:9593   */\n      0x21\n        /* \"#utility.yul\":9571:9589   */\n      0x24\n      dup3\n      add\n        /* \"#utility.yul\":9564:9594   */\n      mstore\n        /* \"#utility.yul\":9630:9664   */\n      0x4552433732313a20617070726f76616c20746f2063757272656e74206f776e65\n        /* \"#utility.yul\":9610:9628   */\n      0x44\n      dup3\n      add\n        /* \"#utility.yul\":9603:9665   */\n      mstore\n      shl(0xf9, 0x39)\n        /* \"#utility.yul\":9681:9699   */\n      0x64\n      dup3\n      add\n        /* \"#utility.yul\":9674:9705   */\n      mstore\n        /* \"#utility.yul\":9722:9741   */\n      0x84\n      add\n        /* \"@openzeppelin/contracts/token/ERC721/ERC721.sol\":3666:3723  require(to != owner, \"ERC721: approval to current owner\") */\n      tag_91\n        /* \"#utility.yul\":9524:9747   */\n      jump\n        /* \"@openzeppelin/contracts/token/ERC721/ERC721.sol\":3666:3723  require(to != owner, \"ERC721: approval to current owner\") */\n    tag_95:\n        /* \"@openzeppelin/contracts/utils/Context.sol\":719:729  msg.sender */\n      caller\n      sub(shl(0xa0, 0x01), 0x01)\n        /* \"@openzeppelin/contracts/token/ERC721/ERC721.sol\":3755:3776  _msgSender() == owner */\n      dup3\n      and\n      eq\n      dup1\n        /* \"@openzeppelin/contracts/token/ERC721/ERC721.sol\":3755:3817  _msgSender() == owner || isApprovedForAll(owner, _msgSender()) */\n      tag_101\n      jumpi\n      pop\n        /* \"@openzeppelin/contracts/token/ERC721/ERC721.sol\":3780:3817  isApprovedForAll(owner, _msgSender()) */\n      tag_101\n        /* \"@openzeppelin/contracts/token/ERC721/ERC721.sol\":3797:3802  owner */\n      dup2\n        /* \"@openzeppelin/contracts/utils/Context.sol\":719:729  msg.sender */\n      caller\n        /* \"@openzeppelin/contracts/token/ERC721/ERC721.sol\":4502:4664  function isApprovedForAll(address owner, address operator) public view virtual override returns (bool) {... */\n      tag_71\n      jump\t// in\n        /* \"@openzeppelin/contracts/token/ERC721/ERC721.sol\":3780:3817  isApprovedForAll(owner, _msgSender()) */\n    tag_101:\n        /* \"@openzeppelin/contracts/token/ERC721/ERC721.sol\":3734:3899  require(... */\n      tag_103\n      jumpi\n      mload(0x40)\n      shl(0xe5, 0x461bcd)\n      dup2\n      mstore\n        /* \"#utility.yul\":7477:7479   */\n      0x20\n        /* \"@openzeppelin/contracts/token/ERC721/ERC721.sol\":3734:3899  require(... */\n      0x04\n      dup3\n      add\n        /* \"#utility.yul\":7459:7480   */\n      mstore\n        /* \"#utility.yul\":7516:7518   */\n      0x38\n        /* \"#utility.yul\":7496:7514   */\n      0x24\n      dup3\n      add\n        /* \"#utility.yul\":7489:7519   */\n      mstore\n        /* \"#utility.yul\":7555:7589   */\n      0x4552433732313a20617070726f76652063616c6c6572206973206e6f74206f77\n        /* \"#utility.yul\":7535:7553   */\n      0x44\n      dup3\n      add\n        /* \"#utility.yul\":7528:7590   */\n      mstore\n        /* \"#utility.yul\":7626:7652   */\n      0x6e6572206e6f7220617070726f76656420666f7220616c6c0000000000000000\n        /* \"#utility.yul\":7606:7624   */\n      0x64\n      dup3\n      add\n        /* \"#utility.yul\":7599:7653   */\n      mstore\n        /* \"#utility.yul\":7670:7689   */\n      0x84\n      add\n        /* \"@openzeppelin/contracts/token/ERC721/ERC721.sol\":3734:3899  require(... */\n      tag_91\n        /* \"#utility.yul\":7449:7695   */\n      jump\n        /* \"@openzeppelin/contracts/token/ERC721/ERC721.sol\":3734:3899  require(... */\n    tag_103:\n        /* \"@openzeppelin/contracts/token/ERC721/ERC721.sol\":3910:3931  _approve(to, tokenId) */\n      tag_106\n        /* \"@openzeppelin/contracts/token/ERC721/ERC721.sol\":3919:3921  to */\n      dup4\n        /* \"@openzeppelin/contracts/token/ERC721/ERC721.sol\":3923:3930  tokenId */\n      dup4\n        /* \"@openzeppelin/contracts/token/ERC721/ERC721.sol\":3910:3918  _approve */\n      tag_107\n        /* \"@openzeppelin/contracts/token/ERC721/ERC721.sol\":3910:3931  _approve(to, tokenId) */\n      jump\t// in\n    tag_106:\n        /* \"@openzeppelin/contracts/token/ERC721/ERC721.sol\":3607:3938  {... */\n      pop\n        /* \"@openzeppelin/contracts/token/ERC721/ERC721.sol\":3537:3938  function approve(address to, uint256 tokenId) public virtual override {... */\n      pop\n      pop\n      jump\t// out\n        /* \"@openzeppelin/contracts/token/ERC721/ERC721.sol\":4726:5056  function transferFrom(... */\n    tag_41:\n        /* \"@openzeppelin/contracts/token/ERC721/ERC721.sol\":4915:4956  _isApprovedOrOwner(_msgSender(), tokenId) */\n      tag_109\n        /* \"@openzeppelin/contracts/utils/Context.sol\":719:729  msg.sender */\n      caller\n        /* \"@openzeppelin/contracts/token/ERC721/ERC721.sol\":4948:4955  tokenId */\n      dup3\n        /* \"@openzeppelin/contracts/token/ERC721/ERC721.sol\":4915:4933  _isApprovedOrOwner */\n      tag_111\n        /* \"@openzeppelin/contracts/token/ERC721/ERC721.sol\":4915:4956  _isApprovedOrOwner(_msgSender(), tokenId) */\n      jump\t// in\n    tag_109:\n        /* \"@openzeppelin/contracts/token/ERC721/ERC721.sol\":4907:5010  require(_isApprovedOrOwner(_msgSender(), tokenId), \"ERC721: transfer caller is not owner nor approved\") */\n      tag_112\n      jumpi\n      mload(0x40)\n      shl(0xe5, 0x461bcd)\n      dup2\n      mstore\n      0x04\n      add\n      tag_91\n      swap1\n      tag_114\n      jump\t// in\n    tag_112:\n        /* \"@openzeppelin/contracts/token/ERC721/ERC721.sol\":5021:5049  _transfer(from, to, tokenId) */\n      tag_106\n        /* \"@openzeppelin/contracts/token/ERC721/ERC721.sol\":5031:5035  from */\n      dup4\n        /* \"@openzeppelin/contracts/token/ERC721/ERC721.sol\":5037:5039  to */\n      dup4\n        /* \"@openzeppelin/contracts/token/ERC721/ERC721.sol\":5041:5048  tokenId */\n      dup4\n        /* \"@openzeppelin/contracts/token/ERC721/ERC721.sol\":5021:5030  _transfer */\n      tag_116\n        /* \"@openzeppelin/contracts/token/ERC721/ERC721.sol\":5021:5049  _transfer(from, to, tokenId) */\n      jump\t// in\n        /* \"@openzeppelin/contracts/token/ERC721/ERC721.sol\":5122:5301  function safeTransferFrom(... */\n    tag_44:\n        /* \"@openzeppelin/contracts/token/ERC721/ERC721.sol\":5255:5294  safeTransferFrom(from, to, tokenId, \"\") */\n      tag_106\n        /* \"@openzeppelin/contracts/token/ERC721/ERC721.sol\":5272:5276  from */\n      dup4\n        /* \"@openzeppelin/contracts/token/ERC721/ERC721.sol\":5278:5280  to */\n      dup4\n        /* \"@openzeppelin/contracts/token/ERC721/ERC721.sol\":5282:5289  tokenId */\n      dup4\n        /* \"@openzeppelin/contracts/token/ERC721/ERC721.sol\":5255:5294  safeTransferFrom(from, to, tokenId, \"\") */\n      mload(0x40)\n      dup1\n      0x20\n      add\n      0x40\n      mstore\n      dup1\n      0x00\n      dup2\n      mstore\n      pop\n        /* \"@openzeppelin/contracts/token/ERC721/ERC721.sol\":5255:5271  safeTransferFrom */\n      tag_65\n        /* \"@openzeppelin/contracts/token/ERC721/ERC721.sol\":5255:5294  safeTransferFrom(from, to, tokenId, \"\") */\n      jump\t// in\n        /* \"@openzeppelin/contracts/token/ERC721/ERC721.sol\":2191:2426  function ownerOf(uint256 tokenId) public view virtual override returns (address) {... */\n    tag_47:\n        /* \"@openzeppelin/contracts/token/ERC721/ERC721.sol\":2263:2270  address */\n      0x00\n        /* \"@openzeppelin/contracts/token/ERC721/ERC721.sol\":2298:2314  _owners[tokenId] */\n      dup2\n      dup2\n      mstore\n        /* \"@openzeppelin/contracts/token/ERC721/ERC721.sol\":2298:2305  _owners */\n      0x02\n        /* \"@openzeppelin/contracts/token/ERC721/ERC721.sol\":2298:2314  _owners[tokenId] */\n      0x20\n      mstore\n      0x40\n      dup2\n      keccak256\n      sload\n      sub(shl(0xa0, 0x01), 0x01)\n      and\n        /* \"@openzeppelin/contracts/token/ERC721/ERC721.sol\":2332:2351  owner != address(0) */\n      dup1\n        /* \"@openzeppelin/contracts/token/ERC721/ERC721.sol\":2324:2397  require(owner != address(0), \"ERC721: owner query for nonexistent token\") */\n      tag_78\n      jumpi\n      mload(0x40)\n      shl(0xe5, 0x461bcd)\n      dup2\n      mstore\n        /* \"#utility.yul\":8313:8315   */\n      0x20\n        /* \"@openzeppelin/contracts/token/ERC721/ERC721.sol\":2324:2397  require(owner != address(0), \"ERC721: owner query for nonexistent token\") */\n      0x04\n      dup3\n      add\n        /* \"#utility.yul\":8295:8316   */\n      mstore\n        /* \"#utility.yul\":8352:8354   */\n      0x29\n        /* \"#utility.yul\":8332:8350   */\n      0x24\n      dup3\n      add\n        /* \"#utility.yul\":8325:8355   */\n      mstore\n        /* \"#utility.yul\":8391:8425   */\n      0x4552433732313a206f776e657220717565727920666f72206e6f6e6578697374\n        /* \"#utility.yul\":8371:8389   */\n      0x44\n      dup3\n      add\n        /* \"#utility.yul\":8364:8426   */\n      mstore\n      shl(0xb9, 0x32b73a103a37b5b2b7)\n        /* \"#utility.yul\":8442:8460   */\n      0x64\n      dup3\n      add\n        /* \"#utility.yul\":8435:8474   */\n      mstore\n        /* \"#utility.yul\":8491:8510   */\n      0x84\n      add\n        /* \"@openzeppelin/contracts/token/ERC721/ERC721.sol\":2324:2397  require(owner != address(0), \"ERC721: owner query for nonexistent token\") */\n      tag_91\n        /* \"#utility.yul\":8285:8516   */\n      jump\n        /* \"@openzeppelin/contracts/token/ERC721/ERC721.sol\":1929:2134  function balanceOf(address owner) public view virtual override returns (uint256) {... */\n    tag_52:\n        /* \"@openzeppelin/contracts/token/ERC721/ERC721.sol\":2001:2008  uint256 */\n      0x00\n      sub(shl(0xa0, 0x01), 0x01)\n        /* \"@openzeppelin/contracts/token/ERC721/ERC721.sol\":2028:2047  owner != address(0) */\n      dup3\n      and\n        /* \"@openzeppelin/contracts/token/ERC721/ERC721.sol\":2020:2094  require(owner != address(0), \"ERC721: balance query for the zero address\") */\n      tag_124\n      jumpi\n      mload(0x40)\n      shl(0xe5, 0x461bcd)\n      dup2\n      mstore\n        /* \"#utility.yul\":7902:7904   */\n      0x20\n        /* \"@openzeppelin/contracts/token/ERC721/ERC721.sol\":2020:2094  require(owner != address(0), \"ERC721: balance query for the zero address\") */\n      0x04\n      dup3\n      add\n        /* \"#utility.yul\":7884:7905   */\n      mstore\n        /* \"#utility.yul\":7941:7943   */\n      0x2a\n        /* \"#utility.yul\":7921:7939   */\n      0x24\n      dup3\n      add\n        /* \"#utility.yul\":7914:7944   */\n      mstore\n        /* \"#utility.yul\":7980:8014   */\n      0x4552433732313a2062616c616e636520717565727920666f7220746865207a65\n        /* \"#utility.yul\":7960:7978   */\n      0x44\n      dup3\n      add\n        /* \"#utility.yul\":7953:8015   */\n      mstore\n      shl(0xb0, 0x726f2061646472657373)\n        /* \"#utility.yul\":8031:8049   */\n      0x64\n      dup3\n      add\n        /* \"#utility.yul\":8024:8064   */\n      mstore\n        /* \"#utility.yul\":8081:8100   */\n      0x84\n      add\n        /* \"@openzeppelin/contracts/token/ERC721/ERC721.sol\":2020:2094  require(owner != address(0), \"ERC721: balance query for the zero address\") */\n      tag_91\n        /* \"#utility.yul\":7874:8106   */\n      jump\n        /* \"@openzeppelin/contracts/token/ERC721/ERC721.sol\":2020:2094  require(owner != address(0), \"ERC721: balance query for the zero address\") */\n    tag_124:\n      pop\n      sub(shl(0xa0, 0x01), 0x01)\n        /* \"@openzeppelin/contracts/token/ERC721/ERC721.sol\":2111:2127  _balances[owner] */\n      and\n      0x00\n      swap1\n      dup2\n      mstore\n        /* \"@openzeppelin/contracts/token/ERC721/ERC721.sol\":2111:2120  _balances */\n      0x03\n        /* \"@openzeppelin/contracts/token/ERC721/ERC721.sol\":2111:2127  _balances[owner] */\n      0x20\n      mstore\n      0x40\n      swap1\n      keccak256\n      sload\n      swap1\n        /* \"@openzeppelin/contracts/token/ERC721/ERC721.sol\":1929:2134  function balanceOf(address owner) public view virtual override returns (uint256) {... */\n      jump\t// out\n        /* \"@openzeppelin/contracts/token/ERC721/ERC721.sol\":2650:2752  function symbol() public view virtual override returns (string memory) {... */\n    tag_56:\n        /* \"@openzeppelin/contracts/token/ERC721/ERC721.sol\":2706:2719  string memory */\n      0x60\n        /* \"@openzeppelin/contracts/token/ERC721/ERC721.sol\":2738:2745  _symbol */\n      0x01\n        /* \"@openzeppelin/contracts/token/ERC721/ERC721.sol\":2731:2745  return _symbol */\n      dup1\n      sload\n      tag_81\n      swap1\n      tag_82\n      jump\t// in\n        /* \"@openzeppelin/contracts/token/ERC721/ERC721.sol\":4283:4436  function setApprovalForAll(address operator, bool approved) public virtual override {... */\n    tag_61:\n        /* \"@openzeppelin/contracts/token/ERC721/ERC721.sol\":4377:4429  _setApprovalForAll(_msgSender(), operator, approved) */\n      tag_134\n        /* \"@openzeppelin/contracts/utils/Context.sol\":719:729  msg.sender */\n      caller\n        /* \"@openzeppelin/contracts/token/ERC721/ERC721.sol\":4410:4418  operator */\n      dup4\n        /* \"@openzeppelin/contracts/token/ERC721/ERC721.sol\":4420:4428  approved */\n      dup4\n        /* \"@openzeppelin/contracts/token/ERC721/ERC721.sol\":4377:4395  _setApprovalForAll */\n      tag_136\n        /* \"@openzeppelin/contracts/token/ERC721/ERC721.sol\":4377:4429  _setApprovalForAll(_msgSender(), operator, approved) */\n      jump\t// in\n    tag_134:\n        /* \"@openzeppelin/contracts/token/ERC721/ERC721.sol\":4283:4436  function setApprovalForAll(address operator, bool approved) public virtual override {... */\n      pop\n      pop\n      jump\t// out\n        /* \"@openzeppelin/contracts/token/ERC721/ERC721.sol\":5367:5687  function safeTransferFrom(... */\n    tag_65:\n        /* \"@openzeppelin/contracts/token/ERC721/ERC721.sol\":5536:5577  _isApprovedOrOwner(_msgSender(), tokenId) */\n      tag_138\n        /* \"@openzeppelin/contracts/utils/Context.sol\":719:729  msg.sender */\n      caller\n        /* \"@openzeppelin/contracts/token/ERC721/ERC721.sol\":5569:5576  tokenId */\n      dup4\n        /* \"@openzeppelin/contracts/token/ERC721/ERC721.sol\":5536:5554  _isApprovedOrOwner */\n      tag_111\n        /* \"@openzeppelin/contracts/token/ERC721/ERC721.sol\":5536:5577  _isApprovedOrOwner(_msgSender(), tokenId) */\n      jump\t// in\n    tag_138:\n        /* \"@openzeppelin/contracts/token/ERC721/ERC721.sol\":5528:5631  require(_isApprovedOrOwner(_msgSender(), tokenId), \"ERC721: transfer caller is not owner nor approved\") */\n      tag_140\n      jumpi\n      mload(0x40)\n      shl(0xe5, 0x461bcd)\n      dup2\n      mstore\n      0x04\n      add\n      tag_91\n      swap1\n      tag_114\n      jump\t// in\n    tag_140:\n        /* \"@openzeppelin/contracts/token/ERC721/ERC721.sol\":5641:5680  _safeTransfer(from, to, tokenId, _data) */\n      tag_142\n        /* \"@openzeppelin/contracts/token/ERC721/ERC721.sol\":5655:5659  from */\n      dup5\n        /* \"@openzeppelin/contracts/token/ERC721/ERC721.sol\":5661:5663  to */\n      dup5\n        /* \"@openzeppelin/contracts/token/ERC721/ERC721.sol\":5665:5672  tokenId */\n      dup5\n        /* \"@openzeppelin/contracts/token/ERC721/ERC721.sol\":5674:5679  _data */\n      dup5\n        /* \"@openzeppelin/contracts/token/ERC721/ERC721.sol\":5641:5654  _safeTransfer */\n      tag_143\n        /* \"@openzeppelin/contracts/token/ERC721/ERC721.sol\":5641:5680  _safeTransfer(from, to, tokenId, _data) */\n      jump\t// in\n    tag_142:\n        /* \"@openzeppelin/contracts/token/ERC721/ERC721.sol\":5367:5687  function safeTransferFrom(... */\n      pop\n      pop\n      pop\n      pop\n      jump\t// out\n        /* \"@openzeppelin/contracts/token/ERC721/ERC721.sol\":2818:3147  function tokenURI(uint256 tokenId) public view virtual override returns (string memory) {... */\n    tag_68:\n        /* \"@openzeppelin/contracts/token/ERC721/ERC721.sol\":7224:7228  bool */\n      0x00\n        /* \"@openzeppelin/contracts/token/ERC721/ERC721.sol\":7247:7263  _owners[tokenId] */\n      dup2\n      dup2\n      mstore\n        /* \"@openzeppelin/contracts/token/ERC721/ERC721.sol\":7247:7254  _owners */\n      0x02\n        /* \"@openzeppelin/contracts/token/ERC721/ERC721.sol\":7247:7263  _owners[tokenId] */\n      0x20\n      mstore\n      0x40\n      swap1\n      keccak256\n      sload\n        /* \"@openzeppelin/contracts/token/ERC721/ERC721.sol\":2891:2904  string memory */\n      0x60\n      swap1\n      sub(shl(0xa0, 0x01), 0x01)\n        /* \"@openzeppelin/contracts/token/ERC721/ERC721.sol\":7247:7263  _owners[tokenId] */\n      and\n        /* \"@openzeppelin/contracts/token/ERC721/ERC721.sol\":2916:2992  require(_exists(tokenId), \"ERC721Metadata: URI query for nonexistent token\") */\n      tag_146\n      jumpi\n      mload(0x40)\n      shl(0xe5, 0x461bcd)\n      dup2\n      mstore\n        /* \"#utility.yul\":9136:9138   */\n      0x20\n        /* \"@openzeppelin/contracts/token/ERC721/ERC721.sol\":2916:2992  require(_exists(tokenId), \"ERC721Metadata: URI query for nonexistent token\") */\n      0x04\n      dup3\n      add\n        /* \"#utility.yul\":9118:9139   */\n      mstore\n        /* \"#utility.yul\":9175:9177   */\n      0x2f\n        /* \"#utility.yul\":9155:9173   */\n      0x24\n      dup3\n      add\n        /* \"#utility.yul\":9148:9178   */\n      mstore\n        /* \"#utility.yul\":9214:9248   */\n      0x4552433732314d657461646174613a2055524920717565727920666f72206e6f\n        /* \"#utility.yul\":9194:9212   */\n      0x44\n      dup3\n      add\n        /* \"#utility.yul\":9187:9249   */\n      mstore\n      shl(0x89, 0x3732bc34b9ba32b73a103a37b5b2b7)\n        /* \"#utility.yul\":9265:9283   */\n      0x64\n      dup3\n      add\n        /* \"#utility.yul\":9258:9303   */\n      mstore\n        /* \"#utility.yul\":9320:9339   */\n      0x84\n      add\n        /* \"@openzeppelin/contracts/token/ERC721/ERC721.sol\":2916:2992  require(_exists(tokenId), \"ERC721Metadata: URI query for nonexistent token\") */\n      tag_91\n        /* \"#utility.yul\":9108:9345   */\n      jump\n        /* \"@openzeppelin/contracts/token/ERC721/ERC721.sol\":2916:2992  require(_exists(tokenId), \"ERC721Metadata: URI query for nonexistent token\") */\n    tag_146:\n        /* \"@openzeppelin/contracts/token/ERC721/ERC721.sol\":3003:3024  string memory baseURI */\n      0x00\n        /* \"@openzeppelin/contracts/token/ERC721/ERC721.sol\":3027:3037  _baseURI() */\n      tag_149\n        /* \"@openzeppelin/contracts/token/ERC721/ERC721.sol\":3464:3473  return \"\" */\n      0x40\n      dup1\n      mload\n      0x20\n      dup2\n      add\n      swap1\n      swap2\n      mstore\n      0x00\n      dup2\n      mstore\n      swap1\n        /* \"@openzeppelin/contracts/token/ERC721/ERC721.sol\":3388:3480  function _baseURI() internal view virtual returns (string memory) {... */\n      jump\n        /* \"@openzeppelin/contracts/token/ERC721/ERC721.sol\":3027:3037  _baseURI() */\n    tag_149:\n        /* \"@openzeppelin/contracts/token/ERC721/ERC721.sol\":3003:3037  string memory baseURI = _baseURI() */\n      swap1\n      pop\n        /* \"@openzeppelin/contracts/token/ERC721/ERC721.sol\":3078:3079  0 */\n      0x00\n        /* \"@openzeppelin/contracts/token/ERC721/ERC721.sol\":3060:3067  baseURI */\n      dup2\n        /* \"@openzeppelin/contracts/token/ERC721/ERC721.sol\":3054:3075  bytes(baseURI).length */\n      mload\n        /* \"@openzeppelin/contracts/token/ERC721/ERC721.sol\":3054:3079  bytes(baseURI).length > 0 */\n      gt\n        /* \"@openzeppelin/contracts/token/ERC721/ERC721.sol\":3054:3140  bytes(baseURI).length > 0 ? string(abi.encodePacked(baseURI, tokenId.toString())) : \"\" */\n      tag_151\n      jumpi\n      mload(0x40)\n      dup1\n      0x20\n      add\n      0x40\n      mstore\n      dup1\n      0x00\n      dup2\n      mstore\n      pop\n      jump(tag_152)\n    tag_151:\n        /* \"@openzeppelin/contracts/token/ERC721/ERC721.sol\":3106:3113  baseURI */\n      dup1\n        /* \"@openzeppelin/contracts/token/ERC721/ERC721.sol\":3115:3133  tokenId.toString() */\n      tag_153\n        /* \"@openzeppelin/contracts/token/ERC721/ERC721.sol\":3115:3122  tokenId */\n      dup5\n        /* \"@openzeppelin/contracts/token/ERC721/ERC721.sol\":3115:3131  tokenId.toString */\n      tag_154\n        /* \"@openzeppelin/contracts/token/ERC721/ERC721.sol\":3115:3133  tokenId.toString() */\n      jump\t// in\n    tag_153:\n        /* \"@openzeppelin/contracts/token/ERC721/ERC721.sol\":3089:3134  abi.encodePacked(baseURI, tokenId.toString()) */\n      add(0x20, mload(0x40))\n      tag_155\n      swap3\n      swap2\n      swap1\n      tag_156\n      jump\t// in\n    tag_155:\n      mload(0x40)\n      0x20\n      dup2\n      dup4\n      sub\n      sub\n      dup2\n      mstore\n      swap1\n      0x40\n      mstore\n        /* \"@openzeppelin/contracts/token/ERC721/ERC721.sol\":3054:3140  bytes(baseURI).length > 0 ? string(abi.encodePacked(baseURI, tokenId.toString())) : \"\" */\n    tag_152:\n        /* \"@openzeppelin/contracts/token/ERC721/ERC721.sol\":3047:3140  return bytes(baseURI).length > 0 ? string(abi.encodePacked(baseURI, tokenId.toString())) : \"\" */\n      swap4\n        /* \"@openzeppelin/contracts/token/ERC721/ERC721.sol\":2818:3147  function tokenURI(uint256 tokenId) public view virtual override returns (string memory) {... */\n      swap3\n      pop\n      pop\n      pop\n      jump\t// out\n        /* \"@openzeppelin/contracts/token/ERC721/ERC721.sol\":11168:11339  function _approve(address to, uint256 tokenId) internal virtual {... */\n    tag_107:\n        /* \"@openzeppelin/contracts/token/ERC721/ERC721.sol\":11242:11266  _tokenApprovals[tokenId] */\n      0x00\n      dup2\n      dup2\n      mstore\n        /* \"@openzeppelin/contracts/token/ERC721/ERC721.sol\":11242:11257  _tokenApprovals */\n      0x04\n        /* \"@openzeppelin/contracts/token/ERC721/ERC721.sol\":11242:11266  _tokenApprovals[tokenId] */\n      0x20\n      mstore\n      0x40\n      swap1\n      keccak256\n        /* \"@openzeppelin/contracts/token/ERC721/ERC721.sol\":11242:11271  _tokenApprovals[tokenId] = to */\n      dup1\n      sload\n      not(sub(shl(0xa0, 0x01), 0x01))\n      and\n      sub(shl(0xa0, 0x01), 0x01)\n      dup5\n      and\n      swap1\n      dup2\n      or\n      swap1\n      swap2\n      sstore\n        /* \"@openzeppelin/contracts/token/ERC721/ERC721.sol\":11242:11266  _tokenApprovals[tokenId] */\n      dup2\n      swap1\n        /* \"@openzeppelin/contracts/token/ERC721/ERC721.sol\":11295:11318  ERC721.ownerOf(tokenId) */\n      tag_162\n        /* \"@openzeppelin/contracts/token/ERC721/ERC721.sol\":11242:11266  _tokenApprovals[tokenId] */\n      dup3\n        /* \"@openzeppelin/contracts/token/ERC721/ERC721.sol\":11295:11309  ERC721.ownerOf */\n      tag_47\n        /* \"@openzeppelin/contracts/token/ERC721/ERC721.sol\":11295:11318  ERC721.ownerOf(tokenId) */\n      jump\t// in\n    tag_162:\n      sub(shl(0xa0, 0x01), 0x01)\n        /* \"@openzeppelin/contracts/token/ERC721/ERC721.sol\":11286:11332  Approval(ERC721.ownerOf(tokenId), to, tokenId) */\n      and\n      0x8c5be1e5ebec7d5bd14f71427d1e84f3dd0314c0f7b2291e5b200ac8c7c3b925\n      mload(0x40)\n      mload(0x40)\n      dup1\n      swap2\n      sub\n      swap1\n      log4\n        /* \"@openzeppelin/contracts/token/ERC721/ERC721.sol\":11168:11339  function _approve(address to, uint256 tokenId) internal virtual {... */\n      pop\n      pop\n      jump\t// out\n        /* \"@openzeppelin/contracts/token/ERC721/ERC721.sol\":7442:7786  function _isApprovedOrOwner(address spender, uint256 tokenId) internal view virtual returns (bool) {... */\n    tag_111:\n        /* \"@openzeppelin/contracts/token/ERC721/ERC721.sol\":7535:7539  bool */\n      0x00\n        /* \"@openzeppelin/contracts/token/ERC721/ERC721.sol\":7247:7263  _owners[tokenId] */\n      dup2\n      dup2\n      mstore\n        /* \"@openzeppelin/contracts/token/ERC721/ERC721.sol\":7247:7254  _owners */\n      0x02\n        /* \"@openzeppelin/contracts/token/ERC721/ERC721.sol\":7247:7263  _owners[tokenId] */\n      0x20\n      mstore\n      0x40\n      dup2\n      keccak256\n      sload\n      sub(shl(0xa0, 0x01), 0x01)\n      and\n        /* \"@openzeppelin/contracts/token/ERC721/ERC721.sol\":7551:7624  require(_exists(tokenId), \"ERC721: operator query for nonexistent token\") */\n      tag_165\n      jumpi\n      mload(0x40)\n      shl(0xe5, 0x461bcd)\n      dup2\n      mstore\n        /* \"#utility.yul\":7064:7066   */\n      0x20\n        /* \"@openzeppelin/contracts/token/ERC721/ERC721.sol\":7551:7624  require(_exists(tokenId), \"ERC721: operator query for nonexistent token\") */\n      0x04\n      dup3\n      add\n        /* \"#utility.yul\":7046:7067   */\n      mstore\n        /* \"#utility.yul\":7103:7105   */\n      0x2c\n        /* \"#utility.yul\":7083:7101   */\n      0x24\n      dup3\n      add\n        /* \"#utility.yul\":7076:7106   */\n      mstore\n        /* \"#utility.yul\":7142:7176   */\n      0x4552433732313a206f70657261746f7220717565727920666f72206e6f6e6578\n        /* \"#utility.yul\":7122:7140   */\n      0x44\n      dup3\n      add\n        /* \"#utility.yul\":7115:7177   */\n      mstore\n      shl(0xa1, 0x34b9ba32b73a103a37b5b2b7)\n        /* \"#utility.yul\":7193:7211   */\n      0x64\n      dup3\n      add\n        /* \"#utility.yul\":7186:7228   */\n      mstore\n        /* \"#utility.yul\":7245:7264   */\n      0x84\n      add\n        /* \"@openzeppelin/contracts/token/ERC721/ERC721.sol\":7551:7624  require(_exists(tokenId), \"ERC721: operator query for nonexistent token\") */\n      tag_91\n        /* \"#utility.yul\":7036:7270   */\n      jump\n        /* \"@openzeppelin/contracts/token/ERC721/ERC721.sol\":7551:7624  require(_exists(tokenId), \"ERC721: operator query for nonexistent token\") */\n    tag_165:\n        /* \"@openzeppelin/contracts/token/ERC721/ERC721.sol\":7634:7647  address owner */\n      0x00\n        /* \"@openzeppelin/contracts/token/ERC721/ERC721.sol\":7650:7673  ERC721.ownerOf(tokenId) */\n      tag_168\n        /* \"@openzeppelin/contracts/token/ERC721/ERC721.sol\":7665:7672  tokenId */\n      dup4\n        /* \"@openzeppelin/contracts/token/ERC721/ERC721.sol\":7650:7664  ERC721.ownerOf */\n      tag_47\n        /* \"@openzeppelin/contracts/token/ERC721/ERC721.sol\":7650:7673  ERC721.ownerOf(tokenId) */\n      jump\t// in\n    tag_168:\n        /* \"@openzeppelin/contracts/token/ERC721/ERC721.sol\":7634:7673  address owner = ERC721.ownerOf(tokenId) */\n      swap1\n      pop\n        /* \"@openzeppelin/contracts/token/ERC721/ERC721.sol\":7702:7707  owner */\n      dup1\n      sub(shl(0xa0, 0x01), 0x01)\n        /* \"@openzeppelin/contracts/token/ERC721/ERC721.sol\":7691:7707  spender == owner */\n      and\n        /* \"@openzeppelin/contracts/token/ERC721/ERC721.sol\":7691:7698  spender */\n      dup5\n      sub(shl(0xa0, 0x01), 0x01)\n        /* \"@openzeppelin/contracts/token/ERC721/ERC721.sol\":7691:7707  spender == owner */\n      and\n      eq\n        /* \"@openzeppelin/contracts/token/ERC721/ERC721.sol\":7691:7742  spender == owner || getApproved(tokenId) == spender */\n      dup1\n      tag_169\n      jumpi\n      pop\n        /* \"@openzeppelin/contracts/token/ERC721/ERC721.sol\":7735:7742  spender */\n      dup4\n      sub(shl(0xa0, 0x01), 0x01)\n        /* \"@openzeppelin/contracts/token/ERC721/ERC721.sol\":7711:7742  getApproved(tokenId) == spender */\n      and\n        /* \"@openzeppelin/contracts/token/ERC721/ERC721.sol\":7711:7731  getApproved(tokenId) */\n      tag_170\n        /* \"@openzeppelin/contracts/token/ERC721/ERC721.sol\":7723:7730  tokenId */\n      dup5\n        /* \"@openzeppelin/contracts/token/ERC721/ERC721.sol\":7711:7722  getApproved */\n      tag_31\n        /* \"@openzeppelin/contracts/token/ERC721/ERC721.sol\":7711:7731  getApproved(tokenId) */\n      jump\t// in\n    tag_170:\n      sub(shl(0xa0, 0x01), 0x01)\n        /* \"@openzeppelin/contracts/token/ERC721/ERC721.sol\":7711:7742  getApproved(tokenId) == spender */\n      and\n      eq\n        /* \"@openzeppelin/contracts/token/ERC721/ERC721.sol\":7691:7742  spender == owner || getApproved(tokenId) == spender */\n    tag_169:\n        /* \"@openzeppelin/contracts/token/ERC721/ERC721.sol\":7691:7778  spender == owner || getApproved(tokenId) == spender || isApprovedForAll(owner, spender) */\n      dup1\n      tag_172\n      jumpi\n      pop\n      sub(shl(0xa0, 0x01), 0x01)\n        /* \"@openzeppelin/contracts/token/ERC721/ERC721.sol\":4622:4647  _operatorApprovals[owner] */\n      dup1\n      dup3\n      and\n        /* \"@openzeppelin/contracts/token/ERC721/ERC721.sol\":4599:4603  bool */\n      0x00\n        /* \"@openzeppelin/contracts/token/ERC721/ERC721.sol\":4622:4647  _operatorApprovals[owner] */\n      swap1\n      dup2\n      mstore\n        /* \"@openzeppelin/contracts/token/ERC721/ERC721.sol\":4622:4640  _operatorApprovals */\n      0x05\n        /* \"@openzeppelin/contracts/token/ERC721/ERC721.sol\":4622:4647  _operatorApprovals[owner] */\n      0x20\n      swap1\n      dup2\n      mstore\n      0x40\n      dup1\n      dup4\n      keccak256\n        /* \"@openzeppelin/contracts/token/ERC721/ERC721.sol\":4622:4657  _operatorApprovals[owner][operator] */\n      swap4\n      dup9\n      and\n      dup4\n      mstore\n      swap3\n      swap1\n      mstore\n      keccak256\n      sload\n      0xff\n      and\n        /* \"@openzeppelin/contracts/token/ERC721/ERC721.sol\":7746:7778  isApprovedForAll(owner, spender) */\n    tag_172:\n        /* \"@openzeppelin/contracts/token/ERC721/ERC721.sol\":7683:7779  return (spender == owner || getApproved(tokenId) == spender || isApprovedForAll(owner, spender)) */\n      swap5\n        /* \"@openzeppelin/contracts/token/ERC721/ERC721.sol\":7442:7786  function _isApprovedOrOwner(address spender, uint256 tokenId) internal view virtual returns (bool) {... */\n      swap4\n      pop\n      pop\n      pop\n      pop\n      jump\t// out\n        /* \"@openzeppelin/contracts/token/ERC721/ERC721.sol\":10452:11057  function _transfer(... */\n    tag_116:\n        /* \"@openzeppelin/contracts/token/ERC721/ERC721.sol\":10606:10610  from */\n      dup3\n      sub(shl(0xa0, 0x01), 0x01)\n        /* \"@openzeppelin/contracts/token/ERC721/ERC721.sol\":10579:10610  ERC721.ownerOf(tokenId) == from */\n      and\n        /* \"@openzeppelin/contracts/token/ERC721/ERC721.sol\":10579:10602  ERC721.ownerOf(tokenId) */\n      tag_174\n        /* \"@openzeppelin/contracts/token/ERC721/ERC721.sol\":10594:10601  tokenId */\n      dup3\n        /* \"@openzeppelin/contracts/token/ERC721/ERC721.sol\":10579:10593  ERC721.ownerOf */\n      tag_47\n        /* \"@openzeppelin/contracts/token/ERC721/ERC721.sol\":10579:10602  ERC721.ownerOf(tokenId) */\n      jump\t// in\n    tag_174:\n      sub(shl(0xa0, 0x01), 0x01)\n        /* \"@openzeppelin/contracts/token/ERC721/ERC721.sol\":10579:10610  ERC721.ownerOf(tokenId) == from */\n      and\n      eq\n        /* \"@openzeppelin/contracts/token/ERC721/ERC721.sol\":10571:10652  require(ERC721.ownerOf(tokenId) == from, \"ERC721: transfer from incorrect owner\") */\n      tag_175\n      jumpi\n      mload(0x40)\n      shl(0xe5, 0x461bcd)\n      dup2\n      mstore\n        /* \"#utility.yul\":5899:5901   */\n      0x20\n        /* \"@openzeppelin/contracts/token/ERC721/ERC721.sol\":10571:10652  require(ERC721.ownerOf(tokenId) == from, \"ERC721: transfer from incorrect owner\") */\n      0x04\n      dup3\n      add\n        /* \"#utility.yul\":5881:5902   */\n      mstore\n        /* \"#utility.yul\":5938:5940   */\n      0x25\n        /* \"#utility.yul\":5918:5936   */\n      0x24\n      dup3\n      add\n        /* \"#utility.yul\":5911:5941   */\n      mstore\n        /* \"#utility.yul\":5977:6011   */\n      0x4552433732313a207472616e736665722066726f6d20696e636f727265637420\n        /* \"#utility.yul\":5957:5975   */\n      0x44\n      dup3\n      add\n        /* \"#utility.yul\":5950:6012   */\n      mstore\n      shl(0xd9, 0x37bbb732b9)\n        /* \"#utility.yul\":6028:6046   */\n      0x64\n      dup3\n      add\n        /* \"#utility.yul\":6021:6056   */\n      mstore\n        /* \"#utility.yul\":6073:6092   */\n      0x84\n      add\n        /* \"@openzeppelin/contracts/token/ERC721/ERC721.sol\":10571:10652  require(ERC721.ownerOf(tokenId) == from, \"ERC721: transfer from incorrect owner\") */\n      tag_91\n        /* \"#utility.yul\":5871:6098   */\n      jump\n        /* \"@openzeppelin/contracts/token/ERC721/ERC721.sol\":10571:10652  require(ERC721.ownerOf(tokenId) == from, \"ERC721: transfer from incorrect owner\") */\n    tag_175:\n      sub(shl(0xa0, 0x01), 0x01)\n        /* \"@openzeppelin/contracts/token/ERC721/ERC721.sol\":10670:10686  to != address(0) */\n      dup3\n      and\n        /* \"@openzeppelin/contracts/token/ERC721/ERC721.sol\":10662:10727  require(to != address(0), \"ERC721: transfer to the zero address\") */\n      tag_178\n      jumpi\n      mload(0x40)\n      shl(0xe5, 0x461bcd)\n      dup2\n      mstore\n        /* \"#utility.yul\":6305:6307   */\n      0x20\n        /* \"@openzeppelin/contracts/token/ERC721/ERC721.sol\":10662:10727  require(to != address(0), \"ERC721: transfer to the zero address\") */\n      0x04\n      dup3\n      add\n        /* \"#utility.yul\":6287:6308   */\n      mstore\n        /* \"#utility.yul\":6344:6346   */\n      0x24\n        /* \"#utility.yul\":6324:6342   */\n      dup1\n      dup3\n      add\n        /* \"#utility.yul\":6317:6347   */\n      mstore\n        /* \"#utility.yul\":6383:6417   */\n      0x4552433732313a207472616e7366657220746f20746865207a65726f20616464\n        /* \"#utility.yul\":6363:6381   */\n      0x44\n      dup3\n      add\n        /* \"#utility.yul\":6356:6418   */\n      mstore\n      shl(0xe0, 0x72657373)\n        /* \"#utility.yul\":6434:6452   */\n      0x64\n      dup3\n      add\n        /* \"#utility.yul\":6427:6461   */\n      mstore\n        /* \"#utility.yul\":6478:6497   */\n      0x84\n      add\n        /* \"@openzeppelin/contracts/token/ERC721/ERC721.sol\":10662:10727  require(to != address(0), \"ERC721: transfer to the zero address\") */\n      tag_91\n        /* \"#utility.yul\":6277:6503   */\n      jump\n        /* \"@openzeppelin/contracts/token/ERC721/ERC721.sol\":10662:10727  require(to != address(0), \"ERC721: transfer to the zero address\") */\n    tag_178:\n        /* \"@openzeppelin/contracts/token/ERC721/ERC721.sol\":10839:10868  _approve(address(0), tokenId) */\n      tag_183\n        /* \"@openzeppelin/contracts/token/ERC721/ERC721.sol\":10856:10857  0 */\n      0x00\n        /* \"@openzeppelin/contracts/token/ERC721/ERC721.sol\":10860:10867  tokenId */\n      dup3\n        /* \"@openzeppelin/contracts/token/ERC721/ERC721.sol\":10839:10847  _approve */\n      tag_107\n        /* \"@openzeppelin/contracts/token/ERC721/ERC721.sol\":10839:10868  _approve(address(0), tokenId) */\n      jump\t// in\n    tag_183:\n      sub(shl(0xa0, 0x01), 0x01)\n        /* \"@openzeppelin/contracts/token/ERC721/ERC721.sol\":10879:10894  _balances[from] */\n      dup4\n      and\n      0x00\n      swap1\n      dup2\n      mstore\n        /* \"@openzeppelin/contracts/token/ERC721/ERC721.sol\":10879:10888  _balances */\n      0x03\n        /* \"@openzeppelin/contracts/token/ERC721/ERC721.sol\":10879:10894  _balances[from] */\n      0x20\n      mstore\n      0x40\n      dup2\n      keccak256\n        /* \"@openzeppelin/contracts/token/ERC721/ERC721.sol\":10879:10899  _balances[from] -= 1 */\n      dup1\n      sload\n        /* \"@openzeppelin/contracts/token/ERC721/ERC721.sol\":10898:10899  1 */\n      0x01\n      swap3\n        /* \"@openzeppelin/contracts/token/ERC721/ERC721.sol\":10879:10894  _balances[from] */\n      swap1\n        /* \"@openzeppelin/contracts/token/ERC721/ERC721.sol\":10879:10899  _balances[from] -= 1 */\n      tag_184\n      swap1\n        /* \"@openzeppelin/contracts/token/ERC721/ERC721.sol\":10898:10899  1 */\n      dup5\n      swap1\n        /* \"@openzeppelin/contracts/token/ERC721/ERC721.sol\":10879:10899  _balances[from] -= 1 */\n      tag_185\n      jump\t// in\n    tag_184:\n      swap1\n      swap2\n      sstore\n      pop\n      pop\n      sub(shl(0xa0, 0x01), 0x01)\n        /* \"@openzeppelin/contracts/token/ERC721/ERC721.sol\":10909:10922  _balances[to] */\n      dup3\n      and\n      0x00\n      swap1\n      dup2\n      mstore\n        /* \"@openzeppelin/contracts/token/ERC721/ERC721.sol\":10909:10918  _balances */\n      0x03\n        /* \"@openzeppelin/contracts/token/ERC721/ERC721.sol\":10909:10922  _balances[to] */\n      0x20\n      mstore\n      0x40\n      dup2\n      keccak256\n        /* \"@openzeppelin/contracts/token/ERC721/ERC721.sol\":10909:10927  _balances[to] += 1 */\n      dup1\n      sload\n        /* \"@openzeppelin/contracts/token/ERC721/ERC721.sol\":10926:10927  1 */\n      0x01\n      swap3\n        /* \"@openzeppelin/contracts/token/ERC721/ERC721.sol\":10909:10922  _balances[to] */\n      swap1\n        /* \"@openzeppelin/contracts/token/ERC721/ERC721.sol\":10909:10927  _balances[to] += 1 */\n      tag_186\n      swap1\n        /* \"@openzeppelin/contracts/token/ERC721/ERC721.sol\":10926:10927  1 */\n      dup5\n      swap1\n        /* \"@openzeppelin/contracts/token/ERC721/ERC721.sol\":10909:10927  _balances[to] += 1 */\n      tag_187\n      jump\t// in\n    tag_186:\n      swap1\n      swap2\n      sstore\n      pop\n      pop\n        /* \"@openzeppelin/contracts/token/ERC721/ERC721.sol\":10937:10953  _owners[tokenId] */\n      0x00\n      dup2\n      dup2\n      mstore\n        /* \"@openzeppelin/contracts/token/ERC721/ERC721.sol\":10937:10944  _owners */\n      0x02\n        /* \"@openzeppelin/contracts/token/ERC721/ERC721.sol\":10937:10953  _owners[tokenId] */\n      0x20\n      mstore\n      0x40\n      dup1\n      dup3\n      keccak256\n        /* \"@openzeppelin/contracts/token/ERC721/ERC721.sol\":10937:10958  _owners[tokenId] = to */\n      dup1\n      sload\n      not(sub(shl(0xa0, 0x01), 0x01))\n      and\n      sub(shl(0xa0, 0x01), 0x01)\n      dup7\n      dup2\n      and\n      swap2\n      dup3\n      or\n      swap1\n      swap3\n      sstore\n        /* \"@openzeppelin/contracts/token/ERC721/ERC721.sol\":10974:11001  Transfer(from, to, tokenId) */\n      swap2\n      mload\n        /* \"@openzeppelin/contracts/token/ERC721/ERC721.sol\":10937:10953  _owners[tokenId] */\n      dup5\n      swap4\n        /* \"@openzeppelin/contracts/token/ERC721/ERC721.sol\":10974:11001  Transfer(from, to, tokenId) */\n      swap2\n      dup8\n      and\n      swap2\n      0xddf252ad1be2c89b69c2b068fc378daa952ba7f163c4a11628f55a4df523b3ef\n      swap2\n      log4\n        /* \"@openzeppelin/contracts/token/ERC721/ERC721.sol\":3607:3938  {... */\n      pop\n        /* \"@openzeppelin/contracts/token/ERC721/ERC721.sol\":3537:3938  function approve(address to, uint256 tokenId) public virtual override {... */\n      pop\n      pop\n      jump\t// out\n        /* \"@openzeppelin/contracts/token/ERC721/ERC721.sol\":11474:11781  function _setApprovalForAll(... */\n    tag_136:\n        /* \"@openzeppelin/contracts/token/ERC721/ERC721.sol\":11624:11632  operator */\n      dup2\n      sub(shl(0xa0, 0x01), 0x01)\n        /* \"@openzeppelin/contracts/token/ERC721/ERC721.sol\":11615:11632  owner != operator */\n      and\n        /* \"@openzeppelin/contracts/token/ERC721/ERC721.sol\":11615:11620  owner */\n      dup4\n      sub(shl(0xa0, 0x01), 0x01)\n        /* \"@openzeppelin/contracts/token/ERC721/ERC721.sol\":11615:11632  owner != operator */\n      and\n      eq\n      iszero\n        /* \"@openzeppelin/contracts/token/ERC721/ERC721.sol\":11607:11662  require(owner != operator, \"ERC721: approve to caller\") */\n      tag_191\n      jumpi\n      mload(0x40)\n      shl(0xe5, 0x461bcd)\n      dup2\n      mstore\n        /* \"#utility.yul\":6710:6712   */\n      0x20\n        /* \"@openzeppelin/contracts/token/ERC721/ERC721.sol\":11607:11662  require(owner != operator, \"ERC721: approve to caller\") */\n      0x04\n      dup3\n      add\n        /* \"#utility.yul\":6692:6713   */\n      mstore\n        /* \"#utility.yul\":6749:6751   */\n      0x19\n        /* \"#utility.yul\":6729:6747   */\n      0x24\n      dup3\n      add\n        /* \"#utility.yul\":6722:6752   */\n      mstore\n        /* \"#utility.yul\":6788:6815   */\n      0x4552433732313a20617070726f766520746f2063616c6c657200000000000000\n        /* \"#utility.yul\":6768:6786   */\n      0x44\n      dup3\n      add\n        /* \"#utility.yul\":6761:6816   */\n      mstore\n        /* \"#utility.yul\":6833:6851   */\n      0x64\n      add\n        /* \"@openzeppelin/contracts/token/ERC721/ERC721.sol\":11607:11662  require(owner != operator, \"ERC721: approve to caller\") */\n      tag_91\n        /* \"#utility.yul\":6682:6857   */\n      jump\n        /* \"@openzeppelin/contracts/token/ERC721/ERC721.sol\":11607:11662  require(owner != operator, \"ERC721: approve to caller\") */\n    tag_191:\n      sub(shl(0xa0, 0x01), 0x01)\n        /* \"@openzeppelin/contracts/token/ERC721/ERC721.sol\":11672:11697  _operatorApprovals[owner] */\n      dup4\n      dup2\n      and\n      0x00\n      dup2\n      dup2\n      mstore\n        /* \"@openzeppelin/contracts/token/ERC721/ERC721.sol\":11672:11690  _operatorApprovals */\n      0x05\n        /* \"@openzeppelin/contracts/token/ERC721/ERC721.sol\":11672:11697  _operatorApprovals[owner] */\n      0x20\n      swap1\n      dup2\n      mstore\n      0x40\n      dup1\n      dup4\n      keccak256\n        /* \"@openzeppelin/contracts/token/ERC721/ERC721.sol\":11672:11707  _operatorApprovals[owner][operator] */\n      swap5\n      dup8\n      and\n      dup1\n      dup5\n      mstore\n      swap5\n      dup3\n      mstore\n      swap2\n      dup3\n      swap1\n      keccak256\n        /* \"@openzeppelin/contracts/token/ERC721/ERC721.sol\":11672:11718  _operatorApprovals[owner][operator] = approved */\n      dup1\n      sload\n      not(0xff)\n      and\n      dup7\n      iszero\n      iszero\n      swap1\n      dup2\n      or\n      swap1\n      swap2\n      sstore\n        /* \"@openzeppelin/contracts/token/ERC721/ERC721.sol\":11733:11774  ApprovalForAll(owner, operator, approved) */\n      swap2\n      mload\n        /* \"#utility.yul\":5002:5043   */\n      swap2\n      dup3\n      mstore\n        /* \"@openzeppelin/contracts/token/ERC721/ERC721.sol\":11733:11774  ApprovalForAll(owner, operator, approved) */\n      0x17307eab39ab6107e8899845ad3d59bd9653f200f220920489ca2b5937696c31\n      swap2\n        /* \"#utility.yul\":4975:4993   */\n      add\n        /* \"@openzeppelin/contracts/token/ERC721/ERC721.sol\":11733:11774  ApprovalForAll(owner, operator, approved) */\n      mload(0x40)\n      dup1\n      swap2\n      sub\n      swap1\n      log3\n        /* \"@openzeppelin/contracts/token/ERC721/ERC721.sol\":11474:11781  function _setApprovalForAll(... */\n      pop\n      pop\n      pop\n      jump\t// out\n        /* \"@openzeppelin/contracts/token/ERC721/ERC721.sol\":6549:6856  function _safeTransfer(... */\n    tag_143:\n        /* \"@openzeppelin/contracts/token/ERC721/ERC721.sol\":6700:6728  _transfer(from, to, tokenId) */\n      tag_196\n        /* \"@openzeppelin/contracts/token/ERC721/ERC721.sol\":6710:6714  from */\n      dup5\n        /* \"@openzeppelin/contracts/token/ERC721/ERC721.sol\":6716:6718  to */\n      dup5\n        /* \"@openzeppelin/contracts/token/ERC721/ERC721.sol\":6720:6727  tokenId */\n      dup5\n        /* \"@openzeppelin/contracts/token/ERC721/ERC721.sol\":6700:6709  _transfer */\n      tag_116\n        /* \"@openzeppelin/contracts/token/ERC721/ERC721.sol\":6700:6728  _transfer(from, to, tokenId) */\n      jump\t// in\n    tag_196:\n        /* \"@openzeppelin/contracts/token/ERC721/ERC721.sol\":6746:6794  _checkOnERC721Received(from, to, tokenId, _data) */\n      tag_197\n        /* \"@openzeppelin/contracts/token/ERC721/ERC721.sol\":6769:6773  from */\n      dup5\n        /* \"@openzeppelin/contracts/token/ERC721/ERC721.sol\":6775:6777  to */\n      dup5\n        /* \"@openzeppelin/contracts/token/ERC721/ERC721.sol\":6779:6786  tokenId */\n      dup5\n        /* \"@openzeppelin/contracts/token/ERC721/ERC721.sol\":6788:6793  _data */\n      dup5\n        /* \"@openzeppelin/contracts/token/ERC721/ERC721.sol\":6746:6768  _checkOnERC721Received */\n      tag_198\n        /* \"@openzeppelin/contracts/token/ERC721/ERC721.sol\":6746:6794  _checkOnERC721Received(from, to, tokenId, _data) */\n      jump\t// in\n    tag_197:\n        /* \"@openzeppelin/contracts/token/ERC721/ERC721.sol\":6738:6849  require(_checkOnERC721Received(from, to, tokenId, _data), \"ERC721: transfer to non ERC721Receiver implementer\") */\n      tag_142\n      jumpi\n      mload(0x40)\n      shl(0xe5, 0x461bcd)\n      dup2\n      mstore\n      0x04\n      add\n      tag_91\n      swap1\n      tag_201\n      jump\t// in\n        /* \"@openzeppelin/contracts/utils/Strings.sol\":328:1031  function toString(uint256 value) internal pure returns (string memory) {... */\n    tag_154:\n        /* \"@openzeppelin/contracts/utils/Strings.sol\":384:397  string memory */\n      0x60\n        /* \"@openzeppelin/contracts/utils/Strings.sol\":601:611  value == 0 */\n      dup2\n        /* \"@openzeppelin/contracts/utils/Strings.sol\":597:648  if (value == 0) {... */\n      tag_204\n      jumpi\n      pop\n      pop\n        /* \"@openzeppelin/contracts/utils/Strings.sol\":627:637  return \"0\" */\n      0x40\n      dup1\n      mload\n      dup1\n      dup3\n      add\n      swap1\n      swap2\n      mstore\n      0x01\n      dup2\n      mstore\n      shl(0xfc, 0x03)\n      0x20\n      dup3\n      add\n      mstore\n      swap1\n        /* \"@openzeppelin/contracts/utils/Strings.sol\":328:1031  function toString(uint256 value) internal pure returns (string memory) {... */\n      jump\t// out\n        /* \"@openzeppelin/contracts/utils/Strings.sol\":597:648  if (value == 0) {... */\n    tag_204:\n        /* \"@openzeppelin/contracts/utils/Strings.sol\":672:677  value */\n      dup2\n        /* \"@openzeppelin/contracts/utils/Strings.sol\":657:669  uint256 temp */\n      0x00\n        /* \"@openzeppelin/contracts/utils/Strings.sol\":711:786  while (temp != 0) {... */\n    tag_205:\n        /* \"@openzeppelin/contracts/utils/Strings.sol\":718:727  temp != 0 */\n      dup2\n      iszero\n        /* \"@openzeppelin/contracts/utils/Strings.sol\":711:786  while (temp != 0) {... */\n      tag_206\n      jumpi\n        /* \"@openzeppelin/contracts/utils/Strings.sol\":743:751  digits++ */\n      dup1\n      tag_207\n      dup2\n      tag_208\n      jump\t// in\n    tag_207:\n      swap2\n      pop\n        /* \"@openzeppelin/contracts/utils/Strings.sol\":765:775  temp /= 10 */\n      tag_209\n      swap1\n      pop\n        /* \"@openzeppelin/contracts/utils/Strings.sol\":773:775  10 */\n      0x0a\n        /* \"@openzeppelin/contracts/utils/Strings.sol\":765:775  temp /= 10 */\n      dup4\n      tag_210\n      jump\t// in\n    tag_209:\n      swap2\n      pop\n        /* \"@openzeppelin/contracts/utils/Strings.sol\":711:786  while (temp != 0) {... */\n      jump(tag_205)\n    tag_206:\n        /* \"@openzeppelin/contracts/utils/Strings.sol\":795:814  bytes memory buffer */\n      0x00\n        /* \"@openzeppelin/contracts/utils/Strings.sol\":827:833  digits */\n      dup2\n        /* \"@openzeppelin/contracts/utils/Strings.sol\":817:834  new bytes(digits) */\n      0xffffffffffffffff\n      dup2\n      gt\n      iszero\n      tag_212\n      jumpi\n      tag_212\n      tag_213\n      jump\t// in\n    tag_212:\n      mload(0x40)\n      swap1\n      dup1\n      dup3\n      mstore\n      dup1\n      0x1f\n      add\n      not(0x1f)\n      and\n      0x20\n      add\n      dup3\n      add\n      0x40\n      mstore\n      dup1\n      iszero\n      tag_214\n      jumpi\n      0x20\n      dup3\n      add\n      dup2\n      dup1\n      calldatasize\n      dup4\n      calldatacopy\n      add\n      swap1\n      pop\n    tag_214:\n      pop\n        /* \"@openzeppelin/contracts/utils/Strings.sol\":795:834  bytes memory buffer = new bytes(digits) */\n      swap1\n      pop\n        /* \"@openzeppelin/contracts/utils/Strings.sol\":844:994  while (value != 0) {... */\n    tag_215:\n        /* \"@openzeppelin/contracts/utils/Strings.sol\":851:861  value != 0 */\n      dup5\n      iszero\n        /* \"@openzeppelin/contracts/utils/Strings.sol\":844:994  while (value != 0) {... */\n      tag_172\n      jumpi\n        /* \"@openzeppelin/contracts/utils/Strings.sol\":877:888  digits -= 1 */\n      tag_217\n        /* \"@openzeppelin/contracts/utils/Strings.sol\":887:888  1 */\n      0x01\n        /* \"@openzeppelin/contracts/utils/Strings.sol\":877:888  digits -= 1 */\n      dup4\n      tag_185\n      jump\t// in\n    tag_217:\n      swap2\n      pop\n        /* \"@openzeppelin/contracts/utils/Strings.sol\":945:955  value % 10 */\n      tag_218\n        /* \"@openzeppelin/contracts/utils/Strings.sol\":953:955  10 */\n      0x0a\n        /* \"@openzeppelin/contracts/utils/Strings.sol\":945:950  value */\n      dup7\n        /* \"@openzeppelin/contracts/utils/Strings.sol\":945:955  value % 10 */\n      tag_219\n      jump\t// in\n    tag_218:\n        /* \"@openzeppelin/contracts/utils/Strings.sol\":932:956  48 + uint256(value % 10) */\n      tag_220\n      swap1\n        /* \"@openzeppelin/contracts/utils/Strings.sol\":932:934  48 */\n      0x30\n        /* \"@openzeppelin/contracts/utils/Strings.sol\":932:956  48 + uint256(value % 10) */\n      tag_187\n      jump\t// in\n    tag_220:\n        /* \"@openzeppelin/contracts/utils/Strings.sol\":919:958  bytes1(uint8(48 + uint256(value % 10))) */\n      0xf8\n      shl\n        /* \"@openzeppelin/contracts/utils/Strings.sol\":902:908  buffer */\n      dup2\n        /* \"@openzeppelin/contracts/utils/Strings.sol\":909:915  digits */\n      dup4\n        /* \"@openzeppelin/contracts/utils/Strings.sol\":902:916  buffer[digits] */\n      dup2\n      mload\n      dup2\n      lt\n      tag_222\n      jumpi\n      tag_222\n      tag_223\n      jump\t// in\n    tag_222:\n      0x20\n      add\n      add\n        /* \"@openzeppelin/contracts/utils/Strings.sol\":902:958  buffer[digits] = bytes1(uint8(48 + uint256(value % 10))) */\n      swap1\n      not(sub(shl(0xf8, 0x01), 0x01))\n      and\n      swap1\n      dup2\n      0x00\n      byte\n      swap1\n      mstore8\n      pop\n        /* \"@openzeppelin/contracts/utils/Strings.sol\":972:983  value /= 10 */\n      tag_224\n        /* \"@openzeppelin/contracts/utils/Strings.sol\":981:983  10 */\n      0x0a\n        /* \"@openzeppelin/contracts/utils/Strings.sol\":972:983  value /= 10 */\n      dup7\n      tag_210\n      jump\t// in\n    tag_224:\n      swap5\n      pop\n        /* \"@openzeppelin/contracts/utils/Strings.sol\":844:994  while (value != 0) {... */\n      jump(tag_215)\n        /* \"@openzeppelin/contracts/token/ERC721/ERC721.sol\":12334:13112  function _checkOnERC721Received(... */\n    tag_198:\n        /* \"@openzeppelin/contracts/token/ERC721/ERC721.sol\":12484:12488  bool */\n      0x00\n      sub(shl(0xa0, 0x01), 0x01)\n        /* \"@openzeppelin/contracts/token/ERC721/ERC721.sol\":12504:12517  to.isContract */\n      dup5\n      and\n        /* \"@openzeppelin/contracts/utils/Address.sol\":1465:1484  account.code.length */\n      extcodesize\n        /* \"@openzeppelin/contracts/utils/Address.sol\":1465:1488  account.code.length > 0 */\n      iszero\n        /* \"@openzeppelin/contracts/token/ERC721/ERC721.sol\":12500:13106  if (to.isContract()) {... */\n      tag_230\n      jumpi\n        /* \"@openzeppelin/contracts/token/ERC721/ERC721.sol\":12539:12611  IERC721Receiver(to).onERC721Received(_msgSender(), from, tokenId, _data) */\n      mload(0x40)\n      shl(0xe1, 0x0a85bd01)\n      dup2\n      mstore\n      sub(shl(0xa0, 0x01), 0x01)\n        /* \"@openzeppelin/contracts/token/ERC721/ERC721.sol\":12539:12575  IERC721Receiver(to).onERC721Received */\n      dup6\n      and\n      swap1\n      0x150b7a02\n      swap1\n        /* \"@openzeppelin/contracts/token/ERC721/ERC721.sol\":12539:12611  IERC721Receiver(to).onERC721Received(_msgSender(), from, tokenId, _data) */\n      tag_232\n      swap1\n        /* \"@openzeppelin/contracts/utils/Context.sol\":719:729  msg.sender */\n      caller\n      swap1\n        /* \"@openzeppelin/contracts/token/ERC721/ERC721.sol\":12590:12594  from */\n      dup10\n      swap1\n        /* \"@openzeppelin/contracts/token/ERC721/ERC721.sol\":12596:12603  tokenId */\n      dup9\n      swap1\n        /* \"@openzeppelin/contracts/token/ERC721/ERC721.sol\":12605:12610  _data */\n      dup9\n      swap1\n        /* \"@openzeppelin/contracts/token/ERC721/ERC721.sol\":12539:12611  IERC721Receiver(to).onERC721Received(_msgSender(), from, tokenId, _data) */\n      0x04\n      add\n      tag_233\n      jump\t// in\n    tag_232:\n      0x20\n      mload(0x40)\n      dup1\n      dup4\n      sub\n      dup2\n      0x00\n      dup8\n      dup1\n      extcodesize\n      iszero\n      dup1\n      iszero\n      tag_234\n      jumpi\n      0x00\n      dup1\n      revert\n    tag_234:\n      pop\n      gas\n      call\n      swap3\n      pop\n      pop\n      pop\n      dup1\n      iszero\n      tag_235\n      jumpi\n      pop\n      0x40\n      dup1\n      mload\n      0x1f\n      returndatasize\n      swap1\n      dup2\n      add\n      not(0x1f)\n      and\n      dup3\n      add\n      swap1\n      swap3\n      mstore\n      tag_236\n      swap2\n      dup2\n      add\n      swap1\n      tag_237\n      jump\t// in\n    tag_236:\n      0x01\n    tag_235:\n        /* \"@openzeppelin/contracts/token/ERC721/ERC721.sol\":12535:13054  try IERC721Receiver(to).onERC721Received(_msgSender(), from, tokenId, _data) returns (bytes4 retval) {... */\n      tag_238\n      jumpi\n      returndatasize\n      dup1\n      dup1\n      iszero\n      tag_243\n      jumpi\n      mload(0x40)\n      swap2\n      pop\n      and(add(returndatasize, 0x3f), not(0x1f))\n      dup3\n      add\n      0x40\n      mstore\n      returndatasize\n      dup3\n      mstore\n      returndatasize\n      0x00\n      0x20\n      dup5\n      add\n      returndatacopy\n      jump(tag_242)\n    tag_243:\n      0x60\n      swap2\n      pop\n    tag_242:\n      pop\n        /* \"@openzeppelin/contracts/token/ERC721/ERC721.sol\":12778:12791  reason.length */\n      dup1\n      mload\n        /* \"@openzeppelin/contracts/token/ERC721/ERC721.sol\":12774:13040  if (reason.length == 0) {... */\n      tag_244\n      jumpi\n        /* \"@openzeppelin/contracts/token/ERC721/ERC721.sol\":12820:12880  revert(\"ERC721: transfer to non ERC721Receiver implementer\") */\n      mload(0x40)\n      shl(0xe5, 0x461bcd)\n      dup2\n      mstore\n      0x04\n      add\n      tag_91\n      swap1\n      tag_201\n      jump\t// in\n        /* \"@openzeppelin/contracts/token/ERC721/ERC721.sol\":12774:13040  if (reason.length == 0) {... */\n    tag_244:\n        /* \"@openzeppelin/contracts/token/ERC721/ERC721.sol\":12992:12998  reason */\n      dup1\n        /* \"@openzeppelin/contracts/token/ERC721/ERC721.sol\":12986:12999  mload(reason) */\n      mload\n        /* \"@openzeppelin/contracts/token/ERC721/ERC721.sol\":12977:12983  reason */\n      dup2\n        /* \"@openzeppelin/contracts/token/ERC721/ERC721.sol\":12973:12975  32 */\n      0x20\n        /* \"@openzeppelin/contracts/token/ERC721/ERC721.sol\":12969:12984  add(32, reason) */\n      add\n        /* \"@openzeppelin/contracts/token/ERC721/ERC721.sol\":12962:13000  revert(add(32, reason), mload(reason)) */\n      revert\n        /* \"@openzeppelin/contracts/token/ERC721/ERC721.sol\":12535:13054  try IERC721Receiver(to).onERC721Received(_msgSender(), from, tokenId, _data) returns (bytes4 retval) {... */\n    tag_238:\n      not(sub(shl(0xe0, 0x01), 0x01))\n        /* \"@openzeppelin/contracts/token/ERC721/ERC721.sol\":12661:12712  retval == IERC721Receiver.onERC721Received.selector */\n      and\n      shl(0xe1, 0x0a85bd01)\n      eq\n      swap1\n      pop\n        /* \"@openzeppelin/contracts/token/ERC721/ERC721.sol\":12654:12712  return retval == IERC721Receiver.onERC721Received.selector */\n      jump(tag_172)\n        /* \"@openzeppelin/contracts/token/ERC721/ERC721.sol\":12500:13106  if (to.isContract()) {... */\n    tag_230:\n      pop\n        /* \"@openzeppelin/contracts/token/ERC721/ERC721.sol\":13091:13095  true */\n      0x01\n        /* \"@openzeppelin/contracts/token/ERC721/ERC721.sol\":12334:13112  function _checkOnERC721Received(... */\n      swap5\n      swap4\n      pop\n      pop\n      pop\n      pop\n      jump\t// out\n        /* \"#utility.yul\":14:187   */\n    tag_251:\n        /* \"#utility.yul\":82:102   */\n      dup1\n      calldataload\n      sub(shl(0xa0, 0x01), 0x01)\n        /* \"#utility.yul\":131:162   */\n      dup2\n      and\n        /* \"#utility.yul\":121:163   */\n      dup2\n      eq\n        /* \"#utility.yul\":111:113   */\n      tag_253\n      jumpi\n        /* \"#utility.yul\":177:178   */\n      0x00\n        /* \"#utility.yul\":174:175   */\n      dup1\n        /* \"#utility.yul\":167:179   */\n      revert\n        /* \"#utility.yul\":111:113   */\n    tag_253:\n        /* \"#utility.yul\":63:187   */\n      swap2\n      swap1\n      pop\n      jump\t// out\n        /* \"#utility.yul\":192:378   */\n    tag_51:\n        /* \"#utility.yul\":251:257   */\n      0x00\n        /* \"#utility.yul\":304:306   */\n      0x20\n        /* \"#utility.yul\":292:301   */\n      dup3\n        /* \"#utility.yul\":283:290   */\n      dup5\n        /* \"#utility.yul\":279:302   */\n      sub\n        /* \"#utility.yul\":275:307   */\n      slt\n        /* \"#utility.yul\":272:274   */\n      iszero\n      tag_255\n      jumpi\n        /* \"#utility.yul\":320:321   */\n      0x00\n        /* \"#utility.yul\":317:318   */\n      dup1\n        /* \"#utility.yul\":310:322   */\n      revert\n        /* \"#utility.yul\":272:274   */\n    tag_255:\n        /* \"#utility.yul\":343:372   */\n      tag_152\n        /* \"#utility.yul\":362:371   */\n      dup3\n        /* \"#utility.yul\":343:372   */\n      tag_251\n      jump\t// in\n        /* \"#utility.yul\":383:643   */\n    tag_72:\n        /* \"#utility.yul\":451:457   */\n      0x00\n        /* \"#utility.yul\":459:465   */\n      dup1\n        /* \"#utility.yul\":512:514   */\n      0x40\n        /* \"#utility.yul\":500:509   */\n      dup4\n        /* \"#utility.yul\":491:498   */\n      dup6\n        /* \"#utility.yul\":487:510   */\n      sub\n        /* \"#utility.yul\":483:515   */\n      slt\n        /* \"#utility.yul\":480:482   */\n      iszero\n      tag_258\n      jumpi\n        /* \"#utility.yul\":528:529   */\n      0x00\n        /* \"#utility.yul\":525:526   */\n      dup1\n        /* \"#utility.yul\":518:530   */\n      revert\n        /* \"#utility.yul\":480:482   */\n    tag_258:\n        /* \"#utility.yul\":551:580   */\n      tag_259\n        /* \"#utility.yul\":570:579   */\n      dup4\n        /* \"#utility.yul\":551:580   */\n      tag_251\n      jump\t// in\n    tag_259:\n        /* \"#utility.yul\":541:580   */\n      swap2\n      pop\n        /* \"#utility.yul\":599:637   */\n      tag_260\n        /* \"#utility.yul\":633:635   */\n      0x20\n        /* \"#utility.yul\":622:631   */\n      dup5\n        /* \"#utility.yul\":618:636   */\n      add\n        /* \"#utility.yul\":599:637   */\n      tag_251\n      jump\t// in\n    tag_260:\n        /* \"#utility.yul\":589:637   */\n      swap1\n      pop\n        /* \"#utility.yul\":470:643   */\n      swap3\n      pop\n      swap3\n      swap1\n      pop\n      jump\t// out\n        /* \"#utility.yul\":648:976   */\n    tag_40:\n        /* \"#utility.yul\":725:731   */\n      0x00\n        /* \"#utility.yul\":733:739   */\n      dup1\n        /* \"#utility.yul\":741:747   */\n      0x00\n        /* \"#utility.yul\":794:796   */\n      0x60\n        /* \"#utility.yul\":782:791   */\n      dup5\n        /* \"#utility.yul\":773:780   */\n      dup7\n        /* \"#utility.yul\":769:792   */\n      sub\n        /* \"#utility.yul\":765:797   */\n      slt\n        /* \"#utility.yul\":762:764   */\n      iszero\n      tag_262\n      jumpi\n        /* \"#utility.yul\":810:811   */\n      0x00\n        /* \"#utility.yul\":807:808   */\n      dup1\n        /* \"#utility.yul\":800:812   */\n      revert\n        /* \"#utility.yul\":762:764   */\n    tag_262:\n        /* \"#utility.yul\":833:862   */\n      tag_263\n        /* \"#utility.yul\":852:861   */\n      dup5\n        /* \"#utility.yul\":833:862   */\n      tag_251\n      jump\t// in\n    tag_263:\n        /* \"#utility.yul\":823:862   */\n      swap3\n      pop\n        /* \"#utility.yul\":881:919   */\n      tag_264\n        /* \"#utility.yul\":915:917   */\n      0x20\n        /* \"#utility.yul\":904:913   */\n      dup6\n        /* \"#utility.yul\":900:918   */\n      add\n        /* \"#utility.yul\":881:919   */\n      tag_251\n      jump\t// in\n    tag_264:\n        /* \"#utility.yul\":871:919   */\n      swap2\n      pop\n        /* \"#utility.yul\":966:968   */\n      0x40\n        /* \"#utility.yul\":955:964   */\n      dup5\n        /* \"#utility.yul\":951:969   */\n      add\n        /* \"#utility.yul\":938:970   */\n      calldataload\n        /* \"#utility.yul\":928:970   */\n      swap1\n      pop\n        /* \"#utility.yul\":752:976   */\n      swap3\n      pop\n      swap3\n      pop\n      swap3\n      jump\t// out\n        /* \"#utility.yul\":981:2119   */\n    tag_64:\n        /* \"#utility.yul\":1076:1082   */\n      0x00\n        /* \"#utility.yul\":1084:1090   */\n      dup1\n        /* \"#utility.yul\":1092:1098   */\n      0x00\n        /* \"#utility.yul\":1100:1106   */\n      dup1\n        /* \"#utility.yul\":1153:1156   */\n      0x80\n        /* \"#utility.yul\":1141:1150   */\n      dup6\n        /* \"#utility.yul\":1132:1139   */\n      dup8\n        /* \"#utility.yul\":1128:1151   */\n      sub\n        /* \"#utility.yul\":1124:1157   */\n      slt\n        /* \"#utility.yul\":1121:1123   */\n      iszero\n      tag_266\n      jumpi\n        /* \"#utility.yul\":1170:1171   */\n      0x00\n        /* \"#utility.yul\":1167:1168   */\n      dup1\n        /* \"#utility.yul\":1160:1172   */\n      revert\n        /* \"#utility.yul\":1121:1123   */\n    tag_266:\n        /* \"#utility.yul\":1193:1222   */\n      tag_267\n        /* \"#utility.yul\":1212:1221   */\n      dup6\n        /* \"#utility.yul\":1193:1222   */\n      tag_251\n      jump\t// in\n    tag_267:\n        /* \"#utility.yul\":1183:1222   */\n      swap4\n      pop\n        /* \"#utility.yul\":1241:1279   */\n      tag_268\n        /* \"#utility.yul\":1275:1277   */\n      0x20\n        /* \"#utility.yul\":1264:1273   */\n      dup7\n        /* \"#utility.yul\":1260:1278   */\n      add\n        /* \"#utility.yul\":1241:1279   */\n      tag_251\n      jump\t// in\n    tag_268:\n        /* \"#utility.yul\":1231:1279   */\n      swap3\n      pop\n        /* \"#utility.yul\":1326:1328   */\n      0x40\n        /* \"#utility.yul\":1315:1324   */\n      dup6\n        /* \"#utility.yul\":1311:1329   */\n      add\n        /* \"#utility.yul\":1298:1330   */\n      calldataload\n        /* \"#utility.yul\":1288:1330   */\n      swap2\n      pop\n        /* \"#utility.yul\":1381:1383   */\n      0x60\n        /* \"#utility.yul\":1370:1379   */\n      dup6\n        /* \"#utility.yul\":1366:1384   */\n      add\n        /* \"#utility.yul\":1353:1385   */\n      calldataload\n        /* \"#utility.yul\":1404:1422   */\n      0xffffffffffffffff\n        /* \"#utility.yul\":1445:1447   */\n      dup1\n        /* \"#utility.yul\":1437:1443   */\n      dup3\n        /* \"#utility.yul\":1434:1448   */\n      gt\n        /* \"#utility.yul\":1431:1433   */\n      iszero\n      tag_269\n      jumpi\n        /* \"#utility.yul\":1461:1462   */\n      0x00\n        /* \"#utility.yul\":1458:1459   */\n      dup1\n        /* \"#utility.yul\":1451:1463   */\n      revert\n        /* \"#utility.yul\":1431:1433   */\n    tag_269:\n        /* \"#utility.yul\":1499:1505   */\n      dup2\n        /* \"#utility.yul\":1488:1497   */\n      dup8\n        /* \"#utility.yul\":1484:1506   */\n      add\n        /* \"#utility.yul\":1474:1506   */\n      swap2\n      pop\n        /* \"#utility.yul\":1544:1551   */\n      dup8\n        /* \"#utility.yul\":1537:1541   */\n      0x1f\n        /* \"#utility.yul\":1533:1535   */\n      dup4\n        /* \"#utility.yul\":1529:1542   */\n      add\n        /* \"#utility.yul\":1525:1552   */\n      slt\n        /* \"#utility.yul\":1515:1517   */\n      tag_270\n      jumpi\n        /* \"#utility.yul\":1566:1567   */\n      0x00\n        /* \"#utility.yul\":1563:1564   */\n      dup1\n        /* \"#utility.yul\":1556:1568   */\n      revert\n        /* \"#utility.yul\":1515:1517   */\n    tag_270:\n        /* \"#utility.yul\":1602:1604   */\n      dup2\n        /* \"#utility.yul\":1589:1605   */\n      calldataload\n        /* \"#utility.yul\":1624:1626   */\n      dup2\n        /* \"#utility.yul\":1620:1622   */\n      dup2\n        /* \"#utility.yul\":1617:1627   */\n      gt\n        /* \"#utility.yul\":1614:1616   */\n      iszero\n      tag_272\n      jumpi\n        /* \"#utility.yul\":1630:1648   */\n      tag_272\n      tag_213\n      jump\t// in\n    tag_272:\n        /* \"#utility.yul\":1705:1707   */\n      0x40\n        /* \"#utility.yul\":1699:1708   */\n      mload\n        /* \"#utility.yul\":1673:1675   */\n      0x1f\n        /* \"#utility.yul\":1759:1772   */\n      dup3\n      add\n      not(0x1f)\n        /* \"#utility.yul\":1755:1777   */\n      swap1\n      dup2\n      and\n        /* \"#utility.yul\":1779:1781   */\n      0x3f\n        /* \"#utility.yul\":1751:1782   */\n      add\n        /* \"#utility.yul\":1747:1787   */\n      and\n        /* \"#utility.yul\":1735:1788   */\n      dup2\n      add\n      swap1\n        /* \"#utility.yul\":1803:1821   */\n      dup4\n      dup3\n      gt\n        /* \"#utility.yul\":1823:1845   */\n      dup2\n      dup4\n      lt\n        /* \"#utility.yul\":1800:1846   */\n      or\n        /* \"#utility.yul\":1797:1799   */\n      iszero\n      tag_274\n      jumpi\n        /* \"#utility.yul\":1849:1867   */\n      tag_274\n      tag_213\n      jump\t// in\n    tag_274:\n        /* \"#utility.yul\":1889:1899   */\n      dup2\n        /* \"#utility.yul\":1885:1887   */\n      0x40\n        /* \"#utility.yul\":1878:1900   */\n      mstore\n        /* \"#utility.yul\":1924:1926   */\n      dup3\n        /* \"#utility.yul\":1916:1922   */\n      dup2\n        /* \"#utility.yul\":1909:1927   */\n      mstore\n        /* \"#utility.yul\":1964:1971   */\n      dup11\n        /* \"#utility.yul\":1959:1961   */\n      0x20\n        /* \"#utility.yul\":1954:1956   */\n      dup5\n        /* \"#utility.yul\":1950:1952   */\n      dup8\n        /* \"#utility.yul\":1946:1957   */\n      add\n        /* \"#utility.yul\":1942:1962   */\n      add\n        /* \"#utility.yul\":1939:1972   */\n      gt\n        /* \"#utility.yul\":1936:1938   */\n      iszero\n      tag_275\n      jumpi\n        /* \"#utility.yul\":1985:1986   */\n      0x00\n        /* \"#utility.yul\":1982:1983   */\n      dup1\n        /* \"#utility.yul\":1975:1987   */\n      revert\n        /* \"#utility.yul\":1936:1938   */\n    tag_275:\n        /* \"#utility.yul\":2041:2043   */\n      dup3\n        /* \"#utility.yul\":2036:2038   */\n      0x20\n        /* \"#utility.yul\":2032:2034   */\n      dup7\n        /* \"#utility.yul\":2028:2039   */\n      add\n        /* \"#utility.yul\":2023:2025   */\n      0x20\n        /* \"#utility.yul\":2015:2021   */\n      dup4\n        /* \"#utility.yul\":2011:2026   */\n      add\n        /* \"#utility.yul\":1998:2044   */\n      calldatacopy\n        /* \"#utility.yul\":2086:2087   */\n      0x00\n        /* \"#utility.yul\":2081:2083   */\n      0x20\n        /* \"#utility.yul\":2076:2078   */\n      dup5\n        /* \"#utility.yul\":2068:2074   */\n      dup4\n        /* \"#utility.yul\":2064:2079   */\n      add\n        /* \"#utility.yul\":2060:2084   */\n      add\n        /* \"#utility.yul\":2053:2088   */\n      mstore\n        /* \"#utility.yul\":2107:2113   */\n      dup1\n        /* \"#utility.yul\":2097:2113   */\n      swap6\n      pop\n      pop\n      pop\n      pop\n      pop\n      pop\n        /* \"#utility.yul\":1111:2119   */\n      swap3\n      swap6\n      swap2\n      swap5\n      pop\n      swap3\n      pop\n      jump\t// out\n        /* \"#utility.yul\":2124:2471   */\n    tag_60:\n        /* \"#utility.yul\":2189:2195   */\n      0x00\n        /* \"#utility.yul\":2197:2203   */\n      dup1\n        /* \"#utility.yul\":2250:2252   */\n      0x40\n        /* \"#utility.yul\":2238:2247   */\n      dup4\n        /* \"#utility.yul\":2229:2236   */\n      dup6\n        /* \"#utility.yul\":2225:2248   */\n      sub\n        /* \"#utility.yul\":2221:2253   */\n      slt\n        /* \"#utility.yul\":2218:2220   */\n      iszero\n      tag_277\n      jumpi\n        /* \"#utility.yul\":2266:2267   */\n      0x00\n        /* \"#utility.yul\":2263:2264   */\n      dup1\n        /* \"#utility.yul\":2256:2268   */\n      revert\n        /* \"#utility.yul\":2218:2220   */\n    tag_277:\n        /* \"#utility.yul\":2289:2318   */\n      tag_278\n        /* \"#utility.yul\":2308:2317   */\n      dup4\n        /* \"#utility.yul\":2289:2318   */\n      tag_251\n      jump\t// in\n    tag_278:\n        /* \"#utility.yul\":2279:2318   */\n      swap2\n      pop\n        /* \"#utility.yul\":2368:2370   */\n      0x20\n        /* \"#utility.yul\":2357:2366   */\n      dup4\n        /* \"#utility.yul\":2353:2371   */\n      add\n        /* \"#utility.yul\":2340:2372   */\n      calldataload\n        /* \"#utility.yul\":2415:2420   */\n      dup1\n        /* \"#utility.yul\":2408:2421   */\n      iszero\n        /* \"#utility.yul\":2401:2422   */\n      iszero\n        /* \"#utility.yul\":2394:2399   */\n      dup2\n        /* \"#utility.yul\":2391:2423   */\n      eq\n        /* \"#utility.yul\":2381:2383   */\n      tag_279\n      jumpi\n        /* \"#utility.yul\":2437:2438   */\n      0x00\n        /* \"#utility.yul\":2434:2435   */\n      dup1\n        /* \"#utility.yul\":2427:2439   */\n      revert\n        /* \"#utility.yul\":2381:2383   */\n    tag_279:\n        /* \"#utility.yul\":2460:2465   */\n      dup1\n        /* \"#utility.yul\":2450:2465   */\n      swap2\n      pop\n      pop\n        /* \"#utility.yul\":2208:2471   */\n      swap3\n      pop\n      swap3\n      swap1\n      pop\n      jump\t// out\n        /* \"#utility.yul\":2476:2730   */\n    tag_36:\n        /* \"#utility.yul\":2544:2550   */\n      0x00\n        /* \"#utility.yul\":2552:2558   */\n      dup1\n        /* \"#utility.yul\":2605:2607   */\n      0x40\n        /* \"#utility.yul\":2593:2602   */\n      dup4\n        /* \"#utility.yul\":2584:2591   */\n      dup6\n        /* \"#utility.yul\":2580:2603   */\n      sub\n        /* \"#utility.yul\":2576:2608   */\n      slt\n        /* \"#utility.yul\":2573:2575   */\n      iszero\n      tag_281\n      jumpi\n        /* \"#utility.yul\":2621:2622   */\n      0x00\n        /* \"#utility.yul\":2618:2619   */\n      dup1\n        /* \"#utility.yul\":2611:2623   */\n      revert\n        /* \"#utility.yul\":2573:2575   */\n    tag_281:\n        /* \"#utility.yul\":2644:2673   */\n      tag_282\n        /* \"#utility.yul\":2663:2672   */\n      dup4\n        /* \"#utility.yul\":2644:2673   */\n      tag_251\n      jump\t// in\n    tag_282:\n        /* \"#utility.yul\":2634:2673   */\n      swap5\n        /* \"#utility.yul\":2720:2722   */\n      0x20\n        /* \"#utility.yul\":2705:2723   */\n      swap4\n      swap1\n      swap4\n      add\n        /* \"#utility.yul\":2692:2724   */\n      calldataload\n      swap4\n      pop\n      pop\n      pop\n        /* \"#utility.yul\":2563:2730   */\n      jump\t// out\n        /* \"#utility.yul\":2735:2980   */\n    tag_20:\n        /* \"#utility.yul\":2793:2799   */\n      0x00\n        /* \"#utility.yul\":2846:2848   */\n      0x20\n        /* \"#utility.yul\":2834:2843   */\n      dup3\n        /* \"#utility.yul\":2825:2832   */\n      dup5\n        /* \"#utility.yul\":2821:2844   */\n      sub\n        /* \"#utility.yul\":2817:2849   */\n      slt\n        /* \"#utility.yul\":2814:2816   */\n      iszero\n      tag_284\n      jumpi\n        /* \"#utility.yul\":2862:2863   */\n      0x00\n        /* \"#utility.yul\":2859:2860   */\n      dup1\n        /* \"#utility.yul\":2852:2864   */\n      revert\n        /* \"#utility.yul\":2814:2816   */\n    tag_284:\n        /* \"#utility.yul\":2901:2910   */\n      dup2\n        /* \"#utility.yul\":2888:2911   */\n      calldataload\n        /* \"#utility.yul\":2920:2950   */\n      tag_152\n        /* \"#utility.yul\":2944:2949   */\n      dup2\n        /* \"#utility.yul\":2920:2950   */\n      tag_286\n      jump\t// in\n        /* \"#utility.yul\":2985:3234   */\n    tag_237:\n        /* \"#utility.yul\":3054:3060   */\n      0x00\n        /* \"#utility.yul\":3107:3109   */\n      0x20\n        /* \"#utility.yul\":3095:3104   */\n      dup3\n        /* \"#utility.yul\":3086:3093   */\n      dup5\n        /* \"#utility.yul\":3082:3105   */\n      sub\n        /* \"#utility.yul\":3078:3110   */\n      slt\n        /* \"#utility.yul\":3075:3077   */\n      iszero\n      tag_288\n      jumpi\n        /* \"#utility.yul\":3123:3124   */\n      0x00\n        /* \"#utility.yul\":3120:3121   */\n      dup1\n        /* \"#utility.yul\":3113:3125   */\n      revert\n        /* \"#utility.yul\":3075:3077   */\n    tag_288:\n        /* \"#utility.yul\":3155:3164   */\n      dup2\n        /* \"#utility.yul\":3149:3165   */\n      mload\n        /* \"#utility.yul\":3174:3204   */\n      tag_152\n        /* \"#utility.yul\":3198:3203   */\n      dup2\n        /* \"#utility.yul\":3174:3204   */\n      tag_286\n      jump\t// in\n        /* \"#utility.yul\":3239:3419   */\n    tag_30:\n        /* \"#utility.yul\":3298:3304   */\n      0x00\n        /* \"#utility.yul\":3351:3353   */\n      0x20\n        /* \"#utility.yul\":3339:3348   */\n      dup3\n        /* \"#utility.yul\":3330:3337   */\n      dup5\n        /* \"#utility.yul\":3326:3349   */\n      sub\n        /* \"#utility.yul\":3322:3354   */\n      slt\n        /* \"#utility.yul\":3319:3321   */\n      iszero\n      tag_291\n      jumpi\n        /* \"#utility.yul\":3367:3368   */\n      0x00\n        /* \"#utility.yul\":3364:3365   */\n      dup1\n        /* \"#utility.yul\":3357:3369   */\n      revert\n        /* \"#utility.yul\":3319:3321   */\n    tag_291:\n      pop\n        /* \"#utility.yul\":3390:3413   */\n      calldataload\n      swap2\n        /* \"#utility.yul\":3309:3419   */\n      swap1\n      pop\n      jump\t// out\n        /* \"#utility.yul\":3424:3681   */\n    tag_292:\n        /* \"#utility.yul\":3465:3468   */\n      0x00\n        /* \"#utility.yul\":3503:3508   */\n      dup2\n        /* \"#utility.yul\":3497:3509   */\n      mload\n        /* \"#utility.yul\":3530:3536   */\n      dup1\n        /* \"#utility.yul\":3525:3528   */\n      dup5\n        /* \"#utility.yul\":3518:3537   */\n      mstore\n        /* \"#utility.yul\":3546:3609   */\n      tag_294\n        /* \"#utility.yul\":3602:3608   */\n      dup2\n        /* \"#utility.yul\":3595:3599   */\n      0x20\n        /* \"#utility.yul\":3590:3593   */\n      dup7\n        /* \"#utility.yul\":3586:3600   */\n      add\n        /* \"#utility.yul\":3579:3583   */\n      0x20\n        /* \"#utility.yul\":3572:3577   */\n      dup7\n        /* \"#utility.yul\":3568:3584   */\n      add\n        /* \"#utility.yul\":3546:3609   */\n      tag_295\n      jump\t// in\n    tag_294:\n        /* \"#utility.yul\":3663:3665   */\n      0x1f\n        /* \"#utility.yul\":3642:3657   */\n      add\n      not(0x1f)\n        /* \"#utility.yul\":3638:3667   */\n      and\n        /* \"#utility.yul\":3629:3668   */\n      swap3\n      swap1\n      swap3\n      add\n        /* \"#utility.yul\":3670:3674   */\n      0x20\n        /* \"#utility.yul\":3625:3675   */\n      add\n      swap3\n        /* \"#utility.yul\":3473:3681   */\n      swap2\n      pop\n      pop\n      jump\t// out\n        /* \"#utility.yul\":3686:4156   */\n    tag_156:\n        /* \"#utility.yul\":3865:3868   */\n      0x00\n        /* \"#utility.yul\":3903:3909   */\n      dup4\n        /* \"#utility.yul\":3897:3910   */\n      mload\n        /* \"#utility.yul\":3919:3972   */\n      tag_297\n        /* \"#utility.yul\":3965:3971   */\n      dup2\n        /* \"#utility.yul\":3960:3963   */\n      dup5\n        /* \"#utility.yul\":3953:3957   */\n      0x20\n        /* \"#utility.yul\":3945:3951   */\n      dup9\n        /* \"#utility.yul\":3941:3958   */\n      add\n        /* \"#utility.yul\":3919:3972   */\n      tag_295\n      jump\t// in\n    tag_297:\n        /* \"#utility.yul\":4035:4048   */\n      dup4\n      mload\n        /* \"#utility.yul\":3994:4010   */\n      swap1\n      dup4\n      add\n      swap1\n        /* \"#utility.yul\":4057:4114   */\n      tag_298\n        /* \"#utility.yul\":4035:4048   */\n      dup2\n        /* \"#utility.yul\":3994:4010   */\n      dup4\n        /* \"#utility.yul\":4091:4095   */\n      0x20\n        /* \"#utility.yul\":4079:4096   */\n      dup9\n      add\n        /* \"#utility.yul\":4057:4114   */\n      tag_295\n      jump\t// in\n    tag_298:\n        /* \"#utility.yul\":4130:4150   */\n      add\n      swap5\n        /* \"#utility.yul\":3873:4156   */\n      swap4\n      pop\n      pop\n      pop\n      pop\n      jump\t// out\n        /* \"#utility.yul\":4369:4857   */\n    tag_233:\n      sub(shl(0xa0, 0x01), 0x01)\n        /* \"#utility.yul\":4638:4653   */\n      dup6\n      dup2\n      and\n        /* \"#utility.yul\":4620:4654   */\n      dup3\n      mstore\n        /* \"#utility.yul\":4690:4705   */\n      dup5\n      and\n        /* \"#utility.yul\":4685:4687   */\n      0x20\n        /* \"#utility.yul\":4670:4688   */\n      dup3\n      add\n        /* \"#utility.yul\":4663:4706   */\n      mstore\n        /* \"#utility.yul\":4737:4739   */\n      0x40\n        /* \"#utility.yul\":4722:4740   */\n      dup2\n      add\n        /* \"#utility.yul\":4715:4749   */\n      dup4\n      swap1\n      mstore\n        /* \"#utility.yul\":4785:4788   */\n      0x80\n        /* \"#utility.yul\":4780:4782   */\n      0x60\n        /* \"#utility.yul\":4765:4783   */\n      dup3\n      add\n        /* \"#utility.yul\":4758:4789   */\n      dup2\n      swap1\n      mstore\n        /* \"#utility.yul\":4563:4567   */\n      0x00\n      swap1\n        /* \"#utility.yul\":4806:4851   */\n      tag_301\n      swap1\n        /* \"#utility.yul\":4831:4850   */\n      dup4\n      add\n        /* \"#utility.yul\":4823:4829   */\n      dup5\n        /* \"#utility.yul\":4806:4851   */\n      tag_292\n      jump\t// in\n    tag_301:\n        /* \"#utility.yul\":4798:4851   */\n      swap7\n        /* \"#utility.yul\":4572:4857   */\n      swap6\n      pop\n      pop\n      pop\n      pop\n      pop\n      pop\n      jump\t// out\n        /* \"#utility.yul\":5054:5273   */\n    tag_27:\n        /* \"#utility.yul\":5203:5205   */\n      0x20\n        /* \"#utility.yul\":5192:5201   */\n      dup2\n        /* \"#utility.yul\":5185:5206   */\n      mstore\n        /* \"#utility.yul\":5166:5170   */\n      0x00\n        /* \"#utility.yul\":5223:5267   */\n      tag_152\n        /* \"#utility.yul\":5263:5265   */\n      0x20\n        /* \"#utility.yul\":5252:5261   */\n      dup4\n        /* \"#utility.yul\":5248:5266   */\n      add\n        /* \"#utility.yul\":5240:5246   */\n      dup5\n        /* \"#utility.yul\":5223:5267   */\n      tag_292\n      jump\t// in\n        /* \"#utility.yul\":5278:5692   */\n    tag_201:\n        /* \"#utility.yul\":5480:5482   */\n      0x20\n        /* \"#utility.yul\":5462:5483   */\n      dup1\n      dup3\n      mstore\n        /* \"#utility.yul\":5519:5521   */\n      0x32\n        /* \"#utility.yul\":5499:5517   */\n      swap1\n      dup3\n      add\n        /* \"#utility.yul\":5492:5522   */\n      mstore\n        /* \"#utility.yul\":5558:5592   */\n      0x4552433732313a207472616e7366657220746f206e6f6e204552433732315265\n        /* \"#utility.yul\":5553:5555   */\n      0x40\n        /* \"#utility.yul\":5538:5556   */\n      dup3\n      add\n        /* \"#utility.yul\":5531:5593   */\n      mstore\n      shl(0x71, 0x31b2b4bb32b91034b6b83632b6b2b73a32b9)\n        /* \"#utility.yul\":5624:5626   */\n      0x60\n        /* \"#utility.yul\":5609:5627   */\n      dup3\n      add\n        /* \"#utility.yul\":5602:5650   */\n      mstore\n        /* \"#utility.yul\":5682:5685   */\n      0x80\n        /* \"#utility.yul\":5667:5686   */\n      add\n      swap1\n        /* \"#utility.yul\":5452:5692   */\n      jump\t// out\n        /* \"#utility.yul\":9752:10165   */\n    tag_114:\n        /* \"#utility.yul\":9954:9956   */\n      0x20\n        /* \"#utility.yul\":9936:9957   */\n      dup1\n      dup3\n      mstore\n        /* \"#utility.yul\":9993:9995   */\n      0x31\n        /* \"#utility.yul\":9973:9991   */\n      swap1\n      dup3\n      add\n        /* \"#utility.yul\":9966:9996   */\n      mstore\n        /* \"#utility.yul\":10032:10066   */\n      0x4552433732313a207472616e736665722063616c6c6572206973206e6f74206f\n        /* \"#utility.yul\":10027:10029   */\n      0x40\n        /* \"#utility.yul\":10012:10030   */\n      dup3\n      add\n        /* \"#utility.yul\":10005:10067   */\n      mstore\n      shl(0x7a, 0x1ddb995c881b9bdc88185c1c1c9bdd9959)\n        /* \"#utility.yul\":10098:10100   */\n      0x60\n        /* \"#utility.yul\":10083:10101   */\n      dup3\n      add\n        /* \"#utility.yul\":10076:10123   */\n      mstore\n        /* \"#utility.yul\":10155:10158   */\n      0x80\n        /* \"#utility.yul\":10140:10159   */\n      add\n      swap1\n        /* \"#utility.yul\":9926:10165   */\n      jump\t// out\n        /* \"#utility.yul\":10352:10480   */\n    tag_187:\n        /* \"#utility.yul\":10392:10395   */\n      0x00\n        /* \"#utility.yul\":10423:10424   */\n      dup3\n        /* \"#utility.yul\":10419:10425   */\n      not\n        /* \"#utility.yul\":10416:10417   */\n      dup3\n        /* \"#utility.yul\":10413:10426   */\n      gt\n        /* \"#utility.yul\":10410:10412   */\n      iszero\n      tag_320\n      jumpi\n        /* \"#utility.yul\":10429:10447   */\n      tag_320\n      tag_321\n      jump\t// in\n    tag_320:\n      pop\n        /* \"#utility.yul\":10465:10474   */\n      add\n      swap1\n        /* \"#utility.yul\":10400:10480   */\n      jump\t// out\n        /* \"#utility.yul\":10485:10605   */\n    tag_210:\n        /* \"#utility.yul\":10525:10526   */\n      0x00\n        /* \"#utility.yul\":10551:10552   */\n      dup3\n        /* \"#utility.yul\":10541:10543   */\n      tag_324\n      jumpi\n        /* \"#utility.yul\":10556:10574   */\n      tag_324\n      tag_325\n      jump\t// in\n    tag_324:\n      pop\n        /* \"#utility.yul\":10590:10599   */\n      div\n      swap1\n        /* \"#utility.yul\":10531:10605   */\n      jump\t// out\n        /* \"#utility.yul\":10610:10735   */\n    tag_185:\n        /* \"#utility.yul\":10650:10654   */\n      0x00\n        /* \"#utility.yul\":10678:10679   */\n      dup3\n        /* \"#utility.yul\":10675:10676   */\n      dup3\n        /* \"#utility.yul\":10672:10680   */\n      lt\n        /* \"#utility.yul\":10669:10671   */\n      iszero\n      tag_328\n      jumpi\n        /* \"#utility.yul\":10683:10701   */\n      tag_328\n      tag_321\n      jump\t// in\n    tag_328:\n      pop\n        /* \"#utility.yul\":10720:10729   */\n      sub\n      swap1\n        /* \"#utility.yul\":10659:10735   */\n      jump\t// out\n        /* \"#utility.yul\":10740:10998   */\n    tag_295:\n        /* \"#utility.yul\":10812:10813   */\n      0x00\n        /* \"#utility.yul\":10822:10935   */\n    tag_330:\n        /* \"#utility.yul\":10836:10842   */\n      dup4\n        /* \"#utility.yul\":10833:10834   */\n      dup2\n        /* \"#utility.yul\":10830:10843   */\n      lt\n        /* \"#utility.yul\":10822:10935   */\n      iszero\n      tag_332\n      jumpi\n        /* \"#utility.yul\":10912:10923   */\n      dup2\n      dup2\n      add\n        /* \"#utility.yul\":10906:10924   */\n      mload\n        /* \"#utility.yul\":10893:10904   */\n      dup4\n      dup3\n      add\n        /* \"#utility.yul\":10886:10925   */\n      mstore\n        /* \"#utility.yul\":10858:10860   */\n      0x20\n        /* \"#utility.yul\":10851:10861   */\n      add\n        /* \"#utility.yul\":10822:10935   */\n      jump(tag_330)\n    tag_332:\n        /* \"#utility.yul\":10953:10959   */\n      dup4\n        /* \"#utility.yul\":10950:10951   */\n      dup2\n        /* \"#utility.yul\":10947:10960   */\n      gt\n        /* \"#utility.yul\":10944:10946   */\n      iszero\n      tag_142\n      jumpi\n      pop\n      pop\n        /* \"#utility.yul\":10988:10989   */\n      0x00\n        /* \"#utility.yul\":10970:10986   */\n      swap2\n      add\n        /* \"#utility.yul\":10963:10990   */\n      mstore\n        /* \"#utility.yul\":10793:10998   */\n      jump\t// out\n        /* \"#utility.yul\":11003:11383   */\n    tag_82:\n        /* \"#utility.yul\":11082:11083   */\n      0x01\n        /* \"#utility.yul\":11078:11090   */\n      dup2\n      dup2\n      shr\n      swap1\n        /* \"#utility.yul\":11125:11137   */\n      dup3\n      and\n      dup1\n        /* \"#utility.yul\":11146:11148   */\n      tag_335\n      jumpi\n        /* \"#utility.yul\":11200:11204   */\n      0x7f\n        /* \"#utility.yul\":11192:11198   */\n      dup3\n        /* \"#utility.yul\":11188:11205   */\n      and\n        /* \"#utility.yul\":11178:11205   */\n      swap2\n      pop\n        /* \"#utility.yul\":11146:11148   */\n    tag_335:\n        /* \"#utility.yul\":11253:11255   */\n      0x20\n        /* \"#utility.yul\":11245:11251   */\n      dup3\n        /* \"#utility.yul\":11242:11256   */\n      lt\n        /* \"#utility.yul\":11222:11240   */\n      dup2\n        /* \"#utility.yul\":11219:11257   */\n      eq\n        /* \"#utility.yul\":11216:11218   */\n      iszero\n      tag_336\n      jumpi\n        /* \"#utility.yul\":11299:11309   */\n      0x4e487b71\n        /* \"#utility.yul\":11294:11297   */\n      0xe0\n        /* \"#utility.yul\":11290:11310   */\n      shl\n        /* \"#utility.yul\":11287:11288   */\n      0x00\n        /* \"#utility.yul\":11280:11311   */\n      mstore\n        /* \"#utility.yul\":11334:11338   */\n      0x22\n        /* \"#utility.yul\":11331:11332   */\n      0x04\n        /* \"#utility.yul\":11324:11339   */\n      mstore\n        /* \"#utility.yul\":11362:11366   */\n      0x24\n        /* \"#utility.yul\":11359:11360   */\n      0x00\n        /* \"#utility.yul\":11352:11367   */\n      revert\n        /* \"#utility.yul\":11216:11218   */\n    tag_336:\n      pop\n        /* \"#utility.yul\":11058:11383   */\n      swap2\n      swap1\n      pop\n      jump\t// out\n        /* \"#utility.yul\":11388:11523   */\n    tag_208:\n        /* \"#utility.yul\":11427:11430   */\n      0x00\n      not(0x00)\n        /* \"#utility.yul\":11448:11465   */\n      dup3\n      eq\n        /* \"#utility.yul\":11445:11447   */\n      iszero\n      tag_339\n      jumpi\n        /* \"#utility.yul\":11468:11486   */\n      tag_339\n      tag_321\n      jump\t// in\n    tag_339:\n      pop\n        /* \"#utility.yul\":11515:11516   */\n      0x01\n        /* \"#utility.yul\":11504:11517   */\n      add\n      swap1\n        /* \"#utility.yul\":11435:11523   */\n      jump\t// out\n        /* \"#utility.yul\":11528:11640   */\n    tag_219:\n        /* \"#utility.yul\":11560:11561   */\n      0x00\n        /* \"#utility.yul\":11586:11587   */\n      dup3\n        /* \"#utility.yul\":11576:11578   */\n      tag_342\n      jumpi\n        /* \"#utility.yul\":11591:11609   */\n      tag_342\n      tag_325\n      jump\t// in\n    tag_342:\n      pop\n        /* \"#utility.yul\":11625:11634   */\n      mod\n      swap1\n        /* \"#utility.yul\":11566:11640   */\n      jump\t// out\n        /* \"#utility.yul\":11645:11772   */\n    tag_321:\n        /* \"#utility.yul\":11706:11716   */\n      0x4e487b71\n        /* \"#utility.yul\":11701:11704   */\n      0xe0\n        /* \"#utility.yul\":11697:11717   */\n      shl\n        /* \"#utility.yul\":11694:11695   */\n      0x00\n        /* \"#utility.yul\":11687:11718   */\n      mstore\n        /* \"#utility.yul\":11737:11741   */\n      0x11\n        /* \"#utility.yul\":11734:11735   */\n      0x04\n        /* \"#utility.yul\":11727:11742   */\n      mstore\n        /* \"#utility.yul\":11761:11765   */\n      0x24\n        /* \"#utility.yul\":11758:11759   */\n      0x00\n        /* \"#utility.yul\":11751:11766   */\n      revert\n        /* \"#utility.yul\":11777:11904   */\n    tag_325:\n        /* \"#utility.yul\":11838:11848   */\n      0x4e487b71\n        /* \"#utility.yul\":11833:11836   */\n      0xe0\n        /* \"#utility.yul\":11829:11849   */\n      shl\n        /* \"#utility.yul\":11826:11827   */\n      0x00\n        /* \"#utility.yul\":11819:11850   */\n      mstore\n        /* \"#utility.yul\":11869:11873   */\n      0x12\n        /* \"#utility.yul\":11866:11867   */\n      0x04\n        /* \"#utility.yul\":11859:11874   */\n      mstore\n        /* \"#utility.yul\":11893:11897   */\n      0x24\n        /* \"#utility.yul\":11890:11891   */\n      0x00\n        /* \"#utility.yul\":11883:11898   */\n      revert\n        /* \"#utility.yul\":11909:12036   */\n    tag_223:\n        /* \"#utility.yul\":11970:11980   */\n      0x4e487b71\n        /* \"#utility.yul\":11965:11968   */\n      0xe0\n        /* \"#utility.yul\":11961:11981   */\n      shl\n        /* \"#utility.yul\":11958:11959   */\n      0x00\n        /* \"#utility.yul\":11951:11982   */\n      mstore\n        /* \"#utility.yul\":12001:12005   */\n      0x32\n        /* \"#utility.yul\":11998:11999   */\n      0x04\n        /* \"#utility.yul\":11991:12006   */\n      mstore\n        /* \"#utility.yul\":12025:12029   */\n      0x24\n        /* \"#utility.yul\":12022:12023   */\n      0x00\n        /* \"#utility.yul\":12015:12030   */\n      revert\n        /* \"#utility.yul\":12041:12168   */\n    tag_213:\n        /* \"#utility.yul\":12102:12112   */\n      0x4e487b71\n        /* \"#utility.yul\":12097:12100   */\n      0xe0\n        /* \"#utility.yul\":12093:12113   */\n      shl\n        /* \"#utility.yul\":12090:12091   */\n      0x00\n        /* \"#utility.yul\":12083:12114   */\n      mstore\n        /* \"#utility.yul\":12133:12137   */\n      0x41\n        /* \"#utility.yul\":12130:12131   */\n      0x04\n        /* \"#utility.yul\":12123:12138   */\n      mstore\n        /* \"#utility.yul\":12157:12161   */\n      0x24\n        /* \"#utility.yul\":12154:12155   */\n      0x00\n        /* \"#utility.yul\":12147:12162   */\n      revert\n        /* \"#utility.yul\":12173:12304   */\n    tag_286:\n      not(sub(shl(0xe0, 0x01), 0x01))\n        /* \"#utility.yul\":12247:12279   */\n      dup2\n      and\n        /* \"#utility.yul\":12237:12280   */\n      dup2\n      eq\n        /* \"#utility.yul\":12227:12229   */\n      tag_348\n      jumpi\n        /* \"#utility.yul\":12294:12295   */\n      0x00\n        /* \"#utility.yul\":12291:12292   */\n      dup1\n        /* \"#utility.yul\":12284:12296   */\n      revert\n        /* \"#utility.yul\":12227:12229   */\n    tag_348:\n        /* \"#utility.yul\":12217:12304   */\n      pop\n      jump\t// out\n\n    auxdata: 0xa26469706673582212202e94a3d0576328cac166c4c58b8a4cb399a18f8c4cd372bc871d49a3924bb31464736f6c63430008060033\n}\n",
				"bytecode": {
					"linkReferences": {},
					"object": "60806040523480156200001157600080fd5b50604051620014ed380380620014ed8339810160408190526200003491620001c5565b81516200004990600090602085019062000068565b5080516200005f90600190602084019062000068565b50505062000282565b82805462000076906200022f565b90600052602060002090601f0160209004810192826200009a5760008555620000e5565b82601f10620000b557805160ff1916838001178555620000e5565b82800160010185558215620000e5579182015b82811115620000e5578251825591602001919060010190620000c8565b50620000f3929150620000f7565b5090565b5b80821115620000f35760008155600101620000f8565b600082601f8301126200012057600080fd5b81516001600160401b03808211156200013d576200013d6200026c565b604051601f8301601f19908116603f011681019082821181831017156200016857620001686200026c565b816040528381526020925086838588010111156200018557600080fd5b600091505b83821015620001a957858201830151818301840152908201906200018a565b83821115620001bb5760008385830101525b9695505050505050565b60008060408385031215620001d957600080fd5b82516001600160401b0380821115620001f157600080fd5b620001ff868387016200010e565b935060208501519150808211156200021657600080fd5b5062000225858286016200010e565b9150509250929050565b600181811c908216806200024457607f821691505b602082108114156200026657634e487b7160e01b600052602260045260246000fd5b50919050565b634e487b7160e01b600052604160045260246000fd5b61125b80620002926000396000f3fe608060405234801561001057600080fd5b50600436106100cf5760003560e01c80636352211e1161008c578063a22cb46511610066578063a22cb465146101b3578063b88d4fde146101c6578063c87b56dd146101d9578063e985e9c5146101ec57600080fd5b80636352211e1461017757806370a082311461018a57806395d89b41146101ab57600080fd5b806301ffc9a7146100d457806306fdde03146100fc578063081812fc14610111578063095ea7b31461013c57806323b872dd1461015157806342842e0e14610164575b600080fd5b6100e76100e2366004610f3a565b610228565b60405190151581526020015b60405180910390f35b61010461027a565b6040516100f39190611025565b61012461011f366004610f74565b61030c565b6040516001600160a01b0390911681526020016100f3565b61014f61014a366004610f10565b6103a6565b005b61014f61015f366004610dbc565b6104bc565b61014f610172366004610dbc565b6104ed565b610124610185366004610f74565b610508565b61019d610198366004610d6e565b61057f565b6040519081526020016100f3565b610104610606565b61014f6101c1366004610ed4565b610615565b61014f6101d4366004610df8565b610624565b6101046101e7366004610f74565b61065c565b6100e76101fa366004610d89565b6001600160a01b03918216600090815260056020908152604080832093909416825291909152205460ff1690565b60006001600160e01b031982166380ac58cd60e01b148061025957506001600160e01b03198216635b5e139f60e01b145b8061027457506301ffc9a760e01b6001600160e01b03198316145b92915050565b6060600080546102899061114a565b80601f01602080910402602001604051908101604052809291908181526020018280546102b59061114a565b80156103025780601f106102d757610100808354040283529160200191610302565b820191906000526020600020905b8154815290600101906020018083116102e557829003601f168201915b5050505050905090565b6000818152600260205260408120546001600160a01b031661038a5760405162461bcd60e51b815260206004820152602c60248201527f4552433732313a20617070726f76656420717565727920666f72206e6f6e657860448201526b34b9ba32b73a103a37b5b2b760a11b60648201526084015b60405180910390fd5b506000908152600460205260409020546001600160a01b031690565b60006103b182610508565b9050806001600160a01b0316836001600160a01b0316141561041f5760405162461bcd60e51b815260206004820152602160248201527f4552433732313a20617070726f76616c20746f2063757272656e74206f776e656044820152603960f91b6064820152608401610381565b336001600160a01b038216148061043b575061043b81336101fa565b6104ad5760405162461bcd60e51b815260206004820152603860248201527f4552433732313a20617070726f76652063616c6c6572206973206e6f74206f7760448201527f6e6572206e6f7220617070726f76656420666f7220616c6c00000000000000006064820152608401610381565b6104b78383610744565b505050565b6104c633826107b2565b6104e25760405162461bcd60e51b81526004016103819061108a565b6104b78383836108a9565b6104b783838360405180602001604052806000815250610624565b6000818152600260205260408120546001600160a01b0316806102745760405162461bcd60e51b815260206004820152602960248201527f4552433732313a206f776e657220717565727920666f72206e6f6e657869737460448201526832b73a103a37b5b2b760b91b6064820152608401610381565b60006001600160a01b0382166105ea5760405162461bcd60e51b815260206004820152602a60248201527f4552433732313a2062616c616e636520717565727920666f7220746865207a65604482015269726f206164647265737360b01b6064820152608401610381565b506001600160a01b031660009081526003602052604090205490565b6060600180546102899061114a565b610620338383610a45565b5050565b61062e33836107b2565b61064a5760405162461bcd60e51b81526004016103819061108a565b61065684848484610b14565b50505050565b6000818152600260205260409020546060906001600160a01b03166106db5760405162461bcd60e51b815260206004820152602f60248201527f4552433732314d657461646174613a2055524920717565727920666f72206e6f60448201526e3732bc34b9ba32b73a103a37b5b2b760891b6064820152608401610381565b60006106f260408051602081019091526000815290565b90506000815111610712576040518060200160405280600081525061073d565b8061071c84610b47565b60405160200161072d929190610fb9565b6040516020818303038152906040525b9392505050565b600081815260046020526040902080546001600160a01b0319166001600160a01b038416908117909155819061077982610508565b6001600160a01b03167f8c5be1e5ebec7d5bd14f71427d1e84f3dd0314c0f7b2291e5b200ac8c7c3b92560405160405180910390a45050565b6000818152600260205260408120546001600160a01b031661082b5760405162461bcd60e51b815260206004820152602c60248201527f4552433732313a206f70657261746f7220717565727920666f72206e6f6e657860448201526b34b9ba32b73a103a37b5b2b760a11b6064820152608401610381565b600061083683610508565b9050806001600160a01b0316846001600160a01b031614806108715750836001600160a01b03166108668461030c565b6001600160a01b0316145b806108a157506001600160a01b0380821660009081526005602090815260408083209388168352929052205460ff165b949350505050565b826001600160a01b03166108bc82610508565b6001600160a01b0316146109205760405162461bcd60e51b815260206004820152602560248201527f4552433732313a207472616e736665722066726f6d20696e636f72726563742060448201526437bbb732b960d91b6064820152608401610381565b6001600160a01b0382166109825760405162461bcd60e51b8152602060048201526024808201527f4552433732313a207472616e7366657220746f20746865207a65726f206164646044820152637265737360e01b6064820152608401610381565b61098d600082610744565b6001600160a01b03831660009081526003602052604081208054600192906109b6908490611107565b90915550506001600160a01b03821660009081526003602052604081208054600192906109e49084906110db565b909155505060008181526002602052604080822080546001600160a01b0319166001600160a01b0386811691821790925591518493918716917fddf252ad1be2c89b69c2b068fc378daa952ba7f163c4a11628f55a4df523b3ef91a4505050565b816001600160a01b0316836001600160a01b03161415610aa75760405162461bcd60e51b815260206004820152601960248201527f4552433732313a20617070726f766520746f2063616c6c6572000000000000006044820152606401610381565b6001600160a01b03838116600081815260056020908152604080832094871680845294825291829020805460ff191686151590811790915591519182527f17307eab39ab6107e8899845ad3d59bd9653f200f220920489ca2b5937696c31910160405180910390a3505050565b610b1f8484846108a9565b610b2b84848484610c45565b6106565760405162461bcd60e51b815260040161038190611038565b606081610b6b5750506040805180820190915260018152600360fc1b602082015290565b8160005b8115610b955780610b7f81611185565b9150610b8e9050600a836110f3565b9150610b6f565b60008167ffffffffffffffff811115610bb057610bb06111f6565b6040519080825280601f01601f191660200182016040528015610bda576020820181803683370190505b5090505b84156108a157610bef600183611107565b9150610bfc600a866111a0565b610c079060306110db565b60f81b818381518110610c1c57610c1c6111e0565b60200101906001600160f81b031916908160001a905350610c3e600a866110f3565b9450610bde565b60006001600160a01b0384163b15610d4757604051630a85bd0160e11b81526001600160a01b0385169063150b7a0290610c89903390899088908890600401610fe8565b602060405180830381600087803b158015610ca357600080fd5b505af1925050508015610cd3575060408051601f3d908101601f19168201909252610cd091810190610f57565b60015b610d2d573d808015610d01576040519150601f19603f3d011682016040523d82523d6000602084013e610d06565b606091505b508051610d255760405162461bcd60e51b815260040161038190611038565b805181602001fd5b6001600160e01b031916630a85bd0160e11b1490506108a1565b506001949350505050565b80356001600160a01b0381168114610d6957600080fd5b919050565b600060208284031215610d8057600080fd5b61073d82610d52565b60008060408385031215610d9c57600080fd5b610da583610d52565b9150610db360208401610d52565b90509250929050565b600080600060608486031215610dd157600080fd5b610dda84610d52565b9250610de860208501610d52565b9150604084013590509250925092565b60008060008060808587031215610e0e57600080fd5b610e1785610d52565b9350610e2560208601610d52565b925060408501359150606085013567ffffffffffffffff80821115610e4957600080fd5b818701915087601f830112610e5d57600080fd5b813581811115610e6f57610e6f6111f6565b604051601f8201601f19908116603f01168101908382118183101715610e9757610e976111f6565b816040528281528a6020848701011115610eb057600080fd5b82602086016020830137600060208483010152809550505050505092959194509250565b60008060408385031215610ee757600080fd5b610ef083610d52565b915060208301358015158114610f0557600080fd5b809150509250929050565b60008060408385031215610f2357600080fd5b610f2c83610d52565b946020939093013593505050565b600060208284031215610f4c57600080fd5b813561073d8161120c565b600060208284031215610f6957600080fd5b815161073d8161120c565b600060208284031215610f8657600080fd5b5035919050565b60008151808452610fa581602086016020860161111e565b601f01601f19169290920160200192915050565b60008351610fcb81846020880161111e565b835190830190610fdf81836020880161111e565b01949350505050565b6001600160a01b038581168252841660208201526040810183905260806060820181905260009061101b90830184610f8d565b9695505050505050565b60208152600061073d6020830184610f8d565b60208082526032908201527f4552433732313a207472616e7366657220746f206e6f6e20455243373231526560408201527131b2b4bb32b91034b6b83632b6b2b73a32b960711b606082015260800190565b60208082526031908201527f4552433732313a207472616e736665722063616c6c6572206973206e6f74206f6040820152701ddb995c881b9bdc88185c1c1c9bdd9959607a1b606082015260800190565b600082198211156110ee576110ee6111b4565b500190565b600082611102576111026111ca565b500490565b600082821015611119576111196111b4565b500390565b60005b83811015611139578181015183820152602001611121565b838111156106565750506000910152565b600181811c9082168061115e57607f821691505b6020821081141561117f57634e487b7160e01b600052602260045260246000fd5b50919050565b6000600019821415611199576111996111b4565b5060010190565b6000826111af576111af6111ca565b500690565b634e487b7160e01b600052601160045260246000fd5b634e487b7160e01b600052601260045260246000fd5b634e487b7160e01b600052603260045260246000fd5b634e487b7160e01b600052604160045260246000fd5b6001600160e01b03198116811461122257600080fd5b5056fea26469706673582212202e94a3d0576328cac166c4c58b8a4cb399a18f8c4cd372bc871d49a3924bb31464736f6c63430008060033",
					"opcodes": "PUSH1 0x80 PUSH1 0x40 MSTORE CALLVALUE DUP1 ISZERO PUSH3 0x11 JUMPI PUSH1 0x0 DUP1 REVERT JUMPDEST POP PUSH1 0x40 MLOAD PUSH3 0x14ED CODESIZE SUB DUP1 PUSH3 0x14ED DUP4 CODECOPY DUP2 ADD PUSH1 0x40 DUP2 SWAP1 MSTORE PUSH3 0x34 SWAP2 PUSH3 0x1C5 JUMP JUMPDEST DUP2 MLOAD PUSH3 0x49 SWAP1 PUSH1 0x0 SWAP1 PUSH1 0x20 DUP6 ADD SWAP1 PUSH3 0x68 JUMP JUMPDEST POP DUP1 MLOAD PUSH3 0x5F SWAP1 PUSH1 0x1 SWAP1 PUSH1 0x20 DUP5 ADD SWAP1 PUSH3 0x68 JUMP JUMPDEST POP POP POP PUSH3 0x282 JUMP JUMPDEST DUP3 DUP1 SLOAD PUSH3 0x76 SWAP1 PUSH3 0x22F JUMP JUMPDEST SWAP1 PUSH1 0x0 MSTORE PUSH1 0x20 PUSH1 0x0 KECCAK256 SWAP1 PUSH1 0x1F ADD PUSH1 0x20 SWAP1 DIV DUP2 ADD SWAP3 DUP3 PUSH3 0x9A JUMPI PUSH1 0x0 DUP6 SSTORE PUSH3 0xE5 JUMP JUMPDEST DUP3 PUSH1 0x1F LT PUSH3 0xB5 JUMPI DUP1 MLOAD PUSH1 0xFF NOT AND DUP4 DUP1 ADD OR DUP6 SSTORE PUSH3 0xE5 JUMP JUMPDEST DUP3 DUP1 ADD PUSH1 0x1 ADD DUP6 SSTORE DUP3 ISZERO PUSH3 0xE5 JUMPI SWAP2 DUP3 ADD JUMPDEST DUP3 DUP2 GT ISZERO PUSH3 0xE5 JUMPI DUP3 MLOAD DUP3 SSTORE SWAP2 PUSH1 0x20 ADD SWAP2 SWAP1 PUSH1 0x1 ADD SWAP1 PUSH3 0xC8 JUMP JUMPDEST POP PUSH3 0xF3 SWAP3 SWAP2 POP PUSH3 0xF7 JUMP JUMPDEST POP SWAP1 JUMP JUMPDEST JUMPDEST DUP1 DUP3 GT ISZERO PUSH3 0xF3 JUMPI PUSH1 0x0 DUP2 SSTORE PUSH1 0x1 ADD PUSH3 0xF8 JUMP JUMPDEST PUSH1 0x0 DUP3 PUSH1 0x1F DUP4 ADD SLT PUSH3 0x120 JUMPI PUSH1 0x0 DUP1 REVERT JUMPDEST DUP2 MLOAD PUSH1 0x1 PUSH1 0x1 PUSH1 0x40 SHL SUB DUP1 DUP3 GT ISZERO PUSH3 0x13D JUMPI PUSH3 0x13D PUSH3 0x26C JUMP JUMPDEST PUSH1 0x40 MLOAD PUSH1 0x1F DUP4 ADD PUSH1 0x1F NOT SWAP1 DUP2 AND PUSH1 0x3F ADD AND DUP2 ADD SWAP1 DUP3 DUP3 GT DUP2 DUP4 LT OR ISZERO PUSH3 0x168 JUMPI PUSH3 0x168 PUSH3 0x26C JUMP JUMPDEST DUP2 PUSH1 0x40 MSTORE DUP4 DUP2 MSTORE PUSH1 0x20 SWAP3 POP DUP7 DUP4 DUP6 DUP9 ADD ADD GT ISZERO PUSH3 0x185 JUMPI PUSH1 0x0 DUP1 REVERT JUMPDEST PUSH1 0x0 SWAP2 POP JUMPDEST DUP4 DUP3 LT ISZERO PUSH3 0x1A9 JUMPI DUP6 DUP3 ADD DUP4 ADD MLOAD DUP2 DUP4 ADD DUP5 ADD MSTORE SWAP1 DUP3 ADD SWAP1 PUSH3 0x18A JUMP JUMPDEST DUP4 DUP3 GT ISZERO PUSH3 0x1BB JUMPI PUSH1 0x0 DUP4 DUP6 DUP4 ADD ADD MSTORE JUMPDEST SWAP7 SWAP6 POP POP POP POP POP POP JUMP JUMPDEST PUSH1 0x0 DUP1 PUSH1 0x40 DUP4 DUP6 SUB SLT ISZERO PUSH3 0x1D9 JUMPI PUSH1 0x0 DUP1 REVERT JUMPDEST DUP3 MLOAD PUSH1 0x1 PUSH1 0x1 PUSH1 0x40 SHL SUB DUP1 DUP3 GT ISZERO PUSH3 0x1F1 JUMPI PUSH1 0x0 DUP1 REVERT JUMPDEST PUSH3 0x1FF DUP7 DUP4 DUP8 ADD PUSH3 0x10E JUMP JUMPDEST SWAP4 POP PUSH1 0x20 DUP6 ADD MLOAD SWAP2 POP DUP1 DUP3 GT ISZERO PUSH3 0x216 JUMPI PUSH1 0x0 DUP1 REVERT JUMPDEST POP PUSH3 0x225 DUP6 DUP3 DUP7 ADD PUSH3 0x10E JUMP JUMPDEST SWAP2 POP POP SWAP3 POP SWAP3 SWAP1 POP JUMP JUMPDEST PUSH1 0x1 DUP2 DUP2 SHR SWAP1 DUP3 AND DUP1 PUSH3 0x244 JUMPI PUSH1 0x7F DUP3 AND SWAP2 POP JUMPDEST PUSH1 0x20 DUP3 LT DUP2 EQ ISZERO PUSH3 0x266 JUMPI PUSH4 0x4E487B71 PUSH1 0xE0 SHL PUSH1 0x0 MSTORE PUSH1 0x22 PUSH1 0x4 MSTORE PUSH1 0x24 PUSH1 0x0 REVERT JUMPDEST POP SWAP2 SWAP1 POP JUMP JUMPDEST PUSH4 0x4E487B71 PUSH1 0xE0 SHL PUSH1 0x0 MSTORE PUSH1 0x41 PUSH1 0x4 MSTORE PUSH1 0x24 PUSH1 0x0 REVERT JUMPDEST PUSH2 0x125B DUP1 PUSH3 0x292 PUSH1 0x0 CODECOPY PUSH1 0x0 RETURN INVALID PUSH1 0x80 PUSH1 0x40 MSTORE CALLVALUE DUP1 ISZERO PUSH2 0x10 JUMPI PUSH1 0x0 DUP1 REVERT JUMPDEST POP PUSH1 0x4 CALLDATASIZE LT PUSH2 0xCF JUMPI PUSH1 0x0 CALLDATALOAD PUSH1 0xE0 SHR DUP1 PUSH4 0x6352211E GT PUSH2 0x8C JUMPI DUP1 PUSH4 0xA22CB465 GT PUSH2 0x66 JUMPI DUP1 PUSH4 0xA22CB465 EQ PUSH2 0x1B3 JUMPI DUP1 PUSH4 0xB88D4FDE EQ PUSH2 0x1C6 JUMPI DUP1 PUSH4 0xC87B56DD EQ PUSH2 0x1D9 JUMPI DUP1 PUSH4 0xE985E9C5 EQ PUSH2 0x1EC JUMPI PUSH1 0x0 DUP1 REVERT JUMPDEST DUP1 PUSH4 0x6352211E EQ PUSH2 0x177 JUMPI DUP1 PUSH4 0x70A08231 EQ PUSH2 0x18A JUMPI DUP1 PUSH4 0x95D89B41 EQ PUSH2 0x1AB JUMPI PUSH1 0x0 DUP1 REVERT JUMPDEST DUP1 PUSH4 0x1FFC9A7 EQ PUSH2 0xD4 JUMPI DUP1 PUSH4 0x6FDDE03 EQ PUSH2 0xFC JUMPI DUP1 PUSH4 0x81812FC EQ PUSH2 0x111 JUMPI DUP1 PUSH4 0x95EA7B3 EQ PUSH2 0x13C JUMPI DUP1 PUSH4 0x23B872DD EQ PUSH2 0x151 JUMPI DUP1 PUSH4 0x42842E0E EQ PUSH2 0x164 JUMPI JUMPDEST PUSH1 0x0 DUP1 REVERT JUMPDEST PUSH2 0xE7 PUSH2 0xE2 CALLDATASIZE PUSH1 0x4 PUSH2 0xF3A JUMP JUMPDEST PUSH2 0x228 JUMP JUMPDEST PUSH1 0x40 MLOAD SWAP1 ISZERO ISZERO DUP2 MSTORE PUSH1 0x20 ADD JUMPDEST PUSH1 0x40 MLOAD DUP1 SWAP2 SUB SWAP1 RETURN JUMPDEST PUSH2 0x104 PUSH2 0x27A JUMP JUMPDEST PUSH1 0x40 MLOAD PUSH2 0xF3 SWAP2 SWAP1 PUSH2 0x1025 JUMP JUMPDEST PUSH2 0x124 PUSH2 0x11F CALLDATASIZE PUSH1 0x4 PUSH2 0xF74 JUMP JUMPDEST PUSH2 0x30C JUMP JUMPDEST PUSH1 0x40 MLOAD PUSH1 0x1 PUSH1 0x1 PUSH1 0xA0 SHL SUB SWAP1 SWAP2 AND DUP2 MSTORE PUSH1 0x20 ADD PUSH2 0xF3 JUMP JUMPDEST PUSH2 0x14F PUSH2 0x14A CALLDATASIZE PUSH1 0x4 PUSH2 0xF10 JUMP JUMPDEST PUSH2 0x3A6 JUMP JUMPDEST STOP JUMPDEST PUSH2 0x14F PUSH2 0x15F CALLDATASIZE PUSH1 0x4 PUSH2 0xDBC JUMP JUMPDEST PUSH2 0x4BC JUMP JUMPDEST PUSH2 0x14F PUSH2 0x172 CALLDATASIZE PUSH1 0x4 PUSH2 0xDBC JUMP JUMPDEST PUSH2 0x4ED JUMP JUMPDEST PUSH2 0x124 PUSH2 0x185 CALLDATASIZE PUSH1 0x4 PUSH2 0xF74 JUMP JUMPDEST PUSH2 0x508 JUMP JUMPDEST PUSH2 0x19D PUSH2 0x198 CALLDATASIZE PUSH1 0x4 PUSH2 0xD6E JUMP JUMPDEST PUSH2 0x57F JUMP JUMPDEST PUSH1 0x40 MLOAD SWAP1 DUP2 MSTORE PUSH1 0x20 ADD PUSH2 0xF3 JUMP JUMPDEST PUSH2 0x104 PUSH2 0x606 JUMP JUMPDEST PUSH2 0x14F PUSH2 0x1C1 CALLDATASIZE PUSH1 0x4 PUSH2 0xED4 JUMP JUMPDEST PUSH2 0x615 JUMP JUMPDEST PUSH2 0x14F PUSH2 0x1D4 CALLDATASIZE PUSH1 0x4 PUSH2 0xDF8 JUMP JUMPDEST PUSH2 0x624 JUMP JUMPDEST PUSH2 0x104 PUSH2 0x1E7 CALLDATASIZE PUSH1 0x4 PUSH2 0xF74 JUMP JUMPDEST PUSH2 0x65C JUMP JUMPDEST PUSH2 0xE7 PUSH2 0x1FA CALLDATASIZE PUSH1 0x4 PUSH2 0xD89 JUMP JUMPDEST PUSH1 0x1 PUSH1 0x1 PUSH1 0xA0 SHL SUB SWAP2 DUP3 AND PUSH1 0x0 SWAP1 DUP2 MSTORE PUSH1 0x5 PUSH1 0x20 SWAP1 DUP2 MSTORE PUSH1 0x40 DUP1 DUP4 KECCAK256 SWAP4 SWAP1 SWAP5 AND DUP3 MSTORE SWAP2 SWAP1 SWAP2 MSTORE KECCAK256 SLOAD PUSH1 0xFF AND SWAP1 JUMP JUMPDEST PUSH1 0x0 PUSH1 0x1 PUSH1 0x1 PUSH1 0xE0 SHL SUB NOT DUP3 AND PUSH4 0x80AC58CD PUSH1 0xE0 SHL EQ DUP1 PUSH2 0x259 JUMPI POP PUSH1 0x1 PUSH1 0x1 PUSH1 0xE0 SHL SUB NOT DUP3 AND PUSH4 0x5B5E139F PUSH1 0xE0 SHL EQ JUMPDEST DUP1 PUSH2 0x274 JUMPI POP PUSH4 0x1FFC9A7 PUSH1 0xE0 SHL PUSH1 0x1 PUSH1 0x1 PUSH1 0xE0 SHL SUB NOT DUP4 AND EQ JUMPDEST SWAP3 SWAP2 POP POP JUMP JUMPDEST PUSH1 0x60 PUSH1 0x0 DUP1 SLOAD PUSH2 0x289 SWAP1 PUSH2 0x114A JUMP JUMPDEST DUP1 PUSH1 0x1F ADD PUSH1 0x20 DUP1 SWAP2 DIV MUL PUSH1 0x20 ADD PUSH1 0x40 MLOAD SWAP1 DUP2 ADD PUSH1 0x40 MSTORE DUP1 SWAP3 SWAP2 SWAP1 DUP2 DUP2 MSTORE PUSH1 0x20 ADD DUP3 DUP1 SLOAD PUSH2 0x2B5 SWAP1 PUSH2 0x114A JUMP JUMPDEST DUP1 ISZERO PUSH2 0x302 JUMPI DUP1 PUSH1 0x1F LT PUSH2 0x2D7 JUMPI PUSH2 0x100 DUP1 DUP4 SLOAD DIV MUL DUP4 MSTORE SWAP2 PUSH1 0x20 ADD SWAP2 PUSH2 0x302 JUMP JUMPDEST DUP3 ADD SWAP2 SWAP1 PUSH1 0x0 MSTORE PUSH1 0x20 PUSH1 0x0 KECCAK256 SWAP1 JUMPDEST DUP2 SLOAD DUP2 MSTORE SWAP1 PUSH1 0x1 ADD SWAP1 PUSH1 0x20 ADD DUP1 DUP4 GT PUSH2 0x2E5 JUMPI DUP3 SWAP1 SUB PUSH1 0x1F AND DUP3 ADD SWAP2 JUMPDEST POP POP POP POP POP SWAP1 POP SWAP1 JUMP JUMPDEST PUSH1 0x0 DUP2 DUP2 MSTORE PUSH1 0x2 PUSH1 0x20 MSTORE PUSH1 0x40 DUP2 KECCAK256 SLOAD PUSH1 0x1 PUSH1 0x1 PUSH1 0xA0 SHL SUB AND PUSH2 0x38A JUMPI PUSH1 0x40 MLOAD PUSH3 0x461BCD PUSH1 0xE5 SHL DUP2 MSTORE PUSH1 0x20 PUSH1 0x4 DUP3 ADD MSTORE PUSH1 0x2C PUSH1 0x24 DUP3 ADD MSTORE PUSH32 0x4552433732313A20617070726F76656420717565727920666F72206E6F6E6578 PUSH1 0x44 DUP3 ADD MSTORE PUSH12 0x34B9BA32B73A103A37B5B2B7 PUSH1 0xA1 SHL PUSH1 0x64 DUP3 ADD MSTORE PUSH1 0x84 ADD JUMPDEST PUSH1 0x40 MLOAD DUP1 SWAP2 SUB SWAP1 REVERT JUMPDEST POP PUSH1 0x0 SWAP1 DUP2 MSTORE PUSH1 0x4 PUSH1 0x20 MSTORE PUSH1 0x40 SWAP1 KECCAK256 SLOAD PUSH1 0x1 PUSH1 0x1 PUSH1 0xA0 SHL SUB AND SWAP1 JUMP JUMPDEST PUSH1 0x0 PUSH2 0x3B1 DUP3 PUSH2 0x508 JUMP JUMPDEST SWAP1 POP DUP1 PUSH1 0x1 PUSH1 0x1 PUSH1 0xA0 SHL SUB AND DUP4 PUSH1 0x1 PUSH1 0x1 PUSH1 0xA0 SHL SUB AND EQ ISZERO PUSH2 0x41F JUMPI PUSH1 0x40 MLOAD PUSH3 0x461BCD PUSH1 0xE5 SHL DUP2 MSTORE PUSH1 0x20 PUSH1 0x4 DUP3 ADD MSTORE PUSH1 0x21 PUSH1 0x24 DUP3 ADD MSTORE PUSH32 0x4552433732313A20617070726F76616C20746F2063757272656E74206F776E65 PUSH1 0x44 DUP3 ADD MSTORE PUSH1 0x39 PUSH1 0xF9 SHL PUSH1 0x64 DUP3 ADD MSTORE PUSH1 0x84 ADD PUSH2 0x381 JUMP JUMPDEST CALLER PUSH1 0x1 PUSH1 0x1 PUSH1 0xA0 SHL SUB DUP3 AND EQ DUP1 PUSH2 0x43B JUMPI POP PUSH2 0x43B DUP2 CALLER PUSH2 0x1FA JUMP JUMPDEST PUSH2 0x4AD JUMPI PUSH1 0x40 MLOAD PUSH3 0x461BCD PUSH1 0xE5 SHL DUP2 MSTORE PUSH1 0x20 PUSH1 0x4 DUP3 ADD MSTORE PUSH1 0x38 PUSH1 0x24 DUP3 ADD MSTORE PUSH32 0x4552433732313A20617070726F76652063616C6C6572206973206E6F74206F77 PUSH1 0x44 DUP3 ADD MSTORE PUSH32 0x6E6572206E6F7220617070726F76656420666F7220616C6C0000000000000000 PUSH1 0x64 DUP3 ADD MSTORE PUSH1 0x84 ADD PUSH2 0x381 JUMP JUMPDEST PUSH2 0x4B7 DUP4 DUP4 PUSH2 0x744 JUMP JUMPDEST POP POP POP JUMP JUMPDEST PUSH2 0x4C6 CALLER DUP3 PUSH2 0x7B2 JUMP JUMPDEST PUSH2 0x4E2 JUMPI PUSH1 0x40 MLOAD PUSH3 0x461BCD PUSH1 0xE5 SHL DUP2 MSTORE PUSH1 0x4 ADD PUSH2 0x381 SWAP1 PUSH2 0x108A JUMP JUMPDEST PUSH2 0x4B7 DUP4 DUP4 DUP4 PUSH2 0x8A9 JUMP JUMPDEST PUSH2 0x4B7 DUP4 DUP4 DUP4 PUSH1 0x40 MLOAD DUP1 PUSH1 0x20 ADD PUSH1 0x40 MSTORE DUP1 PUSH1 0x0 DUP2 MSTORE POP PUSH2 0x624 JUMP JUMPDEST PUSH1 0x0 DUP2 DUP2 MSTORE PUSH1 0x2 PUSH1 0x20 MSTORE PUSH1 0x40 DUP2 KECCAK256 SLOAD PUSH1 0x1 PUSH1 0x1 PUSH1 0xA0 SHL SUB AND DUP1 PUSH2 0x274 JUMPI PUSH1 0x40 MLOAD PUSH3 0x461BCD PUSH1 0xE5 SHL DUP2 MSTORE PUSH1 0x20 PUSH1 0x4 DUP3 ADD MSTORE PUSH1 0x29 PUSH1 0x24 DUP3 ADD MSTORE PUSH32 0x4552433732313A206F776E657220717565727920666F72206E6F6E6578697374 PUSH1 0x44 DUP3 ADD MSTORE PUSH9 0x32B73A103A37B5B2B7 PUSH1 0xB9 SHL PUSH1 0x64 DUP3 ADD MSTORE PUSH1 0x84 ADD PUSH2 0x381 JUMP JUMPDEST PUSH1 0x0 PUSH1 0x1 PUSH1 0x1 PUSH1 0xA0 SHL SUB DUP3 AND PUSH2 0x5EA JUMPI PUSH1 0x40 MLOAD PUSH3 0x461BCD PUSH1 0xE5 SHL DUP2 MSTORE PUSH1 0x20 PUSH1 0x4 DUP3 ADD MSTORE PUSH1 0x2A PUSH1 0x24 DUP3 ADD MSTORE PUSH32 0x4552433732313A2062616C616E636520717565727920666F7220746865207A65 PUSH1 0x44 DUP3 ADD MSTORE PUSH10 0x726F2061646472657373 PUSH1 0xB0 SHL PUSH1 0x64 DUP3 ADD MSTORE PUSH1 0x84 ADD PUSH2 0x381 JUMP JUMPDEST POP PUSH1 0x1 PUSH1 0x1 PUSH1 0xA0 SHL SUB AND PUSH1 0x0 SWAP1 DUP2 MSTORE PUSH1 0x3 PUSH1 0x20 MSTORE PUSH1 0x40 SWAP1 KECCAK256 SLOAD SWAP1 JUMP JUMPDEST PUSH1 0x60 PUSH1 0x1 DUP1 SLOAD PUSH2 0x289 SWAP1 PUSH2 0x114A JUMP JUMPDEST PUSH2 0x620 CALLER DUP4 DUP4 PUSH2 0xA45 JUMP JUMPDEST POP POP JUMP JUMPDEST PUSH2 0x62E CALLER DUP4 PUSH2 0x7B2 JUMP JUMPDEST PUSH2 0x64A JUMPI PUSH1 0x40 MLOAD PUSH3 0x461BCD PUSH1 0xE5 SHL DUP2 MSTORE PUSH1 0x4 ADD PUSH2 0x381 SWAP1 PUSH2 0x108A JUMP JUMPDEST PUSH2 0x656 DUP5 DUP5 DUP5 DUP5 PUSH2 0xB14 JUMP JUMPDEST POP POP POP POP JUMP JUMPDEST PUSH1 0x0 DUP2 DUP2 MSTORE PUSH1 0x2 PUSH1 0x20 MSTORE PUSH1 0x40 SWAP1 KECCAK256 SLOAD PUSH1 0x60 SWAP1 PUSH1 0x1 PUSH1 0x1 PUSH1 0xA0 SHL SUB AND PUSH2 0x6DB JUMPI PUSH1 0x40 MLOAD PUSH3 0x461BCD PUSH1 0xE5 SHL DUP2 MSTORE PUSH1 0x20 PUSH1 0x4 DUP3 ADD MSTORE PUSH1 0x2F PUSH1 0x24 DUP3 ADD MSTORE PUSH32 0x4552433732314D657461646174613A2055524920717565727920666F72206E6F PUSH1 0x44 DUP3 ADD MSTORE PUSH15 0x3732BC34B9BA32B73A103A37B5B2B7 PUSH1 0x89 SHL PUSH1 0x64 DUP3 ADD MSTORE PUSH1 0x84 ADD PUSH2 0x381 JUMP JUMPDEST PUSH1 0x0 PUSH2 0x6F2 PUSH1 0x40 DUP1 MLOAD PUSH1 0x20 DUP2 ADD SWAP1 SWAP2 MSTORE PUSH1 0x0 DUP2 MSTORE SWAP1 JUMP JUMPDEST SWAP1 POP PUSH1 0x0 DUP2 MLOAD GT PUSH2 0x712 JUMPI PUSH1 0x40 MLOAD DUP1 PUSH1 0x20 ADD PUSH1 0x40 MSTORE DUP1 PUSH1 0x0 DUP2 MSTORE POP PUSH2 0x73D JUMP JUMPDEST DUP1 PUSH2 0x71C DUP5 PUSH2 0xB47 JUMP JUMPDEST PUSH1 0x40 MLOAD PUSH1 0x20 ADD PUSH2 0x72D SWAP3 SWAP2 SWAP1 PUSH2 0xFB9 JUMP JUMPDEST PUSH1 0x40 MLOAD PUSH1 0x20 DUP2 DUP4 SUB SUB DUP2 MSTORE SWAP1 PUSH1 0x40 MSTORE JUMPDEST SWAP4 SWAP3 POP POP POP JUMP JUMPDEST PUSH1 0x0 DUP2 DUP2 MSTORE PUSH1 0x4 PUSH1 0x20 MSTORE PUSH1 0x40 SWAP1 KECCAK256 DUP1 SLOAD PUSH1 0x1 PUSH1 0x1 PUSH1 0xA0 SHL SUB NOT AND PUSH1 0x1 PUSH1 0x1 PUSH1 0xA0 SHL SUB DUP5 AND SWAP1 DUP2 OR SWAP1 SWAP2 SSTORE DUP2 SWAP1 PUSH2 0x779 DUP3 PUSH2 0x508 JUMP JUMPDEST PUSH1 0x1 PUSH1 0x1 PUSH1 0xA0 SHL SUB AND PUSH32 0x8C5BE1E5EBEC7D5BD14F71427D1E84F3DD0314C0F7B2291E5B200AC8C7C3B925 PUSH1 0x40 MLOAD PUSH1 0x40 MLOAD DUP1 SWAP2 SUB SWAP1 LOG4 POP POP JUMP JUMPDEST PUSH1 0x0 DUP2 DUP2 MSTORE PUSH1 0x2 PUSH1 0x20 MSTORE PUSH1 0x40 DUP2 KECCAK256 SLOAD PUSH1 0x1 PUSH1 0x1 PUSH1 0xA0 SHL SUB AND PUSH2 0x82B JUMPI PUSH1 0x40 MLOAD PUSH3 0x461BCD PUSH1 0xE5 SHL DUP2 MSTORE PUSH1 0x20 PUSH1 0x4 DUP3 ADD MSTORE PUSH1 0x2C PUSH1 0x24 DUP3 ADD MSTORE PUSH32 0x4552433732313A206F70657261746F7220717565727920666F72206E6F6E6578 PUSH1 0x44 DUP3 ADD MSTORE PUSH12 0x34B9BA32B73A103A37B5B2B7 PUSH1 0xA1 SHL PUSH1 0x64 DUP3 ADD MSTORE PUSH1 0x84 ADD PUSH2 0x381 JUMP JUMPDEST PUSH1 0x0 PUSH2 0x836 DUP4 PUSH2 0x508 JUMP JUMPDEST SWAP1 POP DUP1 PUSH1 0x1 PUSH1 0x1 PUSH1 0xA0 SHL SUB AND DUP5 PUSH1 0x1 PUSH1 0x1 PUSH1 0xA0 SHL SUB AND EQ DUP1 PUSH2 0x871 JUMPI POP DUP4 PUSH1 0x1 PUSH1 0x1 PUSH1 0xA0 SHL SUB AND PUSH2 0x866 DUP5 PUSH2 0x30C JUMP JUMPDEST PUSH1 0x1 PUSH1 0x1 PUSH1 0xA0 SHL SUB AND EQ JUMPDEST DUP1 PUSH2 0x8A1 JUMPI POP PUSH1 0x1 PUSH1 0x1 PUSH1 0xA0 SHL SUB DUP1 DUP3 AND PUSH1 0x0 SWAP1 DUP2 MSTORE PUSH1 0x5 PUSH1 0x20 SWAP1 DUP2 MSTORE PUSH1 0x40 DUP1 DUP4 KECCAK256 SWAP4 DUP9 AND DUP4 MSTORE SWAP3 SWAP1 MSTORE KECCAK256 SLOAD PUSH1 0xFF AND JUMPDEST SWAP5 SWAP4 POP POP POP POP JUMP JUMPDEST DUP3 PUSH1 0x1 PUSH1 0x1 PUSH1 0xA0 SHL SUB AND PUSH2 0x8BC DUP3 PUSH2 0x508 JUMP JUMPDEST PUSH1 0x1 PUSH1 0x1 PUSH1 0xA0 SHL SUB AND EQ PUSH2 0x920 JUMPI PUSH1 0x40 MLOAD PUSH3 0x461BCD PUSH1 0xE5 SHL DUP2 MSTORE PUSH1 0x20 PUSH1 0x4 DUP3 ADD MSTORE PUSH1 0x25 PUSH1 0x24 DUP3 ADD MSTORE PUSH32 0x4552433732313A207472616E736665722066726F6D20696E636F727265637420 PUSH1 0x44 DUP3 ADD MSTORE PUSH5 0x37BBB732B9 PUSH1 0xD9 SHL PUSH1 0x64 DUP3 ADD MSTORE PUSH1 0x84 ADD PUSH2 0x381 JUMP JUMPDEST PUSH1 0x1 PUSH1 0x1 PUSH1 0xA0 SHL SUB DUP3 AND PUSH2 0x982 JUMPI PUSH1 0x40 MLOAD PUSH3 0x461BCD PUSH1 0xE5 SHL DUP2 MSTORE PUSH1 0x20 PUSH1 0x4 DUP3 ADD MSTORE PUSH1 0x24 DUP1 DUP3 ADD MSTORE PUSH32 0x4552433732313A207472616E7366657220746F20746865207A65726F20616464 PUSH1 0x44 DUP3 ADD MSTORE PUSH4 0x72657373 PUSH1 0xE0 SHL PUSH1 0x64 DUP3 ADD MSTORE PUSH1 0x84 ADD PUSH2 0x381 JUMP JUMPDEST PUSH2 0x98D PUSH1 0x0 DUP3 PUSH2 0x744 JUMP JUMPDEST PUSH1 0x1 PUSH1 0x1 PUSH1 0xA0 SHL SUB DUP4 AND PUSH1 0x0 SWAP1 DUP2 MSTORE PUSH1 0x3 PUSH1 0x20 MSTORE PUSH1 0x40 DUP2 KECCAK256 DUP1 SLOAD PUSH1 0x1 SWAP3 SWAP1 PUSH2 0x9B6 SWAP1 DUP5 SWAP1 PUSH2 0x1107 JUMP JUMPDEST SWAP1 SWAP2 SSTORE POP POP PUSH1 0x1 PUSH1 0x1 PUSH1 0xA0 SHL SUB DUP3 AND PUSH1 0x0 SWAP1 DUP2 MSTORE PUSH1 0x3 PUSH1 0x20 MSTORE PUSH1 0x40 DUP2 KECCAK256 DUP1 SLOAD PUSH1 0x1 SWAP3 SWAP1 PUSH2 0x9E4 SWAP1 DUP5 SWAP1 PUSH2 0x10DB JUMP JUMPDEST SWAP1 SWAP2 SSTORE POP POP PUSH1 0x0 DUP2 DUP2 MSTORE PUSH1 0x2 PUSH1 0x20 MSTORE PUSH1 0x40 DUP1 DUP3 KECCAK256 DUP1 SLOAD PUSH1 0x1 PUSH1 0x1 PUSH1 0xA0 SHL SUB NOT AND PUSH1 0x1 PUSH1 0x1 PUSH1 0xA0 SHL SUB DUP7 DUP2 AND SWAP2 DUP3 OR SWAP1 SWAP3 SSTORE SWAP2 MLOAD DUP5 SWAP4 SWAP2 DUP8 AND SWAP2 PUSH32 0xDDF252AD1BE2C89B69C2B068FC378DAA952BA7F163C4A11628F55A4DF523B3EF SWAP2 LOG4 POP POP POP JUMP JUMPDEST DUP2 PUSH1 0x1 PUSH1 0x1 PUSH1 0xA0 SHL SUB AND DUP4 PUSH1 0x1 PUSH1 0x1 PUSH1 0xA0 SHL SUB AND EQ ISZERO PUSH2 0xAA7 JUMPI PUSH1 0x40 MLOAD PUSH3 0x461BCD PUSH1 0xE5 SHL DUP2 MSTORE PUSH1 0x20 PUSH1 0x4 DUP3 ADD MSTORE PUSH1 0x19 PUSH1 0x24 DUP3 ADD MSTORE PUSH32 0x4552433732313A20617070726F766520746F2063616C6C657200000000000000 PUSH1 0x44 DUP3 ADD MSTORE PUSH1 0x64 ADD PUSH2 0x381 JUMP JUMPDEST PUSH1 0x1 PUSH1 0x1 PUSH1 0xA0 SHL SUB DUP4 DUP2 AND PUSH1 0x0 DUP2 DUP2 MSTORE PUSH1 0x5 PUSH1 0x20 SWAP1 DUP2 MSTORE PUSH1 0x40 DUP1 DUP4 KECCAK256 SWAP5 DUP8 AND DUP1 DUP5 MSTORE SWAP5 DUP3 MSTORE SWAP2 DUP3 SWAP1 KECCAK256 DUP1 SLOAD PUSH1 0xFF NOT AND DUP7 ISZERO ISZERO SWAP1 DUP2 OR SWAP1 SWAP2 SSTORE SWAP2 MLOAD SWAP2 DUP3 MSTORE PUSH32 0x17307EAB39AB6107E8899845AD3D59BD9653F200F220920489CA2B5937696C31 SWAP2 ADD PUSH1 0x40 MLOAD DUP1 SWAP2 SUB SWAP1 LOG3 POP POP POP JUMP JUMPDEST PUSH2 0xB1F DUP5 DUP5 DUP5 PUSH2 0x8A9 JUMP JUMPDEST PUSH2 0xB2B DUP5 DUP5 DUP5 DUP5 PUSH2 0xC45 JUMP JUMPDEST PUSH2 0x656 JUMPI PUSH1 0x40 MLOAD PUSH3 0x461BCD PUSH1 0xE5 SHL DUP2 MSTORE PUSH1 0x4 ADD PUSH2 0x381 SWAP1 PUSH2 0x1038 JUMP JUMPDEST PUSH1 0x60 DUP2 PUSH2 0xB6B JUMPI POP POP PUSH1 0x40 DUP1 MLOAD DUP1 DUP3 ADD SWAP1 SWAP2 MSTORE PUSH1 0x1 DUP2 MSTORE PUSH1 0x3 PUSH1 0xFC SHL PUSH1 0x20 DUP3 ADD MSTORE SWAP1 JUMP JUMPDEST DUP2 PUSH1 0x0 JUMPDEST DUP2 ISZERO PUSH2 0xB95 JUMPI DUP1 PUSH2 0xB7F DUP2 PUSH2 0x1185 JUMP JUMPDEST SWAP2 POP PUSH2 0xB8E SWAP1 POP PUSH1 0xA DUP4 PUSH2 0x10F3 JUMP JUMPDEST SWAP2 POP PUSH2 0xB6F JUMP JUMPDEST PUSH1 0x0 DUP2 PUSH8 0xFFFFFFFFFFFFFFFF DUP2 GT ISZERO PUSH2 0xBB0 JUMPI PUSH2 0xBB0 PUSH2 0x11F6 JUMP JUMPDEST PUSH1 0x40 MLOAD SWAP1 DUP1 DUP3 MSTORE DUP1 PUSH1 0x1F ADD PUSH1 0x1F NOT AND PUSH1 0x20 ADD DUP3 ADD PUSH1 0x40 MSTORE DUP1 ISZERO PUSH2 0xBDA JUMPI PUSH1 0x20 DUP3 ADD DUP2 DUP1 CALLDATASIZE DUP4 CALLDATACOPY ADD SWAP1 POP JUMPDEST POP SWAP1 POP JUMPDEST DUP5 ISZERO PUSH2 0x8A1 JUMPI PUSH2 0xBEF PUSH1 0x1 DUP4 PUSH2 0x1107 JUMP JUMPDEST SWAP2 POP PUSH2 0xBFC PUSH1 0xA DUP7 PUSH2 0x11A0 JUMP JUMPDEST PUSH2 0xC07 SWAP1 PUSH1 0x30 PUSH2 0x10DB JUMP JUMPDEST PUSH1 0xF8 SHL DUP2 DUP4 DUP2 MLOAD DUP2 LT PUSH2 0xC1C JUMPI PUSH2 0xC1C PUSH2 0x11E0 JUMP JUMPDEST PUSH1 0x20 ADD ADD SWAP1 PUSH1 0x1 PUSH1 0x1 PUSH1 0xF8 SHL SUB NOT AND SWAP1 DUP2 PUSH1 0x0 BYTE SWAP1 MSTORE8 POP PUSH2 0xC3E PUSH1 0xA DUP7 PUSH2 0x10F3 JUMP JUMPDEST SWAP5 POP PUSH2 0xBDE JUMP JUMPDEST PUSH1 0x0 PUSH1 0x1 PUSH1 0x1 PUSH1 0xA0 SHL SUB DUP5 AND EXTCODESIZE ISZERO PUSH2 0xD47 JUMPI PUSH1 0x40 MLOAD PUSH4 0xA85BD01 PUSH1 0xE1 SHL DUP2 MSTORE PUSH1 0x1 PUSH1 0x1 PUSH1 0xA0 SHL SUB DUP6 AND SWAP1 PUSH4 0x150B7A02 SWAP1 PUSH2 0xC89 SWAP1 CALLER SWAP1 DUP10 SWAP1 DUP9 SWAP1 DUP9 SWAP1 PUSH1 0x4 ADD PUSH2 0xFE8 JUMP JUMPDEST PUSH1 0x20 PUSH1 0x40 MLOAD DUP1 DUP4 SUB DUP2 PUSH1 0x0 DUP8 DUP1 EXTCODESIZE ISZERO DUP1 ISZERO PUSH2 0xCA3 JUMPI PUSH1 0x0 DUP1 REVERT JUMPDEST POP GAS CALL SWAP3 POP POP POP DUP1 ISZERO PUSH2 0xCD3 JUMPI POP PUSH1 0x40 DUP1 MLOAD PUSH1 0x1F RETURNDATASIZE SWAP1 DUP2 ADD PUSH1 0x1F NOT AND DUP3 ADD SWAP1 SWAP3 MSTORE PUSH2 0xCD0 SWAP2 DUP2 ADD SWAP1 PUSH2 0xF57 JUMP JUMPDEST PUSH1 0x1 JUMPDEST PUSH2 0xD2D JUMPI RETURNDATASIZE DUP1 DUP1 ISZERO PUSH2 0xD01 JUMPI PUSH1 0x40 MLOAD SWAP2 POP PUSH1 0x1F NOT PUSH1 0x3F RETURNDATASIZE ADD AND DUP3 ADD PUSH1 0x40 MSTORE RETURNDATASIZE DUP3 MSTORE RETURNDATASIZE PUSH1 0x0 PUSH1 0x20 DUP5 ADD RETURNDATACOPY PUSH2 0xD06 JUMP JUMPDEST PUSH1 0x60 SWAP2 POP JUMPDEST POP DUP1 MLOAD PUSH2 0xD25 JUMPI PUSH1 0x40 MLOAD PUSH3 0x461BCD PUSH1 0xE5 SHL DUP2 MSTORE PUSH1 0x4 ADD PUSH2 0x381 SWAP1 PUSH2 0x1038 JUMP JUMPDEST DUP1 MLOAD DUP2 PUSH1 0x20 ADD REVERT JUMPDEST PUSH1 0x1 PUSH1 0x1 PUSH1 0xE0 SHL SUB NOT AND PUSH4 0xA85BD01 PUSH1 0xE1 SHL EQ SWAP1 POP PUSH2 0x8A1 JUMP JUMPDEST POP PUSH1 0x1 SWAP5 SWAP4 POP POP POP POP JUMP JUMPDEST DUP1 CALLDATALOAD PUSH1 0x1 PUSH1 0x1 PUSH1 0xA0 SHL SUB DUP2 AND DUP2 EQ PUSH2 0xD69 JUMPI PUSH1 0x0 DUP1 REVERT JUMPDEST SWAP2 SWAP1 POP JUMP JUMPDEST PUSH1 0x0 PUSH1 0x20 DUP3 DUP5 SUB SLT ISZERO PUSH2 0xD80 JUMPI PUSH1 0x0 DUP1 REVERT JUMPDEST PUSH2 0x73D DUP3 PUSH2 0xD52 JUMP JUMPDEST PUSH1 0x0 DUP1 PUSH1 0x40 DUP4 DUP6 SUB SLT ISZERO PUSH2 0xD9C JUMPI PUSH1 0x0 DUP1 REVERT JUMPDEST PUSH2 0xDA5 DUP4 PUSH2 0xD52 JUMP JUMPDEST SWAP2 POP PUSH2 0xDB3 PUSH1 0x20 DUP5 ADD PUSH2 0xD52 JUMP JUMPDEST SWAP1 POP SWAP3 POP SWAP3 SWAP1 POP JUMP JUMPDEST PUSH1 0x0 DUP1 PUSH1 0x0 PUSH1 0x60 DUP5 DUP7 SUB SLT ISZERO PUSH2 0xDD1 JUMPI PUSH1 0x0 DUP1 REVERT JUMPDEST PUSH2 0xDDA DUP5 PUSH2 0xD52 JUMP JUMPDEST SWAP3 POP PUSH2 0xDE8 PUSH1 0x20 DUP6 ADD PUSH2 0xD52 JUMP JUMPDEST SWAP2 POP PUSH1 0x40 DUP5 ADD CALLDATALOAD SWAP1 POP SWAP3 POP SWAP3 POP SWAP3 JUMP JUMPDEST PUSH1 0x0 DUP1 PUSH1 0x0 DUP1 PUSH1 0x80 DUP6 DUP8 SUB SLT ISZERO PUSH2 0xE0E JUMPI PUSH1 0x0 DUP1 REVERT JUMPDEST PUSH2 0xE17 DUP6 PUSH2 0xD52 JUMP JUMPDEST SWAP4 POP PUSH2 0xE25 PUSH1 0x20 DUP7 ADD PUSH2 0xD52 JUMP JUMPDEST SWAP3 POP PUSH1 0x40 DUP6 ADD CALLDATALOAD SWAP2 POP PUSH1 0x60 DUP6 ADD CALLDATALOAD PUSH8 0xFFFFFFFFFFFFFFFF DUP1 DUP3 GT ISZERO PUSH2 0xE49 JUMPI PUSH1 0x0 DUP1 REVERT JUMPDEST DUP2 DUP8 ADD SWAP2 POP DUP8 PUSH1 0x1F DUP4 ADD SLT PUSH2 0xE5D JUMPI PUSH1 0x0 DUP1 REVERT JUMPDEST DUP2 CALLDATALOAD DUP2 DUP2 GT ISZERO PUSH2 0xE6F JUMPI PUSH2 0xE6F PUSH2 0x11F6 JUMP JUMPDEST PUSH1 0x40 MLOAD PUSH1 0x1F DUP3 ADD PUSH1 0x1F NOT SWAP1 DUP2 AND PUSH1 0x3F ADD AND DUP2 ADD SWAP1 DUP4 DUP3 GT DUP2 DUP4 LT OR ISZERO PUSH2 0xE97 JUMPI PUSH2 0xE97 PUSH2 0x11F6 JUMP JUMPDEST DUP2 PUSH1 0x40 MSTORE DUP3 DUP2 MSTORE DUP11 PUSH1 0x20 DUP5 DUP8 ADD ADD GT ISZERO PUSH2 0xEB0 JUMPI PUSH1 0x0 DUP1 REVERT JUMPDEST DUP3 PUSH1 0x20 DUP7 ADD PUSH1 0x20 DUP4 ADD CALLDATACOPY PUSH1 0x0 PUSH1 0x20 DUP5 DUP4 ADD ADD MSTORE DUP1 SWAP6 POP POP POP POP POP POP SWAP3 SWAP6 SWAP2 SWAP5 POP SWAP3 POP JUMP JUMPDEST PUSH1 0x0 DUP1 PUSH1 0x40 DUP4 DUP6 SUB SLT ISZERO PUSH2 0xEE7 JUMPI PUSH1 0x0 DUP1 REVERT JUMPDEST PUSH2 0xEF0 DUP4 PUSH2 0xD52 JUMP JUMPDEST SWAP2 POP PUSH1 0x20 DUP4 ADD CALLDATALOAD DUP1 ISZERO ISZERO DUP2 EQ PUSH2 0xF05 JUMPI PUSH1 0x0 DUP1 REVERT JUMPDEST DUP1 SWAP2 POP POP SWAP3 POP SWAP3 SWAP1 POP JUMP JUMPDEST PUSH1 0x0 DUP1 PUSH1 0x40 DUP4 DUP6 SUB SLT ISZERO PUSH2 0xF23 JUMPI PUSH1 0x0 DUP1 REVERT JUMPDEST PUSH2 0xF2C DUP4 PUSH2 0xD52 JUMP JUMPDEST SWAP5 PUSH1 0x20 SWAP4 SWAP1 SWAP4 ADD CALLDATALOAD SWAP4 POP POP POP JUMP JUMPDEST PUSH1 0x0 PUSH1 0x20 DUP3 DUP5 SUB SLT ISZERO PUSH2 0xF4C JUMPI PUSH1 0x0 DUP1 REVERT JUMPDEST DUP2 CALLDATALOAD PUSH2 0x73D DUP2 PUSH2 0x120C JUMP JUMPDEST PUSH1 0x0 PUSH1 0x20 DUP3 DUP5 SUB SLT ISZERO PUSH2 0xF69 JUMPI PUSH1 0x0 DUP1 REVERT JUMPDEST DUP2 MLOAD PUSH2 0x73D DUP2 PUSH2 0x120C JUMP JUMPDEST PUSH1 0x0 PUSH1 0x20 DUP3 DUP5 SUB SLT ISZERO PUSH2 0xF86 JUMPI PUSH1 0x0 DUP1 REVERT JUMPDEST POP CALLDATALOAD SWAP2 SWAP1 POP JUMP JUMPDEST PUSH1 0x0 DUP2 MLOAD DUP1 DUP5 MSTORE PUSH2 0xFA5 DUP2 PUSH1 0x20 DUP7 ADD PUSH1 0x20 DUP7 ADD PUSH2 0x111E JUMP JUMPDEST PUSH1 0x1F ADD PUSH1 0x1F NOT AND SWAP3 SWAP1 SWAP3 ADD PUSH1 0x20 ADD SWAP3 SWAP2 POP POP JUMP JUMPDEST PUSH1 0x0 DUP4 MLOAD PUSH2 0xFCB DUP2 DUP5 PUSH1 0x20 DUP9 ADD PUSH2 0x111E JUMP JUMPDEST DUP4 MLOAD SWAP1 DUP4 ADD SWAP1 PUSH2 0xFDF DUP2 DUP4 PUSH1 0x20 DUP9 ADD PUSH2 0x111E JUMP JUMPDEST ADD SWAP5 SWAP4 POP POP POP POP JUMP JUMPDEST PUSH1 0x1 PUSH1 0x1 PUSH1 0xA0 SHL SUB DUP6 DUP2 AND DUP3 MSTORE DUP5 AND PUSH1 0x20 DUP3 ADD MSTORE PUSH1 0x40 DUP2 ADD DUP4 SWAP1 MSTORE PUSH1 0x80 PUSH1 0x60 DUP3 ADD DUP2 SWAP1 MSTORE PUSH1 0x0 SWAP1 PUSH2 0x101B SWAP1 DUP4 ADD DUP5 PUSH2 0xF8D JUMP JUMPDEST SWAP7 SWAP6 POP POP POP POP POP POP JUMP JUMPDEST PUSH1 0x20 DUP2 MSTORE PUSH1 0x0 PUSH2 0x73D PUSH1 0x20 DUP4 ADD DUP5 PUSH2 0xF8D JUMP JUMPDEST PUSH1 0x20 DUP1 DUP3 MSTORE PUSH1 0x32 SWAP1 DUP3 ADD MSTORE PUSH32 0x4552433732313A207472616E7366657220746F206E6F6E204552433732315265 PUSH1 0x40 DUP3 ADD MSTORE PUSH18 0x31B2B4BB32B91034B6B83632B6B2B73A32B9 PUSH1 0x71 SHL PUSH1 0x60 DUP3 ADD MSTORE PUSH1 0x80 ADD SWAP1 JUMP JUMPDEST PUSH1 0x20 DUP1 DUP3 MSTORE PUSH1 0x31 SWAP1 DUP3 ADD MSTORE PUSH32 0x4552433732313A207472616E736665722063616C6C6572206973206E6F74206F PUSH1 0x40 DUP3 ADD MSTORE PUSH17 0x1DDB995C881B9BDC88185C1C1C9BDD9959 PUSH1 0x7A SHL PUSH1 0x60 DUP3 ADD MSTORE PUSH1 0x80 ADD SWAP1 JUMP JUMPDEST PUSH1 0x0 DUP3 NOT DUP3 GT ISZERO PUSH2 0x10EE JUMPI PUSH2 0x10EE PUSH2 0x11B4 JUMP JUMPDEST POP ADD SWAP1 JUMP JUMPDEST PUSH1 0x0 DUP3 PUSH2 0x1102 JUMPI PUSH2 0x1102 PUSH2 0x11CA JUMP JUMPDEST POP DIV SWAP1 JUMP JUMPDEST PUSH1 0x0 DUP3 DUP3 LT ISZERO PUSH2 0x1119 JUMPI PUSH2 0x1119 PUSH2 0x11B4 JUMP JUMPDEST POP SUB SWAP1 JUMP JUMPDEST PUSH1 0x0 JUMPDEST DUP4 DUP2 LT ISZERO PUSH2 0x1139 JUMPI DUP2 DUP2 ADD MLOAD DUP4 DUP3 ADD MSTORE PUSH1 0x20 ADD PUSH2 0x1121 JUMP JUMPDEST DUP4 DUP2 GT ISZERO PUSH2 0x656 JUMPI POP POP PUSH1 0x0 SWAP2 ADD MSTORE JUMP JUMPDEST PUSH1 0x1 DUP2 DUP2 SHR SWAP1 DUP3 AND DUP1 PUSH2 0x115E JUMPI PUSH1 0x7F DUP3 AND SWAP2 POP JUMPDEST PUSH1 0x20 DUP3 LT DUP2 EQ ISZERO PUSH2 0x117F JUMPI PUSH4 0x4E487B71 PUSH1 0xE0 SHL PUSH1 0x0 MSTORE PUSH1 0x22 PUSH1 0x4 MSTORE PUSH1 0x24 PUSH1 0x0 REVERT JUMPDEST POP SWAP2 SWAP1 POP JUMP JUMPDEST PUSH1 0x0 PUSH1 0x0 NOT DUP3 EQ ISZERO PUSH2 0x1199 JUMPI PUSH2 0x1199 PUSH2 0x11B4 JUMP JUMPDEST POP PUSH1 0x1 ADD SWAP1 JUMP JUMPDEST PUSH1 0x0 DUP3 PUSH2 0x11AF JUMPI PUSH2 0x11AF PUSH2 0x11CA JUMP JUMPDEST POP MOD SWAP1 JUMP JUMPDEST PUSH4 0x4E487B71 PUSH1 0xE0 SHL PUSH1 0x0 MSTORE PUSH1 0x11 PUSH1 0x4 MSTORE PUSH1 0x24 PUSH1 0x0 REVERT JUMPDEST PUSH4 0x4E487B71 PUSH1 0xE0 SHL PUSH1 0x0 MSTORE PUSH1 0x12 PUSH1 0x4 MSTORE PUSH1 0x24 PUSH1 0x0 REVERT JUMPDEST PUSH4 0x4E487B71 PUSH1 0xE0 SHL PUSH1 0x0 MSTORE PUSH1 0x32 PUSH1 0x4 MSTORE PUSH1 0x24 PUSH1 0x0 REVERT JUMPDEST PUSH4 0x4E487B71 PUSH1 0xE0 SHL PUSH1 0x0 MSTORE PUSH1 0x41 PUSH1 0x4 MSTORE PUSH1 0x24 PUSH1 0x0 REVERT JUMPDEST PUSH1 0x1 PUSH1 0x1 PUSH1 0xE0 SHL SUB NOT DUP2 AND DUP2 EQ PUSH2 0x1222 JUMPI PUSH1 0x0 DUP1 REVERT JUMPDEST POP JUMP INVALID LOG2 PUSH5 0x6970667358 0x22 SLT KECCAK256 0x2E SWAP5 LOG3 0xD0 JUMPI PUSH4 0x28CAC166 0xC4 0xC5 DUP12 DUP11 0x4C 0xB3 SWAP10 LOG1 DUP16 DUP13 0x4C 0xD3 PUSH19 0xBC871D49A3924BB31464736F6C634300080600 CALLER "
				},
				"gasEstimates": {
					"creation": {
						"codeDepositCost": "939800",
						"executionCost": "infinite",
						"totalCost": "infinite"
					},
					"external": {
						"approve(address,uint256)": "infinite",
						"balanceOf(address)": "2634",
						"getApproved(uint256)": "4737",
						"isApprovedForAll(address,address)": "infinite",
						"name()": "infinite",
						"ownerOf(uint256)": "2579",
						"safeTransferFrom(address,address,uint256)": "infinite",
						"safeTransferFrom(address,address,uint256,bytes)": "infinite",
						"setApprovalForAll(address,bool)": "26708",
						"supportsInterface(bytes4)": "511",
						"symbol()": "infinite",
						"tokenURI(uint256)": "infinite",
						"transferFrom(address,address,uint256)": "infinite"
					},
					"internal": {
						"_afterTokenTransfer(address,address,uint256)": "infinite",
						"_approve(address,uint256)": "infinite",
						"_baseURI()": "infinite",
						"_beforeTokenTransfer(address,address,uint256)": "infinite",
						"_burn(uint256)": "infinite",
						"_checkOnERC721Received(address,address,uint256,bytes memory)": "infinite",
						"_exists(uint256)": "infinite",
						"_isApprovedOrOwner(address,uint256)": "infinite",
						"_mint(address,uint256)": "infinite",
						"_safeMint(address,uint256)": "infinite",
						"_safeMint(address,uint256,bytes memory)": "infinite",
						"_safeTransfer(address,address,uint256,bytes memory)": "infinite",
						"_setApprovalForAll(address,address,bool)": "infinite",
						"_transfer(address,address,uint256)": "infinite"
					}
				},
				"methodIdentifiers": {
					"approve(address,uint256)": "095ea7b3",
					"balanceOf(address)": "70a08231",
					"getApproved(uint256)": "081812fc",
					"isApprovedForAll(address,address)": "e985e9c5",
					"name()": "06fdde03",
					"ownerOf(uint256)": "6352211e",
					"safeTransferFrom(address,address,uint256)": "42842e0e",
					"safeTransferFrom(address,address,uint256,bytes)": "b88d4fde",
					"setApprovalForAll(address,bool)": "a22cb465",
					"supportsInterface(bytes4)": "01ffc9a7",
					"symbol()": "95d89b41",
					"tokenURI(uint256)": "c87b56dd",
					"transferFrom(address,address,uint256)": "23b872dd"
				}
			},
			"userdoc": {
				"kind": "user",
				"methods": {},
				"version": 1
			}
		}
	}
}