{
	"contracts/TaoNFT.sol": {
		"TaoNFT": {
			"abi": [
				{
					"inputs": [],
					"stateMutability": "nonpayable",
					"type": "constructor"
				},
				{
					"anonymous": false,
					"inputs": [
						{
							"indexed": true,
							"internalType": "address",
							"name": "owner",
							"type": "address"
						},
						{
							"indexed": true,
							"internalType": "address",
							"name": "approved",
							"type": "address"
						},
						{
							"indexed": true,
							"internalType": "uint256",
							"name": "tokenId",
							"type": "uint256"
						}
					],
					"name": "Approval",
					"type": "event"
				},
				{
					"anonymous": false,
					"inputs": [
						{
							"indexed": true,
							"internalType": "address",
							"name": "owner",
							"type": "address"
						},
						{
							"indexed": true,
							"internalType": "address",
							"name": "operator",
							"type": "address"
						},
						{
							"indexed": false,
							"internalType": "bool",
							"name": "approved",
							"type": "bool"
						}
					],
					"name": "ApprovalForAll",
					"type": "event"
				},
				{
					"anonymous": false,
					"inputs": [
						{
							"indexed": true,
							"internalType": "address",
							"name": "previousOwner",
							"type": "address"
						},
						{
							"indexed": true,
							"internalType": "address",
							"name": "newOwner",
							"type": "address"
						}
					],
					"name": "OwnershipTransferred",
					"type": "event"
				},
				{
					"anonymous": false,
					"inputs": [
						{
							"indexed": true,
							"internalType": "address",
							"name": "from",
							"type": "address"
						},
						{
							"indexed": true,
							"internalType": "address",
							"name": "to",
							"type": "address"
						},
						{
							"indexed": true,
							"internalType": "uint256",
							"name": "tokenId",
							"type": "uint256"
						}
					],
					"name": "Transfer",
					"type": "event"
				},
				{
					"inputs": [],
					"name": "MAX_SUPPLY",
					"outputs": [
						{
							"internalType": "uint256",
							"name": "",
							"type": "uint256"
						}
					],
					"stateMutability": "view",
					"type": "function"
				},
				{
					"inputs": [
						{
							"internalType": "address",
							"name": "to",
							"type": "address"
						},
						{
							"internalType": "uint256",
							"name": "tokenId",
							"type": "uint256"
						}
					],
					"name": "approve",
					"outputs": [],
					"stateMutability": "nonpayable",
					"type": "function"
				},
				{
					"inputs": [
						{
							"internalType": "address",
							"name": "owner",
							"type": "address"
						}
					],
					"name": "balanceOf",
					"outputs": [
						{
							"internalType": "uint256",
							"name": "",
							"type": "uint256"
						}
					],
					"stateMutability": "view",
					"type": "function"
				},
				{
					"inputs": [],
					"name": "baseTokenURI",
					"outputs": [
						{
							"internalType": "string",
							"name": "",
							"type": "string"
						}
					],
					"stateMutability": "view",
					"type": "function"
				},
				{
					"inputs": [
						{
							"internalType": "uint256",
							"name": "tokenId",
							"type": "uint256"
						}
					],
					"name": "getApproved",
					"outputs": [
						{
							"internalType": "address",
							"name": "",
							"type": "address"
						}
					],
					"stateMutability": "view",
					"type": "function"
				},
				{
					"inputs": [
						{
							"internalType": "address",
							"name": "owner",
							"type": "address"
						},
						{
							"internalType": "address",
							"name": "operator",
							"type": "address"
						}
					],
					"name": "isApprovedForAll",
					"outputs": [
						{
							"internalType": "bool",
							"name": "",
							"type": "bool"
						}
					],
					"stateMutability": "view",
					"type": "function"
				},
				{
					"inputs": [
						{
							"internalType": "uint256",
							"name": "_count",
							"type": "uint256"
						}
					],
					"name": "mintNFTs",
					"outputs": [],
					"stateMutability": "nonpayable",
					"type": "function"
				},
				{
					"inputs": [],
					"name": "name",
					"outputs": [
						{
							"internalType": "string",
							"name": "",
							"type": "string"
						}
					],
					"stateMutability": "view",
					"type": "function"
				},
				{
					"inputs": [],
					"name": "owner",
					"outputs": [
						{
							"internalType": "address",
							"name": "",
							"type": "address"
						}
					],
					"stateMutability": "view",
					"type": "function"
				},
				{
					"inputs": [
						{
							"internalType": "uint256",
							"name": "tokenId",
							"type": "uint256"
						}
					],
					"name": "ownerOf",
					"outputs": [
						{
							"internalType": "address",
							"name": "",
							"type": "address"
						}
					],
					"stateMutability": "view",
					"type": "function"
				},
				{
					"inputs": [],
					"name": "renounceOwnership",
					"outputs": [],
					"stateMutability": "nonpayable",
					"type": "function"
				},
				{
					"inputs": [
						{
							"internalType": "address",
							"name": "from",
							"type": "address"
						},
						{
							"internalType": "address",
							"name": "to",
							"type": "address"
						},
						{
							"internalType": "uint256",
							"name": "tokenId",
							"type": "uint256"
						}
					],
					"name": "safeTransferFrom",
					"outputs": [],
					"stateMutability": "nonpayable",
					"type": "function"
				},
				{
					"inputs": [
						{
							"internalType": "address",
							"name": "from",
							"type": "address"
						},
						{
							"internalType": "address",
							"name": "to",
							"type": "address"
						},
						{
							"internalType": "uint256",
							"name": "tokenId",
							"type": "uint256"
						},
						{
							"internalType": "bytes",
							"name": "_data",
							"type": "bytes"
						}
					],
					"name": "safeTransferFrom",
					"outputs": [],
					"stateMutability": "nonpayable",
					"type": "function"
				},
				{
					"inputs": [
						{
							"internalType": "address",
							"name": "operator",
							"type": "address"
						},
						{
							"internalType": "bool",
							"name": "approved",
							"type": "bool"
						}
					],
					"name": "setApprovalForAll",
					"outputs": [],
					"stateMutability": "nonpayable",
					"type": "function"
				},
				{
					"inputs": [
						{
							"internalType": "bytes4",
							"name": "interfaceId",
							"type": "bytes4"
						}
					],
					"name": "supportsInterface",
					"outputs": [
						{
							"internalType": "bool",
							"name": "",
							"type": "bool"
						}
					],
					"stateMutability": "view",
					"type": "function"
				},
				{
					"inputs": [],
					"name": "symbol",
					"outputs": [
						{
							"internalType": "string",
							"name": "",
							"type": "string"
						}
					],
					"stateMutability": "view",
					"type": "function"
				},
				{
					"inputs": [
						{
							"internalType": "uint256",
							"name": "index",
							"type": "uint256"
						}
					],
					"name": "tokenByIndex",
					"outputs": [
						{
							"internalType": "uint256",
							"name": "",
							"type": "uint256"
						}
					],
					"stateMutability": "view",
					"type": "function"
				},
				{
					"inputs": [
						{
							"internalType": "address",
							"name": "owner",
							"type": "address"
						},
						{
							"internalType": "uint256",
							"name": "index",
							"type": "uint256"
						}
					],
					"name": "tokenOfOwnerByIndex",
					"outputs": [
						{
							"internalType": "uint256",
							"name": "",
							"type": "uint256"
						}
					],
					"stateMutability": "view",
					"type": "function"
				},
				{
					"inputs": [
						{
							"internalType": "uint256",
							"name": "tokenId",
							"type": "uint256"
						}
					],
					"name": "tokenURI",
					"outputs": [
						{
							"internalType": "string",
							"name": "",
							"type": "string"
						}
					],
					"stateMutability": "pure",
					"type": "function"
				},
				{
					"inputs": [
						{
							"internalType": "address",
							"name": "_owner",
							"type": "address"
						}
					],
					"name": "tokensOfOwner",
					"outputs": [
						{
							"internalType": "uint256[]",
							"name": "",
							"type": "uint256[]"
						}
					],
					"stateMutability": "view",
					"type": "function"
				},
				{
					"inputs": [],
					"name": "totalSupply",
					"outputs": [
						{
							"internalType": "uint256",
							"name": "",
							"type": "uint256"
						}
					],
					"stateMutability": "view",
					"type": "function"
				},
				{
					"inputs": [
						{
							"internalType": "address",
							"name": "from",
							"type": "address"
						},
						{
							"internalType": "address",
							"name": "to",
							"type": "address"
						},
						{
							"internalType": "uint256",
							"name": "tokenId",
							"type": "uint256"
						}
					],
					"name": "transferFrom",
					"outputs": [],
					"stateMutability": "nonpayable",
					"type": "function"
				},
				{
					"inputs": [
						{
							"internalType": "address",
							"name": "newOwner",
							"type": "address"
						}
					],
					"name": "transferOwnership",
					"outputs": [],
					"stateMutability": "nonpayable",
					"type": "function"
				}
			],
			"devdoc": {
				"kind": "dev",
				"methods": {
					"approve(address,uint256)": {
						"details": "See {IERC721-approve}."
					},
					"balanceOf(address)": {
						"details": "See {IERC721-balanceOf}."
					},
					"getApproved(uint256)": {
						"details": "See {IERC721-getApproved}."
					},
					"isApprovedForAll(address,address)": {
						"details": "See {IERC721-isApprovedForAll}."
					},
					"name()": {
						"details": "See {IERC721Metadata-name}."
					},
					"owner()": {
						"details": "Returns the address of the current owner."
					},
					"ownerOf(uint256)": {
						"details": "See {IERC721-ownerOf}."
					},
					"renounceOwnership()": {
						"details": "Leaves the contract without owner. It will not be possible to call `onlyOwner` functions anymore. Can only be called by the current owner. NOTE: Renouncing ownership will leave the contract without an owner, thereby removing any functionality that is only available to the owner."
					},
					"safeTransferFrom(address,address,uint256)": {
						"details": "See {IERC721-safeTransferFrom}."
					},
					"safeTransferFrom(address,address,uint256,bytes)": {
						"details": "See {IERC721-safeTransferFrom}."
					},
					"setApprovalForAll(address,bool)": {
						"details": "See {IERC721-setApprovalForAll}."
					},
					"supportsInterface(bytes4)": {
						"details": "See {IERC165-supportsInterface}."
					},
					"symbol()": {
						"details": "See {IERC721Metadata-symbol}."
					},
					"tokenByIndex(uint256)": {
						"details": "See {IERC721Enumerable-tokenByIndex}."
					},
					"tokenOfOwnerByIndex(address,uint256)": {
						"details": "See {IERC721Enumerable-tokenOfOwnerByIndex}."
					},
					"tokenURI(uint256)": {
						"details": "See {IERC721Metadata-tokenURI}."
					},
					"totalSupply()": {
						"details": "See {IERC721Enumerable-totalSupply}."
					},
					"transferFrom(address,address,uint256)": {
						"details": "See {IERC721-transferFrom}."
					},
					"transferOwnership(address)": {
						"details": "Transfers ownership of the contract to a new account (`newOwner`). Can only be called by the current owner."
					}
				},
				"version": 1
			},
			"evm": {
				"assembly": "    /* \"contracts/TaoNFT.sol\":5074:8702  contract TaoNFT is ERC721Enumerable, Ownable {\r... */\n  mstore(0x40, 0x80)\n    /* \"contracts/TaoNFT.sol\":5413:5481  constructor() ERC721(\"TaoNFT-V1\", \"TNT\") {\r... */\n  callvalue\n  dup1\n  iszero\n  tag_1\n  jumpi\n  0x00\n  dup1\n  revert\ntag_1:\n  pop\n    /* \"@openzeppelin/contracts/token/ERC721/ERC721.sol\":1390:1503  constructor(string memory name_, string memory symbol_) {... */\n  0x40\n  dup1\n  mload\n  dup1\n  dup3\n  add\n  dup3\n  mstore\n  0x09\n  dup2\n  mstore\n  shl(0xb8, 0x54616f4e46542d5631)\n  0x20\n  dup1\n  dup4\n  add\n  swap2\n  dup3\n  mstore\n  dup4\n  mload\n  dup1\n  dup6\n  add\n  swap1\n  swap5\n  mstore\n  0x03\n  dup5\n  mstore\n  shl(0xea, 0x151395)\n  swap1\n  dup5\n  add\n  mstore\n    /* \"@openzeppelin/contracts/token/ERC721/ERC721.sol\":1456:1469  _name = name_ */\n  dup2\n  mload\n    /* \"@openzeppelin/contracts/token/ERC721/ERC721.sol\":1390:1503  constructor(string memory name_, string memory symbol_) {... */\n  swap2\n  swap3\n  swap2\n    /* \"@openzeppelin/contracts/token/ERC721/ERC721.sol\":1456:1469  _name = name_ */\n  tag_6\n  swap2\n  0x00\n  swap2\n  tag_7\n  jump\t// in\ntag_6:\n  pop\n    /* \"@openzeppelin/contracts/token/ERC721/ERC721.sol\":1479:1496  _symbol = symbol_ */\n  dup1\n  mload\n  tag_8\n  swap1\n    /* \"@openzeppelin/contracts/token/ERC721/ERC721.sol\":1479:1486  _symbol */\n  0x01\n  swap1\n    /* \"@openzeppelin/contracts/token/ERC721/ERC721.sol\":1479:1496  _symbol = symbol_ */\n  0x20\n  dup5\n  add\n  swap1\n  tag_7\n  jump\t// in\ntag_8:\n  pop\n    /* \"@openzeppelin/contracts/token/ERC721/ERC721.sol\":1390:1503  constructor(string memory name_, string memory symbol_) {... */\n  pop\n  pop\n    /* \"@openzeppelin/contracts/access/Ownable.sol\":921:953  _transferOwnership(_msgSender()) */\n  tag_10\n    /* \"@openzeppelin/contracts/access/Ownable.sol\":940:952  _msgSender() */\n  tag_11\n    /* \"@openzeppelin/contracts/access/Ownable.sol\":940:950  _msgSender */\n  shl(0x20, tag_12)\n    /* \"@openzeppelin/contracts/access/Ownable.sol\":940:952  _msgSender() */\n  0x20\n  shr\n  jump\t// in\ntag_11:\n    /* \"@openzeppelin/contracts/access/Ownable.sol\":921:939  _transferOwnership */\n  tag_13\n    /* \"@openzeppelin/contracts/access/Ownable.sol\":921:953  _transferOwnership(_msgSender()) */\n  jump\t// in\ntag_10:\n    /* \"contracts/TaoNFT.sol\":5074:8702  contract TaoNFT is ERC721Enumerable, Ownable {\r... */\n  jump(tag_29)\n    /* \"@openzeppelin/contracts/utils/Context.sol\":640:736  function _msgSender() internal view virtual returns (address) {... */\ntag_12:\n    /* \"@openzeppelin/contracts/utils/Context.sol\":719:729  msg.sender */\n  caller\n  swap1\n    /* \"@openzeppelin/contracts/utils/Context.sol\":640:736  function _msgSender() internal view virtual returns (address) {... */\n  jump\t// out\n    /* \"@openzeppelin/contracts/access/Ownable.sol\":2270:2457  function _transferOwnership(address newOwner) internal virtual {... */\ntag_13:\n    /* \"@openzeppelin/contracts/access/Ownable.sol\":2362:2368  _owner */\n  0x0a\n  dup1\n  sload\n  sub(shl(0xa0, 0x01), 0x01)\n    /* \"@openzeppelin/contracts/access/Ownable.sol\":2378:2395  _owner = newOwner */\n  dup4\n  dup2\n  and\n  not(sub(shl(0xa0, 0x01), 0x01))\n  dup4\n  and\n  dup2\n  or\n  swap1\n  swap4\n  sstore\n    /* \"@openzeppelin/contracts/access/Ownable.sol\":2410:2450  OwnershipTransferred(oldOwner, newOwner) */\n  mload(0x40)\n    /* \"@openzeppelin/contracts/access/Ownable.sol\":2362:2368  _owner */\n  swap2\n  and\n  swap2\n    /* \"@openzeppelin/contracts/access/Ownable.sol\":2378:2395  _owner = newOwner */\n  swap1\n    /* \"@openzeppelin/contracts/access/Ownable.sol\":2362:2368  _owner */\n  dup3\n  swap1\n    /* \"@openzeppelin/contracts/access/Ownable.sol\":2410:2450  OwnershipTransferred(oldOwner, newOwner) */\n  0x8be0079c531659141344cd1fd0a4f28419497f9722a3daafe3b4186f6b6457e0\n  swap1\n    /* \"@openzeppelin/contracts/access/Ownable.sol\":2343:2359  address oldOwner */\n  0x00\n  swap1\n    /* \"@openzeppelin/contracts/access/Ownable.sol\":2410:2450  OwnershipTransferred(oldOwner, newOwner) */\n  log3\n    /* \"@openzeppelin/contracts/access/Ownable.sol\":2333:2457  {... */\n  pop\n    /* \"@openzeppelin/contracts/access/Ownable.sol\":2270:2457  function _transferOwnership(address newOwner) internal virtual {... */\n  pop\n  jump\t// out\n    /* \"contracts/TaoNFT.sol\":5074:8702  contract TaoNFT is ERC721Enumerable, Ownable {\r... */\ntag_7:\n  dup3\n  dup1\n  sload\n  tag_18\n  swap1\n  tag_19\n  jump\t// in\ntag_18:\n  swap1\n  0x00\n  mstore\n  keccak256(0x00, 0x20)\n  swap1\n  0x1f\n  add\n  0x20\n  swap1\n  div\n  dup2\n  add\n  swap3\n  dup3\n  tag_21\n  jumpi\n  0x00\n  dup6\n  sstore\n  jump(tag_24)\ntag_21:\n  dup3\n  0x1f\n  lt\n  tag_22\n  jumpi\n  dup1\n  mload\n  not(0xff)\n  and\n  dup4\n  dup1\n  add\n  or\n  dup6\n  sstore\n  jump(tag_24)\ntag_22:\n  dup3\n  dup1\n  add\n  0x01\n  add\n  dup6\n  sstore\n  dup3\n  iszero\n  tag_24\n  jumpi\n  swap2\n  dup3\n  add\ntag_23:\n  dup3\n  dup2\n  gt\n  iszero\n  tag_24\n  jumpi\n  dup3\n  mload\n  dup3\n  sstore\n  swap2\n  0x20\n  add\n  swap2\n  swap1\n  0x01\n  add\n  swap1\n  jump(tag_23)\ntag_24:\n  pop\n  tag_25\n  swap3\n  swap2\n  pop\n  tag_26\n  jump\t// in\ntag_25:\n  pop\n  swap1\n  jump\t// out\ntag_26:\ntag_27:\n  dup1\n  dup3\n  gt\n  iszero\n  tag_25\n  jumpi\n  0x00\n  dup2\n  sstore\n  0x01\n  add\n  jump(tag_27)\n    /* \"#utility.yul\":14:394   */\ntag_19:\n    /* \"#utility.yul\":93:94   */\n  0x01\n    /* \"#utility.yul\":89:101   */\n  dup2\n  dup2\n  shr\n  swap1\n    /* \"#utility.yul\":136:148   */\n  dup3\n  and\n  dup1\n    /* \"#utility.yul\":157:159   */\n  tag_31\n  jumpi\n    /* \"#utility.yul\":211:215   */\n  0x7f\n    /* \"#utility.yul\":203:209   */\n  dup3\n    /* \"#utility.yul\":199:216   */\n  and\n    /* \"#utility.yul\":189:216   */\n  swap2\n  pop\n    /* \"#utility.yul\":157:159   */\ntag_31:\n    /* \"#utility.yul\":264:266   */\n  0x20\n    /* \"#utility.yul\":256:262   */\n  dup3\n    /* \"#utility.yul\":253:267   */\n  lt\n    /* \"#utility.yul\":233:251   */\n  dup2\n    /* \"#utility.yul\":230:268   */\n  eq\n    /* \"#utility.yul\":227:229   */\n  iszero\n  tag_32\n  jumpi\n    /* \"#utility.yul\":310:320   */\n  0x4e487b71\n    /* \"#utility.yul\":305:308   */\n  0xe0\n    /* \"#utility.yul\":301:321   */\n  shl\n    /* \"#utility.yul\":298:299   */\n  0x00\n    /* \"#utility.yul\":291:322   */\n  mstore\n    /* \"#utility.yul\":345:349   */\n  0x22\n    /* \"#utility.yul\":342:343   */\n  0x04\n    /* \"#utility.yul\":335:350   */\n  mstore\n    /* \"#utility.yul\":373:377   */\n  0x24\n    /* \"#utility.yul\":370:371   */\n  0x00\n    /* \"#utility.yul\":363:378   */\n  revert\n    /* \"#utility.yul\":227:229   */\ntag_32:\n  pop\n    /* \"#utility.yul\":69:394   */\n  swap2\n  swap1\n  pop\n  jump\t// out\ntag_29:\n    /* \"contracts/TaoNFT.sol\":5074:8702  contract TaoNFT is ERC721Enumerable, Ownable {\r... */\n  dataSize(sub_0)\n  dup1\n  dataOffset(sub_0)\n  0x00\n  codecopy\n  0x00\n  return\nstop\n\nsub_0: assembly {\n        /* \"contracts/TaoNFT.sol\":5074:8702  contract TaoNFT is ERC721Enumerable, Ownable {\r... */\n      mstore(0x40, 0x80)\n      callvalue\n      dup1\n      iszero\n      tag_1\n      jumpi\n      0x00\n      dup1\n      revert\n    tag_1:\n      pop\n      jumpi(tag_2, lt(calldatasize, 0x04))\n      shr(0xe0, calldataload(0x00))\n      dup1\n      0x6352211e\n      gt\n      tag_26\n      jumpi\n      dup1\n      0xa22cb465\n      gt\n      tag_27\n      jumpi\n      dup1\n      0xa22cb465\n      eq\n      tag_20\n      jumpi\n      dup1\n      0xb88d4fde\n      eq\n      tag_21\n      jumpi\n      dup1\n      0xc87b56dd\n      eq\n      tag_22\n      jumpi\n      dup1\n      0xd547cfb7\n      eq\n      tag_23\n      jumpi\n      dup1\n      0xe985e9c5\n      eq\n      tag_24\n      jumpi\n      dup1\n      0xf2fde38b\n      eq\n      tag_25\n      jumpi\n      0x00\n      dup1\n      revert\n    tag_27:\n      dup1\n      0x6352211e\n      eq\n      tag_14\n      jumpi\n      dup1\n      0x70a08231\n      eq\n      tag_15\n      jumpi\n      dup1\n      0x715018a6\n      eq\n      tag_16\n      jumpi\n      dup1\n      0x8462151c\n      eq\n      tag_17\n      jumpi\n      dup1\n      0x8da5cb5b\n      eq\n      tag_18\n      jumpi\n      dup1\n      0x95d89b41\n      eq\n      tag_19\n      jumpi\n      0x00\n      dup1\n      revert\n    tag_26:\n      dup1\n      0x23b872dd\n      gt\n      tag_28\n      jumpi\n      dup1\n      0x23b872dd\n      eq\n      tag_8\n      jumpi\n      dup1\n      0x2f745c59\n      eq\n      tag_9\n      jumpi\n      dup1\n      0x32cb6b0c\n      eq\n      tag_10\n      jumpi\n      dup1\n      0x3b4b1381\n      eq\n      tag_11\n      jumpi\n      dup1\n      0x42842e0e\n      eq\n      tag_12\n      jumpi\n      dup1\n      0x4f6ccce7\n      eq\n      tag_13\n      jumpi\n      0x00\n      dup1\n      revert\n    tag_28:\n      dup1\n      0x01ffc9a7\n      eq\n      tag_3\n      jumpi\n      dup1\n      0x06fdde03\n      eq\n      tag_4\n      jumpi\n      dup1\n      0x081812fc\n      eq\n      tag_5\n      jumpi\n      dup1\n      0x095ea7b3\n      eq\n      tag_6\n      jumpi\n      dup1\n      0x18160ddd\n      eq\n      tag_7\n      jumpi\n    tag_2:\n      0x00\n      dup1\n      revert\n        /* \"@openzeppelin/contracts/token/ERC721/extensions/ERC721Enumerable.sol\":990:1212  function supportsInterface(bytes4 interfaceId) public view virtual override(IERC165, ERC721) returns (bool) {... */\n    tag_3:\n      tag_29\n      tag_30\n      calldatasize\n      0x04\n      tag_31\n      jump\t// in\n    tag_30:\n      tag_32\n      jump\t// in\n    tag_29:\n      mload(0x40)\n        /* \"#utility.yul\":8073:8087   */\n      swap1\n      iszero\n        /* \"#utility.yul\":8066:8088   */\n      iszero\n        /* \"#utility.yul\":8048:8089   */\n      dup2\n      mstore\n        /* \"#utility.yul\":8036:8038   */\n      0x20\n        /* \"#utility.yul\":8021:8039   */\n      add\n        /* \"@openzeppelin/contracts/token/ERC721/extensions/ERC721Enumerable.sol\":990:1212  function supportsInterface(bytes4 interfaceId) public view virtual override(IERC165, ERC721) returns (bool) {... */\n    tag_33:\n      mload(0x40)\n      dup1\n      swap2\n      sub\n      swap1\n      return\n        /* \"@openzeppelin/contracts/token/ERC721/ERC721.sol\":2488:2586  function name() public view virtual override returns (string memory) {... */\n    tag_4:\n      tag_35\n      tag_36\n      jump\t// in\n    tag_35:\n      mload(0x40)\n      tag_33\n      swap2\n      swap1\n      tag_38\n      jump\t// in\n        /* \"@openzeppelin/contracts/token/ERC721/ERC721.sol\":3999:4216  function getApproved(uint256 tokenId) public view virtual override returns (address) {... */\n    tag_5:\n      tag_39\n      tag_40\n      calldatasize\n      0x04\n      tag_41\n      jump\t// in\n    tag_40:\n      tag_42\n      jump\t// in\n    tag_39:\n      mload(0x40)\n      sub(shl(0xa0, 0x01), 0x01)\n        /* \"#utility.yul\":6734:6766   */\n      swap1\n      swap2\n      and\n        /* \"#utility.yul\":6716:6767   */\n      dup2\n      mstore\n        /* \"#utility.yul\":6704:6706   */\n      0x20\n        /* \"#utility.yul\":6689:6707   */\n      add\n        /* \"@openzeppelin/contracts/token/ERC721/ERC721.sol\":3999:4216  function getApproved(uint256 tokenId) public view virtual override returns (address) {... */\n      tag_33\n        /* \"#utility.yul\":6671:6773   */\n      jump\n        /* \"@openzeppelin/contracts/token/ERC721/ERC721.sol\":3537:3938  function approve(address to, uint256 tokenId) public virtual override {... */\n    tag_6:\n      tag_45\n      tag_46\n      calldatasize\n      0x04\n      tag_47\n      jump\t// in\n    tag_46:\n      tag_48\n      jump\t// in\n    tag_45:\n      stop\n        /* \"@openzeppelin/contracts/token/ERC721/extensions/ERC721Enumerable.sol\":1615:1726  function totalSupply() public view virtual override returns (uint256) {... */\n    tag_7:\n        /* \"@openzeppelin/contracts/token/ERC721/extensions/ERC721Enumerable.sol\":1702:1712  _allTokens */\n      0x08\n        /* \"@openzeppelin/contracts/token/ERC721/extensions/ERC721Enumerable.sol\":1702:1719  _allTokens.length */\n      sload\n        /* \"@openzeppelin/contracts/token/ERC721/extensions/ERC721Enumerable.sol\":1615:1726  function totalSupply() public view virtual override returns (uint256) {... */\n    tag_49:\n      mload(0x40)\n        /* \"#utility.yul\":16013:16038   */\n      swap1\n      dup2\n      mstore\n        /* \"#utility.yul\":16001:16003   */\n      0x20\n        /* \"#utility.yul\":15986:16004   */\n      add\n        /* \"@openzeppelin/contracts/token/ERC721/extensions/ERC721Enumerable.sol\":1615:1726  function totalSupply() public view virtual override returns (uint256) {... */\n      tag_33\n        /* \"#utility.yul\":15968:16044   */\n      jump\n        /* \"@openzeppelin/contracts/token/ERC721/ERC721.sol\":4726:5056  function transferFrom(... */\n    tag_8:\n      tag_45\n      tag_54\n      calldatasize\n      0x04\n      tag_55\n      jump\t// in\n    tag_54:\n      tag_56\n      jump\t// in\n        /* \"@openzeppelin/contracts/token/ERC721/extensions/ERC721Enumerable.sol\":1291:1544  function tokenOfOwnerByIndex(address owner, uint256 index) public view virtual override returns (uint256) {... */\n    tag_9:\n      tag_49\n      tag_58\n      calldatasize\n      0x04\n      tag_47\n      jump\t// in\n    tag_58:\n      tag_59\n      jump\t// in\n        /* \"contracts/TaoNFT.sol\":5323:5358  uint public constant MAX_SUPPLY = 9 */\n    tag_10:\n      tag_49\n        /* \"contracts/TaoNFT.sol\":5357:5358  9 */\n      0x09\n        /* \"contracts/TaoNFT.sol\":5323:5358  uint public constant MAX_SUPPLY = 9 */\n      dup2\n      jump\n        /* \"contracts/TaoNFT.sol\":6785:7124  function mintNFTs(uint _count) public {\r... */\n    tag_11:\n      tag_45\n      tag_65\n      calldatasize\n      0x04\n      tag_41\n      jump\t// in\n    tag_65:\n      tag_66\n      jump\t// in\n        /* \"@openzeppelin/contracts/token/ERC721/ERC721.sol\":5122:5301  function safeTransferFrom(... */\n    tag_12:\n      tag_45\n      tag_68\n      calldatasize\n      0x04\n      tag_55\n      jump\t// in\n    tag_68:\n      tag_69\n      jump\t// in\n        /* \"@openzeppelin/contracts/token/ERC721/extensions/ERC721Enumerable.sol\":1798:2028  function tokenByIndex(uint256 index) public view virtual override returns (uint256) {... */\n    tag_13:\n      tag_49\n      tag_71\n      calldatasize\n      0x04\n      tag_41\n      jump\t// in\n    tag_71:\n      tag_72\n      jump\t// in\n        /* \"@openzeppelin/contracts/token/ERC721/ERC721.sol\":2191:2426  function ownerOf(uint256 tokenId) public view virtual override returns (address) {... */\n    tag_14:\n      tag_39\n      tag_75\n      calldatasize\n      0x04\n      tag_41\n      jump\t// in\n    tag_75:\n      tag_76\n      jump\t// in\n        /* \"@openzeppelin/contracts/token/ERC721/ERC721.sol\":1929:2134  function balanceOf(address owner) public view virtual override returns (uint256) {... */\n    tag_15:\n      tag_49\n      tag_79\n      calldatasize\n      0x04\n      tag_80\n      jump\t// in\n    tag_79:\n      tag_81\n      jump\t// in\n        /* \"@openzeppelin/contracts/access/Ownable.sol\":1668:1769  function renounceOwnership() public virtual onlyOwner {... */\n    tag_16:\n      tag_45\n      tag_84\n      jump\t// in\n        /* \"contracts/TaoNFT.sol\":7314:7655  function tokensOfOwner(address _owner) external view returns (uint[] memory) {\r... */\n    tag_17:\n      tag_85\n      tag_86\n      calldatasize\n      0x04\n      tag_80\n      jump\t// in\n    tag_86:\n      tag_87\n      jump\t// in\n    tag_85:\n      mload(0x40)\n      tag_33\n      swap2\n      swap1\n      tag_89\n      jump\t// in\n        /* \"@openzeppelin/contracts/access/Ownable.sol\":1036:1121  function owner() public view virtual returns (address) {... */\n    tag_18:\n        /* \"@openzeppelin/contracts/access/Ownable.sol\":1108:1114  _owner */\n      and(sub(shl(0xa0, 0x01), 0x01), sload(0x0a))\n        /* \"@openzeppelin/contracts/access/Ownable.sol\":1036:1121  function owner() public view virtual returns (address) {... */\n      jump(tag_39)\n        /* \"@openzeppelin/contracts/token/ERC721/ERC721.sol\":2650:2752  function symbol() public view virtual override returns (string memory) {... */\n    tag_19:\n      tag_35\n      tag_94\n      jump\t// in\n        /* \"@openzeppelin/contracts/token/ERC721/ERC721.sol\":4283:4436  function setApprovalForAll(address operator, bool approved) public virtual override {... */\n    tag_20:\n      tag_45\n      tag_97\n      calldatasize\n      0x04\n      tag_98\n      jump\t// in\n    tag_97:\n      tag_99\n      jump\t// in\n        /* \"@openzeppelin/contracts/token/ERC721/ERC721.sol\":5367:5687  function safeTransferFrom(... */\n    tag_21:\n      tag_45\n      tag_101\n      calldatasize\n      0x04\n      tag_102\n      jump\t// in\n    tag_101:\n      tag_103\n      jump\t// in\n        /* \"contracts/TaoNFT.sol\":8275:8690  function tokenURI(uint256 tokenId) override(ERC721) public pure returns (string memory) {\r... */\n    tag_22:\n      tag_35\n      tag_105\n      calldatasize\n      0x04\n      tag_41\n      jump\t// in\n    tag_105:\n      tag_106\n      jump\t// in\n        /* \"contracts/TaoNFT.sol\":5371:5397  string public baseTokenURI */\n    tag_23:\n      tag_35\n      tag_109\n      jump\t// in\n        /* \"@openzeppelin/contracts/token/ERC721/ERC721.sol\":4502:4664  function isApprovedForAll(address owner, address operator) public view virtual override returns (bool) {... */\n    tag_24:\n      tag_29\n      tag_112\n      calldatasize\n      0x04\n      tag_113\n      jump\t// in\n    tag_112:\n      sub(shl(0xa0, 0x01), 0x01)\n        /* \"@openzeppelin/contracts/token/ERC721/ERC721.sol\":4622:4647  _operatorApprovals[owner] */\n      swap2\n      dup3\n      and\n        /* \"@openzeppelin/contracts/token/ERC721/ERC721.sol\":4599:4603  bool */\n      0x00\n        /* \"@openzeppelin/contracts/token/ERC721/ERC721.sol\":4622:4647  _operatorApprovals[owner] */\n      swap1\n      dup2\n      mstore\n        /* \"@openzeppelin/contracts/token/ERC721/ERC721.sol\":4622:4640  _operatorApprovals */\n      0x05\n        /* \"@openzeppelin/contracts/token/ERC721/ERC721.sol\":4622:4647  _operatorApprovals[owner] */\n      0x20\n      swap1\n      dup2\n      mstore\n      0x40\n      dup1\n      dup4\n      keccak256\n        /* \"@openzeppelin/contracts/token/ERC721/ERC721.sol\":4622:4657  _operatorApprovals[owner][operator] */\n      swap4\n      swap1\n      swap5\n      and\n      dup3\n      mstore\n      swap2\n      swap1\n      swap2\n      mstore\n      keccak256\n      sload\n      0xff\n      and\n      swap1\n        /* \"@openzeppelin/contracts/token/ERC721/ERC721.sol\":4502:4664  function isApprovedForAll(address owner, address operator) public view virtual override returns (bool) {... */\n      jump\n        /* \"@openzeppelin/contracts/access/Ownable.sol\":1918:2116  function transferOwnership(address newOwner) public virtual onlyOwner {... */\n    tag_25:\n      tag_45\n      tag_117\n      calldatasize\n      0x04\n      tag_80\n      jump\t// in\n    tag_117:\n      tag_118\n      jump\t// in\n        /* \"@openzeppelin/contracts/token/ERC721/extensions/ERC721Enumerable.sol\":990:1212  function supportsInterface(bytes4 interfaceId) public view virtual override(IERC165, ERC721) returns (bool) {... */\n    tag_32:\n        /* \"@openzeppelin/contracts/token/ERC721/extensions/ERC721Enumerable.sol\":1092:1096  bool */\n      0x00\n      not(sub(shl(0xe0, 0x01), 0x01))\n        /* \"@openzeppelin/contracts/token/ERC721/extensions/ERC721Enumerable.sol\":1115:1165  interfaceId == type(IERC721Enumerable).interfaceId */\n      dup3\n      and\n      shl(0xe0, 0x780e9d63)\n      eq\n      dup1\n        /* \"@openzeppelin/contracts/token/ERC721/extensions/ERC721Enumerable.sol\":1115:1205  interfaceId == type(IERC721Enumerable).interfaceId || super.supportsInterface(interfaceId) */\n      tag_121\n      jumpi\n      pop\n        /* \"@openzeppelin/contracts/token/ERC721/extensions/ERC721Enumerable.sol\":1169:1205  super.supportsInterface(interfaceId) */\n      tag_121\n        /* \"@openzeppelin/contracts/token/ERC721/extensions/ERC721Enumerable.sol\":1193:1204  interfaceId */\n      dup3\n        /* \"@openzeppelin/contracts/token/ERC721/extensions/ERC721Enumerable.sol\":1169:1192  super.supportsInterface */\n      tag_122\n        /* \"@openzeppelin/contracts/token/ERC721/extensions/ERC721Enumerable.sol\":1169:1205  super.supportsInterface(interfaceId) */\n      jump\t// in\n    tag_121:\n        /* \"@openzeppelin/contracts/token/ERC721/extensions/ERC721Enumerable.sol\":1108:1205  return interfaceId == type(IERC721Enumerable).interfaceId || super.supportsInterface(interfaceId) */\n      swap3\n        /* \"@openzeppelin/contracts/token/ERC721/extensions/ERC721Enumerable.sol\":990:1212  function supportsInterface(bytes4 interfaceId) public view virtual override(IERC165, ERC721) returns (bool) {... */\n      swap2\n      pop\n      pop\n      jump\t// out\n        /* \"@openzeppelin/contracts/token/ERC721/ERC721.sol\":2488:2586  function name() public view virtual override returns (string memory) {... */\n    tag_36:\n        /* \"@openzeppelin/contracts/token/ERC721/ERC721.sol\":2542:2555  string memory */\n      0x60\n        /* \"@openzeppelin/contracts/token/ERC721/ERC721.sol\":2574:2579  _name */\n      0x00\n        /* \"@openzeppelin/contracts/token/ERC721/ERC721.sol\":2567:2579  return _name */\n      dup1\n      sload\n      tag_124\n      swap1\n      tag_125\n      jump\t// in\n    tag_124:\n      dup1\n      0x1f\n      add\n      0x20\n      dup1\n      swap2\n      div\n      mul\n      0x20\n      add\n      mload(0x40)\n      swap1\n      dup2\n      add\n      0x40\n      mstore\n      dup1\n      swap3\n      swap2\n      swap1\n      dup2\n      dup2\n      mstore\n      0x20\n      add\n      dup3\n      dup1\n      sload\n      tag_126\n      swap1\n      tag_125\n      jump\t// in\n    tag_126:\n      dup1\n      iszero\n      tag_127\n      jumpi\n      dup1\n      0x1f\n      lt\n      tag_128\n      jumpi\n      0x0100\n      dup1\n      dup4\n      sload\n      div\n      mul\n      dup4\n      mstore\n      swap2\n      0x20\n      add\n      swap2\n      jump(tag_127)\n    tag_128:\n      dup3\n      add\n      swap2\n      swap1\n      0x00\n      mstore\n      keccak256(0x00, 0x20)\n      swap1\n    tag_129:\n      dup2\n      sload\n      dup2\n      mstore\n      swap1\n      0x01\n      add\n      swap1\n      0x20\n      add\n      dup1\n      dup4\n      gt\n      tag_129\n      jumpi\n      dup3\n      swap1\n      sub\n      0x1f\n      and\n      dup3\n      add\n      swap2\n    tag_127:\n      pop\n      pop\n      pop\n      pop\n      pop\n      swap1\n      pop\n        /* \"@openzeppelin/contracts/token/ERC721/ERC721.sol\":2488:2586  function name() public view virtual override returns (string memory) {... */\n      swap1\n      jump\t// out\n        /* \"@openzeppelin/contracts/token/ERC721/ERC721.sol\":3999:4216  function getApproved(uint256 tokenId) public view virtual override returns (address) {... */\n    tag_42:\n        /* \"@openzeppelin/contracts/token/ERC721/ERC721.sol\":4075:4082  address */\n      0x00\n        /* \"@openzeppelin/contracts/token/ERC721/ERC721.sol\":7247:7263  _owners[tokenId] */\n      dup2\n      dup2\n      mstore\n        /* \"@openzeppelin/contracts/token/ERC721/ERC721.sol\":7247:7254  _owners */\n      0x02\n        /* \"@openzeppelin/contracts/token/ERC721/ERC721.sol\":7247:7263  _owners[tokenId] */\n      0x20\n      mstore\n      0x40\n      dup2\n      keccak256\n      sload\n      sub(shl(0xa0, 0x01), 0x01)\n      and\n        /* \"@openzeppelin/contracts/token/ERC721/ERC721.sol\":4094:4167  require(_exists(tokenId), \"ERC721: approved query for nonexistent token\") */\n      tag_133\n      jumpi\n      mload(0x40)\n      shl(0xe5, 0x461bcd)\n      dup2\n      mstore\n        /* \"#utility.yul\":14062:14064   */\n      0x20\n        /* \"@openzeppelin/contracts/token/ERC721/ERC721.sol\":4094:4167  require(_exists(tokenId), \"ERC721: approved query for nonexistent token\") */\n      0x04\n      dup3\n      add\n        /* \"#utility.yul\":14044:14065   */\n      mstore\n        /* \"#utility.yul\":14101:14103   */\n      0x2c\n        /* \"#utility.yul\":14081:14099   */\n      0x24\n      dup3\n      add\n        /* \"#utility.yul\":14074:14104   */\n      mstore\n        /* \"#utility.yul\":14140:14174   */\n      0x4552433732313a20617070726f76656420717565727920666f72206e6f6e6578\n        /* \"#utility.yul\":14120:14138   */\n      0x44\n      dup3\n      add\n        /* \"#utility.yul\":14113:14175   */\n      mstore\n      shl(0xa1, 0x34b9ba32b73a103a37b5b2b7)\n        /* \"#utility.yul\":14191:14209   */\n      0x64\n      dup3\n      add\n        /* \"#utility.yul\":14184:14226   */\n      mstore\n        /* \"#utility.yul\":14243:14262   */\n      0x84\n      add\n        /* \"@openzeppelin/contracts/token/ERC721/ERC721.sol\":4094:4167  require(_exists(tokenId), \"ERC721: approved query for nonexistent token\") */\n    tag_134:\n      mload(0x40)\n      dup1\n      swap2\n      sub\n      swap1\n      revert\n    tag_133:\n      pop\n        /* \"@openzeppelin/contracts/token/ERC721/ERC721.sol\":4185:4209  _tokenApprovals[tokenId] */\n      0x00\n      swap1\n      dup2\n      mstore\n        /* \"@openzeppelin/contracts/token/ERC721/ERC721.sol\":4185:4200  _tokenApprovals */\n      0x04\n        /* \"@openzeppelin/contracts/token/ERC721/ERC721.sol\":4185:4209  _tokenApprovals[tokenId] */\n      0x20\n      mstore\n      0x40\n      swap1\n      keccak256\n      sload\n      sub(shl(0xa0, 0x01), 0x01)\n      and\n      swap1\n        /* \"@openzeppelin/contracts/token/ERC721/ERC721.sol\":3999:4216  function getApproved(uint256 tokenId) public view virtual override returns (address) {... */\n      jump\t// out\n        /* \"@openzeppelin/contracts/token/ERC721/ERC721.sol\":3537:3938  function approve(address to, uint256 tokenId) public virtual override {... */\n    tag_48:\n        /* \"@openzeppelin/contracts/token/ERC721/ERC721.sol\":3617:3630  address owner */\n      0x00\n        /* \"@openzeppelin/contracts/token/ERC721/ERC721.sol\":3633:3656  ERC721.ownerOf(tokenId) */\n      tag_137\n        /* \"@openzeppelin/contracts/token/ERC721/ERC721.sol\":3648:3655  tokenId */\n      dup3\n        /* \"@openzeppelin/contracts/token/ERC721/ERC721.sol\":3633:3647  ERC721.ownerOf */\n      tag_76\n        /* \"@openzeppelin/contracts/token/ERC721/ERC721.sol\":3633:3656  ERC721.ownerOf(tokenId) */\n      jump\t// in\n    tag_137:\n        /* \"@openzeppelin/contracts/token/ERC721/ERC721.sol\":3617:3656  address owner = ERC721.ownerOf(tokenId) */\n      swap1\n      pop\n        /* \"@openzeppelin/contracts/token/ERC721/ERC721.sol\":3680:3685  owner */\n      dup1\n      sub(shl(0xa0, 0x01), 0x01)\n        /* \"@openzeppelin/contracts/token/ERC721/ERC721.sol\":3674:3685  to != owner */\n      and\n        /* \"@openzeppelin/contracts/token/ERC721/ERC721.sol\":3674:3676  to */\n      dup4\n      sub(shl(0xa0, 0x01), 0x01)\n        /* \"@openzeppelin/contracts/token/ERC721/ERC721.sol\":3674:3685  to != owner */\n      and\n      eq\n      iszero\n        /* \"@openzeppelin/contracts/token/ERC721/ERC721.sol\":3666:3723  require(to != owner, \"ERC721: approval to current owner\") */\n      tag_138\n      jumpi\n      mload(0x40)\n      shl(0xe5, 0x461bcd)\n      dup2\n      mstore\n        /* \"#utility.yul\":14836:14838   */\n      0x20\n        /* \"@openzeppelin/contracts/token/ERC721/ERC721.sol\":3666:3723  require(to != owner, \"ERC721: approval to current owner\") */\n      0x04\n      dup3\n      add\n        /* \"#utility.yul\":14818:14839   */\n      mstore\n        /* \"#utility.yul\":14875:14877   */\n      0x21\n        /* \"#utility.yul\":14855:14873   */\n      0x24\n      dup3\n      add\n        /* \"#utility.yul\":14848:14878   */\n      mstore\n        /* \"#utility.yul\":14914:14948   */\n      0x4552433732313a20617070726f76616c20746f2063757272656e74206f776e65\n        /* \"#utility.yul\":14894:14912   */\n      0x44\n      dup3\n      add\n        /* \"#utility.yul\":14887:14949   */\n      mstore\n      shl(0xf9, 0x39)\n        /* \"#utility.yul\":14965:14983   */\n      0x64\n      dup3\n      add\n        /* \"#utility.yul\":14958:14989   */\n      mstore\n        /* \"#utility.yul\":15006:15025   */\n      0x84\n      add\n        /* \"@openzeppelin/contracts/token/ERC721/ERC721.sol\":3666:3723  require(to != owner, \"ERC721: approval to current owner\") */\n      tag_134\n        /* \"#utility.yul\":14808:15031   */\n      jump\n        /* \"@openzeppelin/contracts/token/ERC721/ERC721.sol\":3666:3723  require(to != owner, \"ERC721: approval to current owner\") */\n    tag_138:\n        /* \"@openzeppelin/contracts/utils/Context.sol\":719:729  msg.sender */\n      caller\n      sub(shl(0xa0, 0x01), 0x01)\n        /* \"@openzeppelin/contracts/token/ERC721/ERC721.sol\":3755:3776  _msgSender() == owner */\n      dup3\n      and\n      eq\n      dup1\n        /* \"@openzeppelin/contracts/token/ERC721/ERC721.sol\":3755:3817  _msgSender() == owner || isApprovedForAll(owner, _msgSender()) */\n      tag_144\n      jumpi\n      pop\n        /* \"@openzeppelin/contracts/token/ERC721/ERC721.sol\":3780:3817  isApprovedForAll(owner, _msgSender()) */\n      tag_144\n        /* \"@openzeppelin/contracts/token/ERC721/ERC721.sol\":3797:3802  owner */\n      dup2\n        /* \"@openzeppelin/contracts/utils/Context.sol\":719:729  msg.sender */\n      caller\n        /* \"@openzeppelin/contracts/token/ERC721/ERC721.sol\":4502:4664  function isApprovedForAll(address owner, address operator) public view virtual override returns (bool) {... */\n      tag_112\n      jump\t// in\n        /* \"@openzeppelin/contracts/token/ERC721/ERC721.sol\":3780:3817  isApprovedForAll(owner, _msgSender()) */\n    tag_144:\n        /* \"@openzeppelin/contracts/token/ERC721/ERC721.sol\":3734:3899  require(... */\n      tag_146\n      jumpi\n      mload(0x40)\n      shl(0xe5, 0x461bcd)\n      dup2\n      mstore\n        /* \"#utility.yul\":12455:12457   */\n      0x20\n        /* \"@openzeppelin/contracts/token/ERC721/ERC721.sol\":3734:3899  require(... */\n      0x04\n      dup3\n      add\n        /* \"#utility.yul\":12437:12458   */\n      mstore\n        /* \"#utility.yul\":12494:12496   */\n      0x38\n        /* \"#utility.yul\":12474:12492   */\n      0x24\n      dup3\n      add\n        /* \"#utility.yul\":12467:12497   */\n      mstore\n        /* \"#utility.yul\":12533:12567   */\n      0x4552433732313a20617070726f76652063616c6c6572206973206e6f74206f77\n        /* \"#utility.yul\":12513:12531   */\n      0x44\n      dup3\n      add\n        /* \"#utility.yul\":12506:12568   */\n      mstore\n        /* \"#utility.yul\":12604:12630   */\n      0x6e6572206e6f7220617070726f76656420666f7220616c6c0000000000000000\n        /* \"#utility.yul\":12584:12602   */\n      0x64\n      dup3\n      add\n        /* \"#utility.yul\":12577:12631   */\n      mstore\n        /* \"#utility.yul\":12648:12667   */\n      0x84\n      add\n        /* \"@openzeppelin/contracts/token/ERC721/ERC721.sol\":3734:3899  require(... */\n      tag_134\n        /* \"#utility.yul\":12427:12673   */\n      jump\n        /* \"@openzeppelin/contracts/token/ERC721/ERC721.sol\":3734:3899  require(... */\n    tag_146:\n        /* \"@openzeppelin/contracts/token/ERC721/ERC721.sol\":3910:3931  _approve(to, tokenId) */\n      tag_149\n        /* \"@openzeppelin/contracts/token/ERC721/ERC721.sol\":3919:3921  to */\n      dup4\n        /* \"@openzeppelin/contracts/token/ERC721/ERC721.sol\":3923:3930  tokenId */\n      dup4\n        /* \"@openzeppelin/contracts/token/ERC721/ERC721.sol\":3910:3918  _approve */\n      tag_150\n        /* \"@openzeppelin/contracts/token/ERC721/ERC721.sol\":3910:3931  _approve(to, tokenId) */\n      jump\t// in\n    tag_149:\n        /* \"@openzeppelin/contracts/token/ERC721/ERC721.sol\":3607:3938  {... */\n      pop\n        /* \"@openzeppelin/contracts/token/ERC721/ERC721.sol\":3537:3938  function approve(address to, uint256 tokenId) public virtual override {... */\n      pop\n      pop\n      jump\t// out\n        /* \"@openzeppelin/contracts/token/ERC721/ERC721.sol\":4726:5056  function transferFrom(... */\n    tag_56:\n        /* \"@openzeppelin/contracts/token/ERC721/ERC721.sol\":4915:4956  _isApprovedOrOwner(_msgSender(), tokenId) */\n      tag_153\n        /* \"@openzeppelin/contracts/utils/Context.sol\":719:729  msg.sender */\n      caller\n        /* \"@openzeppelin/contracts/token/ERC721/ERC721.sol\":4948:4955  tokenId */\n      dup3\n        /* \"@openzeppelin/contracts/token/ERC721/ERC721.sol\":4915:4933  _isApprovedOrOwner */\n      tag_155\n        /* \"@openzeppelin/contracts/token/ERC721/ERC721.sol\":4915:4956  _isApprovedOrOwner(_msgSender(), tokenId) */\n      jump\t// in\n    tag_153:\n        /* \"@openzeppelin/contracts/token/ERC721/ERC721.sol\":4907:5010  require(_isApprovedOrOwner(_msgSender(), tokenId), \"ERC721: transfer caller is not owner nor approved\") */\n      tag_156\n      jumpi\n      mload(0x40)\n      shl(0xe5, 0x461bcd)\n      dup2\n      mstore\n      0x04\n      add\n      tag_134\n      swap1\n      tag_158\n      jump\t// in\n    tag_156:\n        /* \"@openzeppelin/contracts/token/ERC721/ERC721.sol\":5021:5049  _transfer(from, to, tokenId) */\n      tag_149\n        /* \"@openzeppelin/contracts/token/ERC721/ERC721.sol\":5031:5035  from */\n      dup4\n        /* \"@openzeppelin/contracts/token/ERC721/ERC721.sol\":5037:5039  to */\n      dup4\n        /* \"@openzeppelin/contracts/token/ERC721/ERC721.sol\":5041:5048  tokenId */\n      dup4\n        /* \"@openzeppelin/contracts/token/ERC721/ERC721.sol\":5021:5030  _transfer */\n      tag_160\n        /* \"@openzeppelin/contracts/token/ERC721/ERC721.sol\":5021:5049  _transfer(from, to, tokenId) */\n      jump\t// in\n        /* \"@openzeppelin/contracts/token/ERC721/extensions/ERC721Enumerable.sol\":1291:1544  function tokenOfOwnerByIndex(address owner, uint256 index) public view virtual override returns (uint256) {... */\n    tag_59:\n        /* \"@openzeppelin/contracts/token/ERC721/extensions/ERC721Enumerable.sol\":1388:1395  uint256 */\n      0x00\n        /* \"@openzeppelin/contracts/token/ERC721/extensions/ERC721Enumerable.sol\":1423:1446  ERC721.balanceOf(owner) */\n      tag_162\n        /* \"@openzeppelin/contracts/token/ERC721/extensions/ERC721Enumerable.sol\":1440:1445  owner */\n      dup4\n        /* \"@openzeppelin/contracts/token/ERC721/extensions/ERC721Enumerable.sol\":1423:1439  ERC721.balanceOf */\n      tag_81\n        /* \"@openzeppelin/contracts/token/ERC721/extensions/ERC721Enumerable.sol\":1423:1446  ERC721.balanceOf(owner) */\n      jump\t// in\n    tag_162:\n        /* \"@openzeppelin/contracts/token/ERC721/extensions/ERC721Enumerable.sol\":1415:1420  index */\n      dup3\n        /* \"@openzeppelin/contracts/token/ERC721/extensions/ERC721Enumerable.sol\":1415:1446  index < ERC721.balanceOf(owner) */\n      lt\n        /* \"@openzeppelin/contracts/token/ERC721/extensions/ERC721Enumerable.sol\":1407:1494  require(index < ERC721.balanceOf(owner), \"ERC721Enumerable: owner index out of bounds\") */\n      tag_163\n      jumpi\n      mload(0x40)\n      shl(0xe5, 0x461bcd)\n      dup2\n      mstore\n        /* \"#utility.yul\":8526:8528   */\n      0x20\n        /* \"@openzeppelin/contracts/token/ERC721/extensions/ERC721Enumerable.sol\":1407:1494  require(index < ERC721.balanceOf(owner), \"ERC721Enumerable: owner index out of bounds\") */\n      0x04\n      dup3\n      add\n        /* \"#utility.yul\":8508:8529   */\n      mstore\n        /* \"#utility.yul\":8565:8567   */\n      0x2b\n        /* \"#utility.yul\":8545:8563   */\n      0x24\n      dup3\n      add\n        /* \"#utility.yul\":8538:8568   */\n      mstore\n        /* \"#utility.yul\":8604:8638   */\n      0x455243373231456e756d657261626c653a206f776e657220696e646578206f75\n        /* \"#utility.yul\":8584:8602   */\n      0x44\n      dup3\n      add\n        /* \"#utility.yul\":8577:8639   */\n      mstore\n      shl(0xa8, 0x74206f6620626f756e6473)\n        /* \"#utility.yul\":8655:8673   */\n      0x64\n      dup3\n      add\n        /* \"#utility.yul\":8648:8689   */\n      mstore\n        /* \"#utility.yul\":8706:8725   */\n      0x84\n      add\n        /* \"@openzeppelin/contracts/token/ERC721/extensions/ERC721Enumerable.sol\":1407:1494  require(index < ERC721.balanceOf(owner), \"ERC721Enumerable: owner index out of bounds\") */\n      tag_134\n        /* \"#utility.yul\":8498:8731   */\n      jump\n        /* \"@openzeppelin/contracts/token/ERC721/extensions/ERC721Enumerable.sol\":1407:1494  require(index < ERC721.balanceOf(owner), \"ERC721Enumerable: owner index out of bounds\") */\n    tag_163:\n      pop\n      sub(shl(0xa0, 0x01), 0x01)\n        /* \"@openzeppelin/contracts/token/ERC721/extensions/ERC721Enumerable.sol\":1511:1530  _ownedTokens[owner] */\n      swap2\n      swap1\n      swap2\n      and\n      0x00\n      swap1\n      dup2\n      mstore\n        /* \"@openzeppelin/contracts/token/ERC721/extensions/ERC721Enumerable.sol\":1511:1523  _ownedTokens */\n      0x06\n        /* \"@openzeppelin/contracts/token/ERC721/extensions/ERC721Enumerable.sol\":1511:1530  _ownedTokens[owner] */\n      0x20\n      swap1\n      dup2\n      mstore\n      0x40\n      dup1\n      dup4\n      keccak256\n        /* \"@openzeppelin/contracts/token/ERC721/extensions/ERC721Enumerable.sol\":1511:1537  _ownedTokens[owner][index] */\n      swap4\n      dup4\n      mstore\n      swap3\n      swap1\n      mstore\n      keccak256\n      sload\n      swap1\n        /* \"@openzeppelin/contracts/token/ERC721/extensions/ERC721Enumerable.sol\":1291:1544  function tokenOfOwnerByIndex(address owner, uint256 index) public view virtual override returns (uint256) {... */\n      jump\t// out\n        /* \"contracts/TaoNFT.sol\":6785:7124  function mintNFTs(uint _count) public {\r... */\n    tag_66:\n        /* \"contracts/TaoNFT.sol\":6834:6850  uint totalMinted */\n      0x00\n        /* \"contracts/TaoNFT.sol\":6853:6872  _tokenIds.current() */\n      tag_167\n        /* \"contracts/TaoNFT.sol\":6853:6862  _tokenIds */\n      0x0b\n        /* \"@openzeppelin/contracts/utils/Counters.sol\":918:932  counter._value */\n      sload\n      swap1\n        /* \"@openzeppelin/contracts/utils/Counters.sol\":827:939  function current(Counter storage counter) internal view returns (uint256) {... */\n      jump\n        /* \"contracts/TaoNFT.sol\":6853:6872  _tokenIds.current() */\n    tag_167:\n        /* \"contracts/TaoNFT.sol\":6834:6872  uint totalMinted = _tokenIds.current() */\n      swap1\n      pop\n        /* \"contracts/TaoNFT.sol\":5357:5358  9 */\n      0x09\n        /* \"contracts/TaoNFT.sol\":6893:6916  totalMinted.add(_count) */\n      tag_169\n        /* \"contracts/TaoNFT.sol\":6834:6872  uint totalMinted = _tokenIds.current() */\n      dup3\n        /* \"contracts/TaoNFT.sol\":6909:6915  _count */\n      dup5\n        /* \"contracts/TaoNFT.sol\":6893:6908  totalMinted.add */\n      tag_170\n        /* \"contracts/TaoNFT.sol\":6893:6916  totalMinted.add(_count) */\n      jump\t// in\n    tag_169:\n        /* \"contracts/TaoNFT.sol\":6893:6930  totalMinted.add(_count) <= MAX_SUPPLY */\n      gt\n      iszero\n        /* \"contracts/TaoNFT.sol\":6885:6956  require(totalMinted.add(_count) <= MAX_SUPPLY, \"Not enough NFTs left!\") */\n      tag_171\n      jumpi\n      mload(0x40)\n      shl(0xe5, 0x461bcd)\n      dup2\n      mstore\n        /* \"#utility.yul\":11286:11288   */\n      0x20\n        /* \"contracts/TaoNFT.sol\":6885:6956  require(totalMinted.add(_count) <= MAX_SUPPLY, \"Not enough NFTs left!\") */\n      0x04\n      dup3\n      add\n        /* \"#utility.yul\":11268:11289   */\n      mstore\n        /* \"#utility.yul\":11325:11327   */\n      0x15\n        /* \"#utility.yul\":11305:11323   */\n      0x24\n      dup3\n      add\n        /* \"#utility.yul\":11298:11328   */\n      mstore\n      shl(0x58, 0x4e6f7420656e6f756768204e465473206c65667421)\n        /* \"#utility.yul\":11344:11362   */\n      0x44\n      dup3\n      add\n        /* \"#utility.yul\":11337:11388   */\n      mstore\n        /* \"#utility.yul\":11405:11423   */\n      0x64\n      add\n        /* \"contracts/TaoNFT.sol\":6885:6956  require(totalMinted.add(_count) <= MAX_SUPPLY, \"Not enough NFTs left!\") */\n      tag_134\n        /* \"#utility.yul\":11258:11429   */\n      jump\n        /* \"contracts/TaoNFT.sol\":6885:6956  require(totalMinted.add(_count) <= MAX_SUPPLY, \"Not enough NFTs left!\") */\n    tag_171:\n        /* \"contracts/TaoNFT.sol\":6975:6981  _count */\n      dup2\n        /* \"contracts/TaoNFT.sol\":6984:6985  1 */\n      0x01\n        /* \"contracts/TaoNFT.sol\":6975:6985  _count ==1 */\n      eq\n        /* \"contracts/TaoNFT.sol\":6967:7027  require(_count ==1, \"Cannot mint specified number of NFTs.\") */\n      tag_174\n      jumpi\n      mload(0x40)\n      shl(0xe5, 0x461bcd)\n      dup2\n      mstore\n        /* \"#utility.yul\":11636:11638   */\n      0x20\n        /* \"contracts/TaoNFT.sol\":6967:7027  require(_count ==1, \"Cannot mint specified number of NFTs.\") */\n      0x04\n      dup3\n      add\n        /* \"#utility.yul\":11618:11639   */\n      mstore\n        /* \"#utility.yul\":11675:11677   */\n      0x25\n        /* \"#utility.yul\":11655:11673   */\n      0x24\n      dup3\n      add\n        /* \"#utility.yul\":11648:11678   */\n      mstore\n        /* \"#utility.yul\":11714:11748   */\n      0x43616e6e6f74206d696e7420737065636966696564206e756d626572206f6620\n        /* \"#utility.yul\":11694:11712   */\n      0x44\n      dup3\n      add\n        /* \"#utility.yul\":11687:11749   */\n      mstore\n      shl(0xd9, 0x27232a3997)\n        /* \"#utility.yul\":11765:11783   */\n      0x64\n      dup3\n      add\n        /* \"#utility.yul\":11758:11793   */\n      mstore\n        /* \"#utility.yul\":11810:11829   */\n      0x84\n      add\n        /* \"contracts/TaoNFT.sol\":6967:7027  require(_count ==1, \"Cannot mint specified number of NFTs.\") */\n      tag_134\n        /* \"#utility.yul\":11608:11835   */\n      jump\n        /* \"contracts/TaoNFT.sol\":6967:7027  require(_count ==1, \"Cannot mint specified number of NFTs.\") */\n    tag_174:\n        /* \"contracts/TaoNFT.sol\":7045:7051  uint i */\n      0x00\n        /* \"contracts/TaoNFT.sol\":7040:7117  for (uint i = 0; i < _count; i++) {\r... */\n    tag_177:\n        /* \"contracts/TaoNFT.sol\":7061:7067  _count */\n      dup3\n        /* \"contracts/TaoNFT.sol\":7057:7058  i */\n      dup2\n        /* \"contracts/TaoNFT.sol\":7057:7067  i < _count */\n      lt\n        /* \"contracts/TaoNFT.sol\":7040:7117  for (uint i = 0; i < _count; i++) {\r... */\n      iszero\n      tag_149\n      jumpi\n        /* \"contracts/TaoNFT.sol\":7089:7105  _mintSingleNFT() */\n      tag_180\n        /* \"contracts/TaoNFT.sol\":7089:7103  _mintSingleNFT */\n      tag_181\n        /* \"contracts/TaoNFT.sol\":7089:7105  _mintSingleNFT() */\n      jump\t// in\n    tag_180:\n        /* \"contracts/TaoNFT.sol\":7069:7072  i++ */\n      dup1\n      tag_182\n      dup2\n      tag_183\n      jump\t// in\n    tag_182:\n      swap2\n      pop\n      pop\n        /* \"contracts/TaoNFT.sol\":7040:7117  for (uint i = 0; i < _count; i++) {\r... */\n      jump(tag_177)\n        /* \"@openzeppelin/contracts/token/ERC721/ERC721.sol\":5122:5301  function safeTransferFrom(... */\n    tag_69:\n        /* \"@openzeppelin/contracts/token/ERC721/ERC721.sol\":5255:5294  safeTransferFrom(from, to, tokenId, \"\") */\n      tag_149\n        /* \"@openzeppelin/contracts/token/ERC721/ERC721.sol\":5272:5276  from */\n      dup4\n        /* \"@openzeppelin/contracts/token/ERC721/ERC721.sol\":5278:5280  to */\n      dup4\n        /* \"@openzeppelin/contracts/token/ERC721/ERC721.sol\":5282:5289  tokenId */\n      dup4\n        /* \"@openzeppelin/contracts/token/ERC721/ERC721.sol\":5255:5294  safeTransferFrom(from, to, tokenId, \"\") */\n      mload(0x40)\n      dup1\n      0x20\n      add\n      0x40\n      mstore\n      dup1\n      0x00\n      dup2\n      mstore\n      pop\n        /* \"@openzeppelin/contracts/token/ERC721/ERC721.sol\":5255:5271  safeTransferFrom */\n      tag_103\n        /* \"@openzeppelin/contracts/token/ERC721/ERC721.sol\":5255:5294  safeTransferFrom(from, to, tokenId, \"\") */\n      jump\t// in\n        /* \"@openzeppelin/contracts/token/ERC721/extensions/ERC721Enumerable.sol\":1798:2028  function tokenByIndex(uint256 index) public view virtual override returns (uint256) {... */\n    tag_72:\n        /* \"@openzeppelin/contracts/token/ERC721/extensions/ERC721Enumerable.sol\":1873:1880  uint256 */\n      0x00\n        /* \"@openzeppelin/contracts/token/ERC721/extensions/ERC721Enumerable.sol\":1908:1938  ERC721Enumerable.totalSupply() */\n      tag_187\n        /* \"@openzeppelin/contracts/token/ERC721/extensions/ERC721Enumerable.sol\":1702:1712  _allTokens */\n      0x08\n        /* \"@openzeppelin/contracts/token/ERC721/extensions/ERC721Enumerable.sol\":1702:1719  _allTokens.length */\n      sload\n      swap1\n        /* \"@openzeppelin/contracts/token/ERC721/extensions/ERC721Enumerable.sol\":1615:1726  function totalSupply() public view virtual override returns (uint256) {... */\n      jump\n        /* \"@openzeppelin/contracts/token/ERC721/extensions/ERC721Enumerable.sol\":1908:1938  ERC721Enumerable.totalSupply() */\n    tag_187:\n        /* \"@openzeppelin/contracts/token/ERC721/extensions/ERC721Enumerable.sol\":1900:1905  index */\n      dup3\n        /* \"@openzeppelin/contracts/token/ERC721/extensions/ERC721Enumerable.sol\":1900:1938  index < ERC721Enumerable.totalSupply() */\n      lt\n        /* \"@openzeppelin/contracts/token/ERC721/extensions/ERC721Enumerable.sol\":1892:1987  require(index < ERC721Enumerable.totalSupply(), \"ERC721Enumerable: global index out of bounds\") */\n      tag_188\n      jumpi\n      mload(0x40)\n      shl(0xe5, 0x461bcd)\n      dup2\n      mstore\n        /* \"#utility.yul\":15656:15658   */\n      0x20\n        /* \"@openzeppelin/contracts/token/ERC721/extensions/ERC721Enumerable.sol\":1892:1987  require(index < ERC721Enumerable.totalSupply(), \"ERC721Enumerable: global index out of bounds\") */\n      0x04\n      dup3\n      add\n        /* \"#utility.yul\":15638:15659   */\n      mstore\n        /* \"#utility.yul\":15695:15697   */\n      0x2c\n        /* \"#utility.yul\":15675:15693   */\n      0x24\n      dup3\n      add\n        /* \"#utility.yul\":15668:15698   */\n      mstore\n        /* \"#utility.yul\":15734:15768   */\n      0x455243373231456e756d657261626c653a20676c6f62616c20696e646578206f\n        /* \"#utility.yul\":15714:15732   */\n      0x44\n      dup3\n      add\n        /* \"#utility.yul\":15707:15769   */\n      mstore\n      shl(0xa0, 0x7574206f6620626f756e6473)\n        /* \"#utility.yul\":15785:15803   */\n      0x64\n      dup3\n      add\n        /* \"#utility.yul\":15778:15820   */\n      mstore\n        /* \"#utility.yul\":15837:15856   */\n      0x84\n      add\n        /* \"@openzeppelin/contracts/token/ERC721/extensions/ERC721Enumerable.sol\":1892:1987  require(index < ERC721Enumerable.totalSupply(), \"ERC721Enumerable: global index out of bounds\") */\n      tag_134\n        /* \"#utility.yul\":15628:15862   */\n      jump\n        /* \"@openzeppelin/contracts/token/ERC721/extensions/ERC721Enumerable.sol\":1892:1987  require(index < ERC721Enumerable.totalSupply(), \"ERC721Enumerable: global index out of bounds\") */\n    tag_188:\n        /* \"@openzeppelin/contracts/token/ERC721/extensions/ERC721Enumerable.sol\":2004:2014  _allTokens */\n      0x08\n        /* \"@openzeppelin/contracts/token/ERC721/extensions/ERC721Enumerable.sol\":2015:2020  index */\n      dup3\n        /* \"@openzeppelin/contracts/token/ERC721/extensions/ERC721Enumerable.sol\":2004:2021  _allTokens[index] */\n      dup2\n      sload\n      dup2\n      lt\n      tag_192\n      jumpi\n      tag_192\n      tag_193\n      jump\t// in\n    tag_192:\n      swap1\n      0x00\n      mstore\n      keccak256(0x00, 0x20)\n      add\n      sload\n        /* \"@openzeppelin/contracts/token/ERC721/extensions/ERC721Enumerable.sol\":1997:2021  return _allTokens[index] */\n      swap1\n      pop\n        /* \"@openzeppelin/contracts/token/ERC721/extensions/ERC721Enumerable.sol\":1798:2028  function tokenByIndex(uint256 index) public view virtual override returns (uint256) {... */\n      swap2\n      swap1\n      pop\n      jump\t// out\n        /* \"@openzeppelin/contracts/token/ERC721/ERC721.sol\":2191:2426  function ownerOf(uint256 tokenId) public view virtual override returns (address) {... */\n    tag_76:\n        /* \"@openzeppelin/contracts/token/ERC721/ERC721.sol\":2263:2270  address */\n      0x00\n        /* \"@openzeppelin/contracts/token/ERC721/ERC721.sol\":2298:2314  _owners[tokenId] */\n      dup2\n      dup2\n      mstore\n        /* \"@openzeppelin/contracts/token/ERC721/ERC721.sol\":2298:2305  _owners */\n      0x02\n        /* \"@openzeppelin/contracts/token/ERC721/ERC721.sol\":2298:2314  _owners[tokenId] */\n      0x20\n      mstore\n      0x40\n      dup2\n      keccak256\n      sload\n      sub(shl(0xa0, 0x01), 0x01)\n      and\n        /* \"@openzeppelin/contracts/token/ERC721/ERC721.sol\":2332:2351  owner != address(0) */\n      dup1\n        /* \"@openzeppelin/contracts/token/ERC721/ERC721.sol\":2324:2397  require(owner != address(0), \"ERC721: owner query for nonexistent token\") */\n      tag_121\n      jumpi\n      mload(0x40)\n      shl(0xe5, 0x461bcd)\n      dup2\n      mstore\n        /* \"#utility.yul\":13291:13293   */\n      0x20\n        /* \"@openzeppelin/contracts/token/ERC721/ERC721.sol\":2324:2397  require(owner != address(0), \"ERC721: owner query for nonexistent token\") */\n      0x04\n      dup3\n      add\n        /* \"#utility.yul\":13273:13294   */\n      mstore\n        /* \"#utility.yul\":13330:13332   */\n      0x29\n        /* \"#utility.yul\":13310:13328   */\n      0x24\n      dup3\n      add\n        /* \"#utility.yul\":13303:13333   */\n      mstore\n        /* \"#utility.yul\":13369:13403   */\n      0x4552433732313a206f776e657220717565727920666f72206e6f6e6578697374\n        /* \"#utility.yul\":13349:13367   */\n      0x44\n      dup3\n      add\n        /* \"#utility.yul\":13342:13404   */\n      mstore\n      shl(0xb9, 0x32b73a103a37b5b2b7)\n        /* \"#utility.yul\":13420:13438   */\n      0x64\n      dup3\n      add\n        /* \"#utility.yul\":13413:13452   */\n      mstore\n        /* \"#utility.yul\":13469:13488   */\n      0x84\n      add\n        /* \"@openzeppelin/contracts/token/ERC721/ERC721.sol\":2324:2397  require(owner != address(0), \"ERC721: owner query for nonexistent token\") */\n      tag_134\n        /* \"#utility.yul\":13263:13494   */\n      jump\n        /* \"@openzeppelin/contracts/token/ERC721/ERC721.sol\":1929:2134  function balanceOf(address owner) public view virtual override returns (uint256) {... */\n    tag_81:\n        /* \"@openzeppelin/contracts/token/ERC721/ERC721.sol\":2001:2008  uint256 */\n      0x00\n      sub(shl(0xa0, 0x01), 0x01)\n        /* \"@openzeppelin/contracts/token/ERC721/ERC721.sol\":2028:2047  owner != address(0) */\n      dup3\n      and\n        /* \"@openzeppelin/contracts/token/ERC721/ERC721.sol\":2020:2094  require(owner != address(0), \"ERC721: balance query for the zero address\") */\n      tag_200\n      jumpi\n      mload(0x40)\n      shl(0xe5, 0x461bcd)\n      dup2\n      mstore\n        /* \"#utility.yul\":12880:12882   */\n      0x20\n        /* \"@openzeppelin/contracts/token/ERC721/ERC721.sol\":2020:2094  require(owner != address(0), \"ERC721: balance query for the zero address\") */\n      0x04\n      dup3\n      add\n        /* \"#utility.yul\":12862:12883   */\n      mstore\n        /* \"#utility.yul\":12919:12921   */\n      0x2a\n        /* \"#utility.yul\":12899:12917   */\n      0x24\n      dup3\n      add\n        /* \"#utility.yul\":12892:12922   */\n      mstore\n        /* \"#utility.yul\":12958:12992   */\n      0x4552433732313a2062616c616e636520717565727920666f7220746865207a65\n        /* \"#utility.yul\":12938:12956   */\n      0x44\n      dup3\n      add\n        /* \"#utility.yul\":12931:12993   */\n      mstore\n      shl(0xb0, 0x726f2061646472657373)\n        /* \"#utility.yul\":13009:13027   */\n      0x64\n      dup3\n      add\n        /* \"#utility.yul\":13002:13042   */\n      mstore\n        /* \"#utility.yul\":13059:13078   */\n      0x84\n      add\n        /* \"@openzeppelin/contracts/token/ERC721/ERC721.sol\":2020:2094  require(owner != address(0), \"ERC721: balance query for the zero address\") */\n      tag_134\n        /* \"#utility.yul\":12852:13084   */\n      jump\n        /* \"@openzeppelin/contracts/token/ERC721/ERC721.sol\":2020:2094  require(owner != address(0), \"ERC721: balance query for the zero address\") */\n    tag_200:\n      pop\n      sub(shl(0xa0, 0x01), 0x01)\n        /* \"@openzeppelin/contracts/token/ERC721/ERC721.sol\":2111:2127  _balances[owner] */\n      and\n      0x00\n      swap1\n      dup2\n      mstore\n        /* \"@openzeppelin/contracts/token/ERC721/ERC721.sol\":2111:2120  _balances */\n      0x03\n        /* \"@openzeppelin/contracts/token/ERC721/ERC721.sol\":2111:2127  _balances[owner] */\n      0x20\n      mstore\n      0x40\n      swap1\n      keccak256\n      sload\n      swap1\n        /* \"@openzeppelin/contracts/token/ERC721/ERC721.sol\":1929:2134  function balanceOf(address owner) public view virtual override returns (uint256) {... */\n      jump\t// out\n        /* \"@openzeppelin/contracts/access/Ownable.sol\":1668:1769  function renounceOwnership() public virtual onlyOwner {... */\n    tag_84:\n        /* \"@openzeppelin/contracts/access/Ownable.sol\":1108:1114  _owner */\n      and(sub(shl(0xa0, 0x01), 0x01), sload(0x0a))\n        /* \"@openzeppelin/contracts/utils/Context.sol\":719:729  msg.sender */\n      caller\n        /* \"@openzeppelin/contracts/access/Ownable.sol\":1248:1271  owner() == _msgSender() */\n      eq\n        /* \"@openzeppelin/contracts/access/Ownable.sol\":1240:1308  require(owner() == _msgSender(), \"Ownable: caller is not the owner\") */\n      tag_206\n      jumpi\n      mload(0x40)\n      shl(0xe5, 0x461bcd)\n      dup2\n      mstore\n        /* \"#utility.yul\":14475:14477   */\n      0x20\n        /* \"@openzeppelin/contracts/access/Ownable.sol\":1240:1308  require(owner() == _msgSender(), \"Ownable: caller is not the owner\") */\n      0x04\n      dup3\n      add\n        /* \"#utility.yul\":14457:14478   */\n      dup2\n      swap1\n      mstore\n        /* \"#utility.yul\":14494:14512   */\n      0x24\n      dup3\n      add\n        /* \"#utility.yul\":14487:14517   */\n      mstore\n        /* \"#utility.yul\":14553:14587   */\n      0x4f776e61626c653a2063616c6c6572206973206e6f7420746865206f776e6572\n        /* \"#utility.yul\":14533:14551   */\n      0x44\n      dup3\n      add\n        /* \"#utility.yul\":14526:14588   */\n      mstore\n        /* \"#utility.yul\":14605:14623   */\n      0x64\n      add\n        /* \"@openzeppelin/contracts/access/Ownable.sol\":1240:1308  require(owner() == _msgSender(), \"Ownable: caller is not the owner\") */\n      tag_134\n        /* \"#utility.yul\":14447:14629   */\n      jump\n        /* \"@openzeppelin/contracts/access/Ownable.sol\":1240:1308  require(owner() == _msgSender(), \"Ownable: caller is not the owner\") */\n    tag_206:\n        /* \"@openzeppelin/contracts/access/Ownable.sol\":1732:1762  _transferOwnership(address(0)) */\n      tag_210\n        /* \"@openzeppelin/contracts/access/Ownable.sol\":1759:1760  0 */\n      0x00\n        /* \"@openzeppelin/contracts/access/Ownable.sol\":1732:1750  _transferOwnership */\n      tag_211\n        /* \"@openzeppelin/contracts/access/Ownable.sol\":1732:1762  _transferOwnership(address(0)) */\n      jump\t// in\n    tag_210:\n        /* \"@openzeppelin/contracts/access/Ownable.sol\":1668:1769  function renounceOwnership() public virtual onlyOwner {... */\n      jump\t// out\n        /* \"contracts/TaoNFT.sol\":7314:7655  function tokensOfOwner(address _owner) external view returns (uint[] memory) {\r... */\n    tag_87:\n        /* \"contracts/TaoNFT.sol\":7376:7389  uint[] memory */\n      0x60\n        /* \"contracts/TaoNFT.sol\":7404:7419  uint tokenCount */\n      0x00\n        /* \"contracts/TaoNFT.sol\":7422:7439  balanceOf(_owner) */\n      tag_213\n        /* \"contracts/TaoNFT.sol\":7432:7438  _owner */\n      dup4\n        /* \"contracts/TaoNFT.sol\":7422:7431  balanceOf */\n      tag_81\n        /* \"contracts/TaoNFT.sol\":7422:7439  balanceOf(_owner) */\n      jump\t// in\n    tag_213:\n        /* \"contracts/TaoNFT.sol\":7404:7439  uint tokenCount = balanceOf(_owner) */\n      swap1\n      pop\n        /* \"contracts/TaoNFT.sol\":7450:7472  uint[] memory tokensId */\n      0x00\n        /* \"contracts/TaoNFT.sol\":7489:7499  tokenCount */\n      dup2\n        /* \"contracts/TaoNFT.sol\":7475:7500  new uint256[](tokenCount) */\n      0xffffffffffffffff\n      dup2\n      gt\n      iszero\n      tag_215\n      jumpi\n      tag_215\n      tag_216\n      jump\t// in\n    tag_215:\n      mload(0x40)\n      swap1\n      dup1\n      dup3\n      mstore\n      dup1\n      0x20\n      mul\n      0x20\n      add\n      dup3\n      add\n      0x40\n      mstore\n      dup1\n      iszero\n      tag_217\n      jumpi\n      dup2\n      0x20\n      add\n      0x20\n      dup3\n      mul\n      dup1\n      calldatasize\n      dup4\n      calldatacopy\n      add\n      swap1\n      pop\n    tag_217:\n      pop\n        /* \"contracts/TaoNFT.sol\":7450:7500  uint[] memory tokensId = new uint256[](tokenCount) */\n      swap1\n      pop\n        /* \"contracts/TaoNFT.sol\":7518:7524  uint i */\n      0x00\n        /* \"contracts/TaoNFT.sol\":7513:7622  for (uint i = 0; i < tokenCount; i++) {\r... */\n    tag_218:\n        /* \"contracts/TaoNFT.sol\":7534:7544  tokenCount */\n      dup3\n        /* \"contracts/TaoNFT.sol\":7530:7531  i */\n      dup2\n        /* \"contracts/TaoNFT.sol\":7530:7544  i < tokenCount */\n      lt\n        /* \"contracts/TaoNFT.sol\":7513:7622  for (uint i = 0; i < tokenCount; i++) {\r... */\n      iszero\n      tag_219\n      jumpi\n        /* \"contracts/TaoNFT.sol\":7580:7610  tokenOfOwnerByIndex(_owner, i) */\n      tag_221\n        /* \"contracts/TaoNFT.sol\":7600:7606  _owner */\n      dup6\n        /* \"contracts/TaoNFT.sol\":7608:7609  i */\n      dup3\n        /* \"contracts/TaoNFT.sol\":7580:7599  tokenOfOwnerByIndex */\n      tag_59\n        /* \"contracts/TaoNFT.sol\":7580:7610  tokenOfOwnerByIndex(_owner, i) */\n      jump\t// in\n    tag_221:\n        /* \"contracts/TaoNFT.sol\":7566:7574  tokensId */\n      dup3\n        /* \"contracts/TaoNFT.sol\":7575:7576  i */\n      dup3\n        /* \"contracts/TaoNFT.sol\":7566:7577  tokensId[i] */\n      dup2\n      mload\n      dup2\n      lt\n      tag_223\n      jumpi\n      tag_223\n      tag_193\n      jump\t// in\n    tag_223:\n      0x20\n      swap1\n      dup2\n      mul\n      swap2\n      swap1\n      swap2\n      add\n      add\n        /* \"contracts/TaoNFT.sol\":7566:7610  tokensId[i] = tokenOfOwnerByIndex(_owner, i) */\n      mstore\n        /* \"contracts/TaoNFT.sol\":7546:7549  i++ */\n      dup1\n      tag_224\n      dup2\n      tag_183\n      jump\t// in\n    tag_224:\n      swap2\n      pop\n      pop\n        /* \"contracts/TaoNFT.sol\":7513:7622  for (uint i = 0; i < tokenCount; i++) {\r... */\n      jump(tag_218)\n    tag_219:\n      pop\n        /* \"contracts/TaoNFT.sol\":7639:7647  tokensId */\n      swap4\n        /* \"contracts/TaoNFT.sol\":7314:7655  function tokensOfOwner(address _owner) external view returns (uint[] memory) {\r... */\n      swap3\n      pop\n      pop\n      pop\n      jump\t// out\n        /* \"@openzeppelin/contracts/token/ERC721/ERC721.sol\":2650:2752  function symbol() public view virtual override returns (string memory) {... */\n    tag_94:\n        /* \"@openzeppelin/contracts/token/ERC721/ERC721.sol\":2706:2719  string memory */\n      0x60\n        /* \"@openzeppelin/contracts/token/ERC721/ERC721.sol\":2738:2745  _symbol */\n      0x01\n        /* \"@openzeppelin/contracts/token/ERC721/ERC721.sol\":2731:2745  return _symbol */\n      dup1\n      sload\n      tag_124\n      swap1\n      tag_125\n      jump\t// in\n        /* \"@openzeppelin/contracts/token/ERC721/ERC721.sol\":4283:4436  function setApprovalForAll(address operator, bool approved) public virtual override {... */\n    tag_99:\n        /* \"@openzeppelin/contracts/token/ERC721/ERC721.sol\":4377:4429  _setApprovalForAll(_msgSender(), operator, approved) */\n      tag_233\n        /* \"@openzeppelin/contracts/utils/Context.sol\":719:729  msg.sender */\n      caller\n        /* \"@openzeppelin/contracts/token/ERC721/ERC721.sol\":4410:4418  operator */\n      dup4\n        /* \"@openzeppelin/contracts/token/ERC721/ERC721.sol\":4420:4428  approved */\n      dup4\n        /* \"@openzeppelin/contracts/token/ERC721/ERC721.sol\":4377:4395  _setApprovalForAll */\n      tag_235\n        /* \"@openzeppelin/contracts/token/ERC721/ERC721.sol\":4377:4429  _setApprovalForAll(_msgSender(), operator, approved) */\n      jump\t// in\n    tag_233:\n        /* \"@openzeppelin/contracts/token/ERC721/ERC721.sol\":4283:4436  function setApprovalForAll(address operator, bool approved) public virtual override {... */\n      pop\n      pop\n      jump\t// out\n        /* \"@openzeppelin/contracts/token/ERC721/ERC721.sol\":5367:5687  function safeTransferFrom(... */\n    tag_103:\n        /* \"@openzeppelin/contracts/token/ERC721/ERC721.sol\":5536:5577  _isApprovedOrOwner(_msgSender(), tokenId) */\n      tag_237\n        /* \"@openzeppelin/contracts/utils/Context.sol\":719:729  msg.sender */\n      caller\n        /* \"@openzeppelin/contracts/token/ERC721/ERC721.sol\":5569:5576  tokenId */\n      dup4\n        /* \"@openzeppelin/contracts/token/ERC721/ERC721.sol\":5536:5554  _isApprovedOrOwner */\n      tag_155\n        /* \"@openzeppelin/contracts/token/ERC721/ERC721.sol\":5536:5577  _isApprovedOrOwner(_msgSender(), tokenId) */\n      jump\t// in\n    tag_237:\n        /* \"@openzeppelin/contracts/token/ERC721/ERC721.sol\":5528:5631  require(_isApprovedOrOwner(_msgSender(), tokenId), \"ERC721: transfer caller is not owner nor approved\") */\n      tag_239\n      jumpi\n      mload(0x40)\n      shl(0xe5, 0x461bcd)\n      dup2\n      mstore\n      0x04\n      add\n      tag_134\n      swap1\n      tag_158\n      jump\t// in\n    tag_239:\n        /* \"@openzeppelin/contracts/token/ERC721/ERC721.sol\":5641:5680  _safeTransfer(from, to, tokenId, _data) */\n      tag_241\n        /* \"@openzeppelin/contracts/token/ERC721/ERC721.sol\":5655:5659  from */\n      dup5\n        /* \"@openzeppelin/contracts/token/ERC721/ERC721.sol\":5661:5663  to */\n      dup5\n        /* \"@openzeppelin/contracts/token/ERC721/ERC721.sol\":5665:5672  tokenId */\n      dup5\n        /* \"@openzeppelin/contracts/token/ERC721/ERC721.sol\":5674:5679  _data */\n      dup5\n        /* \"@openzeppelin/contracts/token/ERC721/ERC721.sol\":5641:5654  _safeTransfer */\n      tag_242\n        /* \"@openzeppelin/contracts/token/ERC721/ERC721.sol\":5641:5680  _safeTransfer(from, to, tokenId, _data) */\n      jump\t// in\n    tag_241:\n        /* \"@openzeppelin/contracts/token/ERC721/ERC721.sol\":5367:5687  function safeTransferFrom(... */\n      pop\n      pop\n      pop\n      pop\n      jump\t// out\n        /* \"contracts/TaoNFT.sol\":8275:8690  function tokenURI(uint256 tokenId) override(ERC721) public pure returns (string memory) {\r... */\n    tag_106:\n        /* \"contracts/TaoNFT.sol\":8348:8361  string memory */\n      0x60\n        /* \"contracts/TaoNFT.sol\":8383:8401  string memory json */\n      0x00\n        /* \"contracts/TaoNFT.sol\":8404:8599  Base64.encode(bytes(string(abi.encodePacked('{\"Name\": \"', concatenateName(tokenId), '\", \"description\": \"A Collection of 9 TestNet NFTS for Blockgames\", \"image\": \"', concatenate(tokenId), '\"}')))) */\n      tag_244\n        /* \"contracts/TaoNFT.sol\":8462:8486  concatenateName(tokenId) */\n      tag_245\n        /* \"contracts/TaoNFT.sol\":8478:8485  tokenId */\n      dup5\n        /* \"contracts/TaoNFT.sol\":8462:8477  concatenateName */\n      tag_246\n        /* \"contracts/TaoNFT.sol\":8462:8486  concatenateName(tokenId) */\n      jump\t// in\n    tag_245:\n        /* \"contracts/TaoNFT.sol\":8569:8589  concatenate(tokenId) */\n      tag_247\n        /* \"contracts/TaoNFT.sol\":8581:8588  tokenId */\n      dup6\n        /* \"contracts/TaoNFT.sol\":8569:8580  concatenate */\n      tag_248\n        /* \"contracts/TaoNFT.sol\":8569:8589  concatenate(tokenId) */\n      jump\t// in\n    tag_247:\n        /* \"contracts/TaoNFT.sol\":8431:8596  abi.encodePacked('{\"Name\": \"', concatenateName(tokenId), '\", \"description\": \"A Collection of 9 TestNet NFTS for Blockgames\", \"image\": \"', concatenate(tokenId), '\"}') */\n      add(0x20, mload(0x40))\n      tag_249\n      swap3\n      swap2\n      swap1\n      tag_250\n      jump\t// in\n    tag_249:\n      mload(0x40)\n      0x20\n      dup2\n      dup4\n      sub\n      sub\n      dup2\n      mstore\n      swap1\n      0x40\n      mstore\n        /* \"contracts/TaoNFT.sol\":8404:8417  Base64.encode */\n      tag_251\n        /* \"contracts/TaoNFT.sol\":8404:8599  Base64.encode(bytes(string(abi.encodePacked('{\"Name\": \"', concatenateName(tokenId), '\", \"description\": \"A Collection of 9 TestNet NFTS for Blockgames\", \"image\": \"', concatenate(tokenId), '\"}')))) */\n      jump\t// in\n    tag_244:\n        /* \"contracts/TaoNFT.sol\":8383:8599  string memory json = Base64.encode(bytes(string(abi.encodePacked('{\"Name\": \"', concatenateName(tokenId), '\", \"description\": \"A Collection of 9 TestNet NFTS for Blockgames\", \"image\": \"', concatenate(tokenId), '\"}')))) */\n      swap1\n      pop\n        /* \"contracts/TaoNFT.sol\":8676:8680  json */\n      dup1\n        /* \"contracts/TaoNFT.sol\":8626:8681  abi.encodePacked('data:application/json;base64,', json) */\n      add(0x20, mload(0x40))\n      tag_252\n      swap2\n      swap1\n      tag_253\n      jump\t// in\n    tag_252:\n      mload(0x40)\n      0x20\n      dup2\n      dup4\n      sub\n      sub\n      dup2\n      mstore\n      swap1\n      0x40\n      mstore\n        /* \"contracts/TaoNFT.sol\":8612:8682  return string(abi.encodePacked('data:application/json;base64,', json)) */\n      swap2\n      pop\n      pop\n        /* \"contracts/TaoNFT.sol\":8275:8690  function tokenURI(uint256 tokenId) override(ERC721) public pure returns (string memory) {\r... */\n      swap2\n      swap1\n      pop\n      jump\t// out\n        /* \"contracts/TaoNFT.sol\":5371:5397  string public baseTokenURI */\n    tag_109:\n      0x0c\n      dup1\n      sload\n      tag_254\n      swap1\n      tag_125\n      jump\t// in\n    tag_254:\n      dup1\n      0x1f\n      add\n      0x20\n      dup1\n      swap2\n      div\n      mul\n      0x20\n      add\n      mload(0x40)\n      swap1\n      dup2\n      add\n      0x40\n      mstore\n      dup1\n      swap3\n      swap2\n      swap1\n      dup2\n      dup2\n      mstore\n      0x20\n      add\n      dup3\n      dup1\n      sload\n      tag_255\n      swap1\n      tag_125\n      jump\t// in\n    tag_255:\n      dup1\n      iszero\n      tag_256\n      jumpi\n      dup1\n      0x1f\n      lt\n      tag_257\n      jumpi\n      0x0100\n      dup1\n      dup4\n      sload\n      div\n      mul\n      dup4\n      mstore\n      swap2\n      0x20\n      add\n      swap2\n      jump(tag_256)\n    tag_257:\n      dup3\n      add\n      swap2\n      swap1\n      0x00\n      mstore\n      keccak256(0x00, 0x20)\n      swap1\n    tag_258:\n      dup2\n      sload\n      dup2\n      mstore\n      swap1\n      0x01\n      add\n      swap1\n      0x20\n      add\n      dup1\n      dup4\n      gt\n      tag_258\n      jumpi\n      dup3\n      swap1\n      sub\n      0x1f\n      and\n      dup3\n      add\n      swap2\n    tag_256:\n      pop\n      pop\n      pop\n      pop\n      pop\n      dup2\n      jump\t// out\n        /* \"@openzeppelin/contracts/access/Ownable.sol\":1918:2116  function transferOwnership(address newOwner) public virtual onlyOwner {... */\n    tag_118:\n        /* \"@openzeppelin/contracts/access/Ownable.sol\":1108:1114  _owner */\n      and(sub(shl(0xa0, 0x01), 0x01), sload(0x0a))\n        /* \"@openzeppelin/contracts/utils/Context.sol\":719:729  msg.sender */\n      caller\n        /* \"@openzeppelin/contracts/access/Ownable.sol\":1248:1271  owner() == _msgSender() */\n      eq\n        /* \"@openzeppelin/contracts/access/Ownable.sol\":1240:1308  require(owner() == _msgSender(), \"Ownable: caller is not the owner\") */\n      tag_263\n      jumpi\n      mload(0x40)\n      shl(0xe5, 0x461bcd)\n      dup2\n      mstore\n        /* \"#utility.yul\":14475:14477   */\n      0x20\n        /* \"@openzeppelin/contracts/access/Ownable.sol\":1240:1308  require(owner() == _msgSender(), \"Ownable: caller is not the owner\") */\n      0x04\n      dup3\n      add\n        /* \"#utility.yul\":14457:14478   */\n      dup2\n      swap1\n      mstore\n        /* \"#utility.yul\":14494:14512   */\n      0x24\n      dup3\n      add\n        /* \"#utility.yul\":14487:14517   */\n      mstore\n        /* \"#utility.yul\":14553:14587   */\n      0x4f776e61626c653a2063616c6c6572206973206e6f7420746865206f776e6572\n        /* \"#utility.yul\":14533:14551   */\n      0x44\n      dup3\n      add\n        /* \"#utility.yul\":14526:14588   */\n      mstore\n        /* \"#utility.yul\":14605:14623   */\n      0x64\n      add\n        /* \"@openzeppelin/contracts/access/Ownable.sol\":1240:1308  require(owner() == _msgSender(), \"Ownable: caller is not the owner\") */\n      tag_134\n        /* \"#utility.yul\":14447:14629   */\n      jump\n        /* \"@openzeppelin/contracts/access/Ownable.sol\":1240:1308  require(owner() == _msgSender(), \"Ownable: caller is not the owner\") */\n    tag_263:\n      sub(shl(0xa0, 0x01), 0x01)\n        /* \"@openzeppelin/contracts/access/Ownable.sol\":2006:2028  newOwner != address(0) */\n      dup2\n      and\n        /* \"@openzeppelin/contracts/access/Ownable.sol\":1998:2071  require(newOwner != address(0), \"Ownable: new owner is the zero address\") */\n      tag_266\n      jumpi\n      mload(0x40)\n      shl(0xe5, 0x461bcd)\n      dup2\n      mstore\n        /* \"#utility.yul\":9357:9359   */\n      0x20\n        /* \"@openzeppelin/contracts/access/Ownable.sol\":1998:2071  require(newOwner != address(0), \"Ownable: new owner is the zero address\") */\n      0x04\n      dup3\n      add\n        /* \"#utility.yul\":9339:9360   */\n      mstore\n        /* \"#utility.yul\":9396:9398   */\n      0x26\n        /* \"#utility.yul\":9376:9394   */\n      0x24\n      dup3\n      add\n        /* \"#utility.yul\":9369:9399   */\n      mstore\n        /* \"#utility.yul\":9435:9469   */\n      0x4f776e61626c653a206e6577206f776e657220697320746865207a65726f2061\n        /* \"#utility.yul\":9415:9433   */\n      0x44\n      dup3\n      add\n        /* \"#utility.yul\":9408:9470   */\n      mstore\n      shl(0xd0, 0x646472657373)\n        /* \"#utility.yul\":9486:9504   */\n      0x64\n      dup3\n      add\n        /* \"#utility.yul\":9479:9515   */\n      mstore\n        /* \"#utility.yul\":9532:9551   */\n      0x84\n      add\n        /* \"@openzeppelin/contracts/access/Ownable.sol\":1998:2071  require(newOwner != address(0), \"Ownable: new owner is the zero address\") */\n      tag_134\n        /* \"#utility.yul\":9329:9557   */\n      jump\n        /* \"@openzeppelin/contracts/access/Ownable.sol\":1998:2071  require(newOwner != address(0), \"Ownable: new owner is the zero address\") */\n    tag_266:\n        /* \"@openzeppelin/contracts/access/Ownable.sol\":2081:2109  _transferOwnership(newOwner) */\n      tag_269\n        /* \"@openzeppelin/contracts/access/Ownable.sol\":2100:2108  newOwner */\n      dup2\n        /* \"@openzeppelin/contracts/access/Ownable.sol\":2081:2099  _transferOwnership */\n      tag_211\n        /* \"@openzeppelin/contracts/access/Ownable.sol\":2081:2109  _transferOwnership(newOwner) */\n      jump\t// in\n    tag_269:\n        /* \"@openzeppelin/contracts/access/Ownable.sol\":1918:2116  function transferOwnership(address newOwner) public virtual onlyOwner {... */\n      pop\n      jump\t// out\n        /* \"@openzeppelin/contracts/token/ERC721/ERC721.sol\":1570:1870  function supportsInterface(bytes4 interfaceId) public view virtual override(ERC165, IERC165) returns (bool) {... */\n    tag_122:\n        /* \"@openzeppelin/contracts/token/ERC721/ERC721.sol\":1672:1676  bool */\n      0x00\n      not(sub(shl(0xe0, 0x01), 0x01))\n        /* \"@openzeppelin/contracts/token/ERC721/ERC721.sol\":1707:1747  interfaceId == type(IERC721).interfaceId */\n      dup3\n      and\n      shl(0xe0, 0x80ac58cd)\n      eq\n      dup1\n        /* \"@openzeppelin/contracts/token/ERC721/ERC721.sol\":1707:1811  interfaceId == type(IERC721).interfaceId ||... */\n      tag_271\n      jumpi\n      pop\n      not(sub(shl(0xe0, 0x01), 0x01))\n        /* \"@openzeppelin/contracts/token/ERC721/ERC721.sol\":1763:1811  interfaceId == type(IERC721Metadata).interfaceId */\n      dup3\n      and\n      shl(0xe0, 0x5b5e139f)\n      eq\n        /* \"@openzeppelin/contracts/token/ERC721/ERC721.sol\":1707:1811  interfaceId == type(IERC721).interfaceId ||... */\n    tag_271:\n        /* \"@openzeppelin/contracts/token/ERC721/ERC721.sol\":1707:1863  interfaceId == type(IERC721).interfaceId ||... */\n      dup1\n      tag_121\n      jumpi\n      pop\n      shl(0xe0, 0x01ffc9a7)\n      not(sub(shl(0xe0, 0x01), 0x01))\n        /* \"@openzeppelin/contracts/utils/introspection/ERC165.sol\":937:977  interfaceId == type(IERC165).interfaceId */\n      dup4\n      and\n      eq\n        /* \"@openzeppelin/contracts/token/ERC721/ERC721.sol\":1827:1863  super.supportsInterface(interfaceId) */\n      tag_121\n        /* \"@openzeppelin/contracts/utils/introspection/ERC165.sol\":829:984  function supportsInterface(bytes4 interfaceId) public view virtual override returns (bool) {... */\n      jump\n        /* \"@openzeppelin/contracts/token/ERC721/ERC721.sol\":11168:11339  function _approve(address to, uint256 tokenId) internal virtual {... */\n    tag_150:\n        /* \"@openzeppelin/contracts/token/ERC721/ERC721.sol\":11242:11266  _tokenApprovals[tokenId] */\n      0x00\n      dup2\n      dup2\n      mstore\n        /* \"@openzeppelin/contracts/token/ERC721/ERC721.sol\":11242:11257  _tokenApprovals */\n      0x04\n        /* \"@openzeppelin/contracts/token/ERC721/ERC721.sol\":11242:11266  _tokenApprovals[tokenId] */\n      0x20\n      mstore\n      0x40\n      swap1\n      keccak256\n        /* \"@openzeppelin/contracts/token/ERC721/ERC721.sol\":11242:11271  _tokenApprovals[tokenId] = to */\n      dup1\n      sload\n      not(sub(shl(0xa0, 0x01), 0x01))\n      and\n      sub(shl(0xa0, 0x01), 0x01)\n      dup5\n      and\n      swap1\n      dup2\n      or\n      swap1\n      swap2\n      sstore\n        /* \"@openzeppelin/contracts/token/ERC721/ERC721.sol\":11242:11266  _tokenApprovals[tokenId] */\n      dup2\n      swap1\n        /* \"@openzeppelin/contracts/token/ERC721/ERC721.sol\":11295:11318  ERC721.ownerOf(tokenId) */\n      tag_278\n        /* \"@openzeppelin/contracts/token/ERC721/ERC721.sol\":11242:11266  _tokenApprovals[tokenId] */\n      dup3\n        /* \"@openzeppelin/contracts/token/ERC721/ERC721.sol\":11295:11309  ERC721.ownerOf */\n      tag_76\n        /* \"@openzeppelin/contracts/token/ERC721/ERC721.sol\":11295:11318  ERC721.ownerOf(tokenId) */\n      jump\t// in\n    tag_278:\n      sub(shl(0xa0, 0x01), 0x01)\n        /* \"@openzeppelin/contracts/token/ERC721/ERC721.sol\":11286:11332  Approval(ERC721.ownerOf(tokenId), to, tokenId) */\n      and\n      0x8c5be1e5ebec7d5bd14f71427d1e84f3dd0314c0f7b2291e5b200ac8c7c3b925\n      mload(0x40)\n      mload(0x40)\n      dup1\n      swap2\n      sub\n      swap1\n      log4\n        /* \"@openzeppelin/contracts/token/ERC721/ERC721.sol\":11168:11339  function _approve(address to, uint256 tokenId) internal virtual {... */\n      pop\n      pop\n      jump\t// out\n        /* \"@openzeppelin/contracts/token/ERC721/ERC721.sol\":7442:7786  function _isApprovedOrOwner(address spender, uint256 tokenId) internal view virtual returns (bool) {... */\n    tag_155:\n        /* \"@openzeppelin/contracts/token/ERC721/ERC721.sol\":7535:7539  bool */\n      0x00\n        /* \"@openzeppelin/contracts/token/ERC721/ERC721.sol\":7247:7263  _owners[tokenId] */\n      dup2\n      dup2\n      mstore\n        /* \"@openzeppelin/contracts/token/ERC721/ERC721.sol\":7247:7254  _owners */\n      0x02\n        /* \"@openzeppelin/contracts/token/ERC721/ERC721.sol\":7247:7263  _owners[tokenId] */\n      0x20\n      mstore\n      0x40\n      dup2\n      keccak256\n      sload\n      sub(shl(0xa0, 0x01), 0x01)\n      and\n        /* \"@openzeppelin/contracts/token/ERC721/ERC721.sol\":7551:7624  require(_exists(tokenId), \"ERC721: operator query for nonexistent token\") */\n      tag_281\n      jumpi\n      mload(0x40)\n      shl(0xe5, 0x461bcd)\n      dup2\n      mstore\n        /* \"#utility.yul\":12042:12044   */\n      0x20\n        /* \"@openzeppelin/contracts/token/ERC721/ERC721.sol\":7551:7624  require(_exists(tokenId), \"ERC721: operator query for nonexistent token\") */\n      0x04\n      dup3\n      add\n        /* \"#utility.yul\":12024:12045   */\n      mstore\n        /* \"#utility.yul\":12081:12083   */\n      0x2c\n        /* \"#utility.yul\":12061:12079   */\n      0x24\n      dup3\n      add\n        /* \"#utility.yul\":12054:12084   */\n      mstore\n        /* \"#utility.yul\":12120:12154   */\n      0x4552433732313a206f70657261746f7220717565727920666f72206e6f6e6578\n        /* \"#utility.yul\":12100:12118   */\n      0x44\n      dup3\n      add\n        /* \"#utility.yul\":12093:12155   */\n      mstore\n      shl(0xa1, 0x34b9ba32b73a103a37b5b2b7)\n        /* \"#utility.yul\":12171:12189   */\n      0x64\n      dup3\n      add\n        /* \"#utility.yul\":12164:12206   */\n      mstore\n        /* \"#utility.yul\":12223:12242   */\n      0x84\n      add\n        /* \"@openzeppelin/contracts/token/ERC721/ERC721.sol\":7551:7624  require(_exists(tokenId), \"ERC721: operator query for nonexistent token\") */\n      tag_134\n        /* \"#utility.yul\":12014:12248   */\n      jump\n        /* \"@openzeppelin/contracts/token/ERC721/ERC721.sol\":7551:7624  require(_exists(tokenId), \"ERC721: operator query for nonexistent token\") */\n    tag_281:\n        /* \"@openzeppelin/contracts/token/ERC721/ERC721.sol\":7634:7647  address owner */\n      0x00\n        /* \"@openzeppelin/contracts/token/ERC721/ERC721.sol\":7650:7673  ERC721.ownerOf(tokenId) */\n      tag_284\n        /* \"@openzeppelin/contracts/token/ERC721/ERC721.sol\":7665:7672  tokenId */\n      dup4\n        /* \"@openzeppelin/contracts/token/ERC721/ERC721.sol\":7650:7664  ERC721.ownerOf */\n      tag_76\n        /* \"@openzeppelin/contracts/token/ERC721/ERC721.sol\":7650:7673  ERC721.ownerOf(tokenId) */\n      jump\t// in\n    tag_284:\n        /* \"@openzeppelin/contracts/token/ERC721/ERC721.sol\":7634:7673  address owner = ERC721.ownerOf(tokenId) */\n      swap1\n      pop\n        /* \"@openzeppelin/contracts/token/ERC721/ERC721.sol\":7702:7707  owner */\n      dup1\n      sub(shl(0xa0, 0x01), 0x01)\n        /* \"@openzeppelin/contracts/token/ERC721/ERC721.sol\":7691:7707  spender == owner */\n      and\n        /* \"@openzeppelin/contracts/token/ERC721/ERC721.sol\":7691:7698  spender */\n      dup5\n      sub(shl(0xa0, 0x01), 0x01)\n        /* \"@openzeppelin/contracts/token/ERC721/ERC721.sol\":7691:7707  spender == owner */\n      and\n      eq\n        /* \"@openzeppelin/contracts/token/ERC721/ERC721.sol\":7691:7742  spender == owner || getApproved(tokenId) == spender */\n      dup1\n      tag_285\n      jumpi\n      pop\n        /* \"@openzeppelin/contracts/token/ERC721/ERC721.sol\":7735:7742  spender */\n      dup4\n      sub(shl(0xa0, 0x01), 0x01)\n        /* \"@openzeppelin/contracts/token/ERC721/ERC721.sol\":7711:7742  getApproved(tokenId) == spender */\n      and\n        /* \"@openzeppelin/contracts/token/ERC721/ERC721.sol\":7711:7731  getApproved(tokenId) */\n      tag_286\n        /* \"@openzeppelin/contracts/token/ERC721/ERC721.sol\":7723:7730  tokenId */\n      dup5\n        /* \"@openzeppelin/contracts/token/ERC721/ERC721.sol\":7711:7722  getApproved */\n      tag_42\n        /* \"@openzeppelin/contracts/token/ERC721/ERC721.sol\":7711:7731  getApproved(tokenId) */\n      jump\t// in\n    tag_286:\n      sub(shl(0xa0, 0x01), 0x01)\n        /* \"@openzeppelin/contracts/token/ERC721/ERC721.sol\":7711:7742  getApproved(tokenId) == spender */\n      and\n      eq\n        /* \"@openzeppelin/contracts/token/ERC721/ERC721.sol\":7691:7742  spender == owner || getApproved(tokenId) == spender */\n    tag_285:\n        /* \"@openzeppelin/contracts/token/ERC721/ERC721.sol\":7691:7778  spender == owner || getApproved(tokenId) == spender || isApprovedForAll(owner, spender) */\n      dup1\n      tag_288\n      jumpi\n      pop\n      sub(shl(0xa0, 0x01), 0x01)\n        /* \"@openzeppelin/contracts/token/ERC721/ERC721.sol\":4622:4647  _operatorApprovals[owner] */\n      dup1\n      dup3\n      and\n        /* \"@openzeppelin/contracts/token/ERC721/ERC721.sol\":4599:4603  bool */\n      0x00\n        /* \"@openzeppelin/contracts/token/ERC721/ERC721.sol\":4622:4647  _operatorApprovals[owner] */\n      swap1\n      dup2\n      mstore\n        /* \"@openzeppelin/contracts/token/ERC721/ERC721.sol\":4622:4640  _operatorApprovals */\n      0x05\n        /* \"@openzeppelin/contracts/token/ERC721/ERC721.sol\":4622:4647  _operatorApprovals[owner] */\n      0x20\n      swap1\n      dup2\n      mstore\n      0x40\n      dup1\n      dup4\n      keccak256\n        /* \"@openzeppelin/contracts/token/ERC721/ERC721.sol\":4622:4657  _operatorApprovals[owner][operator] */\n      swap4\n      dup9\n      and\n      dup4\n      mstore\n      swap3\n      swap1\n      mstore\n      keccak256\n      sload\n      0xff\n      and\n        /* \"@openzeppelin/contracts/token/ERC721/ERC721.sol\":7746:7778  isApprovedForAll(owner, spender) */\n    tag_288:\n        /* \"@openzeppelin/contracts/token/ERC721/ERC721.sol\":7683:7779  return (spender == owner || getApproved(tokenId) == spender || isApprovedForAll(owner, spender)) */\n      swap5\n        /* \"@openzeppelin/contracts/token/ERC721/ERC721.sol\":7442:7786  function _isApprovedOrOwner(address spender, uint256 tokenId) internal view virtual returns (bool) {... */\n      swap4\n      pop\n      pop\n      pop\n      pop\n      jump\t// out\n        /* \"@openzeppelin/contracts/token/ERC721/ERC721.sol\":10452:11057  function _transfer(... */\n    tag_160:\n        /* \"@openzeppelin/contracts/token/ERC721/ERC721.sol\":10606:10610  from */\n      dup3\n      sub(shl(0xa0, 0x01), 0x01)\n        /* \"@openzeppelin/contracts/token/ERC721/ERC721.sol\":10579:10610  ERC721.ownerOf(tokenId) == from */\n      and\n        /* \"@openzeppelin/contracts/token/ERC721/ERC721.sol\":10579:10602  ERC721.ownerOf(tokenId) */\n      tag_290\n        /* \"@openzeppelin/contracts/token/ERC721/ERC721.sol\":10594:10601  tokenId */\n      dup3\n        /* \"@openzeppelin/contracts/token/ERC721/ERC721.sol\":10579:10593  ERC721.ownerOf */\n      tag_76\n        /* \"@openzeppelin/contracts/token/ERC721/ERC721.sol\":10579:10602  ERC721.ownerOf(tokenId) */\n      jump\t// in\n    tag_290:\n      sub(shl(0xa0, 0x01), 0x01)\n        /* \"@openzeppelin/contracts/token/ERC721/ERC721.sol\":10579:10610  ERC721.ownerOf(tokenId) == from */\n      and\n      eq\n        /* \"@openzeppelin/contracts/token/ERC721/ERC721.sol\":10571:10652  require(ERC721.ownerOf(tokenId) == from, \"ERC721: transfer from incorrect owner\") */\n      tag_291\n      jumpi\n      mload(0x40)\n      shl(0xe5, 0x461bcd)\n      dup2\n      mstore\n        /* \"#utility.yul\":9764:9766   */\n      0x20\n        /* \"@openzeppelin/contracts/token/ERC721/ERC721.sol\":10571:10652  require(ERC721.ownerOf(tokenId) == from, \"ERC721: transfer from incorrect owner\") */\n      0x04\n      dup3\n      add\n        /* \"#utility.yul\":9746:9767   */\n      mstore\n        /* \"#utility.yul\":9803:9805   */\n      0x25\n        /* \"#utility.yul\":9783:9801   */\n      0x24\n      dup3\n      add\n        /* \"#utility.yul\":9776:9806   */\n      mstore\n        /* \"#utility.yul\":9842:9876   */\n      0x4552433732313a207472616e736665722066726f6d20696e636f727265637420\n        /* \"#utility.yul\":9822:9840   */\n      0x44\n      dup3\n      add\n        /* \"#utility.yul\":9815:9877   */\n      mstore\n      shl(0xd9, 0x37bbb732b9)\n        /* \"#utility.yul\":9893:9911   */\n      0x64\n      dup3\n      add\n        /* \"#utility.yul\":9886:9921   */\n      mstore\n        /* \"#utility.yul\":9938:9957   */\n      0x84\n      add\n        /* \"@openzeppelin/contracts/token/ERC721/ERC721.sol\":10571:10652  require(ERC721.ownerOf(tokenId) == from, \"ERC721: transfer from incorrect owner\") */\n      tag_134\n        /* \"#utility.yul\":9736:9963   */\n      jump\n        /* \"@openzeppelin/contracts/token/ERC721/ERC721.sol\":10571:10652  require(ERC721.ownerOf(tokenId) == from, \"ERC721: transfer from incorrect owner\") */\n    tag_291:\n      sub(shl(0xa0, 0x01), 0x01)\n        /* \"@openzeppelin/contracts/token/ERC721/ERC721.sol\":10670:10686  to != address(0) */\n      dup3\n      and\n        /* \"@openzeppelin/contracts/token/ERC721/ERC721.sol\":10662:10727  require(to != address(0), \"ERC721: transfer to the zero address\") */\n      tag_294\n      jumpi\n      mload(0x40)\n      shl(0xe5, 0x461bcd)\n      dup2\n      mstore\n        /* \"#utility.yul\":10527:10529   */\n      0x20\n        /* \"@openzeppelin/contracts/token/ERC721/ERC721.sol\":10662:10727  require(to != address(0), \"ERC721: transfer to the zero address\") */\n      0x04\n      dup3\n      add\n        /* \"#utility.yul\":10509:10530   */\n      mstore\n        /* \"#utility.yul\":10566:10568   */\n      0x24\n        /* \"#utility.yul\":10546:10564   */\n      dup1\n      dup3\n      add\n        /* \"#utility.yul\":10539:10569   */\n      mstore\n        /* \"#utility.yul\":10605:10639   */\n      0x4552433732313a207472616e7366657220746f20746865207a65726f20616464\n        /* \"#utility.yul\":10585:10603   */\n      0x44\n      dup3\n      add\n        /* \"#utility.yul\":10578:10640   */\n      mstore\n      shl(0xe0, 0x72657373)\n        /* \"#utility.yul\":10656:10674   */\n      0x64\n      dup3\n      add\n        /* \"#utility.yul\":10649:10683   */\n      mstore\n        /* \"#utility.yul\":10700:10719   */\n      0x84\n      add\n        /* \"@openzeppelin/contracts/token/ERC721/ERC721.sol\":10662:10727  require(to != address(0), \"ERC721: transfer to the zero address\") */\n      tag_134\n        /* \"#utility.yul\":10499:10725   */\n      jump\n        /* \"@openzeppelin/contracts/token/ERC721/ERC721.sol\":10662:10727  require(to != address(0), \"ERC721: transfer to the zero address\") */\n    tag_294:\n        /* \"@openzeppelin/contracts/token/ERC721/ERC721.sol\":10738:10777  _beforeTokenTransfer(from, to, tokenId) */\n      tag_297\n        /* \"@openzeppelin/contracts/token/ERC721/ERC721.sol\":10759:10763  from */\n      dup4\n        /* \"@openzeppelin/contracts/token/ERC721/ERC721.sol\":10765:10767  to */\n      dup4\n        /* \"@openzeppelin/contracts/token/ERC721/ERC721.sol\":10769:10776  tokenId */\n      dup4\n        /* \"@openzeppelin/contracts/token/ERC721/ERC721.sol\":10738:10758  _beforeTokenTransfer */\n      tag_298\n        /* \"@openzeppelin/contracts/token/ERC721/ERC721.sol\":10738:10777  _beforeTokenTransfer(from, to, tokenId) */\n      jump\t// in\n    tag_297:\n        /* \"@openzeppelin/contracts/token/ERC721/ERC721.sol\":10839:10868  _approve(address(0), tokenId) */\n      tag_299\n        /* \"@openzeppelin/contracts/token/ERC721/ERC721.sol\":10856:10857  0 */\n      0x00\n        /* \"@openzeppelin/contracts/token/ERC721/ERC721.sol\":10860:10867  tokenId */\n      dup3\n        /* \"@openzeppelin/contracts/token/ERC721/ERC721.sol\":10839:10847  _approve */\n      tag_150\n        /* \"@openzeppelin/contracts/token/ERC721/ERC721.sol\":10839:10868  _approve(address(0), tokenId) */\n      jump\t// in\n    tag_299:\n      sub(shl(0xa0, 0x01), 0x01)\n        /* \"@openzeppelin/contracts/token/ERC721/ERC721.sol\":10879:10894  _balances[from] */\n      dup4\n      and\n      0x00\n      swap1\n      dup2\n      mstore\n        /* \"@openzeppelin/contracts/token/ERC721/ERC721.sol\":10879:10888  _balances */\n      0x03\n        /* \"@openzeppelin/contracts/token/ERC721/ERC721.sol\":10879:10894  _balances[from] */\n      0x20\n      mstore\n      0x40\n      dup2\n      keccak256\n        /* \"@openzeppelin/contracts/token/ERC721/ERC721.sol\":10879:10899  _balances[from] -= 1 */\n      dup1\n      sload\n        /* \"@openzeppelin/contracts/token/ERC721/ERC721.sol\":10898:10899  1 */\n      0x01\n      swap3\n        /* \"@openzeppelin/contracts/token/ERC721/ERC721.sol\":10879:10894  _balances[from] */\n      swap1\n        /* \"@openzeppelin/contracts/token/ERC721/ERC721.sol\":10879:10899  _balances[from] -= 1 */\n      tag_300\n      swap1\n        /* \"@openzeppelin/contracts/token/ERC721/ERC721.sol\":10898:10899  1 */\n      dup5\n      swap1\n        /* \"@openzeppelin/contracts/token/ERC721/ERC721.sol\":10879:10899  _balances[from] -= 1 */\n      tag_301\n      jump\t// in\n    tag_300:\n      swap1\n      swap2\n      sstore\n      pop\n      pop\n      sub(shl(0xa0, 0x01), 0x01)\n        /* \"@openzeppelin/contracts/token/ERC721/ERC721.sol\":10909:10922  _balances[to] */\n      dup3\n      and\n      0x00\n      swap1\n      dup2\n      mstore\n        /* \"@openzeppelin/contracts/token/ERC721/ERC721.sol\":10909:10918  _balances */\n      0x03\n        /* \"@openzeppelin/contracts/token/ERC721/ERC721.sol\":10909:10922  _balances[to] */\n      0x20\n      mstore\n      0x40\n      dup2\n      keccak256\n        /* \"@openzeppelin/contracts/token/ERC721/ERC721.sol\":10909:10927  _balances[to] += 1 */\n      dup1\n      sload\n        /* \"@openzeppelin/contracts/token/ERC721/ERC721.sol\":10926:10927  1 */\n      0x01\n      swap3\n        /* \"@openzeppelin/contracts/token/ERC721/ERC721.sol\":10909:10922  _balances[to] */\n      swap1\n        /* \"@openzeppelin/contracts/token/ERC721/ERC721.sol\":10909:10927  _balances[to] += 1 */\n      tag_302\n      swap1\n        /* \"@openzeppelin/contracts/token/ERC721/ERC721.sol\":10926:10927  1 */\n      dup5\n      swap1\n        /* \"@openzeppelin/contracts/token/ERC721/ERC721.sol\":10909:10927  _balances[to] += 1 */\n      tag_303\n      jump\t// in\n    tag_302:\n      swap1\n      swap2\n      sstore\n      pop\n      pop\n        /* \"@openzeppelin/contracts/token/ERC721/ERC721.sol\":10937:10953  _owners[tokenId] */\n      0x00\n      dup2\n      dup2\n      mstore\n        /* \"@openzeppelin/contracts/token/ERC721/ERC721.sol\":10937:10944  _owners */\n      0x02\n        /* \"@openzeppelin/contracts/token/ERC721/ERC721.sol\":10937:10953  _owners[tokenId] */\n      0x20\n      mstore\n      0x40\n      dup1\n      dup3\n      keccak256\n        /* \"@openzeppelin/contracts/token/ERC721/ERC721.sol\":10937:10958  _owners[tokenId] = to */\n      dup1\n      sload\n      not(sub(shl(0xa0, 0x01), 0x01))\n      and\n      sub(shl(0xa0, 0x01), 0x01)\n      dup7\n      dup2\n      and\n      swap2\n      dup3\n      or\n      swap1\n      swap3\n      sstore\n        /* \"@openzeppelin/contracts/token/ERC721/ERC721.sol\":10974:11001  Transfer(from, to, tokenId) */\n      swap2\n      mload\n        /* \"@openzeppelin/contracts/token/ERC721/ERC721.sol\":10937:10953  _owners[tokenId] */\n      dup5\n      swap4\n        /* \"@openzeppelin/contracts/token/ERC721/ERC721.sol\":10974:11001  Transfer(from, to, tokenId) */\n      swap2\n      dup8\n      and\n      swap2\n      0xddf252ad1be2c89b69c2b068fc378daa952ba7f163c4a11628f55a4df523b3ef\n      swap2\n      log4\n        /* \"@openzeppelin/contracts/token/ERC721/ERC721.sol\":3607:3938  {... */\n      pop\n        /* \"@openzeppelin/contracts/token/ERC721/ERC721.sol\":3537:3938  function approve(address to, uint256 tokenId) public virtual override {... */\n      pop\n      pop\n      jump\t// out\n        /* \"@openzeppelin/contracts/utils/math/SafeMath.sol\":2741:2837  function add(uint256 a, uint256 b) internal pure returns (uint256) {... */\n    tag_170:\n        /* \"@openzeppelin/contracts/utils/math/SafeMath.sol\":2799:2806  uint256 */\n      0x00\n        /* \"@openzeppelin/contracts/utils/math/SafeMath.sol\":2825:2830  a + b */\n      tag_308\n        /* \"@openzeppelin/contracts/utils/math/SafeMath.sol\":2829:2830  b */\n      dup3\n        /* \"@openzeppelin/contracts/utils/math/SafeMath.sol\":2825:2826  a */\n      dup5\n        /* \"@openzeppelin/contracts/utils/math/SafeMath.sol\":2825:2830  a + b */\n      tag_303\n      jump\t// in\n    tag_308:\n        /* \"@openzeppelin/contracts/utils/math/SafeMath.sol\":2818:2830  return a + b */\n      swap4\n        /* \"@openzeppelin/contracts/utils/math/SafeMath.sol\":2741:2837  function add(uint256 a, uint256 b) internal pure returns (uint256) {... */\n      swap3\n      pop\n      pop\n      pop\n      jump\t// out\n        /* \"contracts/TaoNFT.sol\":7136:7302  function _mintSingleNFT() private {\r... */\n    tag_181:\n        /* \"contracts/TaoNFT.sol\":7181:7196  uint newTokenID */\n      0x00\n        /* \"contracts/TaoNFT.sol\":7199:7218  _tokenIds.current() */\n      tag_310\n        /* \"contracts/TaoNFT.sol\":7199:7208  _tokenIds */\n      0x0b\n        /* \"@openzeppelin/contracts/utils/Counters.sol\":918:932  counter._value */\n      sload\n      swap1\n        /* \"@openzeppelin/contracts/utils/Counters.sol\":827:939  function current(Counter storage counter) internal view returns (uint256) {... */\n      jump\n        /* \"contracts/TaoNFT.sol\":7199:7218  _tokenIds.current() */\n    tag_310:\n        /* \"contracts/TaoNFT.sol\":7181:7218  uint newTokenID = _tokenIds.current() */\n      swap1\n      pop\n        /* \"contracts/TaoNFT.sol\":7229:7262  _safeMint(msg.sender, newTokenID) */\n      tag_311\n        /* \"contracts/TaoNFT.sol\":7239:7249  msg.sender */\n      caller\n        /* \"contracts/TaoNFT.sol\":7251:7261  newTokenID */\n      dup3\n        /* \"contracts/TaoNFT.sol\":7229:7238  _safeMint */\n      tag_312\n        /* \"contracts/TaoNFT.sol\":7229:7262  _safeMint(msg.sender, newTokenID) */\n      jump\t// in\n    tag_311:\n        /* \"contracts/TaoNFT.sol\":7273:7294  _tokenIds.increment() */\n      tag_269\n        /* \"contracts/TaoNFT.sol\":7273:7282  _tokenIds */\n      0x0b\n        /* \"@openzeppelin/contracts/utils/Counters.sol\":1032:1051  counter._value += 1 */\n      dup1\n      sload\n        /* \"@openzeppelin/contracts/utils/Counters.sol\":1050:1051  1 */\n      0x01\n        /* \"@openzeppelin/contracts/utils/Counters.sol\":1032:1051  counter._value += 1 */\n      add\n      swap1\n      sstore\n        /* \"@openzeppelin/contracts/utils/Counters.sol\":945:1068  function increment(Counter storage counter) internal {... */\n      jump\n        /* \"@openzeppelin/contracts/access/Ownable.sol\":2270:2457  function _transferOwnership(address newOwner) internal virtual {... */\n    tag_211:\n        /* \"@openzeppelin/contracts/access/Ownable.sol\":2362:2368  _owner */\n      0x0a\n      dup1\n      sload\n      sub(shl(0xa0, 0x01), 0x01)\n        /* \"@openzeppelin/contracts/access/Ownable.sol\":2378:2395  _owner = newOwner */\n      dup4\n      dup2\n      and\n      not(sub(shl(0xa0, 0x01), 0x01))\n      dup4\n      and\n      dup2\n      or\n      swap1\n      swap4\n      sstore\n        /* \"@openzeppelin/contracts/access/Ownable.sol\":2410:2450  OwnershipTransferred(oldOwner, newOwner) */\n      mload(0x40)\n        /* \"@openzeppelin/contracts/access/Ownable.sol\":2362:2368  _owner */\n      swap2\n      and\n      swap2\n        /* \"@openzeppelin/contracts/access/Ownable.sol\":2378:2395  _owner = newOwner */\n      swap1\n        /* \"@openzeppelin/contracts/access/Ownable.sol\":2362:2368  _owner */\n      dup3\n      swap1\n        /* \"@openzeppelin/contracts/access/Ownable.sol\":2410:2450  OwnershipTransferred(oldOwner, newOwner) */\n      0x8be0079c531659141344cd1fd0a4f28419497f9722a3daafe3b4186f6b6457e0\n      swap1\n        /* \"@openzeppelin/contracts/access/Ownable.sol\":2343:2359  address oldOwner */\n      0x00\n      swap1\n        /* \"@openzeppelin/contracts/access/Ownable.sol\":2410:2450  OwnershipTransferred(oldOwner, newOwner) */\n      log3\n        /* \"@openzeppelin/contracts/access/Ownable.sol\":2333:2457  {... */\n      pop\n        /* \"@openzeppelin/contracts/access/Ownable.sol\":2270:2457  function _transferOwnership(address newOwner) internal virtual {... */\n      pop\n      jump\t// out\n        /* \"@openzeppelin/contracts/token/ERC721/ERC721.sol\":11474:11781  function _setApprovalForAll(... */\n    tag_235:\n        /* \"@openzeppelin/contracts/token/ERC721/ERC721.sol\":11624:11632  operator */\n      dup2\n      sub(shl(0xa0, 0x01), 0x01)\n        /* \"@openzeppelin/contracts/token/ERC721/ERC721.sol\":11615:11632  owner != operator */\n      and\n        /* \"@openzeppelin/contracts/token/ERC721/ERC721.sol\":11615:11620  owner */\n      dup4\n      sub(shl(0xa0, 0x01), 0x01)\n        /* \"@openzeppelin/contracts/token/ERC721/ERC721.sol\":11615:11632  owner != operator */\n      and\n      eq\n      iszero\n        /* \"@openzeppelin/contracts/token/ERC721/ERC721.sol\":11607:11662  require(owner != operator, \"ERC721: approve to caller\") */\n      tag_317\n      jumpi\n      mload(0x40)\n      shl(0xe5, 0x461bcd)\n      dup2\n      mstore\n        /* \"#utility.yul\":10932:10934   */\n      0x20\n        /* \"@openzeppelin/contracts/token/ERC721/ERC721.sol\":11607:11662  require(owner != operator, \"ERC721: approve to caller\") */\n      0x04\n      dup3\n      add\n        /* \"#utility.yul\":10914:10935   */\n      mstore\n        /* \"#utility.yul\":10971:10973   */\n      0x19\n        /* \"#utility.yul\":10951:10969   */\n      0x24\n      dup3\n      add\n        /* \"#utility.yul\":10944:10974   */\n      mstore\n        /* \"#utility.yul\":11010:11037   */\n      0x4552433732313a20617070726f766520746f2063616c6c657200000000000000\n        /* \"#utility.yul\":10990:11008   */\n      0x44\n      dup3\n      add\n        /* \"#utility.yul\":10983:11038   */\n      mstore\n        /* \"#utility.yul\":11055:11073   */\n      0x64\n      add\n        /* \"@openzeppelin/contracts/token/ERC721/ERC721.sol\":11607:11662  require(owner != operator, \"ERC721: approve to caller\") */\n      tag_134\n        /* \"#utility.yul\":10904:11079   */\n      jump\n        /* \"@openzeppelin/contracts/token/ERC721/ERC721.sol\":11607:11662  require(owner != operator, \"ERC721: approve to caller\") */\n    tag_317:\n      sub(shl(0xa0, 0x01), 0x01)\n        /* \"@openzeppelin/contracts/token/ERC721/ERC721.sol\":11672:11697  _operatorApprovals[owner] */\n      dup4\n      dup2\n      and\n      0x00\n      dup2\n      dup2\n      mstore\n        /* \"@openzeppelin/contracts/token/ERC721/ERC721.sol\":11672:11690  _operatorApprovals */\n      0x05\n        /* \"@openzeppelin/contracts/token/ERC721/ERC721.sol\":11672:11697  _operatorApprovals[owner] */\n      0x20\n      swap1\n      dup2\n      mstore\n      0x40\n      dup1\n      dup4\n      keccak256\n        /* \"@openzeppelin/contracts/token/ERC721/ERC721.sol\":11672:11707  _operatorApprovals[owner][operator] */\n      swap5\n      dup8\n      and\n      dup1\n      dup5\n      mstore\n      swap5\n      dup3\n      mstore\n      swap2\n      dup3\n      swap1\n      keccak256\n        /* \"@openzeppelin/contracts/token/ERC721/ERC721.sol\":11672:11718  _operatorApprovals[owner][operator] = approved */\n      dup1\n      sload\n      not(0xff)\n      and\n      dup7\n      iszero\n      iszero\n      swap1\n      dup2\n      or\n      swap1\n      swap2\n      sstore\n        /* \"@openzeppelin/contracts/token/ERC721/ERC721.sol\":11733:11774  ApprovalForAll(owner, operator, approved) */\n      swap2\n      mload\n        /* \"#utility.yul\":8048:8089   */\n      swap2\n      dup3\n      mstore\n        /* \"@openzeppelin/contracts/token/ERC721/ERC721.sol\":11733:11774  ApprovalForAll(owner, operator, approved) */\n      0x17307eab39ab6107e8899845ad3d59bd9653f200f220920489ca2b5937696c31\n      swap2\n        /* \"#utility.yul\":8021:8039   */\n      add\n        /* \"@openzeppelin/contracts/token/ERC721/ERC721.sol\":11733:11774  ApprovalForAll(owner, operator, approved) */\n      mload(0x40)\n      dup1\n      swap2\n      sub\n      swap1\n      log3\n        /* \"@openzeppelin/contracts/token/ERC721/ERC721.sol\":11474:11781  function _setApprovalForAll(... */\n      pop\n      pop\n      pop\n      jump\t// out\n        /* \"@openzeppelin/contracts/token/ERC721/ERC721.sol\":6549:6856  function _safeTransfer(... */\n    tag_242:\n        /* \"@openzeppelin/contracts/token/ERC721/ERC721.sol\":6700:6728  _transfer(from, to, tokenId) */\n      tag_322\n        /* \"@openzeppelin/contracts/token/ERC721/ERC721.sol\":6710:6714  from */\n      dup5\n        /* \"@openzeppelin/contracts/token/ERC721/ERC721.sol\":6716:6718  to */\n      dup5\n        /* \"@openzeppelin/contracts/token/ERC721/ERC721.sol\":6720:6727  tokenId */\n      dup5\n        /* \"@openzeppelin/contracts/token/ERC721/ERC721.sol\":6700:6709  _transfer */\n      tag_160\n        /* \"@openzeppelin/contracts/token/ERC721/ERC721.sol\":6700:6728  _transfer(from, to, tokenId) */\n      jump\t// in\n    tag_322:\n        /* \"@openzeppelin/contracts/token/ERC721/ERC721.sol\":6746:6794  _checkOnERC721Received(from, to, tokenId, _data) */\n      tag_323\n        /* \"@openzeppelin/contracts/token/ERC721/ERC721.sol\":6769:6773  from */\n      dup5\n        /* \"@openzeppelin/contracts/token/ERC721/ERC721.sol\":6775:6777  to */\n      dup5\n        /* \"@openzeppelin/contracts/token/ERC721/ERC721.sol\":6779:6786  tokenId */\n      dup5\n        /* \"@openzeppelin/contracts/token/ERC721/ERC721.sol\":6788:6793  _data */\n      dup5\n        /* \"@openzeppelin/contracts/token/ERC721/ERC721.sol\":6746:6768  _checkOnERC721Received */\n      tag_324\n        /* \"@openzeppelin/contracts/token/ERC721/ERC721.sol\":6746:6794  _checkOnERC721Received(from, to, tokenId, _data) */\n      jump\t// in\n    tag_323:\n        /* \"@openzeppelin/contracts/token/ERC721/ERC721.sol\":6738:6849  require(_checkOnERC721Received(from, to, tokenId, _data), \"ERC721: transfer to non ERC721Receiver implementer\") */\n      tag_241\n      jumpi\n      mload(0x40)\n      shl(0xe5, 0x461bcd)\n      dup2\n      mstore\n      0x04\n      add\n      tag_134\n      swap1\n      tag_327\n      jump\t// in\n        /* \"contracts/TaoNFT.sol\":8008:8258  function concatenateName(uint256 tokenId) private pure  returns (string memory){\r... */\n    tag_246:\n        /* \"contracts/TaoNFT.sol\":8073:8086  string memory */\n      0x60\n        /* \"contracts/TaoNFT.sol\":8095:8116  string memory tokenNo */\n      0x00\n        /* \"contracts/TaoNFT.sol\":8117:8134  uint2str(tokenId) */\n      tag_329\n        /* \"contracts/TaoNFT.sol\":8126:8133  tokenId */\n      dup4\n        /* \"contracts/TaoNFT.sol\":8117:8125  uint2str */\n      tag_330\n        /* \"contracts/TaoNFT.sol\":8117:8134  uint2str(tokenId) */\n      jump\t// in\n    tag_329:\n        /* \"contracts/TaoNFT.sol\":8095:8134  string memory tokenNo=uint2str(tokenId) */\n      swap1\n      pop\n        /* \"contracts/TaoNFT.sol\":8143:8166  string memory tokenName */\n      0x00\n        /* \"contracts/TaoNFT.sol\":8143:8178  string memory tokenName =\"TaoNFT- \" */\n      mload(0x40)\n      dup1\n      0x40\n      add\n      0x40\n      mstore\n      dup1\n      0x08\n      dup2\n      mstore\n      0x20\n      add\n      shl(0xc5, 0x02a30b7a7232a169)\n      dup2\n      mstore\n      pop\n      swap1\n      pop\n        /* \"contracts/TaoNFT.sol\":8227:8236  tokenName */\n      dup1\n        /* \"contracts/TaoNFT.sol\":8241:8248  tokenNo */\n      dup3\n        /* \"contracts/TaoNFT.sol\":8210:8249  abi.encodePacked(tokenName,'#',tokenNo) */\n      add(0x20, mload(0x40))\n      tag_331\n      swap3\n      swap2\n      swap1\n      tag_332\n      jump\t// in\n    tag_331:\n      mload(0x40)\n      0x20\n      dup2\n      dup4\n      sub\n      sub\n      dup2\n      mstore\n      swap1\n      0x40\n      mstore\n        /* \"contracts/TaoNFT.sol\":8196:8250  return string(abi.encodePacked(tokenName,'#',tokenNo)) */\n      swap3\n      pop\n      pop\n      pop\n        /* \"contracts/TaoNFT.sol\":8008:8258  function concatenateName(uint256 tokenId) private pure  returns (string memory){\r... */\n      swap2\n      swap1\n      pop\n      jump\t// out\n        /* \"contracts/TaoNFT.sol\":7663:7999  function concatenate(uint256 tokenId) private pure returns (string memory){\r... */\n    tag_248:\n        /* \"contracts/TaoNFT.sol\":7723:7736  string memory */\n      0x60\n        /* \"contracts/TaoNFT.sol\":7745:7762  string memory img */\n      0x00\n        /* \"contracts/TaoNFT.sol\":7745:7834  string memory img= \"https://ipfs.io/ipfs/QmPa5q8VnemW1yLUkQvKvmXGQXxLt5bb8Gji3RLGh4DXwW/\" */\n      mload(0x40)\n      dup1\n      0x80\n      add\n      0x40\n      mstore\n      dup1\n      0x44\n      dup2\n      mstore\n      0x20\n      add\n      data_95bc6c933fedeaffb8ff284fc96d250967296c99c4fa0457f57e3f3d10de8665\n      0x44\n      swap2\n      codecopy\n        /* \"contracts/TaoNFT.sol\":7842:7867  string memory png= \".png\" */\n      0x40\n      dup1\n      mload\n      dup1\n      dup3\n      add\n      swap1\n      swap2\n      mstore\n      0x04\n      dup2\n      mstore\n      shl(0xe0, 0x2e706e67)\n      0x20\n      dup3\n      add\n      mstore\n        /* \"contracts/TaoNFT.sol\":7745:7834  string memory img= \"https://ipfs.io/ipfs/QmPa5q8VnemW1yLUkQvKvmXGQXxLt5bb8Gji3RLGh4DXwW/\" */\n      swap1\n      swap2\n      pop\n        /* \"contracts/TaoNFT.sol\":7842:7859  string memory png */\n      0x00\n        /* \"contracts/TaoNFT.sol\":7900:7917  uint2str(tokenId) */\n      tag_334\n        /* \"contracts/TaoNFT.sol\":7909:7916  tokenId */\n      dup6\n        /* \"contracts/TaoNFT.sol\":7900:7908  uint2str */\n      tag_330\n        /* \"contracts/TaoNFT.sol\":7900:7917  uint2str(tokenId) */\n      jump\t// in\n    tag_334:\n        /* \"contracts/TaoNFT.sol\":7876:7917  string memory tokenImg= uint2str(tokenId) */\n      swap1\n      pop\n        /* \"contracts/TaoNFT.sol\":7973:7976  img */\n      dup3\n        /* \"contracts/TaoNFT.sol\":7977:7985  tokenImg */\n      dup2\n        /* \"contracts/TaoNFT.sol\":7986:7989  png */\n      dup4\n        /* \"contracts/TaoNFT.sol\":7956:7990  abi.encodePacked(img,tokenImg,png) */\n      add(0x20, mload(0x40))\n      tag_335\n      swap4\n      swap3\n      swap2\n      swap1\n      tag_336\n      jump\t// in\n    tag_335:\n      mload(0x40)\n      0x20\n      dup2\n      dup4\n      sub\n      sub\n      dup2\n      mstore\n      swap1\n      0x40\n      mstore\n        /* \"contracts/TaoNFT.sol\":7942:7991  return string(abi.encodePacked(img,tokenImg,png)) */\n      swap4\n      pop\n      pop\n      pop\n      pop\n        /* \"contracts/TaoNFT.sol\":7663:7999  function concatenate(uint256 tokenId) private pure returns (string memory){\r... */\n      swap2\n      swap1\n      pop\n      jump\t// out\n        /* \"contracts/TaoNFT.sol\":908:2820  function encode(bytes memory data) internal pure returns (string memory) {\r... */\n    tag_251:\n        /* \"contracts/TaoNFT.sol\":966:979  string memory */\n      0x60\n        /* \"contracts/TaoNFT.sol\":996:1000  data */\n      dup2\n        /* \"contracts/TaoNFT.sol\":996:1007  data.length */\n      mload\n        /* \"contracts/TaoNFT.sol\":1011:1012  0 */\n      0x00\n        /* \"contracts/TaoNFT.sol\":996:1012  data.length == 0 */\n      eq\n        /* \"contracts/TaoNFT.sol\":992:1023  if (data.length == 0) return '' */\n      iszero\n      tag_338\n      jumpi\n      pop\n      pop\n        /* \"contracts/TaoNFT.sol\":1014:1023  return '' */\n      0x40\n      dup1\n      mload\n      0x20\n      dup2\n      add\n      swap1\n      swap2\n      mstore\n      0x00\n      dup2\n      mstore\n      swap1\n        /* \"contracts/TaoNFT.sol\":908:2820  function encode(bytes memory data) internal pure returns (string memory) {\r... */\n      jump\t// out\n        /* \"contracts/TaoNFT.sol\":992:1023  if (data.length == 0) return '' */\n    tag_338:\n        /* \"contracts/TaoNFT.sol\":1075:1094  string memory table */\n      0x00\n        /* \"contracts/TaoNFT.sol\":1097:1109  TABLE_ENCODE */\n      mload(0x40)\n      dup1\n      0x60\n      add\n      0x40\n      mstore\n      dup1\n      0x40\n      dup2\n      mstore\n      0x20\n      add\n      data_84d8a590de33e00cbdc16e1f28c3506f5ec15c599fab9a6a4bcd575cc2f110ce\n      0x40\n      swap2\n      codecopy\n        /* \"contracts/TaoNFT.sol\":1075:1109  string memory table = TABLE_ENCODE */\n      swap1\n      pop\n        /* \"contracts/TaoNFT.sol\":1161:1179  uint256 encodedLen */\n      0x00\n        /* \"contracts/TaoNFT.sol\":1207:1208  3 */\n      0x03\n        /* \"contracts/TaoNFT.sol\":1188:1192  data */\n      dup5\n        /* \"contracts/TaoNFT.sol\":1188:1199  data.length */\n      mload\n        /* \"contracts/TaoNFT.sol\":1202:1203  2 */\n      0x02\n        /* \"contracts/TaoNFT.sol\":1188:1203  data.length + 2 */\n      tag_339\n      swap2\n      swap1\n      tag_303\n      jump\t// in\n    tag_339:\n        /* \"contracts/TaoNFT.sol\":1187:1208  (data.length + 2) / 3 */\n      tag_340\n      swap2\n      swap1\n      tag_341\n      jump\t// in\n    tag_340:\n        /* \"contracts/TaoNFT.sol\":1182:1209  4 * ((data.length + 2) / 3) */\n      tag_342\n      swap1\n        /* \"contracts/TaoNFT.sol\":1182:1183  4 */\n      0x04\n        /* \"contracts/TaoNFT.sol\":1182:1209  4 * ((data.length + 2) / 3) */\n      tag_343\n      jump\t// in\n    tag_342:\n        /* \"contracts/TaoNFT.sol\":1161:1209  uint256 encodedLen = 4 * ((data.length + 2) / 3) */\n      swap1\n      pop\n        /* \"contracts/TaoNFT.sol\":1292:1312  string memory result */\n      0x00\n        /* \"contracts/TaoNFT.sol\":1326:1341  encodedLen + 32 */\n      tag_344\n        /* \"contracts/TaoNFT.sol\":1161:1209  uint256 encodedLen = 4 * ((data.length + 2) / 3) */\n      dup3\n        /* \"contracts/TaoNFT.sol\":1339:1341  32 */\n      0x20\n        /* \"contracts/TaoNFT.sol\":1326:1341  encodedLen + 32 */\n      tag_303\n      jump\t// in\n    tag_344:\n        /* \"contracts/TaoNFT.sol\":1315:1342  new string(encodedLen + 32) */\n      0xffffffffffffffff\n      dup2\n      gt\n      iszero\n      tag_346\n      jumpi\n      tag_346\n      tag_216\n      jump\t// in\n    tag_346:\n      mload(0x40)\n      swap1\n      dup1\n      dup3\n      mstore\n      dup1\n      0x1f\n      add\n      not(0x1f)\n      and\n      0x20\n      add\n      dup3\n      add\n      0x40\n      mstore\n      dup1\n      iszero\n      tag_347\n      jumpi\n      0x20\n      dup3\n      add\n      dup2\n      dup1\n      calldatasize\n      dup4\n      calldatacopy\n      add\n      swap1\n      pop\n    tag_347:\n      pop\n        /* \"contracts/TaoNFT.sol\":1292:1342  string memory result = new string(encodedLen + 32) */\n      swap1\n      pop\n        /* \"contracts/TaoNFT.sol\":1439:1449  encodedLen */\n      dup2\n        /* \"contracts/TaoNFT.sol\":1431:1437  result */\n      dup2\n        /* \"contracts/TaoNFT.sol\":1424:1450  mstore(result, encodedLen) */\n      mstore\n        /* \"contracts/TaoNFT.sol\":1534:1535  1 */\n      0x01\n        /* \"contracts/TaoNFT.sol\":1527:1532  table */\n      dup4\n        /* \"contracts/TaoNFT.sol\":1523:1536  add(table, 1) */\n      add\n        /* \"contracts/TaoNFT.sol\":1593:1597  data */\n      dup6\n        /* \"contracts/TaoNFT.sol\":1644:1648  data */\n      dup7\n        /* \"contracts/TaoNFT.sol\":1638:1649  mload(data) */\n      mload\n        /* \"contracts/TaoNFT.sol\":1629:1636  dataPtr */\n      dup2\n        /* \"contracts/TaoNFT.sol\":1625:1650  add(dataPtr, mload(data)) */\n      add\n        /* \"contracts/TaoNFT.sol\":1740:1742  32 */\n      0x20\n        /* \"contracts/TaoNFT.sol\":1732:1738  result */\n      dup5\n        /* \"contracts/TaoNFT.sol\":1728:1743  add(result, 32) */\n      add\n        /* \"contracts/TaoNFT.sol\":1813:2567  for {} lt(dataPtr, endPtr) {}\r... */\n    tag_348:\n        /* \"contracts/TaoNFT.sol\":1832:1838  endPtr */\n      dup2\n        /* \"contracts/TaoNFT.sol\":1823:1830  dataPtr */\n      dup4\n        /* \"contracts/TaoNFT.sol\":1820:1839  lt(dataPtr, endPtr) */\n      lt\n        /* \"contracts/TaoNFT.sol\":1813:2567  for {} lt(dataPtr, endPtr) {}\r... */\n      iszero\n      tag_350\n      jumpi\n        /* \"contracts/TaoNFT.sol\":1932:1933  3 */\n      0x03\n        /* \"contracts/TaoNFT.sol\":1923:1930  dataPtr */\n      dup4\n        /* \"contracts/TaoNFT.sol\":1919:1934  add(dataPtr, 3) */\n      add\n        /* \"contracts/TaoNFT.sol\":1908:1934  dataPtr := add(dataPtr, 3) */\n      swap3\n      pop\n        /* \"contracts/TaoNFT.sol\":1971:1978  dataPtr */\n      dup3\n        /* \"contracts/TaoNFT.sol\":1965:1979  mload(dataPtr) */\n      mload\n        /* \"contracts/TaoNFT.sol\":2097:2101  0x3F */\n      0x3f\n        /* \"contracts/TaoNFT.sol\":2089:2094  input */\n      dup2\n        /* \"contracts/TaoNFT.sol\":2085:2087  18 */\n      0x12\n        /* \"contracts/TaoNFT.sol\":2081:2095  shr(18, input) */\n      shr\n        /* \"contracts/TaoNFT.sol\":2077:2102  and(shr(18, input), 0x3F) */\n      and\n        /* \"contracts/TaoNFT.sol\":2067:2075  tablePtr */\n      dup6\n        /* \"contracts/TaoNFT.sol\":2063:2103  add(tablePtr, and(shr(18, input), 0x3F)) */\n      add\n        /* \"contracts/TaoNFT.sol\":2057:2104  mload(add(tablePtr, and(shr(18, input), 0x3F))) */\n      mload\n        /* \"contracts/TaoNFT.sol\":2046:2055  resultPtr */\n      dup3\n        /* \"contracts/TaoNFT.sol\":2038:2105  mstore8(resultPtr, mload(add(tablePtr, and(shr(18, input), 0x3F)))) */\n      mstore8\n        /* \"contracts/TaoNFT.sol\":2151:2152  1 */\n      0x01\n        /* \"contracts/TaoNFT.sol\":2140:2149  resultPtr */\n      dup3\n        /* \"contracts/TaoNFT.sol\":2136:2153  add(resultPtr, 1) */\n      add\n        /* \"contracts/TaoNFT.sol\":2123:2153  resultPtr := add(resultPtr, 1) */\n      swap2\n      pop\n        /* \"contracts/TaoNFT.sol\":2230:2234  0x3F */\n      0x3f\n        /* \"contracts/TaoNFT.sol\":2222:2227  input */\n      dup2\n        /* \"contracts/TaoNFT.sol\":2218:2220  12 */\n      0x0c\n        /* \"contracts/TaoNFT.sol\":2214:2228  shr(12, input) */\n      shr\n        /* \"contracts/TaoNFT.sol\":2210:2235  and(shr(12, input), 0x3F) */\n      and\n        /* \"contracts/TaoNFT.sol\":2200:2208  tablePtr */\n      dup6\n        /* \"contracts/TaoNFT.sol\":2196:2236  add(tablePtr, and(shr(12, input), 0x3F)) */\n      add\n        /* \"contracts/TaoNFT.sol\":2190:2237  mload(add(tablePtr, and(shr(12, input), 0x3F))) */\n      mload\n        /* \"contracts/TaoNFT.sol\":2179:2188  resultPtr */\n      dup3\n        /* \"contracts/TaoNFT.sol\":2171:2238  mstore8(resultPtr, mload(add(tablePtr, and(shr(12, input), 0x3F)))) */\n      mstore8\n        /* \"contracts/TaoNFT.sol\":2284:2285  1 */\n      0x01\n        /* \"contracts/TaoNFT.sol\":2273:2282  resultPtr */\n      dup3\n        /* \"contracts/TaoNFT.sol\":2269:2286  add(resultPtr, 1) */\n      add\n        /* \"contracts/TaoNFT.sol\":2256:2286  resultPtr := add(resultPtr, 1) */\n      swap2\n      pop\n        /* \"contracts/TaoNFT.sol\":2363:2367  0x3F */\n      0x3f\n        /* \"contracts/TaoNFT.sol\":2355:2360  input */\n      dup2\n        /* \"contracts/TaoNFT.sol\":2352:2353  6 */\n      0x06\n        /* \"contracts/TaoNFT.sol\":2347:2361  shr( 6, input) */\n      shr\n        /* \"contracts/TaoNFT.sol\":2343:2368  and(shr( 6, input), 0x3F) */\n      and\n        /* \"contracts/TaoNFT.sol\":2333:2341  tablePtr */\n      dup6\n        /* \"contracts/TaoNFT.sol\":2329:2369  add(tablePtr, and(shr( 6, input), 0x3F)) */\n      add\n        /* \"contracts/TaoNFT.sol\":2323:2370  mload(add(tablePtr, and(shr( 6, input), 0x3F))) */\n      mload\n        /* \"contracts/TaoNFT.sol\":2312:2321  resultPtr */\n      dup3\n        /* \"contracts/TaoNFT.sol\":2304:2371  mstore8(resultPtr, mload(add(tablePtr, and(shr( 6, input), 0x3F)))) */\n      mstore8\n        /* \"contracts/TaoNFT.sol\":2417:2418  1 */\n      0x01\n        /* \"contracts/TaoNFT.sol\":2406:2415  resultPtr */\n      dup3\n        /* \"contracts/TaoNFT.sol\":2402:2419  add(resultPtr, 1) */\n      add\n        /* \"contracts/TaoNFT.sol\":2389:2419  resultPtr := add(resultPtr, 1) */\n      swap2\n      pop\n        /* \"contracts/TaoNFT.sol\":2496:2500  0x3F */\n      0x3f\n        /* \"contracts/TaoNFT.sol\":2488:2493  input */\n      dup2\n        /* \"contracts/TaoNFT.sol\":2476:2501  and(        input,  0x3F) */\n      and\n        /* \"contracts/TaoNFT.sol\":2466:2474  tablePtr */\n      dup6\n        /* \"contracts/TaoNFT.sol\":2462:2502  add(tablePtr, and(        input,  0x3F)) */\n      add\n        /* \"contracts/TaoNFT.sol\":2456:2503  mload(add(tablePtr, and(        input,  0x3F))) */\n      mload\n        /* \"contracts/TaoNFT.sol\":2445:2454  resultPtr */\n      dup3\n        /* \"contracts/TaoNFT.sol\":2437:2504  mstore8(resultPtr, mload(add(tablePtr, and(        input,  0x3F)))) */\n      mstore8\n      pop\n        /* \"contracts/TaoNFT.sol\":2550:2551  1 */\n      0x01\n        /* \"contracts/TaoNFT.sol\":2535:2552  add(resultPtr, 1) */\n      add\n        /* \"contracts/TaoNFT.sol\":1813:2567  for {} lt(dataPtr, endPtr) {}\r... */\n      jump(tag_348)\n    tag_350:\n        /* \"contracts/TaoNFT.sol\":2640:2641  3 */\n      0x03\n        /* \"contracts/TaoNFT.sol\":2633:2637  data */\n      dup10\n        /* \"contracts/TaoNFT.sol\":2627:2638  mload(data) */\n      mload\n        /* \"contracts/TaoNFT.sol\":2623:2642  mod(mload(data), 3) */\n      mod\n        /* \"contracts/TaoNFT.sol\":2661:2662  1 */\n      0x01\n        /* \"contracts/TaoNFT.sol\":2656:2710  case 1 { mstore(sub(resultPtr, 2), shl(240, 0x3d3d)) } */\n      dup2\n      eq\n      tag_352\n      jumpi\n        /* \"contracts/TaoNFT.sol\":2729:2730  2 */\n      0x02\n        /* \"contracts/TaoNFT.sol\":2724:2776  case 2 { mstore(sub(resultPtr, 1), shl(248, 0x3d)) } */\n      dup2\n      eq\n      tag_353\n      jumpi\n        /* \"contracts/TaoNFT.sol\":2616:2776  switch mod(mload(data), 3)\r... */\n      jump(tag_351)\n        /* \"contracts/TaoNFT.sol\":2656:2710  case 1 { mstore(sub(resultPtr, 2), shl(240, 0x3d3d)) } */\n    tag_352:\n      shl(0xf0, 0x3d3d)\n      not(0x01)\n        /* \"contracts/TaoNFT.sol\":2672:2689  sub(resultPtr, 2) */\n      dup4\n      add\n        /* \"contracts/TaoNFT.sol\":2665:2708  mstore(sub(resultPtr, 2), shl(240, 0x3d3d)) */\n      mstore\n        /* \"contracts/TaoNFT.sol\":2656:2710  case 1 { mstore(sub(resultPtr, 2), shl(240, 0x3d3d)) } */\n      jump(tag_351)\n        /* \"contracts/TaoNFT.sol\":2724:2776  case 2 { mstore(sub(resultPtr, 1), shl(248, 0x3d)) } */\n    tag_353:\n      shl(0xf8, 0x3d)\n      not(0x00)\n        /* \"contracts/TaoNFT.sol\":2740:2757  sub(resultPtr, 1) */\n      dup4\n      add\n        /* \"contracts/TaoNFT.sol\":2733:2774  mstore(sub(resultPtr, 1), shl(248, 0x3d)) */\n      mstore\n        /* \"contracts/TaoNFT.sol\":2616:2776  switch mod(mload(data), 3)\r... */\n    tag_351:\n      pop\n        /* \"contracts/TaoNFT.sol\":2806:2812  result */\n      swap4\n      swap9\n        /* \"contracts/TaoNFT.sol\":908:2820  function encode(bytes memory data) internal pure returns (string memory) {\r... */\n      swap8\n      pop\n      pop\n      pop\n      pop\n      pop\n      pop\n      pop\n      pop\n      jump\t// out\n        /* \"@openzeppelin/contracts/token/ERC721/extensions/ERC721Enumerable.sol\":2624:3196  function _beforeTokenTransfer(... */\n    tag_298:\n      sub(shl(0xa0, 0x01), 0x01)\n        /* \"@openzeppelin/contracts/token/ERC721/extensions/ERC721Enumerable.sol\":2823:2841  from == address(0) */\n      dup4\n      and\n        /* \"@openzeppelin/contracts/token/ERC721/extensions/ERC721Enumerable.sol\":2819:3002  if (from == address(0)) {... */\n      tag_358\n      jumpi\n        /* \"@openzeppelin/contracts/token/ERC721/extensions/ERC721Enumerable.sol\":2857:2897  _addTokenToAllTokensEnumeration(tokenId) */\n      tag_359\n        /* \"@openzeppelin/contracts/token/ERC721/extensions/ERC721Enumerable.sol\":2889:2896  tokenId */\n      dup2\n        /* \"@openzeppelin/contracts/token/ERC721/extensions/ERC721Enumerable.sol\":4005:4015  _allTokens */\n      0x08\n        /* \"@openzeppelin/contracts/token/ERC721/extensions/ERC721Enumerable.sol\":4005:4022  _allTokens.length */\n      dup1\n      sload\n        /* \"@openzeppelin/contracts/token/ERC721/extensions/ERC721Enumerable.sol\":3978:4002  _allTokensIndex[tokenId] */\n      0x00\n      dup4\n      dup2\n      mstore\n        /* \"@openzeppelin/contracts/token/ERC721/extensions/ERC721Enumerable.sol\":3978:3993  _allTokensIndex */\n      0x09\n        /* \"@openzeppelin/contracts/token/ERC721/extensions/ERC721Enumerable.sol\":3978:4002  _allTokensIndex[tokenId] */\n      0x20\n      mstore\n      0x40\n      dup2\n      keccak256\n        /* \"@openzeppelin/contracts/token/ERC721/extensions/ERC721Enumerable.sol\":3978:4022  _allTokensIndex[tokenId] = _allTokens.length */\n      dup3\n      swap1\n      sstore\n        /* \"@openzeppelin/contracts/token/ERC721/extensions/ERC721Enumerable.sol\":4032:4056  _allTokens.push(tokenId) */\n      0x01\n      dup3\n      add\n      dup4\n      sstore\n      swap2\n      swap1\n      swap2\n      mstore\n      0xf3f7a9fe364faab93b216da50a3214154f22a0a2b415b23a84c8169e8b636ee3\n      add\n      sstore\n        /* \"@openzeppelin/contracts/token/ERC721/extensions/ERC721Enumerable.sol\":3902:4063  function _addTokenToAllTokensEnumeration(uint256 tokenId) private {... */\n      jump\n        /* \"@openzeppelin/contracts/token/ERC721/extensions/ERC721Enumerable.sol\":2857:2897  _addTokenToAllTokensEnumeration(tokenId) */\n    tag_359:\n        /* \"@openzeppelin/contracts/token/ERC721/extensions/ERC721Enumerable.sol\":2819:3002  if (from == address(0)) {... */\n      jump(tag_363)\n    tag_358:\n        /* \"@openzeppelin/contracts/token/ERC721/extensions/ERC721Enumerable.sol\":2926:2928  to */\n      dup2\n      sub(shl(0xa0, 0x01), 0x01)\n        /* \"@openzeppelin/contracts/token/ERC721/extensions/ERC721Enumerable.sol\":2918:2928  from != to */\n      and\n        /* \"@openzeppelin/contracts/token/ERC721/extensions/ERC721Enumerable.sol\":2918:2922  from */\n      dup4\n      sub(shl(0xa0, 0x01), 0x01)\n        /* \"@openzeppelin/contracts/token/ERC721/extensions/ERC721Enumerable.sol\":2918:2928  from != to */\n      and\n      eq\n        /* \"@openzeppelin/contracts/token/ERC721/extensions/ERC721Enumerable.sol\":2914:3002  if (from != to) {... */\n      tag_363\n      jumpi\n        /* \"@openzeppelin/contracts/token/ERC721/extensions/ERC721Enumerable.sol\":2944:2991  _removeTokenFromOwnerEnumeration(from, tokenId) */\n      tag_363\n        /* \"@openzeppelin/contracts/token/ERC721/extensions/ERC721Enumerable.sol\":2977:2981  from */\n      dup4\n        /* \"@openzeppelin/contracts/token/ERC721/extensions/ERC721Enumerable.sol\":2983:2990  tokenId */\n      dup3\n        /* \"@openzeppelin/contracts/token/ERC721/extensions/ERC721Enumerable.sol\":2944:2976  _removeTokenFromOwnerEnumeration */\n      tag_364\n        /* \"@openzeppelin/contracts/token/ERC721/extensions/ERC721Enumerable.sol\":2944:2991  _removeTokenFromOwnerEnumeration(from, tokenId) */\n      jump\t// in\n    tag_363:\n      sub(shl(0xa0, 0x01), 0x01)\n        /* \"@openzeppelin/contracts/token/ERC721/extensions/ERC721Enumerable.sol\":3015:3031  to == address(0) */\n      dup3\n      and\n        /* \"@openzeppelin/contracts/token/ERC721/extensions/ERC721Enumerable.sol\":3011:3190  if (to == address(0)) {... */\n      tag_365\n      jumpi\n        /* \"@openzeppelin/contracts/token/ERC721/extensions/ERC721Enumerable.sol\":3047:3092  _removeTokenFromAllTokensEnumeration(tokenId) */\n      tag_149\n        /* \"@openzeppelin/contracts/token/ERC721/extensions/ERC721Enumerable.sol\":3084:3091  tokenId */\n      dup2\n        /* \"@openzeppelin/contracts/token/ERC721/extensions/ERC721Enumerable.sol\":3047:3083  _removeTokenFromAllTokensEnumeration */\n      tag_367\n        /* \"@openzeppelin/contracts/token/ERC721/extensions/ERC721Enumerable.sol\":3047:3092  _removeTokenFromAllTokensEnumeration(tokenId) */\n      jump\t// in\n        /* \"@openzeppelin/contracts/token/ERC721/extensions/ERC721Enumerable.sol\":3011:3190  if (to == address(0)) {... */\n    tag_365:\n        /* \"@openzeppelin/contracts/token/ERC721/extensions/ERC721Enumerable.sol\":3119:3123  from */\n      dup3\n      sub(shl(0xa0, 0x01), 0x01)\n        /* \"@openzeppelin/contracts/token/ERC721/extensions/ERC721Enumerable.sol\":3113:3123  to != from */\n      and\n        /* \"@openzeppelin/contracts/token/ERC721/extensions/ERC721Enumerable.sol\":3113:3115  to */\n      dup3\n      sub(shl(0xa0, 0x01), 0x01)\n        /* \"@openzeppelin/contracts/token/ERC721/extensions/ERC721Enumerable.sol\":3113:3123  to != from */\n      and\n      eq\n        /* \"@openzeppelin/contracts/token/ERC721/extensions/ERC721Enumerable.sol\":3109:3190  if (to != from) {... */\n      tag_149\n      jumpi\n        /* \"@openzeppelin/contracts/token/ERC721/extensions/ERC721Enumerable.sol\":3139:3179  _addTokenToOwnerEnumeration(to, tokenId) */\n      tag_149\n        /* \"@openzeppelin/contracts/token/ERC721/extensions/ERC721Enumerable.sol\":3167:3169  to */\n      dup3\n        /* \"@openzeppelin/contracts/token/ERC721/extensions/ERC721Enumerable.sol\":3171:3178  tokenId */\n      dup3\n        /* \"@openzeppelin/contracts/token/ERC721/extensions/ERC721Enumerable.sol\":3139:3166  _addTokenToOwnerEnumeration */\n      tag_371\n        /* \"@openzeppelin/contracts/token/ERC721/extensions/ERC721Enumerable.sol\":3139:3179  _addTokenToOwnerEnumeration(to, tokenId) */\n      jump\t// in\n        /* \"@openzeppelin/contracts/token/ERC721/ERC721.sol\":8116:8224  function _safeMint(address to, uint256 tokenId) internal virtual {... */\n    tag_312:\n        /* \"@openzeppelin/contracts/token/ERC721/ERC721.sol\":8191:8217  _safeMint(to, tokenId, \"\") */\n      tag_233\n        /* \"@openzeppelin/contracts/token/ERC721/ERC721.sol\":8201:8203  to */\n      dup3\n        /* \"@openzeppelin/contracts/token/ERC721/ERC721.sol\":8205:8212  tokenId */\n      dup3\n        /* \"@openzeppelin/contracts/token/ERC721/ERC721.sol\":8191:8217  _safeMint(to, tokenId, \"\") */\n      mload(0x40)\n      dup1\n      0x20\n      add\n      0x40\n      mstore\n      dup1\n      0x00\n      dup2\n      mstore\n      pop\n        /* \"@openzeppelin/contracts/token/ERC721/ERC721.sol\":8191:8200  _safeMint */\n      tag_375\n        /* \"@openzeppelin/contracts/token/ERC721/ERC721.sol\":8191:8217  _safeMint(to, tokenId, \"\") */\n      jump\t// in\n        /* \"@openzeppelin/contracts/token/ERC721/ERC721.sol\":12334:13112  function _checkOnERC721Received(... */\n    tag_324:\n        /* \"@openzeppelin/contracts/token/ERC721/ERC721.sol\":12484:12488  bool */\n      0x00\n      sub(shl(0xa0, 0x01), 0x01)\n        /* \"@openzeppelin/contracts/token/ERC721/ERC721.sol\":12504:12517  to.isContract */\n      dup5\n      and\n        /* \"@openzeppelin/contracts/utils/Address.sol\":1465:1484  account.code.length */\n      extcodesize\n        /* \"@openzeppelin/contracts/utils/Address.sol\":1465:1488  account.code.length > 0 */\n      iszero\n        /* \"@openzeppelin/contracts/token/ERC721/ERC721.sol\":12500:13106  if (to.isContract()) {... */\n      tag_380\n      jumpi\n        /* \"@openzeppelin/contracts/token/ERC721/ERC721.sol\":12539:12611  IERC721Receiver(to).onERC721Received(_msgSender(), from, tokenId, _data) */\n      mload(0x40)\n      shl(0xe1, 0x0a85bd01)\n      dup2\n      mstore\n      sub(shl(0xa0, 0x01), 0x01)\n        /* \"@openzeppelin/contracts/token/ERC721/ERC721.sol\":12539:12575  IERC721Receiver(to).onERC721Received */\n      dup6\n      and\n      swap1\n      0x150b7a02\n      swap1\n        /* \"@openzeppelin/contracts/token/ERC721/ERC721.sol\":12539:12611  IERC721Receiver(to).onERC721Received(_msgSender(), from, tokenId, _data) */\n      tag_382\n      swap1\n        /* \"@openzeppelin/contracts/utils/Context.sol\":719:729  msg.sender */\n      caller\n      swap1\n        /* \"@openzeppelin/contracts/token/ERC721/ERC721.sol\":12590:12594  from */\n      dup10\n      swap1\n        /* \"@openzeppelin/contracts/token/ERC721/ERC721.sol\":12596:12603  tokenId */\n      dup9\n      swap1\n        /* \"@openzeppelin/contracts/token/ERC721/ERC721.sol\":12605:12610  _data */\n      dup9\n      swap1\n        /* \"@openzeppelin/contracts/token/ERC721/ERC721.sol\":12539:12611  IERC721Receiver(to).onERC721Received(_msgSender(), from, tokenId, _data) */\n      0x04\n      add\n      tag_383\n      jump\t// in\n    tag_382:\n      0x20\n      mload(0x40)\n      dup1\n      dup4\n      sub\n      dup2\n      0x00\n      dup8\n      dup1\n      extcodesize\n      iszero\n      dup1\n      iszero\n      tag_384\n      jumpi\n      0x00\n      dup1\n      revert\n    tag_384:\n      pop\n      gas\n      call\n      swap3\n      pop\n      pop\n      pop\n      dup1\n      iszero\n      tag_385\n      jumpi\n      pop\n      0x40\n      dup1\n      mload\n      0x1f\n      returndatasize\n      swap1\n      dup2\n      add\n      not(0x1f)\n      and\n      dup3\n      add\n      swap1\n      swap3\n      mstore\n      tag_386\n      swap2\n      dup2\n      add\n      swap1\n      tag_387\n      jump\t// in\n    tag_386:\n      0x01\n    tag_385:\n        /* \"@openzeppelin/contracts/token/ERC721/ERC721.sol\":12535:13054  try IERC721Receiver(to).onERC721Received(_msgSender(), from, tokenId, _data) returns (bytes4 retval) {... */\n      tag_388\n      jumpi\n      returndatasize\n      dup1\n      dup1\n      iszero\n      tag_393\n      jumpi\n      mload(0x40)\n      swap2\n      pop\n      and(add(returndatasize, 0x3f), not(0x1f))\n      dup3\n      add\n      0x40\n      mstore\n      returndatasize\n      dup3\n      mstore\n      returndatasize\n      0x00\n      0x20\n      dup5\n      add\n      returndatacopy\n      jump(tag_392)\n    tag_393:\n      0x60\n      swap2\n      pop\n    tag_392:\n      pop\n        /* \"@openzeppelin/contracts/token/ERC721/ERC721.sol\":12778:12791  reason.length */\n      dup1\n      mload\n        /* \"@openzeppelin/contracts/token/ERC721/ERC721.sol\":12774:13040  if (reason.length == 0) {... */\n      tag_394\n      jumpi\n        /* \"@openzeppelin/contracts/token/ERC721/ERC721.sol\":12820:12880  revert(\"ERC721: transfer to non ERC721Receiver implementer\") */\n      mload(0x40)\n      shl(0xe5, 0x461bcd)\n      dup2\n      mstore\n      0x04\n      add\n      tag_134\n      swap1\n      tag_327\n      jump\t// in\n        /* \"@openzeppelin/contracts/token/ERC721/ERC721.sol\":12774:13040  if (reason.length == 0) {... */\n    tag_394:\n        /* \"@openzeppelin/contracts/token/ERC721/ERC721.sol\":12992:12998  reason */\n      dup1\n        /* \"@openzeppelin/contracts/token/ERC721/ERC721.sol\":12986:12999  mload(reason) */\n      mload\n        /* \"@openzeppelin/contracts/token/ERC721/ERC721.sol\":12977:12983  reason */\n      dup2\n        /* \"@openzeppelin/contracts/token/ERC721/ERC721.sol\":12973:12975  32 */\n      0x20\n        /* \"@openzeppelin/contracts/token/ERC721/ERC721.sol\":12969:12984  add(32, reason) */\n      add\n        /* \"@openzeppelin/contracts/token/ERC721/ERC721.sol\":12962:13000  revert(add(32, reason), mload(reason)) */\n      revert\n        /* \"@openzeppelin/contracts/token/ERC721/ERC721.sol\":12535:13054  try IERC721Receiver(to).onERC721Received(_msgSender(), from, tokenId, _data) returns (bytes4 retval) {... */\n    tag_388:\n      not(sub(shl(0xe0, 0x01), 0x01))\n        /* \"@openzeppelin/contracts/token/ERC721/ERC721.sol\":12661:12712  retval == IERC721Receiver.onERC721Received.selector */\n      and\n      shl(0xe1, 0x0a85bd01)\n      eq\n      swap1\n      pop\n        /* \"@openzeppelin/contracts/token/ERC721/ERC721.sol\":12654:12712  return retval == IERC721Receiver.onERC721Received.selector */\n      jump(tag_288)\n        /* \"@openzeppelin/contracts/token/ERC721/ERC721.sol\":12500:13106  if (to.isContract()) {... */\n    tag_380:\n      pop\n        /* \"@openzeppelin/contracts/token/ERC721/ERC721.sol\":13091:13095  true */\n      0x01\n        /* \"@openzeppelin/contracts/token/ERC721/ERC721.sol\":12334:13112  function _checkOnERC721Received(... */\n      swap5\n      swap4\n      pop\n      pop\n      pop\n      pop\n      jump\t// out\n        /* \"contracts/TaoNFT.sol\":5489:6062  function uint2str(uint _i) internal pure returns (string memory _uintAsString) {\r... */\n    tag_330:\n        /* \"contracts/TaoNFT.sol\":5539:5566  string memory _uintAsString */\n      0x60\n        /* \"contracts/TaoNFT.sol\":5583:5590  _i == 0 */\n      dup2\n        /* \"contracts/TaoNFT.sol\":5579:5629  if (_i == 0) {\r... */\n      tag_400\n      jumpi\n      pop\n      pop\n        /* \"contracts/TaoNFT.sol\":5607:5617  return \"0\" */\n      0x40\n      dup1\n      mload\n      dup1\n      dup3\n      add\n      swap1\n      swap2\n      mstore\n      0x01\n      dup2\n      mstore\n      shl(0xfc, 0x03)\n      0x20\n      dup3\n      add\n      mstore\n      swap1\n        /* \"contracts/TaoNFT.sol\":5489:6062  function uint2str(uint _i) internal pure returns (string memory _uintAsString) {\r... */\n      jump\t// out\n        /* \"contracts/TaoNFT.sol\":5579:5629  if (_i == 0) {\r... */\n    tag_400:\n        /* \"contracts/TaoNFT.sol\":5648:5650  _i */\n      dup2\n        /* \"contracts/TaoNFT.sol\":5639:5645  uint j */\n      0x00\n        /* \"contracts/TaoNFT.sol\":5680:5749  while (j != 0) {\r... */\n    tag_401:\n        /* \"contracts/TaoNFT.sol\":5687:5693  j != 0 */\n      dup2\n      iszero\n        /* \"contracts/TaoNFT.sol\":5680:5749  while (j != 0) {\r... */\n      tag_402\n      jumpi\n        /* \"contracts/TaoNFT.sol\":5710:5715  len++ */\n      dup1\n      tag_403\n      dup2\n      tag_183\n      jump\t// in\n    tag_403:\n      swap2\n      pop\n        /* \"contracts/TaoNFT.sol\":5730:5737  j /= 10 */\n      tag_404\n      swap1\n      pop\n        /* \"contracts/TaoNFT.sol\":5735:5737  10 */\n      0x0a\n        /* \"contracts/TaoNFT.sol\":5730:5737  j /= 10 */\n      dup4\n      tag_341\n      jump\t// in\n    tag_404:\n      swap2\n      pop\n        /* \"contracts/TaoNFT.sol\":5680:5749  while (j != 0) {\r... */\n      jump(tag_401)\n    tag_402:\n        /* \"contracts/TaoNFT.sol\":5759:5776  bytes memory bstr */\n      0x00\n        /* \"contracts/TaoNFT.sol\":5789:5792  len */\n      dup2\n        /* \"contracts/TaoNFT.sol\":5779:5793  new bytes(len) */\n      0xffffffffffffffff\n      dup2\n      gt\n      iszero\n      tag_406\n      jumpi\n      tag_406\n      tag_216\n      jump\t// in\n    tag_406:\n      mload(0x40)\n      swap1\n      dup1\n      dup3\n      mstore\n      dup1\n      0x1f\n      add\n      not(0x1f)\n      and\n      0x20\n      add\n      dup3\n      add\n      0x40\n      mstore\n      dup1\n      iszero\n      tag_407\n      jumpi\n      0x20\n      dup3\n      add\n      dup2\n      dup1\n      calldatasize\n      dup4\n      calldatacopy\n      add\n      swap1\n      pop\n    tag_407:\n      pop\n        /* \"contracts/TaoNFT.sol\":5759:5793  bytes memory bstr = new bytes(len) */\n      swap1\n      pop\n        /* \"contracts/TaoNFT.sol\":5813:5816  len */\n      dup2\n        /* \"contracts/TaoNFT.sol\":5827:6025  while (_i != 0) {\r... */\n    tag_408:\n        /* \"contracts/TaoNFT.sol\":5834:5841  _i != 0 */\n      dup6\n      iszero\n        /* \"contracts/TaoNFT.sol\":5827:6025  while (_i != 0) {\r... */\n      tag_409\n      jumpi\n        /* \"contracts/TaoNFT.sol\":5862:5865  k-1 */\n      tag_410\n        /* \"contracts/TaoNFT.sol\":5864:5865  1 */\n      0x01\n        /* \"contracts/TaoNFT.sol\":5862:5863  k */\n      dup3\n        /* \"contracts/TaoNFT.sol\":5862:5865  k-1 */\n      tag_301\n      jump\t// in\n    tag_410:\n        /* \"contracts/TaoNFT.sol\":5858:5865  k = k-1 */\n      swap1\n      pop\n        /* \"contracts/TaoNFT.sol\":5880:5890  uint8 temp */\n      0x00\n        /* \"contracts/TaoNFT.sol\":5910:5917  _i / 10 */\n      tag_411\n        /* \"contracts/TaoNFT.sol\":5915:5917  10 */\n      0x0a\n        /* \"contracts/TaoNFT.sol\":5910:5912  _i */\n      dup9\n        /* \"contracts/TaoNFT.sol\":5910:5917  _i / 10 */\n      tag_341\n      jump\t// in\n    tag_411:\n        /* \"contracts/TaoNFT.sol\":5910:5922  _i / 10 * 10 */\n      tag_412\n      swap1\n        /* \"contracts/TaoNFT.sol\":5920:5922  10 */\n      0x0a\n        /* \"contracts/TaoNFT.sol\":5910:5922  _i / 10 * 10 */\n      tag_343\n      jump\t// in\n    tag_412:\n        /* \"contracts/TaoNFT.sol\":5905:5922  _i - _i / 10 * 10 */\n      tag_413\n      swap1\n        /* \"contracts/TaoNFT.sol\":5905:5907  _i */\n      dup9\n        /* \"contracts/TaoNFT.sol\":5905:5922  _i - _i / 10 * 10 */\n      tag_301\n      jump\t// in\n    tag_413:\n        /* \"contracts/TaoNFT.sol\":5894:5923  48 + uint8(_i - _i / 10 * 10) */\n      tag_414\n      swap1\n        /* \"contracts/TaoNFT.sol\":5894:5896  48 */\n      0x30\n        /* \"contracts/TaoNFT.sol\":5894:5923  48 + uint8(_i - _i / 10 * 10) */\n      tag_415\n      jump\t// in\n    tag_414:\n        /* \"contracts/TaoNFT.sol\":5880:5924  uint8 temp = (48 + uint8(_i - _i / 10 * 10)) */\n      swap1\n      pop\n        /* \"contracts/TaoNFT.sol\":5939:5948  bytes1 b1 */\n      0x00\n        /* \"contracts/TaoNFT.sol\":5958:5962  temp */\n      dup2\n        /* \"contracts/TaoNFT.sol\":5951:5963  bytes1(temp) */\n      0xf8\n      shl\n        /* \"contracts/TaoNFT.sol\":5939:5963  bytes1 b1 = bytes1(temp) */\n      swap1\n      pop\n        /* \"contracts/TaoNFT.sol\":5988:5990  b1 */\n      dup1\n        /* \"contracts/TaoNFT.sol\":5978:5982  bstr */\n      dup5\n        /* \"contracts/TaoNFT.sol\":5983:5984  k */\n      dup5\n        /* \"contracts/TaoNFT.sol\":5978:5985  bstr[k] */\n      dup2\n      mload\n      dup2\n      lt\n      tag_417\n      jumpi\n      tag_417\n      tag_193\n      jump\t// in\n    tag_417:\n      0x20\n      add\n      add\n        /* \"contracts/TaoNFT.sol\":5978:5990  bstr[k] = b1 */\n      swap1\n      not(sub(shl(0xf8, 0x01), 0x01))\n      and\n      swap1\n      dup2\n      0x00\n      byte\n      swap1\n      mstore8\n      pop\n        /* \"contracts/TaoNFT.sol\":6005:6013  _i /= 10 */\n      tag_418\n        /* \"contracts/TaoNFT.sol\":6011:6013  10 */\n      0x0a\n        /* \"contracts/TaoNFT.sol\":6005:6013  _i /= 10 */\n      dup10\n      tag_341\n      jump\t// in\n    tag_418:\n      swap8\n      pop\n        /* \"contracts/TaoNFT.sol\":5843:6025  {\r... */\n      pop\n      pop\n        /* \"contracts/TaoNFT.sol\":5827:6025  while (_i != 0) {\r... */\n      jump(tag_408)\n    tag_409:\n      pop\n        /* \"contracts/TaoNFT.sol\":6049:6053  bstr */\n      swap5\n        /* \"contracts/TaoNFT.sol\":5489:6062  function uint2str(uint _i) internal pure returns (string memory _uintAsString) {\r... */\n      swap4\n      pop\n      pop\n      pop\n      pop\n      jump\t// out\n        /* \"@openzeppelin/contracts/token/ERC721/extensions/ERC721Enumerable.sol\":4680:5650  function _removeTokenFromOwnerEnumeration(address from, uint256 tokenId) private {... */\n    tag_364:\n        /* \"@openzeppelin/contracts/token/ERC721/extensions/ERC721Enumerable.sol\":4942:4964  uint256 lastTokenIndex */\n      0x00\n        /* \"@openzeppelin/contracts/token/ERC721/extensions/ERC721Enumerable.sol\":4992:4993  1 */\n      0x01\n        /* \"@openzeppelin/contracts/token/ERC721/extensions/ERC721Enumerable.sol\":4967:4989  ERC721.balanceOf(from) */\n      tag_423\n        /* \"@openzeppelin/contracts/token/ERC721/extensions/ERC721Enumerable.sol\":4984:4988  from */\n      dup5\n        /* \"@openzeppelin/contracts/token/ERC721/extensions/ERC721Enumerable.sol\":4967:4983  ERC721.balanceOf */\n      tag_81\n        /* \"@openzeppelin/contracts/token/ERC721/extensions/ERC721Enumerable.sol\":4967:4989  ERC721.balanceOf(from) */\n      jump\t// in\n    tag_423:\n        /* \"@openzeppelin/contracts/token/ERC721/extensions/ERC721Enumerable.sol\":4967:4993  ERC721.balanceOf(from) - 1 */\n      tag_424\n      swap2\n      swap1\n      tag_301\n      jump\t// in\n    tag_424:\n        /* \"@openzeppelin/contracts/token/ERC721/extensions/ERC721Enumerable.sol\":5003:5021  uint256 tokenIndex */\n      0x00\n        /* \"@openzeppelin/contracts/token/ERC721/extensions/ERC721Enumerable.sol\":5024:5050  _ownedTokensIndex[tokenId] */\n      dup4\n      dup2\n      mstore\n        /* \"@openzeppelin/contracts/token/ERC721/extensions/ERC721Enumerable.sol\":5024:5041  _ownedTokensIndex */\n      0x07\n        /* \"@openzeppelin/contracts/token/ERC721/extensions/ERC721Enumerable.sol\":5024:5050  _ownedTokensIndex[tokenId] */\n      0x20\n      mstore\n      0x40\n      swap1\n      keccak256\n      sload\n        /* \"@openzeppelin/contracts/token/ERC721/extensions/ERC721Enumerable.sol\":4942:4993  uint256 lastTokenIndex = ERC721.balanceOf(from) - 1 */\n      swap1\n      swap2\n      pop\n        /* \"@openzeppelin/contracts/token/ERC721/extensions/ERC721Enumerable.sol\":5154:5182  tokenIndex != lastTokenIndex */\n      dup1\n      dup3\n      eq\n        /* \"@openzeppelin/contracts/token/ERC721/extensions/ERC721Enumerable.sol\":5150:5473  if (tokenIndex != lastTokenIndex) {... */\n      tag_425\n      jumpi\n      sub(shl(0xa0, 0x01), 0x01)\n        /* \"@openzeppelin/contracts/token/ERC721/extensions/ERC721Enumerable.sol\":5220:5238  _ownedTokens[from] */\n      dup5\n      and\n        /* \"@openzeppelin/contracts/token/ERC721/extensions/ERC721Enumerable.sol\":5198:5217  uint256 lastTokenId */\n      0x00\n        /* \"@openzeppelin/contracts/token/ERC721/extensions/ERC721Enumerable.sol\":5220:5238  _ownedTokens[from] */\n      swap1\n      dup2\n      mstore\n        /* \"@openzeppelin/contracts/token/ERC721/extensions/ERC721Enumerable.sol\":5220:5232  _ownedTokens */\n      0x06\n        /* \"@openzeppelin/contracts/token/ERC721/extensions/ERC721Enumerable.sol\":5220:5238  _ownedTokens[from] */\n      0x20\n      swap1\n      dup2\n      mstore\n      0x40\n      dup1\n      dup4\n      keccak256\n        /* \"@openzeppelin/contracts/token/ERC721/extensions/ERC721Enumerable.sol\":5220:5254  _ownedTokens[from][lastTokenIndex] */\n      dup6\n      dup5\n      mstore\n      dup3\n      mstore\n      dup1\n      dup4\n      keccak256\n      sload\n        /* \"@openzeppelin/contracts/token/ERC721/extensions/ERC721Enumerable.sol\":5269:5299  _ownedTokens[from][tokenIndex] */\n      dup5\n      dup5\n      mstore\n      dup2\n      dup5\n      keccak256\n        /* \"@openzeppelin/contracts/token/ERC721/extensions/ERC721Enumerable.sol\":5269:5313  _ownedTokens[from][tokenIndex] = lastTokenId */\n      dup2\n      swap1\n      sstore\n        /* \"@openzeppelin/contracts/token/ERC721/extensions/ERC721Enumerable.sol\":5385:5415  _ownedTokensIndex[lastTokenId] */\n      dup4\n      mstore\n        /* \"@openzeppelin/contracts/token/ERC721/extensions/ERC721Enumerable.sol\":5385:5402  _ownedTokensIndex */\n      0x07\n        /* \"@openzeppelin/contracts/token/ERC721/extensions/ERC721Enumerable.sol\":5385:5415  _ownedTokensIndex[lastTokenId] */\n      swap1\n      swap2\n      mstore\n      swap1\n      keccak256\n        /* \"@openzeppelin/contracts/token/ERC721/extensions/ERC721Enumerable.sol\":5385:5428  _ownedTokensIndex[lastTokenId] = tokenIndex */\n      dup2\n      swap1\n      sstore\n        /* \"@openzeppelin/contracts/token/ERC721/extensions/ERC721Enumerable.sol\":5150:5473  if (tokenIndex != lastTokenIndex) {... */\n    tag_425:\n      pop\n        /* \"@openzeppelin/contracts/token/ERC721/extensions/ERC721Enumerable.sol\":5566:5592  _ownedTokensIndex[tokenId] */\n      0x00\n      swap2\n      dup3\n      mstore\n        /* \"@openzeppelin/contracts/token/ERC721/extensions/ERC721Enumerable.sol\":5566:5583  _ownedTokensIndex */\n      0x07\n        /* \"@openzeppelin/contracts/token/ERC721/extensions/ERC721Enumerable.sol\":5566:5592  _ownedTokensIndex[tokenId] */\n      0x20\n      swap1\n      dup2\n      mstore\n      0x40\n      dup1\n      dup5\n      keccak256\n        /* \"@openzeppelin/contracts/token/ERC721/extensions/ERC721Enumerable.sol\":5559:5592  delete _ownedTokensIndex[tokenId] */\n      dup5\n      swap1\n      sstore\n      sub(shl(0xa0, 0x01), 0x01)\n        /* \"@openzeppelin/contracts/token/ERC721/extensions/ERC721Enumerable.sol\":5609:5627  _ownedTokens[from] */\n      swap1\n      swap5\n      and\n      dup4\n      mstore\n        /* \"@openzeppelin/contracts/token/ERC721/extensions/ERC721Enumerable.sol\":5609:5621  _ownedTokens */\n      0x06\n        /* \"@openzeppelin/contracts/token/ERC721/extensions/ERC721Enumerable.sol\":5609:5627  _ownedTokens[from] */\n      dup2\n      mstore\n      dup4\n      dup4\n      keccak256\n        /* \"@openzeppelin/contracts/token/ERC721/extensions/ERC721Enumerable.sol\":5609:5643  _ownedTokens[from][lastTokenIndex] */\n      swap2\n      dup4\n      mstore\n      mstore\n      swap1\n      dup2\n      keccak256\n        /* \"@openzeppelin/contracts/token/ERC721/extensions/ERC721Enumerable.sol\":5602:5643  delete _ownedTokens[from][lastTokenIndex] */\n      sstore\n        /* \"@openzeppelin/contracts/token/ERC721/extensions/ERC721Enumerable.sol\":4680:5650  function _removeTokenFromOwnerEnumeration(address from, uint256 tokenId) private {... */\n      jump\t// out\n        /* \"@openzeppelin/contracts/token/ERC721/extensions/ERC721Enumerable.sol\":5938:6999  function _removeTokenFromAllTokensEnumeration(uint256 tokenId) private {... */\n    tag_367:\n        /* \"@openzeppelin/contracts/token/ERC721/extensions/ERC721Enumerable.sol\":6212:6222  _allTokens */\n      0x08\n        /* \"@openzeppelin/contracts/token/ERC721/extensions/ERC721Enumerable.sol\":6212:6229  _allTokens.length */\n      sload\n        /* \"@openzeppelin/contracts/token/ERC721/extensions/ERC721Enumerable.sol\":6187:6209  uint256 lastTokenIndex */\n      0x00\n      swap1\n        /* \"@openzeppelin/contracts/token/ERC721/extensions/ERC721Enumerable.sol\":6212:6233  _allTokens.length - 1 */\n      tag_427\n      swap1\n        /* \"@openzeppelin/contracts/token/ERC721/extensions/ERC721Enumerable.sol\":6232:6233  1 */\n      0x01\n      swap1\n        /* \"@openzeppelin/contracts/token/ERC721/extensions/ERC721Enumerable.sol\":6212:6233  _allTokens.length - 1 */\n      tag_301\n      jump\t// in\n    tag_427:\n        /* \"@openzeppelin/contracts/token/ERC721/extensions/ERC721Enumerable.sol\":6243:6261  uint256 tokenIndex */\n      0x00\n        /* \"@openzeppelin/contracts/token/ERC721/extensions/ERC721Enumerable.sol\":6264:6288  _allTokensIndex[tokenId] */\n      dup4\n      dup2\n      mstore\n        /* \"@openzeppelin/contracts/token/ERC721/extensions/ERC721Enumerable.sol\":6264:6279  _allTokensIndex */\n      0x09\n        /* \"@openzeppelin/contracts/token/ERC721/extensions/ERC721Enumerable.sol\":6264:6288  _allTokensIndex[tokenId] */\n      0x20\n      mstore\n      0x40\n      dup2\n      keccak256\n      sload\n        /* \"@openzeppelin/contracts/token/ERC721/extensions/ERC721Enumerable.sol\":6632:6642  _allTokens */\n      0x08\n        /* \"@openzeppelin/contracts/token/ERC721/extensions/ERC721Enumerable.sol\":6632:6658  _allTokens[lastTokenIndex] */\n      dup1\n      sload\n        /* \"@openzeppelin/contracts/token/ERC721/extensions/ERC721Enumerable.sol\":6187:6233  uint256 lastTokenIndex = _allTokens.length - 1 */\n      swap4\n      swap5\n      pop\n        /* \"@openzeppelin/contracts/token/ERC721/extensions/ERC721Enumerable.sol\":6264:6288  _allTokensIndex[tokenId] */\n      swap1\n      swap3\n        /* \"@openzeppelin/contracts/token/ERC721/extensions/ERC721Enumerable.sol\":6187:6233  uint256 lastTokenIndex = _allTokens.length - 1 */\n      dup5\n      swap1\n        /* \"@openzeppelin/contracts/token/ERC721/extensions/ERC721Enumerable.sol\":6632:6658  _allTokens[lastTokenIndex] */\n      dup2\n      lt\n      tag_429\n      jumpi\n      tag_429\n      tag_193\n      jump\t// in\n    tag_429:\n      swap1\n      0x00\n      mstore\n      keccak256(0x00, 0x20)\n      add\n      sload\n        /* \"@openzeppelin/contracts/token/ERC721/extensions/ERC721Enumerable.sol\":6610:6658  uint256 lastTokenId = _allTokens[lastTokenIndex] */\n      swap1\n      pop\n        /* \"@openzeppelin/contracts/token/ERC721/extensions/ERC721Enumerable.sol\":6694:6705  lastTokenId */\n      dup1\n        /* \"@openzeppelin/contracts/token/ERC721/extensions/ERC721Enumerable.sol\":6669:6679  _allTokens */\n      0x08\n        /* \"@openzeppelin/contracts/token/ERC721/extensions/ERC721Enumerable.sol\":6680:6690  tokenIndex */\n      dup4\n        /* \"@openzeppelin/contracts/token/ERC721/extensions/ERC721Enumerable.sol\":6669:6691  _allTokens[tokenIndex] */\n      dup2\n      sload\n      dup2\n      lt\n      tag_432\n      jumpi\n      tag_432\n      tag_193\n      jump\t// in\n    tag_432:\n      0x00\n      swap2\n      dup3\n      mstore\n      0x20\n      dup1\n      dup4\n      keccak256\n      swap1\n      swap2\n      add\n        /* \"@openzeppelin/contracts/token/ERC721/extensions/ERC721Enumerable.sol\":6669:6705  _allTokens[tokenIndex] = lastTokenId */\n      swap3\n      swap1\n      swap3\n      sstore\n        /* \"@openzeppelin/contracts/token/ERC721/extensions/ERC721Enumerable.sol\":6773:6801  _allTokensIndex[lastTokenId] */\n      dup3\n      dup2\n      mstore\n        /* \"@openzeppelin/contracts/token/ERC721/extensions/ERC721Enumerable.sol\":6773:6788  _allTokensIndex */\n      0x09\n        /* \"@openzeppelin/contracts/token/ERC721/extensions/ERC721Enumerable.sol\":6773:6801  _allTokensIndex[lastTokenId] */\n      swap1\n      swap2\n      mstore\n      0x40\n      dup1\n      dup3\n      keccak256\n        /* \"@openzeppelin/contracts/token/ERC721/extensions/ERC721Enumerable.sol\":6773:6814  _allTokensIndex[lastTokenId] = tokenIndex */\n      dup5\n      swap1\n      sstore\n        /* \"@openzeppelin/contracts/token/ERC721/extensions/ERC721Enumerable.sol\":6942:6966  _allTokensIndex[tokenId] */\n      dup6\n      dup3\n      mstore\n      dup2\n      keccak256\n        /* \"@openzeppelin/contracts/token/ERC721/extensions/ERC721Enumerable.sol\":6935:6966  delete _allTokensIndex[tokenId] */\n      sstore\n        /* \"@openzeppelin/contracts/token/ERC721/extensions/ERC721Enumerable.sol\":6976:6986  _allTokens */\n      0x08\n        /* \"@openzeppelin/contracts/token/ERC721/extensions/ERC721Enumerable.sol\":6976:6992  _allTokens.pop() */\n      dup1\n      sload\n      dup1\n      tag_435\n      jumpi\n      tag_435\n      tag_436\n      jump\t// in\n    tag_435:\n      0x01\n      swap1\n      sub\n      dup2\n      dup2\n      swap1\n      0x00\n      mstore\n      keccak256(0x00, 0x20)\n      add\n      0x00\n      swap1\n      sstore\n      swap1\n      sstore\n        /* \"@openzeppelin/contracts/token/ERC721/extensions/ERC721Enumerable.sol\":6009:6999  {... */\n      pop\n      pop\n      pop\n        /* \"@openzeppelin/contracts/token/ERC721/extensions/ERC721Enumerable.sol\":5938:6999  function _removeTokenFromAllTokensEnumeration(uint256 tokenId) private {... */\n      pop\n      jump\t// out\n        /* \"@openzeppelin/contracts/token/ERC721/extensions/ERC721Enumerable.sol\":3490:3707  function _addTokenToOwnerEnumeration(address to, uint256 tokenId) private {... */\n    tag_371:\n        /* \"@openzeppelin/contracts/token/ERC721/extensions/ERC721Enumerable.sol\":3574:3588  uint256 length */\n      0x00\n        /* \"@openzeppelin/contracts/token/ERC721/extensions/ERC721Enumerable.sol\":3591:3611  ERC721.balanceOf(to) */\n      tag_439\n        /* \"@openzeppelin/contracts/token/ERC721/extensions/ERC721Enumerable.sol\":3608:3610  to */\n      dup4\n        /* \"@openzeppelin/contracts/token/ERC721/extensions/ERC721Enumerable.sol\":3591:3607  ERC721.balanceOf */\n      tag_81\n        /* \"@openzeppelin/contracts/token/ERC721/extensions/ERC721Enumerable.sol\":3591:3611  ERC721.balanceOf(to) */\n      jump\t// in\n    tag_439:\n      sub(shl(0xa0, 0x01), 0x01)\n        /* \"@openzeppelin/contracts/token/ERC721/extensions/ERC721Enumerable.sol\":3621:3637  _ownedTokens[to] */\n      swap1\n      swap4\n      and\n      0x00\n      swap1\n      dup2\n      mstore\n        /* \"@openzeppelin/contracts/token/ERC721/extensions/ERC721Enumerable.sol\":3621:3633  _ownedTokens */\n      0x06\n        /* \"@openzeppelin/contracts/token/ERC721/extensions/ERC721Enumerable.sol\":3621:3637  _ownedTokens[to] */\n      0x20\n      swap1\n      dup2\n      mstore\n      0x40\n      dup1\n      dup4\n      keccak256\n        /* \"@openzeppelin/contracts/token/ERC721/extensions/ERC721Enumerable.sol\":3621:3645  _ownedTokens[to][length] */\n      dup7\n      dup5\n      mstore\n      dup3\n      mstore\n      dup1\n      dup4\n      keccak256\n        /* \"@openzeppelin/contracts/token/ERC721/extensions/ERC721Enumerable.sol\":3621:3655  _ownedTokens[to][length] = tokenId */\n      dup6\n      swap1\n      sstore\n        /* \"@openzeppelin/contracts/token/ERC721/extensions/ERC721Enumerable.sol\":3665:3691  _ownedTokensIndex[tokenId] */\n      swap4\n      dup3\n      mstore\n        /* \"@openzeppelin/contracts/token/ERC721/extensions/ERC721Enumerable.sol\":3665:3682  _ownedTokensIndex */\n      0x07\n        /* \"@openzeppelin/contracts/token/ERC721/extensions/ERC721Enumerable.sol\":3665:3691  _ownedTokensIndex[tokenId] */\n      swap1\n      mstore\n      swap2\n      swap1\n      swap2\n      keccak256\n        /* \"@openzeppelin/contracts/token/ERC721/extensions/ERC721Enumerable.sol\":3665:3700  _ownedTokensIndex[tokenId] = length */\n      swap2\n      swap1\n      swap2\n      sstore\n      pop\n        /* \"@openzeppelin/contracts/token/ERC721/extensions/ERC721Enumerable.sol\":3490:3707  function _addTokenToOwnerEnumeration(address to, uint256 tokenId) private {... */\n      jump\t// out\n        /* \"@openzeppelin/contracts/token/ERC721/ERC721.sol\":8445:8756  function _safeMint(... */\n    tag_375:\n        /* \"@openzeppelin/contracts/token/ERC721/ERC721.sol\":8570:8588  _mint(to, tokenId) */\n      tag_441\n        /* \"@openzeppelin/contracts/token/ERC721/ERC721.sol\":8576:8578  to */\n      dup4\n        /* \"@openzeppelin/contracts/token/ERC721/ERC721.sol\":8580:8587  tokenId */\n      dup4\n        /* \"@openzeppelin/contracts/token/ERC721/ERC721.sol\":8570:8575  _mint */\n      tag_442\n        /* \"@openzeppelin/contracts/token/ERC721/ERC721.sol\":8570:8588  _mint(to, tokenId) */\n      jump\t// in\n    tag_441:\n        /* \"@openzeppelin/contracts/token/ERC721/ERC721.sol\":8619:8673  _checkOnERC721Received(address(0), to, tokenId, _data) */\n      tag_443\n        /* \"@openzeppelin/contracts/token/ERC721/ERC721.sol\":8650:8651  0 */\n      0x00\n        /* \"@openzeppelin/contracts/token/ERC721/ERC721.sol\":8654:8656  to */\n      dup5\n        /* \"@openzeppelin/contracts/token/ERC721/ERC721.sol\":8658:8665  tokenId */\n      dup5\n        /* \"@openzeppelin/contracts/token/ERC721/ERC721.sol\":8667:8672  _data */\n      dup5\n        /* \"@openzeppelin/contracts/token/ERC721/ERC721.sol\":8619:8641  _checkOnERC721Received */\n      tag_324\n        /* \"@openzeppelin/contracts/token/ERC721/ERC721.sol\":8619:8673  _checkOnERC721Received(address(0), to, tokenId, _data) */\n      jump\t// in\n    tag_443:\n        /* \"@openzeppelin/contracts/token/ERC721/ERC721.sol\":8598:8749  require(... */\n      tag_149\n      jumpi\n      mload(0x40)\n      shl(0xe5, 0x461bcd)\n      dup2\n      mstore\n      0x04\n      add\n      tag_134\n      swap1\n      tag_327\n      jump\t// in\n        /* \"@openzeppelin/contracts/token/ERC721/ERC721.sol\":9078:9505  function _mint(address to, uint256 tokenId) internal virtual {... */\n    tag_442:\n      sub(shl(0xa0, 0x01), 0x01)\n        /* \"@openzeppelin/contracts/token/ERC721/ERC721.sol\":9157:9173  to != address(0) */\n      dup3\n      and\n        /* \"@openzeppelin/contracts/token/ERC721/ERC721.sol\":9149:9210  require(to != address(0), \"ERC721: mint to the zero address\") */\n      tag_448\n      jumpi\n      mload(0x40)\n      shl(0xe5, 0x461bcd)\n      dup2\n      mstore\n        /* \"#utility.yul\":13701:13703   */\n      0x20\n        /* \"@openzeppelin/contracts/token/ERC721/ERC721.sol\":9149:9210  require(to != address(0), \"ERC721: mint to the zero address\") */\n      0x04\n      dup3\n      add\n        /* \"#utility.yul\":13683:13704   */\n      dup2\n      swap1\n      mstore\n        /* \"#utility.yul\":13720:13738   */\n      0x24\n      dup3\n      add\n        /* \"#utility.yul\":13713:13743   */\n      mstore\n        /* \"#utility.yul\":13779:13813   */\n      0x4552433732313a206d696e7420746f20746865207a65726f2061646472657373\n        /* \"#utility.yul\":13759:13777   */\n      0x44\n      dup3\n      add\n        /* \"#utility.yul\":13752:13814   */\n      mstore\n        /* \"#utility.yul\":13831:13849   */\n      0x64\n      add\n        /* \"@openzeppelin/contracts/token/ERC721/ERC721.sol\":9149:9210  require(to != address(0), \"ERC721: mint to the zero address\") */\n      tag_134\n        /* \"#utility.yul\":13673:13855   */\n      jump\n        /* \"@openzeppelin/contracts/token/ERC721/ERC721.sol\":9149:9210  require(to != address(0), \"ERC721: mint to the zero address\") */\n    tag_448:\n        /* \"@openzeppelin/contracts/token/ERC721/ERC721.sol\":7224:7228  bool */\n      0x00\n        /* \"@openzeppelin/contracts/token/ERC721/ERC721.sol\":7247:7263  _owners[tokenId] */\n      dup2\n      dup2\n      mstore\n        /* \"@openzeppelin/contracts/token/ERC721/ERC721.sol\":7247:7254  _owners */\n      0x02\n        /* \"@openzeppelin/contracts/token/ERC721/ERC721.sol\":7247:7263  _owners[tokenId] */\n      0x20\n      mstore\n      0x40\n      swap1\n      keccak256\n      sload\n      sub(shl(0xa0, 0x01), 0x01)\n      and\n        /* \"@openzeppelin/contracts/token/ERC721/ERC721.sol\":7247:7277  _owners[tokenId] != address(0) */\n      iszero\n        /* \"@openzeppelin/contracts/token/ERC721/ERC721.sol\":9220:9278  require(!_exists(tokenId), \"ERC721: token already minted\") */\n      tag_452\n      jumpi\n      mload(0x40)\n      shl(0xe5, 0x461bcd)\n      dup2\n      mstore\n        /* \"#utility.yul\":10170:10172   */\n      0x20\n        /* \"@openzeppelin/contracts/token/ERC721/ERC721.sol\":9220:9278  require(!_exists(tokenId), \"ERC721: token already minted\") */\n      0x04\n      dup3\n      add\n        /* \"#utility.yul\":10152:10173   */\n      mstore\n        /* \"#utility.yul\":10209:10211   */\n      0x1c\n        /* \"#utility.yul\":10189:10207   */\n      0x24\n      dup3\n      add\n        /* \"#utility.yul\":10182:10212   */\n      mstore\n        /* \"#utility.yul\":10248:10278   */\n      0x4552433732313a20746f6b656e20616c7265616479206d696e74656400000000\n        /* \"#utility.yul\":10228:10246   */\n      0x44\n      dup3\n      add\n        /* \"#utility.yul\":10221:10279   */\n      mstore\n        /* \"#utility.yul\":10296:10314   */\n      0x64\n      add\n        /* \"@openzeppelin/contracts/token/ERC721/ERC721.sol\":9220:9278  require(!_exists(tokenId), \"ERC721: token already minted\") */\n      tag_134\n        /* \"#utility.yul\":10142:10320   */\n      jump\n        /* \"@openzeppelin/contracts/token/ERC721/ERC721.sol\":9220:9278  require(!_exists(tokenId), \"ERC721: token already minted\") */\n    tag_452:\n        /* \"@openzeppelin/contracts/token/ERC721/ERC721.sol\":9289:9334  _beforeTokenTransfer(address(0), to, tokenId) */\n      tag_455\n        /* \"@openzeppelin/contracts/token/ERC721/ERC721.sol\":9318:9319  0 */\n      0x00\n        /* \"@openzeppelin/contracts/token/ERC721/ERC721.sol\":9322:9324  to */\n      dup4\n        /* \"@openzeppelin/contracts/token/ERC721/ERC721.sol\":9326:9333  tokenId */\n      dup4\n        /* \"@openzeppelin/contracts/token/ERC721/ERC721.sol\":9289:9309  _beforeTokenTransfer */\n      tag_298\n        /* \"@openzeppelin/contracts/token/ERC721/ERC721.sol\":9289:9334  _beforeTokenTransfer(address(0), to, tokenId) */\n      jump\t// in\n    tag_455:\n      sub(shl(0xa0, 0x01), 0x01)\n        /* \"@openzeppelin/contracts/token/ERC721/ERC721.sol\":9345:9358  _balances[to] */\n      dup3\n      and\n      0x00\n      swap1\n      dup2\n      mstore\n        /* \"@openzeppelin/contracts/token/ERC721/ERC721.sol\":9345:9354  _balances */\n      0x03\n        /* \"@openzeppelin/contracts/token/ERC721/ERC721.sol\":9345:9358  _balances[to] */\n      0x20\n      mstore\n      0x40\n      dup2\n      keccak256\n        /* \"@openzeppelin/contracts/token/ERC721/ERC721.sol\":9345:9363  _balances[to] += 1 */\n      dup1\n      sload\n        /* \"@openzeppelin/contracts/token/ERC721/ERC721.sol\":9362:9363  1 */\n      0x01\n      swap3\n        /* \"@openzeppelin/contracts/token/ERC721/ERC721.sol\":9345:9358  _balances[to] */\n      swap1\n        /* \"@openzeppelin/contracts/token/ERC721/ERC721.sol\":9345:9363  _balances[to] += 1 */\n      tag_456\n      swap1\n        /* \"@openzeppelin/contracts/token/ERC721/ERC721.sol\":9362:9363  1 */\n      dup5\n      swap1\n        /* \"@openzeppelin/contracts/token/ERC721/ERC721.sol\":9345:9363  _balances[to] += 1 */\n      tag_303\n      jump\t// in\n    tag_456:\n      swap1\n      swap2\n      sstore\n      pop\n      pop\n        /* \"@openzeppelin/contracts/token/ERC721/ERC721.sol\":9373:9389  _owners[tokenId] */\n      0x00\n      dup2\n      dup2\n      mstore\n        /* \"@openzeppelin/contracts/token/ERC721/ERC721.sol\":9373:9380  _owners */\n      0x02\n        /* \"@openzeppelin/contracts/token/ERC721/ERC721.sol\":9373:9389  _owners[tokenId] */\n      0x20\n      mstore\n      0x40\n      dup1\n      dup3\n      keccak256\n        /* \"@openzeppelin/contracts/token/ERC721/ERC721.sol\":9373:9394  _owners[tokenId] = to */\n      dup1\n      sload\n      not(sub(shl(0xa0, 0x01), 0x01))\n      and\n      sub(shl(0xa0, 0x01), 0x01)\n      dup7\n      and\n      swap1\n      dup2\n      or\n      swap1\n      swap2\n      sstore\n        /* \"@openzeppelin/contracts/token/ERC721/ERC721.sol\":9410:9443  Transfer(address(0), to, tokenId) */\n      swap1\n      mload\n        /* \"@openzeppelin/contracts/token/ERC721/ERC721.sol\":9373:9389  _owners[tokenId] */\n      dup4\n      swap3\n      swap1\n        /* \"@openzeppelin/contracts/token/ERC721/ERC721.sol\":9410:9443  Transfer(address(0), to, tokenId) */\n      0xddf252ad1be2c89b69c2b068fc378daa952ba7f163c4a11628f55a4df523b3ef\n      swap1\n        /* \"@openzeppelin/contracts/token/ERC721/ERC721.sol\":9373:9389  _owners[tokenId] */\n      dup3\n      swap1\n        /* \"@openzeppelin/contracts/token/ERC721/ERC721.sol\":9410:9443  Transfer(address(0), to, tokenId) */\n      log4\n        /* \"@openzeppelin/contracts/token/ERC721/ERC721.sol\":4283:4436  function setApprovalForAll(address operator, bool approved) public virtual override {... */\n      pop\n      pop\n      jump\t// out\n        /* \"#utility.yul\":14:187   */\n    tag_459:\n        /* \"#utility.yul\":82:102   */\n      dup1\n      calldataload\n      sub(shl(0xa0, 0x01), 0x01)\n        /* \"#utility.yul\":131:162   */\n      dup2\n      and\n        /* \"#utility.yul\":121:163   */\n      dup2\n      eq\n        /* \"#utility.yul\":111:113   */\n      tag_461\n      jumpi\n        /* \"#utility.yul\":177:178   */\n      0x00\n        /* \"#utility.yul\":174:175   */\n      dup1\n        /* \"#utility.yul\":167:179   */\n      revert\n        /* \"#utility.yul\":111:113   */\n    tag_461:\n        /* \"#utility.yul\":63:187   */\n      swap2\n      swap1\n      pop\n      jump\t// out\n        /* \"#utility.yul\":192:378   */\n    tag_80:\n        /* \"#utility.yul\":251:257   */\n      0x00\n        /* \"#utility.yul\":304:306   */\n      0x20\n        /* \"#utility.yul\":292:301   */\n      dup3\n        /* \"#utility.yul\":283:290   */\n      dup5\n        /* \"#utility.yul\":279:302   */\n      sub\n        /* \"#utility.yul\":275:307   */\n      slt\n        /* \"#utility.yul\":272:274   */\n      iszero\n      tag_463\n      jumpi\n        /* \"#utility.yul\":320:321   */\n      0x00\n        /* \"#utility.yul\":317:318   */\n      dup1\n        /* \"#utility.yul\":310:322   */\n      revert\n        /* \"#utility.yul\":272:274   */\n    tag_463:\n        /* \"#utility.yul\":343:372   */\n      tag_308\n        /* \"#utility.yul\":362:371   */\n      dup3\n        /* \"#utility.yul\":343:372   */\n      tag_459\n      jump\t// in\n        /* \"#utility.yul\":383:643   */\n    tag_113:\n        /* \"#utility.yul\":451:457   */\n      0x00\n        /* \"#utility.yul\":459:465   */\n      dup1\n        /* \"#utility.yul\":512:514   */\n      0x40\n        /* \"#utility.yul\":500:509   */\n      dup4\n        /* \"#utility.yul\":491:498   */\n      dup6\n        /* \"#utility.yul\":487:510   */\n      sub\n        /* \"#utility.yul\":483:515   */\n      slt\n        /* \"#utility.yul\":480:482   */\n      iszero\n      tag_466\n      jumpi\n        /* \"#utility.yul\":528:529   */\n      0x00\n        /* \"#utility.yul\":525:526   */\n      dup1\n        /* \"#utility.yul\":518:530   */\n      revert\n        /* \"#utility.yul\":480:482   */\n    tag_466:\n        /* \"#utility.yul\":551:580   */\n      tag_467\n        /* \"#utility.yul\":570:579   */\n      dup4\n        /* \"#utility.yul\":551:580   */\n      tag_459\n      jump\t// in\n    tag_467:\n        /* \"#utility.yul\":541:580   */\n      swap2\n      pop\n        /* \"#utility.yul\":599:637   */\n      tag_468\n        /* \"#utility.yul\":633:635   */\n      0x20\n        /* \"#utility.yul\":622:631   */\n      dup5\n        /* \"#utility.yul\":618:636   */\n      add\n        /* \"#utility.yul\":599:637   */\n      tag_459\n      jump\t// in\n    tag_468:\n        /* \"#utility.yul\":589:637   */\n      swap1\n      pop\n        /* \"#utility.yul\":470:643   */\n      swap3\n      pop\n      swap3\n      swap1\n      pop\n      jump\t// out\n        /* \"#utility.yul\":648:976   */\n    tag_55:\n        /* \"#utility.yul\":725:731   */\n      0x00\n        /* \"#utility.yul\":733:739   */\n      dup1\n        /* \"#utility.yul\":741:747   */\n      0x00\n        /* \"#utility.yul\":794:796   */\n      0x60\n        /* \"#utility.yul\":782:791   */\n      dup5\n        /* \"#utility.yul\":773:780   */\n      dup7\n        /* \"#utility.yul\":769:792   */\n      sub\n        /* \"#utility.yul\":765:797   */\n      slt\n        /* \"#utility.yul\":762:764   */\n      iszero\n      tag_470\n      jumpi\n        /* \"#utility.yul\":810:811   */\n      0x00\n        /* \"#utility.yul\":807:808   */\n      dup1\n        /* \"#utility.yul\":800:812   */\n      revert\n        /* \"#utility.yul\":762:764   */\n    tag_470:\n        /* \"#utility.yul\":833:862   */\n      tag_471\n        /* \"#utility.yul\":852:861   */\n      dup5\n        /* \"#utility.yul\":833:862   */\n      tag_459\n      jump\t// in\n    tag_471:\n        /* \"#utility.yul\":823:862   */\n      swap3\n      pop\n        /* \"#utility.yul\":881:919   */\n      tag_472\n        /* \"#utility.yul\":915:917   */\n      0x20\n        /* \"#utility.yul\":904:913   */\n      dup6\n        /* \"#utility.yul\":900:918   */\n      add\n        /* \"#utility.yul\":881:919   */\n      tag_459\n      jump\t// in\n    tag_472:\n        /* \"#utility.yul\":871:919   */\n      swap2\n      pop\n        /* \"#utility.yul\":966:968   */\n      0x40\n        /* \"#utility.yul\":955:964   */\n      dup5\n        /* \"#utility.yul\":951:969   */\n      add\n        /* \"#utility.yul\":938:970   */\n      calldataload\n        /* \"#utility.yul\":928:970   */\n      swap1\n      pop\n        /* \"#utility.yul\":752:976   */\n      swap3\n      pop\n      swap3\n      pop\n      swap3\n      jump\t// out\n        /* \"#utility.yul\":981:2119   */\n    tag_102:\n        /* \"#utility.yul\":1076:1082   */\n      0x00\n        /* \"#utility.yul\":1084:1090   */\n      dup1\n        /* \"#utility.yul\":1092:1098   */\n      0x00\n        /* \"#utility.yul\":1100:1106   */\n      dup1\n        /* \"#utility.yul\":1153:1156   */\n      0x80\n        /* \"#utility.yul\":1141:1150   */\n      dup6\n        /* \"#utility.yul\":1132:1139   */\n      dup8\n        /* \"#utility.yul\":1128:1151   */\n      sub\n        /* \"#utility.yul\":1124:1157   */\n      slt\n        /* \"#utility.yul\":1121:1123   */\n      iszero\n      tag_474\n      jumpi\n        /* \"#utility.yul\":1170:1171   */\n      0x00\n        /* \"#utility.yul\":1167:1168   */\n      dup1\n        /* \"#utility.yul\":1160:1172   */\n      revert\n        /* \"#utility.yul\":1121:1123   */\n    tag_474:\n        /* \"#utility.yul\":1193:1222   */\n      tag_475\n        /* \"#utility.yul\":1212:1221   */\n      dup6\n        /* \"#utility.yul\":1193:1222   */\n      tag_459\n      jump\t// in\n    tag_475:\n        /* \"#utility.yul\":1183:1222   */\n      swap4\n      pop\n        /* \"#utility.yul\":1241:1279   */\n      tag_476\n        /* \"#utility.yul\":1275:1277   */\n      0x20\n        /* \"#utility.yul\":1264:1273   */\n      dup7\n        /* \"#utility.yul\":1260:1278   */\n      add\n        /* \"#utility.yul\":1241:1279   */\n      tag_459\n      jump\t// in\n    tag_476:\n        /* \"#utility.yul\":1231:1279   */\n      swap3\n      pop\n        /* \"#utility.yul\":1326:1328   */\n      0x40\n        /* \"#utility.yul\":1315:1324   */\n      dup6\n        /* \"#utility.yul\":1311:1329   */\n      add\n        /* \"#utility.yul\":1298:1330   */\n      calldataload\n        /* \"#utility.yul\":1288:1330   */\n      swap2\n      pop\n        /* \"#utility.yul\":1381:1383   */\n      0x60\n        /* \"#utility.yul\":1370:1379   */\n      dup6\n        /* \"#utility.yul\":1366:1384   */\n      add\n        /* \"#utility.yul\":1353:1385   */\n      calldataload\n        /* \"#utility.yul\":1404:1422   */\n      0xffffffffffffffff\n        /* \"#utility.yul\":1445:1447   */\n      dup1\n        /* \"#utility.yul\":1437:1443   */\n      dup3\n        /* \"#utility.yul\":1434:1448   */\n      gt\n        /* \"#utility.yul\":1431:1433   */\n      iszero\n      tag_477\n      jumpi\n        /* \"#utility.yul\":1461:1462   */\n      0x00\n        /* \"#utility.yul\":1458:1459   */\n      dup1\n        /* \"#utility.yul\":1451:1463   */\n      revert\n        /* \"#utility.yul\":1431:1433   */\n    tag_477:\n        /* \"#utility.yul\":1499:1505   */\n      dup2\n        /* \"#utility.yul\":1488:1497   */\n      dup8\n        /* \"#utility.yul\":1484:1506   */\n      add\n        /* \"#utility.yul\":1474:1506   */\n      swap2\n      pop\n        /* \"#utility.yul\":1544:1551   */\n      dup8\n        /* \"#utility.yul\":1537:1541   */\n      0x1f\n        /* \"#utility.yul\":1533:1535   */\n      dup4\n        /* \"#utility.yul\":1529:1542   */\n      add\n        /* \"#utility.yul\":1525:1552   */\n      slt\n        /* \"#utility.yul\":1515:1517   */\n      tag_478\n      jumpi\n        /* \"#utility.yul\":1566:1567   */\n      0x00\n        /* \"#utility.yul\":1563:1564   */\n      dup1\n        /* \"#utility.yul\":1556:1568   */\n      revert\n        /* \"#utility.yul\":1515:1517   */\n    tag_478:\n        /* \"#utility.yul\":1602:1604   */\n      dup2\n        /* \"#utility.yul\":1589:1605   */\n      calldataload\n        /* \"#utility.yul\":1624:1626   */\n      dup2\n        /* \"#utility.yul\":1620:1622   */\n      dup2\n        /* \"#utility.yul\":1617:1627   */\n      gt\n        /* \"#utility.yul\":1614:1616   */\n      iszero\n      tag_480\n      jumpi\n        /* \"#utility.yul\":1630:1648   */\n      tag_480\n      tag_216\n      jump\t// in\n    tag_480:\n        /* \"#utility.yul\":1705:1707   */\n      0x40\n        /* \"#utility.yul\":1699:1708   */\n      mload\n        /* \"#utility.yul\":1673:1675   */\n      0x1f\n        /* \"#utility.yul\":1759:1772   */\n      dup3\n      add\n      not(0x1f)\n        /* \"#utility.yul\":1755:1777   */\n      swap1\n      dup2\n      and\n        /* \"#utility.yul\":1779:1781   */\n      0x3f\n        /* \"#utility.yul\":1751:1782   */\n      add\n        /* \"#utility.yul\":1747:1787   */\n      and\n        /* \"#utility.yul\":1735:1788   */\n      dup2\n      add\n      swap1\n        /* \"#utility.yul\":1803:1821   */\n      dup4\n      dup3\n      gt\n        /* \"#utility.yul\":1823:1845   */\n      dup2\n      dup4\n      lt\n        /* \"#utility.yul\":1800:1846   */\n      or\n        /* \"#utility.yul\":1797:1799   */\n      iszero\n      tag_482\n      jumpi\n        /* \"#utility.yul\":1849:1867   */\n      tag_482\n      tag_216\n      jump\t// in\n    tag_482:\n        /* \"#utility.yul\":1889:1899   */\n      dup2\n        /* \"#utility.yul\":1885:1887   */\n      0x40\n        /* \"#utility.yul\":1878:1900   */\n      mstore\n        /* \"#utility.yul\":1924:1926   */\n      dup3\n        /* \"#utility.yul\":1916:1922   */\n      dup2\n        /* \"#utility.yul\":1909:1927   */\n      mstore\n        /* \"#utility.yul\":1964:1971   */\n      dup11\n        /* \"#utility.yul\":1959:1961   */\n      0x20\n        /* \"#utility.yul\":1954:1956   */\n      dup5\n        /* \"#utility.yul\":1950:1952   */\n      dup8\n        /* \"#utility.yul\":1946:1957   */\n      add\n        /* \"#utility.yul\":1942:1962   */\n      add\n        /* \"#utility.yul\":1939:1972   */\n      gt\n        /* \"#utility.yul\":1936:1938   */\n      iszero\n      tag_483\n      jumpi\n        /* \"#utility.yul\":1985:1986   */\n      0x00\n        /* \"#utility.yul\":1982:1983   */\n      dup1\n        /* \"#utility.yul\":1975:1987   */\n      revert\n        /* \"#utility.yul\":1936:1938   */\n    tag_483:\n        /* \"#utility.yul\":2041:2043   */\n      dup3\n        /* \"#utility.yul\":2036:2038   */\n      0x20\n        /* \"#utility.yul\":2032:2034   */\n      dup7\n        /* \"#utility.yul\":2028:2039   */\n      add\n        /* \"#utility.yul\":2023:2025   */\n      0x20\n        /* \"#utility.yul\":2015:2021   */\n      dup4\n        /* \"#utility.yul\":2011:2026   */\n      add\n        /* \"#utility.yul\":1998:2044   */\n      calldatacopy\n        /* \"#utility.yul\":2086:2087   */\n      0x00\n        /* \"#utility.yul\":2081:2083   */\n      0x20\n        /* \"#utility.yul\":2076:2078   */\n      dup5\n        /* \"#utility.yul\":2068:2074   */\n      dup4\n        /* \"#utility.yul\":2064:2079   */\n      add\n        /* \"#utility.yul\":2060:2084   */\n      add\n        /* \"#utility.yul\":2053:2088   */\n      mstore\n        /* \"#utility.yul\":2107:2113   */\n      dup1\n        /* \"#utility.yul\":2097:2113   */\n      swap6\n      pop\n      pop\n      pop\n      pop\n      pop\n      pop\n        /* \"#utility.yul\":1111:2119   */\n      swap3\n      swap6\n      swap2\n      swap5\n      pop\n      swap3\n      pop\n      jump\t// out\n        /* \"#utility.yul\":2124:2471   */\n    tag_98:\n        /* \"#utility.yul\":2189:2195   */\n      0x00\n        /* \"#utility.yul\":2197:2203   */\n      dup1\n        /* \"#utility.yul\":2250:2252   */\n      0x40\n        /* \"#utility.yul\":2238:2247   */\n      dup4\n        /* \"#utility.yul\":2229:2236   */\n      dup6\n        /* \"#utility.yul\":2225:2248   */\n      sub\n        /* \"#utility.yul\":2221:2253   */\n      slt\n        /* \"#utility.yul\":2218:2220   */\n      iszero\n      tag_485\n      jumpi\n        /* \"#utility.yul\":2266:2267   */\n      0x00\n        /* \"#utility.yul\":2263:2264   */\n      dup1\n        /* \"#utility.yul\":2256:2268   */\n      revert\n        /* \"#utility.yul\":2218:2220   */\n    tag_485:\n        /* \"#utility.yul\":2289:2318   */\n      tag_486\n        /* \"#utility.yul\":2308:2317   */\n      dup4\n        /* \"#utility.yul\":2289:2318   */\n      tag_459\n      jump\t// in\n    tag_486:\n        /* \"#utility.yul\":2279:2318   */\n      swap2\n      pop\n        /* \"#utility.yul\":2368:2370   */\n      0x20\n        /* \"#utility.yul\":2357:2366   */\n      dup4\n        /* \"#utility.yul\":2353:2371   */\n      add\n        /* \"#utility.yul\":2340:2372   */\n      calldataload\n        /* \"#utility.yul\":2415:2420   */\n      dup1\n        /* \"#utility.yul\":2408:2421   */\n      iszero\n        /* \"#utility.yul\":2401:2422   */\n      iszero\n        /* \"#utility.yul\":2394:2399   */\n      dup2\n        /* \"#utility.yul\":2391:2423   */\n      eq\n        /* \"#utility.yul\":2381:2383   */\n      tag_487\n      jumpi\n        /* \"#utility.yul\":2437:2438   */\n      0x00\n        /* \"#utility.yul\":2434:2435   */\n      dup1\n        /* \"#utility.yul\":2427:2439   */\n      revert\n        /* \"#utility.yul\":2381:2383   */\n    tag_487:\n        /* \"#utility.yul\":2460:2465   */\n      dup1\n        /* \"#utility.yul\":2450:2465   */\n      swap2\n      pop\n      pop\n        /* \"#utility.yul\":2208:2471   */\n      swap3\n      pop\n      swap3\n      swap1\n      pop\n      jump\t// out\n        /* \"#utility.yul\":2476:2730   */\n    tag_47:\n        /* \"#utility.yul\":2544:2550   */\n      0x00\n        /* \"#utility.yul\":2552:2558   */\n      dup1\n        /* \"#utility.yul\":2605:2607   */\n      0x40\n        /* \"#utility.yul\":2593:2602   */\n      dup4\n        /* \"#utility.yul\":2584:2591   */\n      dup6\n        /* \"#utility.yul\":2580:2603   */\n      sub\n        /* \"#utility.yul\":2576:2608   */\n      slt\n        /* \"#utility.yul\":2573:2575   */\n      iszero\n      tag_489\n      jumpi\n        /* \"#utility.yul\":2621:2622   */\n      0x00\n        /* \"#utility.yul\":2618:2619   */\n      dup1\n        /* \"#utility.yul\":2611:2623   */\n      revert\n        /* \"#utility.yul\":2573:2575   */\n    tag_489:\n        /* \"#utility.yul\":2644:2673   */\n      tag_490\n        /* \"#utility.yul\":2663:2672   */\n      dup4\n        /* \"#utility.yul\":2644:2673   */\n      tag_459\n      jump\t// in\n    tag_490:\n        /* \"#utility.yul\":2634:2673   */\n      swap5\n        /* \"#utility.yul\":2720:2722   */\n      0x20\n        /* \"#utility.yul\":2705:2723   */\n      swap4\n      swap1\n      swap4\n      add\n        /* \"#utility.yul\":2692:2724   */\n      calldataload\n      swap4\n      pop\n      pop\n      pop\n        /* \"#utility.yul\":2563:2730   */\n      jump\t// out\n        /* \"#utility.yul\":2735:2980   */\n    tag_31:\n        /* \"#utility.yul\":2793:2799   */\n      0x00\n        /* \"#utility.yul\":2846:2848   */\n      0x20\n        /* \"#utility.yul\":2834:2843   */\n      dup3\n        /* \"#utility.yul\":2825:2832   */\n      dup5\n        /* \"#utility.yul\":2821:2844   */\n      sub\n        /* \"#utility.yul\":2817:2849   */\n      slt\n        /* \"#utility.yul\":2814:2816   */\n      iszero\n      tag_492\n      jumpi\n        /* \"#utility.yul\":2862:2863   */\n      0x00\n        /* \"#utility.yul\":2859:2860   */\n      dup1\n        /* \"#utility.yul\":2852:2864   */\n      revert\n        /* \"#utility.yul\":2814:2816   */\n    tag_492:\n        /* \"#utility.yul\":2901:2910   */\n      dup2\n        /* \"#utility.yul\":2888:2911   */\n      calldataload\n        /* \"#utility.yul\":2920:2950   */\n      tag_308\n        /* \"#utility.yul\":2944:2949   */\n      dup2\n        /* \"#utility.yul\":2920:2950   */\n      tag_494\n      jump\t// in\n        /* \"#utility.yul\":2985:3234   */\n    tag_387:\n        /* \"#utility.yul\":3054:3060   */\n      0x00\n        /* \"#utility.yul\":3107:3109   */\n      0x20\n        /* \"#utility.yul\":3095:3104   */\n      dup3\n        /* \"#utility.yul\":3086:3093   */\n      dup5\n        /* \"#utility.yul\":3082:3105   */\n      sub\n        /* \"#utility.yul\":3078:3110   */\n      slt\n        /* \"#utility.yul\":3075:3077   */\n      iszero\n      tag_496\n      jumpi\n        /* \"#utility.yul\":3123:3124   */\n      0x00\n        /* \"#utility.yul\":3120:3121   */\n      dup1\n        /* \"#utility.yul\":3113:3125   */\n      revert\n        /* \"#utility.yul\":3075:3077   */\n    tag_496:\n        /* \"#utility.yul\":3155:3164   */\n      dup2\n        /* \"#utility.yul\":3149:3165   */\n      mload\n        /* \"#utility.yul\":3174:3204   */\n      tag_308\n        /* \"#utility.yul\":3198:3203   */\n      dup2\n        /* \"#utility.yul\":3174:3204   */\n      tag_494\n      jump\t// in\n        /* \"#utility.yul\":3239:3419   */\n    tag_41:\n        /* \"#utility.yul\":3298:3304   */\n      0x00\n        /* \"#utility.yul\":3351:3353   */\n      0x20\n        /* \"#utility.yul\":3339:3348   */\n      dup3\n        /* \"#utility.yul\":3330:3337   */\n      dup5\n        /* \"#utility.yul\":3326:3349   */\n      sub\n        /* \"#utility.yul\":3322:3354   */\n      slt\n        /* \"#utility.yul\":3319:3321   */\n      iszero\n      tag_499\n      jumpi\n        /* \"#utility.yul\":3367:3368   */\n      0x00\n        /* \"#utility.yul\":3364:3365   */\n      dup1\n        /* \"#utility.yul\":3357:3369   */\n      revert\n        /* \"#utility.yul\":3319:3321   */\n    tag_499:\n      pop\n        /* \"#utility.yul\":3390:3413   */\n      calldataload\n      swap2\n        /* \"#utility.yul\":3309:3419   */\n      swap1\n      pop\n      jump\t// out\n        /* \"#utility.yul\":3424:3681   */\n    tag_500:\n        /* \"#utility.yul\":3465:3468   */\n      0x00\n        /* \"#utility.yul\":3503:3508   */\n      dup2\n        /* \"#utility.yul\":3497:3509   */\n      mload\n        /* \"#utility.yul\":3530:3536   */\n      dup1\n        /* \"#utility.yul\":3525:3528   */\n      dup5\n        /* \"#utility.yul\":3518:3537   */\n      mstore\n        /* \"#utility.yul\":3546:3609   */\n      tag_502\n        /* \"#utility.yul\":3602:3608   */\n      dup2\n        /* \"#utility.yul\":3595:3599   */\n      0x20\n        /* \"#utility.yul\":3590:3593   */\n      dup7\n        /* \"#utility.yul\":3586:3600   */\n      add\n        /* \"#utility.yul\":3579:3583   */\n      0x20\n        /* \"#utility.yul\":3572:3577   */\n      dup7\n        /* \"#utility.yul\":3568:3584   */\n      add\n        /* \"#utility.yul\":3546:3609   */\n      tag_503\n      jump\t// in\n    tag_502:\n        /* \"#utility.yul\":3663:3665   */\n      0x1f\n        /* \"#utility.yul\":3642:3657   */\n      add\n      not(0x1f)\n        /* \"#utility.yul\":3638:3667   */\n      and\n        /* \"#utility.yul\":3629:3668   */\n      swap3\n      swap1\n      swap3\n      add\n        /* \"#utility.yul\":3670:3674   */\n      0x20\n        /* \"#utility.yul\":3625:3675   */\n      add\n      swap3\n        /* \"#utility.yul\":3473:3681   */\n      swap2\n      pop\n      pop\n      jump\t// out\n        /* \"#utility.yul\":3686:4350   */\n    tag_336:\n        /* \"#utility.yul\":3913:3916   */\n      0x00\n        /* \"#utility.yul\":3951:3957   */\n      dup5\n        /* \"#utility.yul\":3945:3958   */\n      mload\n        /* \"#utility.yul\":3967:4020   */\n      tag_505\n        /* \"#utility.yul\":4013:4019   */\n      dup2\n        /* \"#utility.yul\":4008:4011   */\n      dup5\n        /* \"#utility.yul\":4001:4005   */\n      0x20\n        /* \"#utility.yul\":3993:3999   */\n      dup10\n        /* \"#utility.yul\":3989:4006   */\n      add\n        /* \"#utility.yul\":3967:4020   */\n      tag_503\n      jump\t// in\n    tag_505:\n        /* \"#utility.yul\":4083:4096   */\n      dup5\n      mload\n        /* \"#utility.yul\":4042:4058   */\n      swap1\n      dup4\n      add\n      swap1\n        /* \"#utility.yul\":4105:4162   */\n      tag_506\n        /* \"#utility.yul\":4083:4096   */\n      dup2\n        /* \"#utility.yul\":4042:4058   */\n      dup4\n        /* \"#utility.yul\":4139:4143   */\n      0x20\n        /* \"#utility.yul\":4127:4144   */\n      dup10\n      add\n        /* \"#utility.yul\":4105:4162   */\n      tag_503\n      jump\t// in\n    tag_506:\n        /* \"#utility.yul\":4229:4242   */\n      dup5\n      mload\n        /* \"#utility.yul\":4184:4204   */\n      swap2\n      add\n      swap1\n        /* \"#utility.yul\":4251:4308   */\n      tag_507\n        /* \"#utility.yul\":4229:4242   */\n      dup2\n        /* \"#utility.yul\":4184:4204   */\n      dup4\n        /* \"#utility.yul\":4285:4289   */\n      0x20\n        /* \"#utility.yul\":4273:4290   */\n      dup9\n      add\n        /* \"#utility.yul\":4251:4308   */\n      tag_503\n      jump\t// in\n    tag_507:\n        /* \"#utility.yul\":4324:4344   */\n      add\n      swap6\n        /* \"#utility.yul\":3921:4350   */\n      swap5\n      pop\n      pop\n      pop\n      pop\n      pop\n      jump\t// out\n        /* \"#utility.yul\":4355:4969   */\n    tag_332:\n        /* \"#utility.yul\":4635:4638   */\n      0x00\n        /* \"#utility.yul\":4673:4679   */\n      dup4\n        /* \"#utility.yul\":4667:4680   */\n      mload\n        /* \"#utility.yul\":4689:4742   */\n      tag_509\n        /* \"#utility.yul\":4735:4741   */\n      dup2\n        /* \"#utility.yul\":4730:4733   */\n      dup5\n        /* \"#utility.yul\":4723:4727   */\n      0x20\n        /* \"#utility.yul\":4715:4721   */\n      dup9\n        /* \"#utility.yul\":4711:4728   */\n      add\n        /* \"#utility.yul\":4689:4742   */\n      tag_503\n      jump\t// in\n    tag_509:\n      shl(0xf8, 0x23)\n        /* \"#utility.yul\":4764:4780   */\n      swap1\n      dup4\n      add\n        /* \"#utility.yul\":4789:4807   */\n      swap1\n      dup2\n      mstore\n        /* \"#utility.yul\":4832:4845   */\n      dup4\n      mload\n        /* \"#utility.yul\":4854:4919   */\n      tag_510\n        /* \"#utility.yul\":4832:4845   */\n      dup2\n        /* \"#utility.yul\":4906:4907   */\n      0x01\n        /* \"#utility.yul\":4895:4908   */\n      dup5\n      add\n        /* \"#utility.yul\":4888:4892   */\n      0x20\n        /* \"#utility.yul\":4876:4893   */\n      dup9\n      add\n        /* \"#utility.yul\":4854:4919   */\n      tag_503\n      jump\t// in\n    tag_510:\n        /* \"#utility.yul\":4939:4959   */\n      add\n        /* \"#utility.yul\":4961:4962   */\n      0x01\n        /* \"#utility.yul\":4935:4963   */\n      add\n      swap5\n        /* \"#utility.yul\":4643:4969   */\n      swap4\n      pop\n      pop\n      pop\n      pop\n      jump\t// out\n        /* \"#utility.yul\":4974:6112   */\n    tag_250:\n      shl(0xb1, 0x3d912730b6b2911d1011)\n        /* \"#utility.yul\":5474:5519   */\n      dup2\n      mstore\n        /* \"#utility.yul\":5542:5555   */\n      dup3\n      mload\n        /* \"#utility.yul\":5456:5459   */\n      0x00\n      swap1\n        /* \"#utility.yul\":5564:5626   */\n      tag_512\n        /* \"#utility.yul\":5542:5555   */\n      dup2\n        /* \"#utility.yul\":5614:5616   */\n      0x0a\n        /* \"#utility.yul\":5605:5617   */\n      dup6\n      add\n        /* \"#utility.yul\":5598:5602   */\n      0x20\n        /* \"#utility.yul\":5586:5603   */\n      dup9\n      add\n        /* \"#utility.yul\":5564:5626   */\n      tag_503\n      jump\t// in\n    tag_512:\n        /* \"#utility.yul\":5690:5756   */\n      0x222c20226465736372697074696f6e223a20224120436f6c6c656374696f6e20\n        /* \"#utility.yul\":5685:5687   */\n      0x0a\n        /* \"#utility.yul\":5645:5661   */\n      swap2\n      dup5\n      add\n        /* \"#utility.yul\":5677:5688   */\n      swap2\n      dup3\n      add\n        /* \"#utility.yul\":5670:5757   */\n      mstore\n        /* \"#utility.yul\":5786:5820   */\n      0x6f66203920546573744e6574204e46545320666f7220426c6f636b67616d6573\n        /* \"#utility.yul\":5781:5783   */\n      0x2a\n        /* \"#utility.yul\":5773:5784   */\n      dup3\n      add\n        /* \"#utility.yul\":5766:5821   */\n      mstore\n      shl(0x99, 0x1116101134b6b0b3b2911d1011)\n        /* \"#utility.yul\":5845:5847   */\n      0x4a\n        /* \"#utility.yul\":5837:5848   */\n      dup3\n      add\n        /* \"#utility.yul\":5830:5889   */\n      mstore\n        /* \"#utility.yul\":5914:5927   */\n      dup4\n      mload\n        /* \"#utility.yul\":5936:5999   */\n      tag_513\n        /* \"#utility.yul\":5914:5927   */\n      dup2\n        /* \"#utility.yul\":5985:5987   */\n      0x57\n        /* \"#utility.yul\":5977:5988   */\n      dup5\n      add\n        /* \"#utility.yul\":5970:5974   */\n      0x20\n        /* \"#utility.yul\":5958:5975   */\n      dup9\n      add\n        /* \"#utility.yul\":5936:5999   */\n      tag_503\n      jump\t// in\n    tag_513:\n      shl(0xf0, 0x227d)\n        /* \"#utility.yul\":6059:6061   */\n      0x57\n        /* \"#utility.yul\":6018:6035   */\n      swap3\n      swap1\n      swap2\n      add\n        /* \"#utility.yul\":6051:6062   */\n      swap2\n      dup3\n      add\n        /* \"#utility.yul\":6044:6079   */\n      mstore\n        /* \"#utility.yul\":6103:6105   */\n      0x59\n        /* \"#utility.yul\":6095:6106   */\n      add\n      swap5\n        /* \"#utility.yul\":5464:6112   */\n      swap4\n      pop\n      pop\n      pop\n      pop\n      jump\t// out\n        /* \"#utility.yul\":6117:6565   */\n    tag_253:\n        /* \"#utility.yul\":6379:6410   */\n      0x646174613a6170706c69636174696f6e2f6a736f6e3b6261736536342c000000\n        /* \"#utility.yul\":6374:6377   */\n      dup2\n        /* \"#utility.yul\":6367:6411   */\n      mstore\n        /* \"#utility.yul\":6349:6352   */\n      0x00\n        /* \"#utility.yul\":6440:6446   */\n      dup3\n        /* \"#utility.yul\":6434:6447   */\n      mload\n        /* \"#utility.yul\":6456:6518   */\n      tag_515\n        /* \"#utility.yul\":6511:6517   */\n      dup2\n        /* \"#utility.yul\":6506:6508   */\n      0x1d\n        /* \"#utility.yul\":6501:6504   */\n      dup6\n        /* \"#utility.yul\":6497:6509   */\n      add\n        /* \"#utility.yul\":6490:6494   */\n      0x20\n        /* \"#utility.yul\":6482:6488   */\n      dup8\n        /* \"#utility.yul\":6478:6495   */\n      add\n        /* \"#utility.yul\":6456:6518   */\n      tag_503\n      jump\t// in\n    tag_515:\n        /* \"#utility.yul\":6538:6554   */\n      swap2\n      swap1\n      swap2\n      add\n        /* \"#utility.yul\":6556:6558   */\n      0x1d\n        /* \"#utility.yul\":6534:6559   */\n      add\n      swap3\n        /* \"#utility.yul\":6357:6565   */\n      swap2\n      pop\n      pop\n      jump\t// out\n        /* \"#utility.yul\":6778:7266   */\n    tag_383:\n      sub(shl(0xa0, 0x01), 0x01)\n        /* \"#utility.yul\":7047:7062   */\n      dup6\n      dup2\n      and\n        /* \"#utility.yul\":7029:7063   */\n      dup3\n      mstore\n        /* \"#utility.yul\":7099:7114   */\n      dup5\n      and\n        /* \"#utility.yul\":7094:7096   */\n      0x20\n        /* \"#utility.yul\":7079:7097   */\n      dup3\n      add\n        /* \"#utility.yul\":7072:7115   */\n      mstore\n        /* \"#utility.yul\":7146:7148   */\n      0x40\n        /* \"#utility.yul\":7131:7149   */\n      dup2\n      add\n        /* \"#utility.yul\":7124:7158   */\n      dup4\n      swap1\n      mstore\n        /* \"#utility.yul\":7194:7197   */\n      0x80\n        /* \"#utility.yul\":7189:7191   */\n      0x60\n        /* \"#utility.yul\":7174:7192   */\n      dup3\n      add\n        /* \"#utility.yul\":7167:7198   */\n      dup2\n      swap1\n      mstore\n        /* \"#utility.yul\":6972:6976   */\n      0x00\n      swap1\n        /* \"#utility.yul\":7215:7260   */\n      tag_518\n      swap1\n        /* \"#utility.yul\":7240:7259   */\n      dup4\n      add\n        /* \"#utility.yul\":7232:7238   */\n      dup5\n        /* \"#utility.yul\":7215:7260   */\n      tag_500\n      jump\t// in\n    tag_518:\n        /* \"#utility.yul\":7207:7260   */\n      swap7\n        /* \"#utility.yul\":6981:7266   */\n      swap6\n      pop\n      pop\n      pop\n      pop\n      pop\n      pop\n      jump\t// out\n        /* \"#utility.yul\":7271:7903   */\n    tag_89:\n        /* \"#utility.yul\":7442:7444   */\n      0x20\n        /* \"#utility.yul\":7494:7515   */\n      dup1\n      dup3\n      mstore\n        /* \"#utility.yul\":7564:7577   */\n      dup3\n      mload\n        /* \"#utility.yul\":7467:7485   */\n      dup3\n      dup3\n      add\n        /* \"#utility.yul\":7586:7608   */\n      dup2\n      swap1\n      mstore\n        /* \"#utility.yul\":7413:7417   */\n      0x00\n      swap2\n        /* \"#utility.yul\":7442:7444   */\n      swap1\n        /* \"#utility.yul\":7665:7680   */\n      dup5\n      dup3\n      add\n      swap1\n        /* \"#utility.yul\":7639:7641   */\n      0x40\n        /* \"#utility.yul\":7624:7642   */\n      dup6\n      add\n      swap1\n        /* \"#utility.yul\":7413:7417   */\n      dup5\n        /* \"#utility.yul\":7708:7877   */\n    tag_520:\n        /* \"#utility.yul\":7722:7728   */\n      dup2\n        /* \"#utility.yul\":7719:7720   */\n      dup2\n        /* \"#utility.yul\":7716:7729   */\n      lt\n        /* \"#utility.yul\":7708:7877   */\n      iszero\n      tag_522\n      jumpi\n        /* \"#utility.yul\":7783:7796   */\n      dup4\n      mload\n        /* \"#utility.yul\":7771:7797   */\n      dup4\n      mstore\n        /* \"#utility.yul\":7852:7867   */\n      swap3\n      dup5\n      add\n      swap3\n        /* \"#utility.yul\":7817:7829   */\n      swap2\n      dup5\n      add\n      swap2\n        /* \"#utility.yul\":7744:7745   */\n      0x01\n        /* \"#utility.yul\":7737:7746   */\n      add\n        /* \"#utility.yul\":7708:7877   */\n      jump(tag_520)\n    tag_522:\n      pop\n        /* \"#utility.yul\":7894:7897   */\n      swap1\n      swap7\n        /* \"#utility.yul\":7422:7903   */\n      swap6\n      pop\n      pop\n      pop\n      pop\n      pop\n      pop\n      jump\t// out\n        /* \"#utility.yul\":8100:8319   */\n    tag_38:\n        /* \"#utility.yul\":8249:8251   */\n      0x20\n        /* \"#utility.yul\":8238:8247   */\n      dup2\n        /* \"#utility.yul\":8231:8252   */\n      mstore\n        /* \"#utility.yul\":8212:8216   */\n      0x00\n        /* \"#utility.yul\":8269:8313   */\n      tag_308\n        /* \"#utility.yul\":8309:8311   */\n      0x20\n        /* \"#utility.yul\":8298:8307   */\n      dup4\n        /* \"#utility.yul\":8294:8312   */\n      add\n        /* \"#utility.yul\":8286:8292   */\n      dup5\n        /* \"#utility.yul\":8269:8313   */\n      tag_500\n      jump\t// in\n        /* \"#utility.yul\":8736:9150   */\n    tag_327:\n        /* \"#utility.yul\":8938:8940   */\n      0x20\n        /* \"#utility.yul\":8920:8941   */\n      dup1\n      dup3\n      mstore\n        /* \"#utility.yul\":8977:8979   */\n      0x32\n        /* \"#utility.yul\":8957:8975   */\n      swap1\n      dup3\n      add\n        /* \"#utility.yul\":8950:8980   */\n      mstore\n        /* \"#utility.yul\":9016:9050   */\n      0x4552433732313a207472616e7366657220746f206e6f6e204552433732315265\n        /* \"#utility.yul\":9011:9013   */\n      0x40\n        /* \"#utility.yul\":8996:9014   */\n      dup3\n      add\n        /* \"#utility.yul\":8989:9051   */\n      mstore\n      shl(0x71, 0x31b2b4bb32b91034b6b83632b6b2b73a32b9)\n        /* \"#utility.yul\":9082:9084   */\n      0x60\n        /* \"#utility.yul\":9067:9085   */\n      dup3\n      add\n        /* \"#utility.yul\":9060:9108   */\n      mstore\n        /* \"#utility.yul\":9140:9143   */\n      0x80\n        /* \"#utility.yul\":9125:9144   */\n      add\n      swap1\n        /* \"#utility.yul\":8910:9150   */\n      jump\t// out\n        /* \"#utility.yul\":15036:15449   */\n    tag_158:\n        /* \"#utility.yul\":15238:15240   */\n      0x20\n        /* \"#utility.yul\":15220:15241   */\n      dup1\n      dup3\n      mstore\n        /* \"#utility.yul\":15277:15279   */\n      0x31\n        /* \"#utility.yul\":15257:15275   */\n      swap1\n      dup3\n      add\n        /* \"#utility.yul\":15250:15280   */\n      mstore\n        /* \"#utility.yul\":15316:15350   */\n      0x4552433732313a207472616e736665722063616c6c6572206973206e6f74206f\n        /* \"#utility.yul\":15311:15313   */\n      0x40\n        /* \"#utility.yul\":15296:15314   */\n      dup3\n      add\n        /* \"#utility.yul\":15289:15351   */\n      mstore\n      shl(0x7a, 0x1ddb995c881b9bdc88185c1c1c9bdd9959)\n        /* \"#utility.yul\":15382:15384   */\n      0x60\n        /* \"#utility.yul\":15367:15385   */\n      dup3\n      add\n        /* \"#utility.yul\":15360:15407   */\n      mstore\n        /* \"#utility.yul\":15439:15442   */\n      0x80\n        /* \"#utility.yul\":15424:15443   */\n      add\n      swap1\n        /* \"#utility.yul\":15210:15449   */\n      jump\t// out\n        /* \"#utility.yul\":16049:16177   */\n    tag_303:\n        /* \"#utility.yul\":16089:16092   */\n      0x00\n        /* \"#utility.yul\":16120:16121   */\n      dup3\n        /* \"#utility.yul\":16116:16122   */\n      not\n        /* \"#utility.yul\":16113:16114   */\n      dup3\n        /* \"#utility.yul\":16110:16123   */\n      gt\n        /* \"#utility.yul\":16107:16109   */\n      iszero\n      tag_548\n      jumpi\n        /* \"#utility.yul\":16126:16144   */\n      tag_548\n      tag_549\n      jump\t// in\n    tag_548:\n      pop\n        /* \"#utility.yul\":16162:16171   */\n      add\n      swap1\n        /* \"#utility.yul\":16097:16177   */\n      jump\t// out\n        /* \"#utility.yul\":16182:16386   */\n    tag_415:\n        /* \"#utility.yul\":16220:16223   */\n      0x00\n        /* \"#utility.yul\":16256:16260   */\n      0xff\n        /* \"#utility.yul\":16253:16254   */\n      dup3\n        /* \"#utility.yul\":16249:16261   */\n      and\n        /* \"#utility.yul\":16288:16292   */\n      0xff\n        /* \"#utility.yul\":16285:16286   */\n      dup5\n        /* \"#utility.yul\":16281:16293   */\n      and\n        /* \"#utility.yul\":16323:16326   */\n      dup1\n        /* \"#utility.yul\":16317:16321   */\n      0xff\n        /* \"#utility.yul\":16313:16327   */\n      sub\n        /* \"#utility.yul\":16308:16311   */\n      dup3\n        /* \"#utility.yul\":16305:16328   */\n      gt\n        /* \"#utility.yul\":16302:16304   */\n      iszero\n      tag_552\n      jumpi\n        /* \"#utility.yul\":16331:16349   */\n      tag_552\n      tag_549\n      jump\t// in\n    tag_552:\n        /* \"#utility.yul\":16367:16380   */\n      add\n      swap4\n        /* \"#utility.yul\":16228:16386   */\n      swap3\n      pop\n      pop\n      pop\n      jump\t// out\n        /* \"#utility.yul\":16391:16608   */\n    tag_341:\n        /* \"#utility.yul\":16431:16432   */\n      0x00\n        /* \"#utility.yul\":16457:16458   */\n      dup3\n        /* \"#utility.yul\":16447:16449   */\n      tag_554\n      jumpi\n        /* \"#utility.yul\":16501:16511   */\n      0x4e487b71\n        /* \"#utility.yul\":16496:16499   */\n      0xe0\n        /* \"#utility.yul\":16492:16512   */\n      shl\n        /* \"#utility.yul\":16489:16490   */\n      0x00\n        /* \"#utility.yul\":16482:16513   */\n      mstore\n        /* \"#utility.yul\":16536:16540   */\n      0x12\n        /* \"#utility.yul\":16533:16534   */\n      0x04\n        /* \"#utility.yul\":16526:16541   */\n      mstore\n        /* \"#utility.yul\":16564:16568   */\n      0x24\n        /* \"#utility.yul\":16561:16562   */\n      0x00\n        /* \"#utility.yul\":16554:16569   */\n      revert\n        /* \"#utility.yul\":16447:16449   */\n    tag_554:\n      pop\n        /* \"#utility.yul\":16593:16602   */\n      div\n      swap1\n        /* \"#utility.yul\":16437:16608   */\n      jump\t// out\n        /* \"#utility.yul\":16613:16781   */\n    tag_343:\n        /* \"#utility.yul\":16653:16660   */\n      0x00\n        /* \"#utility.yul\":16719:16720   */\n      dup2\n        /* \"#utility.yul\":16715:16716   */\n      0x00\n        /* \"#utility.yul\":16711:16717   */\n      not\n        /* \"#utility.yul\":16707:16721   */\n      div\n        /* \"#utility.yul\":16704:16705   */\n      dup4\n        /* \"#utility.yul\":16701:16722   */\n      gt\n        /* \"#utility.yul\":16696:16697   */\n      dup3\n        /* \"#utility.yul\":16689:16698   */\n      iszero\n        /* \"#utility.yul\":16682:16699   */\n      iszero\n        /* \"#utility.yul\":16678:16723   */\n      and\n        /* \"#utility.yul\":16675:16677   */\n      iszero\n      tag_557\n      jumpi\n        /* \"#utility.yul\":16726:16744   */\n      tag_557\n      tag_549\n      jump\t// in\n    tag_557:\n      pop\n        /* \"#utility.yul\":16766:16775   */\n      mul\n      swap1\n        /* \"#utility.yul\":16665:16781   */\n      jump\t// out\n        /* \"#utility.yul\":16786:16911   */\n    tag_301:\n        /* \"#utility.yul\":16826:16830   */\n      0x00\n        /* \"#utility.yul\":16854:16855   */\n      dup3\n        /* \"#utility.yul\":16851:16852   */\n      dup3\n        /* \"#utility.yul\":16848:16856   */\n      lt\n        /* \"#utility.yul\":16845:16847   */\n      iszero\n      tag_560\n      jumpi\n        /* \"#utility.yul\":16859:16877   */\n      tag_560\n      tag_549\n      jump\t// in\n    tag_560:\n      pop\n        /* \"#utility.yul\":16896:16905   */\n      sub\n      swap1\n        /* \"#utility.yul\":16835:16911   */\n      jump\t// out\n        /* \"#utility.yul\":16916:17174   */\n    tag_503:\n        /* \"#utility.yul\":16988:16989   */\n      0x00\n        /* \"#utility.yul\":16998:17111   */\n    tag_562:\n        /* \"#utility.yul\":17012:17018   */\n      dup4\n        /* \"#utility.yul\":17009:17010   */\n      dup2\n        /* \"#utility.yul\":17006:17019   */\n      lt\n        /* \"#utility.yul\":16998:17111   */\n      iszero\n      tag_564\n      jumpi\n        /* \"#utility.yul\":17088:17099   */\n      dup2\n      dup2\n      add\n        /* \"#utility.yul\":17082:17100   */\n      mload\n        /* \"#utility.yul\":17069:17080   */\n      dup4\n      dup3\n      add\n        /* \"#utility.yul\":17062:17101   */\n      mstore\n        /* \"#utility.yul\":17034:17036   */\n      0x20\n        /* \"#utility.yul\":17027:17037   */\n      add\n        /* \"#utility.yul\":16998:17111   */\n      jump(tag_562)\n    tag_564:\n        /* \"#utility.yul\":17129:17135   */\n      dup4\n        /* \"#utility.yul\":17126:17127   */\n      dup2\n        /* \"#utility.yul\":17123:17136   */\n      gt\n        /* \"#utility.yul\":17120:17122   */\n      iszero\n      tag_241\n      jumpi\n      pop\n      pop\n        /* \"#utility.yul\":17164:17165   */\n      0x00\n        /* \"#utility.yul\":17146:17162   */\n      swap2\n      add\n        /* \"#utility.yul\":17139:17166   */\n      mstore\n        /* \"#utility.yul\":16969:17174   */\n      jump\t// out\n        /* \"#utility.yul\":17179:17559   */\n    tag_125:\n        /* \"#utility.yul\":17258:17259   */\n      0x01\n        /* \"#utility.yul\":17254:17266   */\n      dup2\n      dup2\n      shr\n      swap1\n        /* \"#utility.yul\":17301:17313   */\n      dup3\n      and\n      dup1\n        /* \"#utility.yul\":17322:17324   */\n      tag_567\n      jumpi\n        /* \"#utility.yul\":17376:17380   */\n      0x7f\n        /* \"#utility.yul\":17368:17374   */\n      dup3\n        /* \"#utility.yul\":17364:17381   */\n      and\n        /* \"#utility.yul\":17354:17381   */\n      swap2\n      pop\n        /* \"#utility.yul\":17322:17324   */\n    tag_567:\n        /* \"#utility.yul\":17429:17431   */\n      0x20\n        /* \"#utility.yul\":17421:17427   */\n      dup3\n        /* \"#utility.yul\":17418:17432   */\n      lt\n        /* \"#utility.yul\":17398:17416   */\n      dup2\n        /* \"#utility.yul\":17395:17433   */\n      eq\n        /* \"#utility.yul\":17392:17394   */\n      iszero\n      tag_568\n      jumpi\n        /* \"#utility.yul\":17475:17485   */\n      0x4e487b71\n        /* \"#utility.yul\":17470:17473   */\n      0xe0\n        /* \"#utility.yul\":17466:17486   */\n      shl\n        /* \"#utility.yul\":17463:17464   */\n      0x00\n        /* \"#utility.yul\":17456:17487   */\n      mstore\n        /* \"#utility.yul\":17510:17514   */\n      0x22\n        /* \"#utility.yul\":17507:17508   */\n      0x04\n        /* \"#utility.yul\":17500:17515   */\n      mstore\n        /* \"#utility.yul\":17538:17542   */\n      0x24\n        /* \"#utility.yul\":17535:17536   */\n      0x00\n        /* \"#utility.yul\":17528:17543   */\n      revert\n        /* \"#utility.yul\":17392:17394   */\n    tag_568:\n      pop\n        /* \"#utility.yul\":17234:17559   */\n      swap2\n      swap1\n      pop\n      jump\t// out\n        /* \"#utility.yul\":17564:17699   */\n    tag_183:\n        /* \"#utility.yul\":17603:17606   */\n      0x00\n      not(0x00)\n        /* \"#utility.yul\":17624:17641   */\n      dup3\n      eq\n        /* \"#utility.yul\":17621:17623   */\n      iszero\n      tag_571\n      jumpi\n        /* \"#utility.yul\":17644:17662   */\n      tag_571\n      tag_549\n      jump\t// in\n    tag_571:\n      pop\n        /* \"#utility.yul\":17691:17692   */\n      0x01\n        /* \"#utility.yul\":17680:17693   */\n      add\n      swap1\n        /* \"#utility.yul\":17611:17699   */\n      jump\t// out\n        /* \"#utility.yul\":17704:17831   */\n    tag_549:\n        /* \"#utility.yul\":17765:17775   */\n      0x4e487b71\n        /* \"#utility.yul\":17760:17763   */\n      0xe0\n        /* \"#utility.yul\":17756:17776   */\n      shl\n        /* \"#utility.yul\":17753:17754   */\n      0x00\n        /* \"#utility.yul\":17746:17777   */\n      mstore\n        /* \"#utility.yul\":17796:17800   */\n      0x11\n        /* \"#utility.yul\":17793:17794   */\n      0x04\n        /* \"#utility.yul\":17786:17801   */\n      mstore\n        /* \"#utility.yul\":17820:17824   */\n      0x24\n        /* \"#utility.yul\":17817:17818   */\n      0x00\n        /* \"#utility.yul\":17810:17825   */\n      revert\n        /* \"#utility.yul\":17836:17963   */\n    tag_436:\n        /* \"#utility.yul\":17897:17907   */\n      0x4e487b71\n        /* \"#utility.yul\":17892:17895   */\n      0xe0\n        /* \"#utility.yul\":17888:17908   */\n      shl\n        /* \"#utility.yul\":17885:17886   */\n      0x00\n        /* \"#utility.yul\":17878:17909   */\n      mstore\n        /* \"#utility.yul\":17928:17932   */\n      0x31\n        /* \"#utility.yul\":17925:17926   */\n      0x04\n        /* \"#utility.yul\":17918:17933   */\n      mstore\n        /* \"#utility.yul\":17952:17956   */\n      0x24\n        /* \"#utility.yul\":17949:17950   */\n      0x00\n        /* \"#utility.yul\":17942:17957   */\n      revert\n        /* \"#utility.yul\":17968:18095   */\n    tag_193:\n        /* \"#utility.yul\":18029:18039   */\n      0x4e487b71\n        /* \"#utility.yul\":18024:18027   */\n      0xe0\n        /* \"#utility.yul\":18020:18040   */\n      shl\n        /* \"#utility.yul\":18017:18018   */\n      0x00\n        /* \"#utility.yul\":18010:18041   */\n      mstore\n        /* \"#utility.yul\":18060:18064   */\n      0x32\n        /* \"#utility.yul\":18057:18058   */\n      0x04\n        /* \"#utility.yul\":18050:18065   */\n      mstore\n        /* \"#utility.yul\":18084:18088   */\n      0x24\n        /* \"#utility.yul\":18081:18082   */\n      0x00\n        /* \"#utility.yul\":18074:18089   */\n      revert\n        /* \"#utility.yul\":18100:18227   */\n    tag_216:\n        /* \"#utility.yul\":18161:18171   */\n      0x4e487b71\n        /* \"#utility.yul\":18156:18159   */\n      0xe0\n        /* \"#utility.yul\":18152:18172   */\n      shl\n        /* \"#utility.yul\":18149:18150   */\n      0x00\n        /* \"#utility.yul\":18142:18173   */\n      mstore\n        /* \"#utility.yul\":18192:18196   */\n      0x41\n        /* \"#utility.yul\":18189:18190   */\n      0x04\n        /* \"#utility.yul\":18182:18197   */\n      mstore\n        /* \"#utility.yul\":18216:18220   */\n      0x24\n        /* \"#utility.yul\":18213:18214   */\n      0x00\n        /* \"#utility.yul\":18206:18221   */\n      revert\n        /* \"#utility.yul\":18232:18363   */\n    tag_494:\n      not(sub(shl(0xe0, 0x01), 0x01))\n        /* \"#utility.yul\":18306:18338   */\n      dup2\n      and\n        /* \"#utility.yul\":18296:18339   */\n      dup2\n      eq\n        /* \"#utility.yul\":18286:18288   */\n      tag_269\n      jumpi\n        /* \"#utility.yul\":18353:18354   */\n      0x00\n        /* \"#utility.yul\":18350:18351   */\n      dup1\n        /* \"#utility.yul\":18343:18355   */\n      revert\n    stop\n    data_84d8a590de33e00cbdc16e1f28c3506f5ec15c599fab9a6a4bcd575cc2f110ce 4142434445464748494a4b4c4d4e4f505152535455565758595a6162636465666768696a6b6c6d6e6f707172737475767778797a303132333435363738392b2f\n    data_95bc6c933fedeaffb8ff284fc96d250967296c99c4fa0457f57e3f3d10de8665 68747470733a2f2f697066732e696f2f697066732f516d5061357138566e656d5731794c556b51764b766d58475158784c7435626238476a6933524c476834445877572f\n\n    auxdata: 0xa2646970667358221220d3cb8ce702e07dab8f42a0b3273e287771240a60468ce03b0f61ce888e1194ce64736f6c63430008060033\n}\n",
				"bytecode": {
					"linkReferences": {},
					"object": "60806040523480156200001157600080fd5b50604080518082018252600981526854616f4e46542d563160b81b60208083019182528351808501909452600384526215139560ea1b9084015281519192916200005e91600091620000ed565b50805162000074906001906020840190620000ed565b505050620000916200008b6200009760201b60201c565b6200009b565b620001d0565b3390565b600a80546001600160a01b038381166001600160a01b0319831681179093556040519116919082907f8be0079c531659141344cd1fd0a4f28419497f9722a3daafe3b4186f6b6457e090600090a35050565b828054620000fb9062000193565b90600052602060002090601f0160209004810192826200011f57600085556200016a565b82601f106200013a57805160ff19168380011785556200016a565b828001600101855582156200016a579182015b828111156200016a5782518255916020019190600101906200014d565b50620001789291506200017c565b5090565b5b808211156200017857600081556001016200017d565b600181811c90821680620001a857607f821691505b60208210811415620001ca57634e487b7160e01b600052602260045260246000fd5b50919050565b6120b780620001e06000396000f3fe608060405234801561001057600080fd5b506004361061014d5760003560e01c80636352211e116100c3578063a22cb4651161007c578063a22cb465146102af578063b88d4fde146102c2578063c87b56dd146102d5578063d547cfb7146102e8578063e985e9c5146102f0578063f2fde38b1461032c57600080fd5b80636352211e1461024857806370a082311461025b578063715018a61461026e5780638462151c146102765780638da5cb5b1461029657806395d89b41146102a757600080fd5b806323b872dd1161011557806323b872dd146101e15780632f745c59146101f457806332cb6b0c146102075780633b4b13811461020f57806342842e0e146102225780634f6ccce71461023557600080fd5b806301ffc9a71461015257806306fdde031461017a578063081812fc1461018f578063095ea7b3146101ba57806318160ddd146101cf575b600080fd5b610165610160366004611b44565b61033f565b60405190151581526020015b60405180910390f35b61018261036a565b6040516101719190611dc2565b6101a261019d366004611b7e565b6103fc565b6040516001600160a01b039091168152602001610171565b6101cd6101c8366004611b1a565b610496565b005b6008545b604051908152602001610171565b6101cd6101ef3660046119c6565b6105ac565b6101d3610202366004611b1a565b6105dd565b6101d3600981565b6101cd61021d366004611b7e565b610673565b6101cd6102303660046119c6565b610755565b6101d3610243366004611b7e565b610770565b6101a2610256366004611b7e565b610803565b6101d3610269366004611978565b61087a565b6101cd610901565b610289610284366004611978565b610967565b6040516101719190611d7e565b600a546001600160a01b03166101a2565b610182610a09565b6101cd6102bd366004611ade565b610a18565b6101cd6102d0366004611a02565b610a27565b6101826102e3366004611b7e565b610a5f565b610182610ac7565b6101656102fe366004611993565b6001600160a01b03918216600090815260056020908152604080832093909416825291909152205460ff1690565b6101cd61033a366004611978565b610b55565b60006001600160e01b0319821663780e9d6360e01b1480610364575061036482610c20565b92915050565b60606000805461037990611f39565b80601f01602080910402602001604051908101604052809291908181526020018280546103a590611f39565b80156103f25780601f106103c7576101008083540402835291602001916103f2565b820191906000526020600020905b8154815290600101906020018083116103d557829003601f168201915b5050505050905090565b6000818152600260205260408120546001600160a01b031661047a5760405162461bcd60e51b815260206004820152602c60248201527f4552433732313a20617070726f76656420717565727920666f72206e6f6e657860448201526b34b9ba32b73a103a37b5b2b760a11b60648201526084015b60405180910390fd5b506000908152600460205260409020546001600160a01b031690565b60006104a182610803565b9050806001600160a01b0316836001600160a01b0316141561050f5760405162461bcd60e51b815260206004820152602160248201527f4552433732313a20617070726f76616c20746f2063757272656e74206f776e656044820152603960f91b6064820152608401610471565b336001600160a01b038216148061052b575061052b81336102fe565b61059d5760405162461bcd60e51b815260206004820152603860248201527f4552433732313a20617070726f76652063616c6c6572206973206e6f74206f7760448201527f6e6572206e6f7220617070726f76656420666f7220616c6c00000000000000006064820152608401610471565b6105a78383610c70565b505050565b6105b63382610cde565b6105d25760405162461bcd60e51b815260040161047190611e27565b6105a7838383610dd5565b60006105e88361087a565b821061064a5760405162461bcd60e51b815260206004820152602b60248201527f455243373231456e756d657261626c653a206f776e657220696e646578206f7560448201526a74206f6620626f756e647360a81b6064820152608401610471565b506001600160a01b03919091166000908152600660209081526040808320938352929052205490565b600061067e600b5490565b9050600961068c8284610f7c565b11156106d25760405162461bcd60e51b81526020600482015260156024820152744e6f7420656e6f756768204e465473206c6566742160581b6044820152606401610471565b816001146107305760405162461bcd60e51b815260206004820152602560248201527f43616e6e6f74206d696e7420737065636966696564206e756d626572206f662060448201526427232a399760d91b6064820152608401610471565b60005b828110156105a757610743610f8f565b8061074d81611f74565b915050610733565b6105a783838360405180602001604052806000815250610a27565b600061077b60085490565b82106107de5760405162461bcd60e51b815260206004820152602c60248201527f455243373231456e756d657261626c653a20676c6f62616c20696e646578206f60448201526b7574206f6620626f756e647360a01b6064820152608401610471565b600882815481106107f1576107f1611fbb565b90600052602060002001549050919050565b6000818152600260205260408120546001600160a01b0316806103645760405162461bcd60e51b815260206004820152602960248201527f4552433732313a206f776e657220717565727920666f72206e6f6e657869737460448201526832b73a103a37b5b2b760b91b6064820152608401610471565b60006001600160a01b0382166108e55760405162461bcd60e51b815260206004820152602a60248201527f4552433732313a2062616c616e636520717565727920666f7220746865207a65604482015269726f206164647265737360b01b6064820152608401610471565b506001600160a01b031660009081526003602052604090205490565b600a546001600160a01b0316331461095b5760405162461bcd60e51b815260206004820181905260248201527f4f776e61626c653a2063616c6c6572206973206e6f7420746865206f776e65726044820152606401610471565b6109656000610fb4565b565b606060006109748361087a565b905060008167ffffffffffffffff81111561099157610991611fd1565b6040519080825280602002602001820160405280156109ba578160200160208202803683370190505b50905060005b82811015610a01576109d285826105dd565b8282815181106109e4576109e4611fbb565b6020908102919091010152806109f981611f74565b9150506109c0565b509392505050565b60606001805461037990611f39565b610a23338383611006565b5050565b610a313383610cde565b610a4d5760405162461bcd60e51b815260040161047190611e27565b610a59848484846110d5565b50505050565b60606000610a9d610a6f84611108565b610a7885611167565b604051602001610a89929190611c42565b6040516020818303038152906040526111dd565b905080604051602001610ab09190611cfc565b604051602081830303815290604052915050919050565b600c8054610ad490611f39565b80601f0160208091040260200160405190810160405280929190818152602001828054610b0090611f39565b8015610b4d5780601f10610b2257610100808354040283529160200191610b4d565b820191906000526020600020905b815481529060010190602001808311610b3057829003601f168201915b505050505081565b600a546001600160a01b03163314610baf5760405162461bcd60e51b815260206004820181905260248201527f4f776e61626c653a2063616c6c6572206973206e6f7420746865206f776e65726044820152606401610471565b6001600160a01b038116610c145760405162461bcd60e51b815260206004820152602660248201527f4f776e61626c653a206e6577206f776e657220697320746865207a65726f206160448201526564647265737360d01b6064820152608401610471565b610c1d81610fb4565b50565b60006001600160e01b031982166380ac58cd60e01b1480610c5157506001600160e01b03198216635b5e139f60e01b145b8061036457506301ffc9a760e01b6001600160e01b0319831614610364565b600081815260046020526040902080546001600160a01b0319166001600160a01b0384169081179091558190610ca582610803565b6001600160a01b03167f8c5be1e5ebec7d5bd14f71427d1e84f3dd0314c0f7b2291e5b200ac8c7c3b92560405160405180910390a45050565b6000818152600260205260408120546001600160a01b0316610d575760405162461bcd60e51b815260206004820152602c60248201527f4552433732313a206f70657261746f7220717565727920666f72206e6f6e657860448201526b34b9ba32b73a103a37b5b2b760a11b6064820152608401610471565b6000610d6283610803565b9050806001600160a01b0316846001600160a01b03161480610d9d5750836001600160a01b0316610d92846103fc565b6001600160a01b0316145b80610dcd57506001600160a01b0380821660009081526005602090815260408083209388168352929052205460ff165b949350505050565b826001600160a01b0316610de882610803565b6001600160a01b031614610e4c5760405162461bcd60e51b815260206004820152602560248201527f4552433732313a207472616e736665722066726f6d20696e636f72726563742060448201526437bbb732b960d91b6064820152608401610471565b6001600160a01b038216610eae5760405162461bcd60e51b8152602060048201526024808201527f4552433732313a207472616e7366657220746f20746865207a65726f206164646044820152637265737360e01b6064820152608401610471565b610eb9838383611343565b610ec4600082610c70565b6001600160a01b0383166000908152600360205260408120805460019290610eed908490611ef6565b90915550506001600160a01b0382166000908152600360205260408120805460019290610f1b908490611e78565b909155505060008181526002602052604080822080546001600160a01b0319166001600160a01b0386811691821790925591518493918716917fddf252ad1be2c89b69c2b068fc378daa952ba7f163c4a11628f55a4df523b3ef91a4505050565b6000610f888284611e78565b9392505050565b6000610f9a600b5490565b9050610fa633826113fb565b610c1d600b80546001019055565b600a80546001600160a01b038381166001600160a01b0319831681179093556040519116919082907f8be0079c531659141344cd1fd0a4f28419497f9722a3daafe3b4186f6b6457e090600090a35050565b816001600160a01b0316836001600160a01b031614156110685760405162461bcd60e51b815260206004820152601960248201527f4552433732313a20617070726f766520746f2063616c6c6572000000000000006044820152606401610471565b6001600160a01b03838116600081815260056020908152604080832094871680845294825291829020805460ff191686151590811790915591519182527f17307eab39ab6107e8899845ad3d59bd9653f200f220920489ca2b5937696c31910160405180910390a3505050565b6110e0848484610dd5565b6110ec84848484611415565b610a595760405162461bcd60e51b815260040161047190611dd5565b6060600061111583611522565b905060006040518060400160405280600881526020016702a30b7a7232a16960c51b8152509050808260405160200161114f929190611c06565b60405160208183030381529060405292505050919050565b6060600060405180608001604052806044815260200161203e604491396040805180820190915260048152632e706e6760e01b602082015290915060006111ad85611522565b90508281836040516020016111c493929190611bc3565b6040516020818303038152906040529350505050919050565b60608151600014156111fd57505060408051602081019091526000815290565b6000604051806060016040528060408152602001611ffe604091399050600060038451600261122c9190611e78565b6112369190611eb5565b611241906004611ed7565b90506000611250826020611e78565b67ffffffffffffffff81111561126857611268611fd1565b6040519080825280601f01601f191660200182016040528015611292576020820181803683370190505b509050818152600183018586518101602084015b818310156112fe576003830192508251603f8160121c168501518253600182019150603f81600c1c168501518253600182019150603f8160061c168501518253600182019150603f81168501518253506001016112a6565b600389510660018114611318576002811461132957611335565b613d3d60f01b600119830152611335565b603d60f81b6000198301525b509398975050505050505050565b6001600160a01b03831661139e5761139981600880546000838152600960205260408120829055600182018355919091527ff3f7a9fe364faab93b216da50a3214154f22a0a2b415b23a84c8169e8b636ee30155565b6113c1565b816001600160a01b0316836001600160a01b0316146113c1576113c1838261164b565b6001600160a01b0382166113d8576105a7816116e8565b826001600160a01b0316826001600160a01b0316146105a7576105a78282611797565b610a238282604051806020016040528060008152506117db565b60006001600160a01b0384163b1561151757604051630a85bd0160e11b81526001600160a01b0385169063150b7a0290611459903390899088908890600401611d41565b602060405180830381600087803b15801561147357600080fd5b505af19250505080156114a3575060408051601f3d908101601f191682019092526114a091810190611b61565b60015b6114fd573d8080156114d1576040519150601f19603f3d011682016040523d82523d6000602084013e6114d6565b606091505b5080516114f55760405162461bcd60e51b815260040161047190611dd5565b805181602001fd5b6001600160e01b031916630a85bd0160e11b149050610dcd565b506001949350505050565b6060816115465750506040805180820190915260018152600360fc1b602082015290565b8160005b8115611570578061155a81611f74565b91506115699050600a83611eb5565b915061154a565b60008167ffffffffffffffff81111561158b5761158b611fd1565b6040519080825280601f01601f1916602001820160405280156115b5576020820181803683370190505b509050815b8515611642576115cb600182611ef6565b905060006115da600a88611eb5565b6115e590600a611ed7565b6115ef9088611ef6565b6115fa906030611e90565b905060008160f81b90508084848151811061161757611617611fbb565b60200101906001600160f81b031916908160001a905350611639600a89611eb5565b975050506115ba565b50949350505050565b600060016116588461087a565b6116629190611ef6565b6000838152600760205260409020549091508082146116b5576001600160a01b03841660009081526006602090815260408083208584528252808320548484528184208190558352600790915290208190555b5060009182526007602090815260408084208490556001600160a01b039094168352600681528383209183525290812055565b6008546000906116fa90600190611ef6565b6000838152600960205260408120546008805493945090928490811061172257611722611fbb565b90600052602060002001549050806008838154811061174357611743611fbb565b600091825260208083209091019290925582815260099091526040808220849055858252812055600880548061177b5761177b611fa5565b6001900381819060005260206000200160009055905550505050565b60006117a28361087a565b6001600160a01b039093166000908152600660209081526040808320868452825280832085905593825260079052919091209190915550565b6117e5838361180e565b6117f26000848484611415565b6105a75760405162461bcd60e51b815260040161047190611dd5565b6001600160a01b0382166118645760405162461bcd60e51b815260206004820181905260248201527f4552433732313a206d696e7420746f20746865207a65726f20616464726573736044820152606401610471565b6000818152600260205260409020546001600160a01b0316156118c95760405162461bcd60e51b815260206004820152601c60248201527f4552433732313a20746f6b656e20616c7265616479206d696e746564000000006044820152606401610471565b6118d560008383611343565b6001600160a01b03821660009081526003602052604081208054600192906118fe908490611e78565b909155505060008181526002602052604080822080546001600160a01b0319166001600160a01b03861690811790915590518392907fddf252ad1be2c89b69c2b068fc378daa952ba7f163c4a11628f55a4df523b3ef908290a45050565b80356001600160a01b038116811461197357600080fd5b919050565b60006020828403121561198a57600080fd5b610f888261195c565b600080604083850312156119a657600080fd5b6119af8361195c565b91506119bd6020840161195c565b90509250929050565b6000806000606084860312156119db57600080fd5b6119e48461195c565b92506119f26020850161195c565b9150604084013590509250925092565b60008060008060808587031215611a1857600080fd5b611a218561195c565b9350611a2f6020860161195c565b925060408501359150606085013567ffffffffffffffff80821115611a5357600080fd5b818701915087601f830112611a6757600080fd5b813581811115611a7957611a79611fd1565b604051601f8201601f19908116603f01168101908382118183101715611aa157611aa1611fd1565b816040528281528a6020848701011115611aba57600080fd5b82602086016020830137600060208483010152809550505050505092959194509250565b60008060408385031215611af157600080fd5b611afa8361195c565b915060208301358015158114611b0f57600080fd5b809150509250929050565b60008060408385031215611b2d57600080fd5b611b368361195c565b946020939093013593505050565b600060208284031215611b5657600080fd5b8135610f8881611fe7565b600060208284031215611b7357600080fd5b8151610f8881611fe7565b600060208284031215611b9057600080fd5b5035919050565b60008151808452611baf816020860160208601611f0d565b601f01601f19169290920160200192915050565b60008451611bd5818460208901611f0d565b845190830190611be9818360208901611f0d565b8451910190611bfc818360208801611f0d565b0195945050505050565b60008351611c18818460208801611f0d565b602360f81b9083019081528351611c36816001840160208801611f0d565b01600101949350505050565b693d912730b6b2911d101160b11b81528251600090611c6881600a850160208801611f0d565b7f222c20226465736372697074696f6e223a20224120436f6c6c656374696f6e20600a918401918201527f6f66203920546573744e6574204e46545320666f7220426c6f636b67616d6573602a8201526c1116101134b6b0b3b2911d101160991b604a8201528351611ce1816057840160208801611f0d565b61227d60f01b60579290910191820152605901949350505050565b7f646174613a6170706c69636174696f6e2f6a736f6e3b6261736536342c000000815260008251611d3481601d850160208701611f0d565b91909101601d0192915050565b6001600160a01b0385811682528416602082015260408101839052608060608201819052600090611d7490830184611b97565b9695505050505050565b6020808252825182820181905260009190848201906040850190845b81811015611db657835183529284019291840191600101611d9a565b50909695505050505050565b602081526000610f886020830184611b97565b60208082526032908201527f4552433732313a207472616e7366657220746f206e6f6e20455243373231526560408201527131b2b4bb32b91034b6b83632b6b2b73a32b960711b606082015260800190565b60208082526031908201527f4552433732313a207472616e736665722063616c6c6572206973206e6f74206f6040820152701ddb995c881b9bdc88185c1c1c9bdd9959607a1b606082015260800190565b60008219821115611e8b57611e8b611f8f565b500190565b600060ff821660ff84168060ff03821115611ead57611ead611f8f565b019392505050565b600082611ed257634e487b7160e01b600052601260045260246000fd5b500490565b6000816000190483118215151615611ef157611ef1611f8f565b500290565b600082821015611f0857611f08611f8f565b500390565b60005b83811015611f28578181015183820152602001611f10565b83811115610a595750506000910152565b600181811c90821680611f4d57607f821691505b60208210811415611f6e57634e487b7160e01b600052602260045260246000fd5b50919050565b6000600019821415611f8857611f88611f8f565b5060010190565b634e487b7160e01b600052601160045260246000fd5b634e487b7160e01b600052603160045260246000fd5b634e487b7160e01b600052603260045260246000fd5b634e487b7160e01b600052604160045260246000fd5b6001600160e01b031981168114610c1d57600080fdfe4142434445464748494a4b4c4d4e4f505152535455565758595a6162636465666768696a6b6c6d6e6f707172737475767778797a303132333435363738392b2f68747470733a2f2f697066732e696f2f697066732f516d5061357138566e656d5731794c556b51764b766d58475158784c7435626238476a6933524c476834445877572fa2646970667358221220d3cb8ce702e07dab8f42a0b3273e287771240a60468ce03b0f61ce888e1194ce64736f6c63430008060033",
					"opcodes": "PUSH1 0x80 PUSH1 0x40 MSTORE CALLVALUE DUP1 ISZERO PUSH3 0x11 JUMPI PUSH1 0x0 DUP1 REVERT JUMPDEST POP PUSH1 0x40 DUP1 MLOAD DUP1 DUP3 ADD DUP3 MSTORE PUSH1 0x9 DUP2 MSTORE PUSH9 0x54616F4E46542D5631 PUSH1 0xB8 SHL PUSH1 0x20 DUP1 DUP4 ADD SWAP2 DUP3 MSTORE DUP4 MLOAD DUP1 DUP6 ADD SWAP1 SWAP5 MSTORE PUSH1 0x3 DUP5 MSTORE PUSH3 0x151395 PUSH1 0xEA SHL SWAP1 DUP5 ADD MSTORE DUP2 MLOAD SWAP2 SWAP3 SWAP2 PUSH3 0x5E SWAP2 PUSH1 0x0 SWAP2 PUSH3 0xED JUMP JUMPDEST POP DUP1 MLOAD PUSH3 0x74 SWAP1 PUSH1 0x1 SWAP1 PUSH1 0x20 DUP5 ADD SWAP1 PUSH3 0xED JUMP JUMPDEST POP POP POP PUSH3 0x91 PUSH3 0x8B PUSH3 0x97 PUSH1 0x20 SHL PUSH1 0x20 SHR JUMP JUMPDEST PUSH3 0x9B JUMP JUMPDEST PUSH3 0x1D0 JUMP JUMPDEST CALLER SWAP1 JUMP JUMPDEST PUSH1 0xA DUP1 SLOAD PUSH1 0x1 PUSH1 0x1 PUSH1 0xA0 SHL SUB DUP4 DUP2 AND PUSH1 0x1 PUSH1 0x1 PUSH1 0xA0 SHL SUB NOT DUP4 AND DUP2 OR SWAP1 SWAP4 SSTORE PUSH1 0x40 MLOAD SWAP2 AND SWAP2 SWAP1 DUP3 SWAP1 PUSH32 0x8BE0079C531659141344CD1FD0A4F28419497F9722A3DAAFE3B4186F6B6457E0 SWAP1 PUSH1 0x0 SWAP1 LOG3 POP POP JUMP JUMPDEST DUP3 DUP1 SLOAD PUSH3 0xFB SWAP1 PUSH3 0x193 JUMP JUMPDEST SWAP1 PUSH1 0x0 MSTORE PUSH1 0x20 PUSH1 0x0 KECCAK256 SWAP1 PUSH1 0x1F ADD PUSH1 0x20 SWAP1 DIV DUP2 ADD SWAP3 DUP3 PUSH3 0x11F JUMPI PUSH1 0x0 DUP6 SSTORE PUSH3 0x16A JUMP JUMPDEST DUP3 PUSH1 0x1F LT PUSH3 0x13A JUMPI DUP1 MLOAD PUSH1 0xFF NOT AND DUP4 DUP1 ADD OR DUP6 SSTORE PUSH3 0x16A JUMP JUMPDEST DUP3 DUP1 ADD PUSH1 0x1 ADD DUP6 SSTORE DUP3 ISZERO PUSH3 0x16A JUMPI SWAP2 DUP3 ADD JUMPDEST DUP3 DUP2 GT ISZERO PUSH3 0x16A JUMPI DUP3 MLOAD DUP3 SSTORE SWAP2 PUSH1 0x20 ADD SWAP2 SWAP1 PUSH1 0x1 ADD SWAP1 PUSH3 0x14D JUMP JUMPDEST POP PUSH3 0x178 SWAP3 SWAP2 POP PUSH3 0x17C JUMP JUMPDEST POP SWAP1 JUMP JUMPDEST JUMPDEST DUP1 DUP3 GT ISZERO PUSH3 0x178 JUMPI PUSH1 0x0 DUP2 SSTORE PUSH1 0x1 ADD PUSH3 0x17D JUMP JUMPDEST PUSH1 0x1 DUP2 DUP2 SHR SWAP1 DUP3 AND DUP1 PUSH3 0x1A8 JUMPI PUSH1 0x7F DUP3 AND SWAP2 POP JUMPDEST PUSH1 0x20 DUP3 LT DUP2 EQ ISZERO PUSH3 0x1CA JUMPI PUSH4 0x4E487B71 PUSH1 0xE0 SHL PUSH1 0x0 MSTORE PUSH1 0x22 PUSH1 0x4 MSTORE PUSH1 0x24 PUSH1 0x0 REVERT JUMPDEST POP SWAP2 SWAP1 POP JUMP JUMPDEST PUSH2 0x20B7 DUP1 PUSH3 0x1E0 PUSH1 0x0 CODECOPY PUSH1 0x0 RETURN INVALID PUSH1 0x80 PUSH1 0x40 MSTORE CALLVALUE DUP1 ISZERO PUSH2 0x10 JUMPI PUSH1 0x0 DUP1 REVERT JUMPDEST POP PUSH1 0x4 CALLDATASIZE LT PUSH2 0x14D JUMPI PUSH1 0x0 CALLDATALOAD PUSH1 0xE0 SHR DUP1 PUSH4 0x6352211E GT PUSH2 0xC3 JUMPI DUP1 PUSH4 0xA22CB465 GT PUSH2 0x7C JUMPI DUP1 PUSH4 0xA22CB465 EQ PUSH2 0x2AF JUMPI DUP1 PUSH4 0xB88D4FDE EQ PUSH2 0x2C2 JUMPI DUP1 PUSH4 0xC87B56DD EQ PUSH2 0x2D5 JUMPI DUP1 PUSH4 0xD547CFB7 EQ PUSH2 0x2E8 JUMPI DUP1 PUSH4 0xE985E9C5 EQ PUSH2 0x2F0 JUMPI DUP1 PUSH4 0xF2FDE38B EQ PUSH2 0x32C JUMPI PUSH1 0x0 DUP1 REVERT JUMPDEST DUP1 PUSH4 0x6352211E EQ PUSH2 0x248 JUMPI DUP1 PUSH4 0x70A08231 EQ PUSH2 0x25B JUMPI DUP1 PUSH4 0x715018A6 EQ PUSH2 0x26E JUMPI DUP1 PUSH4 0x8462151C EQ PUSH2 0x276 JUMPI DUP1 PUSH4 0x8DA5CB5B EQ PUSH2 0x296 JUMPI DUP1 PUSH4 0x95D89B41 EQ PUSH2 0x2A7 JUMPI PUSH1 0x0 DUP1 REVERT JUMPDEST DUP1 PUSH4 0x23B872DD GT PUSH2 0x115 JUMPI DUP1 PUSH4 0x23B872DD EQ PUSH2 0x1E1 JUMPI DUP1 PUSH4 0x2F745C59 EQ PUSH2 0x1F4 JUMPI DUP1 PUSH4 0x32CB6B0C EQ PUSH2 0x207 JUMPI DUP1 PUSH4 0x3B4B1381 EQ PUSH2 0x20F JUMPI DUP1 PUSH4 0x42842E0E EQ PUSH2 0x222 JUMPI DUP1 PUSH4 0x4F6CCCE7 EQ PUSH2 0x235 JUMPI PUSH1 0x0 DUP1 REVERT JUMPDEST DUP1 PUSH4 0x1FFC9A7 EQ PUSH2 0x152 JUMPI DUP1 PUSH4 0x6FDDE03 EQ PUSH2 0x17A JUMPI DUP1 PUSH4 0x81812FC EQ PUSH2 0x18F JUMPI DUP1 PUSH4 0x95EA7B3 EQ PUSH2 0x1BA JUMPI DUP1 PUSH4 0x18160DDD EQ PUSH2 0x1CF JUMPI JUMPDEST PUSH1 0x0 DUP1 REVERT JUMPDEST PUSH2 0x165 PUSH2 0x160 CALLDATASIZE PUSH1 0x4 PUSH2 0x1B44 JUMP JUMPDEST PUSH2 0x33F JUMP JUMPDEST PUSH1 0x40 MLOAD SWAP1 ISZERO ISZERO DUP2 MSTORE PUSH1 0x20 ADD JUMPDEST PUSH1 0x40 MLOAD DUP1 SWAP2 SUB SWAP1 RETURN JUMPDEST PUSH2 0x182 PUSH2 0x36A JUMP JUMPDEST PUSH1 0x40 MLOAD PUSH2 0x171 SWAP2 SWAP1 PUSH2 0x1DC2 JUMP JUMPDEST PUSH2 0x1A2 PUSH2 0x19D CALLDATASIZE PUSH1 0x4 PUSH2 0x1B7E JUMP JUMPDEST PUSH2 0x3FC JUMP JUMPDEST PUSH1 0x40 MLOAD PUSH1 0x1 PUSH1 0x1 PUSH1 0xA0 SHL SUB SWAP1 SWAP2 AND DUP2 MSTORE PUSH1 0x20 ADD PUSH2 0x171 JUMP JUMPDEST PUSH2 0x1CD PUSH2 0x1C8 CALLDATASIZE PUSH1 0x4 PUSH2 0x1B1A JUMP JUMPDEST PUSH2 0x496 JUMP JUMPDEST STOP JUMPDEST PUSH1 0x8 SLOAD JUMPDEST PUSH1 0x40 MLOAD SWAP1 DUP2 MSTORE PUSH1 0x20 ADD PUSH2 0x171 JUMP JUMPDEST PUSH2 0x1CD PUSH2 0x1EF CALLDATASIZE PUSH1 0x4 PUSH2 0x19C6 JUMP JUMPDEST PUSH2 0x5AC JUMP JUMPDEST PUSH2 0x1D3 PUSH2 0x202 CALLDATASIZE PUSH1 0x4 PUSH2 0x1B1A JUMP JUMPDEST PUSH2 0x5DD JUMP JUMPDEST PUSH2 0x1D3 PUSH1 0x9 DUP2 JUMP JUMPDEST PUSH2 0x1CD PUSH2 0x21D CALLDATASIZE PUSH1 0x4 PUSH2 0x1B7E JUMP JUMPDEST PUSH2 0x673 JUMP JUMPDEST PUSH2 0x1CD PUSH2 0x230 CALLDATASIZE PUSH1 0x4 PUSH2 0x19C6 JUMP JUMPDEST PUSH2 0x755 JUMP JUMPDEST PUSH2 0x1D3 PUSH2 0x243 CALLDATASIZE PUSH1 0x4 PUSH2 0x1B7E JUMP JUMPDEST PUSH2 0x770 JUMP JUMPDEST PUSH2 0x1A2 PUSH2 0x256 CALLDATASIZE PUSH1 0x4 PUSH2 0x1B7E JUMP JUMPDEST PUSH2 0x803 JUMP JUMPDEST PUSH2 0x1D3 PUSH2 0x269 CALLDATASIZE PUSH1 0x4 PUSH2 0x1978 JUMP JUMPDEST PUSH2 0x87A JUMP JUMPDEST PUSH2 0x1CD PUSH2 0x901 JUMP JUMPDEST PUSH2 0x289 PUSH2 0x284 CALLDATASIZE PUSH1 0x4 PUSH2 0x1978 JUMP JUMPDEST PUSH2 0x967 JUMP JUMPDEST PUSH1 0x40 MLOAD PUSH2 0x171 SWAP2 SWAP1 PUSH2 0x1D7E JUMP JUMPDEST PUSH1 0xA SLOAD PUSH1 0x1 PUSH1 0x1 PUSH1 0xA0 SHL SUB AND PUSH2 0x1A2 JUMP JUMPDEST PUSH2 0x182 PUSH2 0xA09 JUMP JUMPDEST PUSH2 0x1CD PUSH2 0x2BD CALLDATASIZE PUSH1 0x4 PUSH2 0x1ADE JUMP JUMPDEST PUSH2 0xA18 JUMP JUMPDEST PUSH2 0x1CD PUSH2 0x2D0 CALLDATASIZE PUSH1 0x4 PUSH2 0x1A02 JUMP JUMPDEST PUSH2 0xA27 JUMP JUMPDEST PUSH2 0x182 PUSH2 0x2E3 CALLDATASIZE PUSH1 0x4 PUSH2 0x1B7E JUMP JUMPDEST PUSH2 0xA5F JUMP JUMPDEST PUSH2 0x182 PUSH2 0xAC7 JUMP JUMPDEST PUSH2 0x165 PUSH2 0x2FE CALLDATASIZE PUSH1 0x4 PUSH2 0x1993 JUMP JUMPDEST PUSH1 0x1 PUSH1 0x1 PUSH1 0xA0 SHL SUB SWAP2 DUP3 AND PUSH1 0x0 SWAP1 DUP2 MSTORE PUSH1 0x5 PUSH1 0x20 SWAP1 DUP2 MSTORE PUSH1 0x40 DUP1 DUP4 KECCAK256 SWAP4 SWAP1 SWAP5 AND DUP3 MSTORE SWAP2 SWAP1 SWAP2 MSTORE KECCAK256 SLOAD PUSH1 0xFF AND SWAP1 JUMP JUMPDEST PUSH2 0x1CD PUSH2 0x33A CALLDATASIZE PUSH1 0x4 PUSH2 0x1978 JUMP JUMPDEST PUSH2 0xB55 JUMP JUMPDEST PUSH1 0x0 PUSH1 0x1 PUSH1 0x1 PUSH1 0xE0 SHL SUB NOT DUP3 AND PUSH4 0x780E9D63 PUSH1 0xE0 SHL EQ DUP1 PUSH2 0x364 JUMPI POP PUSH2 0x364 DUP3 PUSH2 0xC20 JUMP JUMPDEST SWAP3 SWAP2 POP POP JUMP JUMPDEST PUSH1 0x60 PUSH1 0x0 DUP1 SLOAD PUSH2 0x379 SWAP1 PUSH2 0x1F39 JUMP JUMPDEST DUP1 PUSH1 0x1F ADD PUSH1 0x20 DUP1 SWAP2 DIV MUL PUSH1 0x20 ADD PUSH1 0x40 MLOAD SWAP1 DUP2 ADD PUSH1 0x40 MSTORE DUP1 SWAP3 SWAP2 SWAP1 DUP2 DUP2 MSTORE PUSH1 0x20 ADD DUP3 DUP1 SLOAD PUSH2 0x3A5 SWAP1 PUSH2 0x1F39 JUMP JUMPDEST DUP1 ISZERO PUSH2 0x3F2 JUMPI DUP1 PUSH1 0x1F LT PUSH2 0x3C7 JUMPI PUSH2 0x100 DUP1 DUP4 SLOAD DIV MUL DUP4 MSTORE SWAP2 PUSH1 0x20 ADD SWAP2 PUSH2 0x3F2 JUMP JUMPDEST DUP3 ADD SWAP2 SWAP1 PUSH1 0x0 MSTORE PUSH1 0x20 PUSH1 0x0 KECCAK256 SWAP1 JUMPDEST DUP2 SLOAD DUP2 MSTORE SWAP1 PUSH1 0x1 ADD SWAP1 PUSH1 0x20 ADD DUP1 DUP4 GT PUSH2 0x3D5 JUMPI DUP3 SWAP1 SUB PUSH1 0x1F AND DUP3 ADD SWAP2 JUMPDEST POP POP POP POP POP SWAP1 POP SWAP1 JUMP JUMPDEST PUSH1 0x0 DUP2 DUP2 MSTORE PUSH1 0x2 PUSH1 0x20 MSTORE PUSH1 0x40 DUP2 KECCAK256 SLOAD PUSH1 0x1 PUSH1 0x1 PUSH1 0xA0 SHL SUB AND PUSH2 0x47A JUMPI PUSH1 0x40 MLOAD PUSH3 0x461BCD PUSH1 0xE5 SHL DUP2 MSTORE PUSH1 0x20 PUSH1 0x4 DUP3 ADD MSTORE PUSH1 0x2C PUSH1 0x24 DUP3 ADD MSTORE PUSH32 0x4552433732313A20617070726F76656420717565727920666F72206E6F6E6578 PUSH1 0x44 DUP3 ADD MSTORE PUSH12 0x34B9BA32B73A103A37B5B2B7 PUSH1 0xA1 SHL PUSH1 0x64 DUP3 ADD MSTORE PUSH1 0x84 ADD JUMPDEST PUSH1 0x40 MLOAD DUP1 SWAP2 SUB SWAP1 REVERT JUMPDEST POP PUSH1 0x0 SWAP1 DUP2 MSTORE PUSH1 0x4 PUSH1 0x20 MSTORE PUSH1 0x40 SWAP1 KECCAK256 SLOAD PUSH1 0x1 PUSH1 0x1 PUSH1 0xA0 SHL SUB AND SWAP1 JUMP JUMPDEST PUSH1 0x0 PUSH2 0x4A1 DUP3 PUSH2 0x803 JUMP JUMPDEST SWAP1 POP DUP1 PUSH1 0x1 PUSH1 0x1 PUSH1 0xA0 SHL SUB AND DUP4 PUSH1 0x1 PUSH1 0x1 PUSH1 0xA0 SHL SUB AND EQ ISZERO PUSH2 0x50F JUMPI PUSH1 0x40 MLOAD PUSH3 0x461BCD PUSH1 0xE5 SHL DUP2 MSTORE PUSH1 0x20 PUSH1 0x4 DUP3 ADD MSTORE PUSH1 0x21 PUSH1 0x24 DUP3 ADD MSTORE PUSH32 0x4552433732313A20617070726F76616C20746F2063757272656E74206F776E65 PUSH1 0x44 DUP3 ADD MSTORE PUSH1 0x39 PUSH1 0xF9 SHL PUSH1 0x64 DUP3 ADD MSTORE PUSH1 0x84 ADD PUSH2 0x471 JUMP JUMPDEST CALLER PUSH1 0x1 PUSH1 0x1 PUSH1 0xA0 SHL SUB DUP3 AND EQ DUP1 PUSH2 0x52B JUMPI POP PUSH2 0x52B DUP2 CALLER PUSH2 0x2FE JUMP JUMPDEST PUSH2 0x59D JUMPI PUSH1 0x40 MLOAD PUSH3 0x461BCD PUSH1 0xE5 SHL DUP2 MSTORE PUSH1 0x20 PUSH1 0x4 DUP3 ADD MSTORE PUSH1 0x38 PUSH1 0x24 DUP3 ADD MSTORE PUSH32 0x4552433732313A20617070726F76652063616C6C6572206973206E6F74206F77 PUSH1 0x44 DUP3 ADD MSTORE PUSH32 0x6E6572206E6F7220617070726F76656420666F7220616C6C0000000000000000 PUSH1 0x64 DUP3 ADD MSTORE PUSH1 0x84 ADD PUSH2 0x471 JUMP JUMPDEST PUSH2 0x5A7 DUP4 DUP4 PUSH2 0xC70 JUMP JUMPDEST POP POP POP JUMP JUMPDEST PUSH2 0x5B6 CALLER DUP3 PUSH2 0xCDE JUMP JUMPDEST PUSH2 0x5D2 JUMPI PUSH1 0x40 MLOAD PUSH3 0x461BCD PUSH1 0xE5 SHL DUP2 MSTORE PUSH1 0x4 ADD PUSH2 0x471 SWAP1 PUSH2 0x1E27 JUMP JUMPDEST PUSH2 0x5A7 DUP4 DUP4 DUP4 PUSH2 0xDD5 JUMP JUMPDEST PUSH1 0x0 PUSH2 0x5E8 DUP4 PUSH2 0x87A JUMP JUMPDEST DUP3 LT PUSH2 0x64A JUMPI PUSH1 0x40 MLOAD PUSH3 0x461BCD PUSH1 0xE5 SHL DUP2 MSTORE PUSH1 0x20 PUSH1 0x4 DUP3 ADD MSTORE PUSH1 0x2B PUSH1 0x24 DUP3 ADD MSTORE PUSH32 0x455243373231456E756D657261626C653A206F776E657220696E646578206F75 PUSH1 0x44 DUP3 ADD MSTORE PUSH11 0x74206F6620626F756E6473 PUSH1 0xA8 SHL PUSH1 0x64 DUP3 ADD MSTORE PUSH1 0x84 ADD PUSH2 0x471 JUMP JUMPDEST POP PUSH1 0x1 PUSH1 0x1 PUSH1 0xA0 SHL SUB SWAP2 SWAP1 SWAP2 AND PUSH1 0x0 SWAP1 DUP2 MSTORE PUSH1 0x6 PUSH1 0x20 SWAP1 DUP2 MSTORE PUSH1 0x40 DUP1 DUP4 KECCAK256 SWAP4 DUP4 MSTORE SWAP3 SWAP1 MSTORE KECCAK256 SLOAD SWAP1 JUMP JUMPDEST PUSH1 0x0 PUSH2 0x67E PUSH1 0xB SLOAD SWAP1 JUMP JUMPDEST SWAP1 POP PUSH1 0x9 PUSH2 0x68C DUP3 DUP5 PUSH2 0xF7C JUMP JUMPDEST GT ISZERO PUSH2 0x6D2 JUMPI PUSH1 0x40 MLOAD PUSH3 0x461BCD PUSH1 0xE5 SHL DUP2 MSTORE PUSH1 0x20 PUSH1 0x4 DUP3 ADD MSTORE PUSH1 0x15 PUSH1 0x24 DUP3 ADD MSTORE PUSH21 0x4E6F7420656E6F756768204E465473206C65667421 PUSH1 0x58 SHL PUSH1 0x44 DUP3 ADD MSTORE PUSH1 0x64 ADD PUSH2 0x471 JUMP JUMPDEST DUP2 PUSH1 0x1 EQ PUSH2 0x730 JUMPI PUSH1 0x40 MLOAD PUSH3 0x461BCD PUSH1 0xE5 SHL DUP2 MSTORE PUSH1 0x20 PUSH1 0x4 DUP3 ADD MSTORE PUSH1 0x25 PUSH1 0x24 DUP3 ADD MSTORE PUSH32 0x43616E6E6F74206D696E7420737065636966696564206E756D626572206F6620 PUSH1 0x44 DUP3 ADD MSTORE PUSH5 0x27232A3997 PUSH1 0xD9 SHL PUSH1 0x64 DUP3 ADD MSTORE PUSH1 0x84 ADD PUSH2 0x471 JUMP JUMPDEST PUSH1 0x0 JUMPDEST DUP3 DUP2 LT ISZERO PUSH2 0x5A7 JUMPI PUSH2 0x743 PUSH2 0xF8F JUMP JUMPDEST DUP1 PUSH2 0x74D DUP2 PUSH2 0x1F74 JUMP JUMPDEST SWAP2 POP POP PUSH2 0x733 JUMP JUMPDEST PUSH2 0x5A7 DUP4 DUP4 DUP4 PUSH1 0x40 MLOAD DUP1 PUSH1 0x20 ADD PUSH1 0x40 MSTORE DUP1 PUSH1 0x0 DUP2 MSTORE POP PUSH2 0xA27 JUMP JUMPDEST PUSH1 0x0 PUSH2 0x77B PUSH1 0x8 SLOAD SWAP1 JUMP JUMPDEST DUP3 LT PUSH2 0x7DE JUMPI PUSH1 0x40 MLOAD PUSH3 0x461BCD PUSH1 0xE5 SHL DUP2 MSTORE PUSH1 0x20 PUSH1 0x4 DUP3 ADD MSTORE PUSH1 0x2C PUSH1 0x24 DUP3 ADD MSTORE PUSH32 0x455243373231456E756D657261626C653A20676C6F62616C20696E646578206F PUSH1 0x44 DUP3 ADD MSTORE PUSH12 0x7574206F6620626F756E6473 PUSH1 0xA0 SHL PUSH1 0x64 DUP3 ADD MSTORE PUSH1 0x84 ADD PUSH2 0x471 JUMP JUMPDEST PUSH1 0x8 DUP3 DUP2 SLOAD DUP2 LT PUSH2 0x7F1 JUMPI PUSH2 0x7F1 PUSH2 0x1FBB JUMP JUMPDEST SWAP1 PUSH1 0x0 MSTORE PUSH1 0x20 PUSH1 0x0 KECCAK256 ADD SLOAD SWAP1 POP SWAP2 SWAP1 POP JUMP JUMPDEST PUSH1 0x0 DUP2 DUP2 MSTORE PUSH1 0x2 PUSH1 0x20 MSTORE PUSH1 0x40 DUP2 KECCAK256 SLOAD PUSH1 0x1 PUSH1 0x1 PUSH1 0xA0 SHL SUB AND DUP1 PUSH2 0x364 JUMPI PUSH1 0x40 MLOAD PUSH3 0x461BCD PUSH1 0xE5 SHL DUP2 MSTORE PUSH1 0x20 PUSH1 0x4 DUP3 ADD MSTORE PUSH1 0x29 PUSH1 0x24 DUP3 ADD MSTORE PUSH32 0x4552433732313A206F776E657220717565727920666F72206E6F6E6578697374 PUSH1 0x44 DUP3 ADD MSTORE PUSH9 0x32B73A103A37B5B2B7 PUSH1 0xB9 SHL PUSH1 0x64 DUP3 ADD MSTORE PUSH1 0x84 ADD PUSH2 0x471 JUMP JUMPDEST PUSH1 0x0 PUSH1 0x1 PUSH1 0x1 PUSH1 0xA0 SHL SUB DUP3 AND PUSH2 0x8E5 JUMPI PUSH1 0x40 MLOAD PUSH3 0x461BCD PUSH1 0xE5 SHL DUP2 MSTORE PUSH1 0x20 PUSH1 0x4 DUP3 ADD MSTORE PUSH1 0x2A PUSH1 0x24 DUP3 ADD MSTORE PUSH32 0x4552433732313A2062616C616E636520717565727920666F7220746865207A65 PUSH1 0x44 DUP3 ADD MSTORE PUSH10 0x726F2061646472657373 PUSH1 0xB0 SHL PUSH1 0x64 DUP3 ADD MSTORE PUSH1 0x84 ADD PUSH2 0x471 JUMP JUMPDEST POP PUSH1 0x1 PUSH1 0x1 PUSH1 0xA0 SHL SUB AND PUSH1 0x0 SWAP1 DUP2 MSTORE PUSH1 0x3 PUSH1 0x20 MSTORE PUSH1 0x40 SWAP1 KECCAK256 SLOAD SWAP1 JUMP JUMPDEST PUSH1 0xA SLOAD PUSH1 0x1 PUSH1 0x1 PUSH1 0xA0 SHL SUB AND CALLER EQ PUSH2 0x95B JUMPI PUSH1 0x40 MLOAD PUSH3 0x461BCD PUSH1 0xE5 SHL DUP2 MSTORE PUSH1 0x20 PUSH1 0x4 DUP3 ADD DUP2 SWAP1 MSTORE PUSH1 0x24 DUP3 ADD MSTORE PUSH32 0x4F776E61626C653A2063616C6C6572206973206E6F7420746865206F776E6572 PUSH1 0x44 DUP3 ADD MSTORE PUSH1 0x64 ADD PUSH2 0x471 JUMP JUMPDEST PUSH2 0x965 PUSH1 0x0 PUSH2 0xFB4 JUMP JUMPDEST JUMP JUMPDEST PUSH1 0x60 PUSH1 0x0 PUSH2 0x974 DUP4 PUSH2 0x87A JUMP JUMPDEST SWAP1 POP PUSH1 0x0 DUP2 PUSH8 0xFFFFFFFFFFFFFFFF DUP2 GT ISZERO PUSH2 0x991 JUMPI PUSH2 0x991 PUSH2 0x1FD1 JUMP JUMPDEST PUSH1 0x40 MLOAD SWAP1 DUP1 DUP3 MSTORE DUP1 PUSH1 0x20 MUL PUSH1 0x20 ADD DUP3 ADD PUSH1 0x40 MSTORE DUP1 ISZERO PUSH2 0x9BA JUMPI DUP2 PUSH1 0x20 ADD PUSH1 0x20 DUP3 MUL DUP1 CALLDATASIZE DUP4 CALLDATACOPY ADD SWAP1 POP JUMPDEST POP SWAP1 POP PUSH1 0x0 JUMPDEST DUP3 DUP2 LT ISZERO PUSH2 0xA01 JUMPI PUSH2 0x9D2 DUP6 DUP3 PUSH2 0x5DD JUMP JUMPDEST DUP3 DUP3 DUP2 MLOAD DUP2 LT PUSH2 0x9E4 JUMPI PUSH2 0x9E4 PUSH2 0x1FBB JUMP JUMPDEST PUSH1 0x20 SWAP1 DUP2 MUL SWAP2 SWAP1 SWAP2 ADD ADD MSTORE DUP1 PUSH2 0x9F9 DUP2 PUSH2 0x1F74 JUMP JUMPDEST SWAP2 POP POP PUSH2 0x9C0 JUMP JUMPDEST POP SWAP4 SWAP3 POP POP POP JUMP JUMPDEST PUSH1 0x60 PUSH1 0x1 DUP1 SLOAD PUSH2 0x379 SWAP1 PUSH2 0x1F39 JUMP JUMPDEST PUSH2 0xA23 CALLER DUP4 DUP4 PUSH2 0x1006 JUMP JUMPDEST POP POP JUMP JUMPDEST PUSH2 0xA31 CALLER DUP4 PUSH2 0xCDE JUMP JUMPDEST PUSH2 0xA4D JUMPI PUSH1 0x40 MLOAD PUSH3 0x461BCD PUSH1 0xE5 SHL DUP2 MSTORE PUSH1 0x4 ADD PUSH2 0x471 SWAP1 PUSH2 0x1E27 JUMP JUMPDEST PUSH2 0xA59 DUP5 DUP5 DUP5 DUP5 PUSH2 0x10D5 JUMP JUMPDEST POP POP POP POP JUMP JUMPDEST PUSH1 0x60 PUSH1 0x0 PUSH2 0xA9D PUSH2 0xA6F DUP5 PUSH2 0x1108 JUMP JUMPDEST PUSH2 0xA78 DUP6 PUSH2 0x1167 JUMP JUMPDEST PUSH1 0x40 MLOAD PUSH1 0x20 ADD PUSH2 0xA89 SWAP3 SWAP2 SWAP1 PUSH2 0x1C42 JUMP JUMPDEST PUSH1 0x40 MLOAD PUSH1 0x20 DUP2 DUP4 SUB SUB DUP2 MSTORE SWAP1 PUSH1 0x40 MSTORE PUSH2 0x11DD JUMP JUMPDEST SWAP1 POP DUP1 PUSH1 0x40 MLOAD PUSH1 0x20 ADD PUSH2 0xAB0 SWAP2 SWAP1 PUSH2 0x1CFC JUMP JUMPDEST PUSH1 0x40 MLOAD PUSH1 0x20 DUP2 DUP4 SUB SUB DUP2 MSTORE SWAP1 PUSH1 0x40 MSTORE SWAP2 POP POP SWAP2 SWAP1 POP JUMP JUMPDEST PUSH1 0xC DUP1 SLOAD PUSH2 0xAD4 SWAP1 PUSH2 0x1F39 JUMP JUMPDEST DUP1 PUSH1 0x1F ADD PUSH1 0x20 DUP1 SWAP2 DIV MUL PUSH1 0x20 ADD PUSH1 0x40 MLOAD SWAP1 DUP2 ADD PUSH1 0x40 MSTORE DUP1 SWAP3 SWAP2 SWAP1 DUP2 DUP2 MSTORE PUSH1 0x20 ADD DUP3 DUP1 SLOAD PUSH2 0xB00 SWAP1 PUSH2 0x1F39 JUMP JUMPDEST DUP1 ISZERO PUSH2 0xB4D JUMPI DUP1 PUSH1 0x1F LT PUSH2 0xB22 JUMPI PUSH2 0x100 DUP1 DUP4 SLOAD DIV MUL DUP4 MSTORE SWAP2 PUSH1 0x20 ADD SWAP2 PUSH2 0xB4D JUMP JUMPDEST DUP3 ADD SWAP2 SWAP1 PUSH1 0x0 MSTORE PUSH1 0x20 PUSH1 0x0 KECCAK256 SWAP1 JUMPDEST DUP2 SLOAD DUP2 MSTORE SWAP1 PUSH1 0x1 ADD SWAP1 PUSH1 0x20 ADD DUP1 DUP4 GT PUSH2 0xB30 JUMPI DUP3 SWAP1 SUB PUSH1 0x1F AND DUP3 ADD SWAP2 JUMPDEST POP POP POP POP POP DUP2 JUMP JUMPDEST PUSH1 0xA SLOAD PUSH1 0x1 PUSH1 0x1 PUSH1 0xA0 SHL SUB AND CALLER EQ PUSH2 0xBAF JUMPI PUSH1 0x40 MLOAD PUSH3 0x461BCD PUSH1 0xE5 SHL DUP2 MSTORE PUSH1 0x20 PUSH1 0x4 DUP3 ADD DUP2 SWAP1 MSTORE PUSH1 0x24 DUP3 ADD MSTORE PUSH32 0x4F776E61626C653A2063616C6C6572206973206E6F7420746865206F776E6572 PUSH1 0x44 DUP3 ADD MSTORE PUSH1 0x64 ADD PUSH2 0x471 JUMP JUMPDEST PUSH1 0x1 PUSH1 0x1 PUSH1 0xA0 SHL SUB DUP2 AND PUSH2 0xC14 JUMPI PUSH1 0x40 MLOAD PUSH3 0x461BCD PUSH1 0xE5 SHL DUP2 MSTORE PUSH1 0x20 PUSH1 0x4 DUP3 ADD MSTORE PUSH1 0x26 PUSH1 0x24 DUP3 ADD MSTORE PUSH32 0x4F776E61626C653A206E6577206F776E657220697320746865207A65726F2061 PUSH1 0x44 DUP3 ADD MSTORE PUSH6 0x646472657373 PUSH1 0xD0 SHL PUSH1 0x64 DUP3 ADD MSTORE PUSH1 0x84 ADD PUSH2 0x471 JUMP JUMPDEST PUSH2 0xC1D DUP2 PUSH2 0xFB4 JUMP JUMPDEST POP JUMP JUMPDEST PUSH1 0x0 PUSH1 0x1 PUSH1 0x1 PUSH1 0xE0 SHL SUB NOT DUP3 AND PUSH4 0x80AC58CD PUSH1 0xE0 SHL EQ DUP1 PUSH2 0xC51 JUMPI POP PUSH1 0x1 PUSH1 0x1 PUSH1 0xE0 SHL SUB NOT DUP3 AND PUSH4 0x5B5E139F PUSH1 0xE0 SHL EQ JUMPDEST DUP1 PUSH2 0x364 JUMPI POP PUSH4 0x1FFC9A7 PUSH1 0xE0 SHL PUSH1 0x1 PUSH1 0x1 PUSH1 0xE0 SHL SUB NOT DUP4 AND EQ PUSH2 0x364 JUMP JUMPDEST PUSH1 0x0 DUP2 DUP2 MSTORE PUSH1 0x4 PUSH1 0x20 MSTORE PUSH1 0x40 SWAP1 KECCAK256 DUP1 SLOAD PUSH1 0x1 PUSH1 0x1 PUSH1 0xA0 SHL SUB NOT AND PUSH1 0x1 PUSH1 0x1 PUSH1 0xA0 SHL SUB DUP5 AND SWAP1 DUP2 OR SWAP1 SWAP2 SSTORE DUP2 SWAP1 PUSH2 0xCA5 DUP3 PUSH2 0x803 JUMP JUMPDEST PUSH1 0x1 PUSH1 0x1 PUSH1 0xA0 SHL SUB AND PUSH32 0x8C5BE1E5EBEC7D5BD14F71427D1E84F3DD0314C0F7B2291E5B200AC8C7C3B925 PUSH1 0x40 MLOAD PUSH1 0x40 MLOAD DUP1 SWAP2 SUB SWAP1 LOG4 POP POP JUMP JUMPDEST PUSH1 0x0 DUP2 DUP2 MSTORE PUSH1 0x2 PUSH1 0x20 MSTORE PUSH1 0x40 DUP2 KECCAK256 SLOAD PUSH1 0x1 PUSH1 0x1 PUSH1 0xA0 SHL SUB AND PUSH2 0xD57 JUMPI PUSH1 0x40 MLOAD PUSH3 0x461BCD PUSH1 0xE5 SHL DUP2 MSTORE PUSH1 0x20 PUSH1 0x4 DUP3 ADD MSTORE PUSH1 0x2C PUSH1 0x24 DUP3 ADD MSTORE PUSH32 0x4552433732313A206F70657261746F7220717565727920666F72206E6F6E6578 PUSH1 0x44 DUP3 ADD MSTORE PUSH12 0x34B9BA32B73A103A37B5B2B7 PUSH1 0xA1 SHL PUSH1 0x64 DUP3 ADD MSTORE PUSH1 0x84 ADD PUSH2 0x471 JUMP JUMPDEST PUSH1 0x0 PUSH2 0xD62 DUP4 PUSH2 0x803 JUMP JUMPDEST SWAP1 POP DUP1 PUSH1 0x1 PUSH1 0x1 PUSH1 0xA0 SHL SUB AND DUP5 PUSH1 0x1 PUSH1 0x1 PUSH1 0xA0 SHL SUB AND EQ DUP1 PUSH2 0xD9D JUMPI POP DUP4 PUSH1 0x1 PUSH1 0x1 PUSH1 0xA0 SHL SUB AND PUSH2 0xD92 DUP5 PUSH2 0x3FC JUMP JUMPDEST PUSH1 0x1 PUSH1 0x1 PUSH1 0xA0 SHL SUB AND EQ JUMPDEST DUP1 PUSH2 0xDCD JUMPI POP PUSH1 0x1 PUSH1 0x1 PUSH1 0xA0 SHL SUB DUP1 DUP3 AND PUSH1 0x0 SWAP1 DUP2 MSTORE PUSH1 0x5 PUSH1 0x20 SWAP1 DUP2 MSTORE PUSH1 0x40 DUP1 DUP4 KECCAK256 SWAP4 DUP9 AND DUP4 MSTORE SWAP3 SWAP1 MSTORE KECCAK256 SLOAD PUSH1 0xFF AND JUMPDEST SWAP5 SWAP4 POP POP POP POP JUMP JUMPDEST DUP3 PUSH1 0x1 PUSH1 0x1 PUSH1 0xA0 SHL SUB AND PUSH2 0xDE8 DUP3 PUSH2 0x803 JUMP JUMPDEST PUSH1 0x1 PUSH1 0x1 PUSH1 0xA0 SHL SUB AND EQ PUSH2 0xE4C JUMPI PUSH1 0x40 MLOAD PUSH3 0x461BCD PUSH1 0xE5 SHL DUP2 MSTORE PUSH1 0x20 PUSH1 0x4 DUP3 ADD MSTORE PUSH1 0x25 PUSH1 0x24 DUP3 ADD MSTORE PUSH32 0x4552433732313A207472616E736665722066726F6D20696E636F727265637420 PUSH1 0x44 DUP3 ADD MSTORE PUSH5 0x37BBB732B9 PUSH1 0xD9 SHL PUSH1 0x64 DUP3 ADD MSTORE PUSH1 0x84 ADD PUSH2 0x471 JUMP JUMPDEST PUSH1 0x1 PUSH1 0x1 PUSH1 0xA0 SHL SUB DUP3 AND PUSH2 0xEAE JUMPI PUSH1 0x40 MLOAD PUSH3 0x461BCD PUSH1 0xE5 SHL DUP2 MSTORE PUSH1 0x20 PUSH1 0x4 DUP3 ADD MSTORE PUSH1 0x24 DUP1 DUP3 ADD MSTORE PUSH32 0x4552433732313A207472616E7366657220746F20746865207A65726F20616464 PUSH1 0x44 DUP3 ADD MSTORE PUSH4 0x72657373 PUSH1 0xE0 SHL PUSH1 0x64 DUP3 ADD MSTORE PUSH1 0x84 ADD PUSH2 0x471 JUMP JUMPDEST PUSH2 0xEB9 DUP4 DUP4 DUP4 PUSH2 0x1343 JUMP JUMPDEST PUSH2 0xEC4 PUSH1 0x0 DUP3 PUSH2 0xC70 JUMP JUMPDEST PUSH1 0x1 PUSH1 0x1 PUSH1 0xA0 SHL SUB DUP4 AND PUSH1 0x0 SWAP1 DUP2 MSTORE PUSH1 0x3 PUSH1 0x20 MSTORE PUSH1 0x40 DUP2 KECCAK256 DUP1 SLOAD PUSH1 0x1 SWAP3 SWAP1 PUSH2 0xEED SWAP1 DUP5 SWAP1 PUSH2 0x1EF6 JUMP JUMPDEST SWAP1 SWAP2 SSTORE POP POP PUSH1 0x1 PUSH1 0x1 PUSH1 0xA0 SHL SUB DUP3 AND PUSH1 0x0 SWAP1 DUP2 MSTORE PUSH1 0x3 PUSH1 0x20 MSTORE PUSH1 0x40 DUP2 KECCAK256 DUP1 SLOAD PUSH1 0x1 SWAP3 SWAP1 PUSH2 0xF1B SWAP1 DUP5 SWAP1 PUSH2 0x1E78 JUMP JUMPDEST SWAP1 SWAP2 SSTORE POP POP PUSH1 0x0 DUP2 DUP2 MSTORE PUSH1 0x2 PUSH1 0x20 MSTORE PUSH1 0x40 DUP1 DUP3 KECCAK256 DUP1 SLOAD PUSH1 0x1 PUSH1 0x1 PUSH1 0xA0 SHL SUB NOT AND PUSH1 0x1 PUSH1 0x1 PUSH1 0xA0 SHL SUB DUP7 DUP2 AND SWAP2 DUP3 OR SWAP1 SWAP3 SSTORE SWAP2 MLOAD DUP5 SWAP4 SWAP2 DUP8 AND SWAP2 PUSH32 0xDDF252AD1BE2C89B69C2B068FC378DAA952BA7F163C4A11628F55A4DF523B3EF SWAP2 LOG4 POP POP POP JUMP JUMPDEST PUSH1 0x0 PUSH2 0xF88 DUP3 DUP5 PUSH2 0x1E78 JUMP JUMPDEST SWAP4 SWAP3 POP POP POP JUMP JUMPDEST PUSH1 0x0 PUSH2 0xF9A PUSH1 0xB SLOAD SWAP1 JUMP JUMPDEST SWAP1 POP PUSH2 0xFA6 CALLER DUP3 PUSH2 0x13FB JUMP JUMPDEST PUSH2 0xC1D PUSH1 0xB DUP1 SLOAD PUSH1 0x1 ADD SWAP1 SSTORE JUMP JUMPDEST PUSH1 0xA DUP1 SLOAD PUSH1 0x1 PUSH1 0x1 PUSH1 0xA0 SHL SUB DUP4 DUP2 AND PUSH1 0x1 PUSH1 0x1 PUSH1 0xA0 SHL SUB NOT DUP4 AND DUP2 OR SWAP1 SWAP4 SSTORE PUSH1 0x40 MLOAD SWAP2 AND SWAP2 SWAP1 DUP3 SWAP1 PUSH32 0x8BE0079C531659141344CD1FD0A4F28419497F9722A3DAAFE3B4186F6B6457E0 SWAP1 PUSH1 0x0 SWAP1 LOG3 POP POP JUMP JUMPDEST DUP2 PUSH1 0x1 PUSH1 0x1 PUSH1 0xA0 SHL SUB AND DUP4 PUSH1 0x1 PUSH1 0x1 PUSH1 0xA0 SHL SUB AND EQ ISZERO PUSH2 0x1068 JUMPI PUSH1 0x40 MLOAD PUSH3 0x461BCD PUSH1 0xE5 SHL DUP2 MSTORE PUSH1 0x20 PUSH1 0x4 DUP3 ADD MSTORE PUSH1 0x19 PUSH1 0x24 DUP3 ADD MSTORE PUSH32 0x4552433732313A20617070726F766520746F2063616C6C657200000000000000 PUSH1 0x44 DUP3 ADD MSTORE PUSH1 0x64 ADD PUSH2 0x471 JUMP JUMPDEST PUSH1 0x1 PUSH1 0x1 PUSH1 0xA0 SHL SUB DUP4 DUP2 AND PUSH1 0x0 DUP2 DUP2 MSTORE PUSH1 0x5 PUSH1 0x20 SWAP1 DUP2 MSTORE PUSH1 0x40 DUP1 DUP4 KECCAK256 SWAP5 DUP8 AND DUP1 DUP5 MSTORE SWAP5 DUP3 MSTORE SWAP2 DUP3 SWAP1 KECCAK256 DUP1 SLOAD PUSH1 0xFF NOT AND DUP7 ISZERO ISZERO SWAP1 DUP2 OR SWAP1 SWAP2 SSTORE SWAP2 MLOAD SWAP2 DUP3 MSTORE PUSH32 0x17307EAB39AB6107E8899845AD3D59BD9653F200F220920489CA2B5937696C31 SWAP2 ADD PUSH1 0x40 MLOAD DUP1 SWAP2 SUB SWAP1 LOG3 POP POP POP JUMP JUMPDEST PUSH2 0x10E0 DUP5 DUP5 DUP5 PUSH2 0xDD5 JUMP JUMPDEST PUSH2 0x10EC DUP5 DUP5 DUP5 DUP5 PUSH2 0x1415 JUMP JUMPDEST PUSH2 0xA59 JUMPI PUSH1 0x40 MLOAD PUSH3 0x461BCD PUSH1 0xE5 SHL DUP2 MSTORE PUSH1 0x4 ADD PUSH2 0x471 SWAP1 PUSH2 0x1DD5 JUMP JUMPDEST PUSH1 0x60 PUSH1 0x0 PUSH2 0x1115 DUP4 PUSH2 0x1522 JUMP JUMPDEST SWAP1 POP PUSH1 0x0 PUSH1 0x40 MLOAD DUP1 PUSH1 0x40 ADD PUSH1 0x40 MSTORE DUP1 PUSH1 0x8 DUP2 MSTORE PUSH1 0x20 ADD PUSH8 0x2A30B7A7232A169 PUSH1 0xC5 SHL DUP2 MSTORE POP SWAP1 POP DUP1 DUP3 PUSH1 0x40 MLOAD PUSH1 0x20 ADD PUSH2 0x114F SWAP3 SWAP2 SWAP1 PUSH2 0x1C06 JUMP JUMPDEST PUSH1 0x40 MLOAD PUSH1 0x20 DUP2 DUP4 SUB SUB DUP2 MSTORE SWAP1 PUSH1 0x40 MSTORE SWAP3 POP POP POP SWAP2 SWAP1 POP JUMP JUMPDEST PUSH1 0x60 PUSH1 0x0 PUSH1 0x40 MLOAD DUP1 PUSH1 0x80 ADD PUSH1 0x40 MSTORE DUP1 PUSH1 0x44 DUP2 MSTORE PUSH1 0x20 ADD PUSH2 0x203E PUSH1 0x44 SWAP2 CODECOPY PUSH1 0x40 DUP1 MLOAD DUP1 DUP3 ADD SWAP1 SWAP2 MSTORE PUSH1 0x4 DUP2 MSTORE PUSH4 0x2E706E67 PUSH1 0xE0 SHL PUSH1 0x20 DUP3 ADD MSTORE SWAP1 SWAP2 POP PUSH1 0x0 PUSH2 0x11AD DUP6 PUSH2 0x1522 JUMP JUMPDEST SWAP1 POP DUP3 DUP2 DUP4 PUSH1 0x40 MLOAD PUSH1 0x20 ADD PUSH2 0x11C4 SWAP4 SWAP3 SWAP2 SWAP1 PUSH2 0x1BC3 JUMP JUMPDEST PUSH1 0x40 MLOAD PUSH1 0x20 DUP2 DUP4 SUB SUB DUP2 MSTORE SWAP1 PUSH1 0x40 MSTORE SWAP4 POP POP POP POP SWAP2 SWAP1 POP JUMP JUMPDEST PUSH1 0x60 DUP2 MLOAD PUSH1 0x0 EQ ISZERO PUSH2 0x11FD JUMPI POP POP PUSH1 0x40 DUP1 MLOAD PUSH1 0x20 DUP2 ADD SWAP1 SWAP2 MSTORE PUSH1 0x0 DUP2 MSTORE SWAP1 JUMP JUMPDEST PUSH1 0x0 PUSH1 0x40 MLOAD DUP1 PUSH1 0x60 ADD PUSH1 0x40 MSTORE DUP1 PUSH1 0x40 DUP2 MSTORE PUSH1 0x20 ADD PUSH2 0x1FFE PUSH1 0x40 SWAP2 CODECOPY SWAP1 POP PUSH1 0x0 PUSH1 0x3 DUP5 MLOAD PUSH1 0x2 PUSH2 0x122C SWAP2 SWAP1 PUSH2 0x1E78 JUMP JUMPDEST PUSH2 0x1236 SWAP2 SWAP1 PUSH2 0x1EB5 JUMP JUMPDEST PUSH2 0x1241 SWAP1 PUSH1 0x4 PUSH2 0x1ED7 JUMP JUMPDEST SWAP1 POP PUSH1 0x0 PUSH2 0x1250 DUP3 PUSH1 0x20 PUSH2 0x1E78 JUMP JUMPDEST PUSH8 0xFFFFFFFFFFFFFFFF DUP2 GT ISZERO PUSH2 0x1268 JUMPI PUSH2 0x1268 PUSH2 0x1FD1 JUMP JUMPDEST PUSH1 0x40 MLOAD SWAP1 DUP1 DUP3 MSTORE DUP1 PUSH1 0x1F ADD PUSH1 0x1F NOT AND PUSH1 0x20 ADD DUP3 ADD PUSH1 0x40 MSTORE DUP1 ISZERO PUSH2 0x1292 JUMPI PUSH1 0x20 DUP3 ADD DUP2 DUP1 CALLDATASIZE DUP4 CALLDATACOPY ADD SWAP1 POP JUMPDEST POP SWAP1 POP DUP2 DUP2 MSTORE PUSH1 0x1 DUP4 ADD DUP6 DUP7 MLOAD DUP2 ADD PUSH1 0x20 DUP5 ADD JUMPDEST DUP2 DUP4 LT ISZERO PUSH2 0x12FE JUMPI PUSH1 0x3 DUP4 ADD SWAP3 POP DUP3 MLOAD PUSH1 0x3F DUP2 PUSH1 0x12 SHR AND DUP6 ADD MLOAD DUP3 MSTORE8 PUSH1 0x1 DUP3 ADD SWAP2 POP PUSH1 0x3F DUP2 PUSH1 0xC SHR AND DUP6 ADD MLOAD DUP3 MSTORE8 PUSH1 0x1 DUP3 ADD SWAP2 POP PUSH1 0x3F DUP2 PUSH1 0x6 SHR AND DUP6 ADD MLOAD DUP3 MSTORE8 PUSH1 0x1 DUP3 ADD SWAP2 POP PUSH1 0x3F DUP2 AND DUP6 ADD MLOAD DUP3 MSTORE8 POP PUSH1 0x1 ADD PUSH2 0x12A6 JUMP JUMPDEST PUSH1 0x3 DUP10 MLOAD MOD PUSH1 0x1 DUP2 EQ PUSH2 0x1318 JUMPI PUSH1 0x2 DUP2 EQ PUSH2 0x1329 JUMPI PUSH2 0x1335 JUMP JUMPDEST PUSH2 0x3D3D PUSH1 0xF0 SHL PUSH1 0x1 NOT DUP4 ADD MSTORE PUSH2 0x1335 JUMP JUMPDEST PUSH1 0x3D PUSH1 0xF8 SHL PUSH1 0x0 NOT DUP4 ADD MSTORE JUMPDEST POP SWAP4 SWAP9 SWAP8 POP POP POP POP POP POP POP POP JUMP JUMPDEST PUSH1 0x1 PUSH1 0x1 PUSH1 0xA0 SHL SUB DUP4 AND PUSH2 0x139E JUMPI PUSH2 0x1399 DUP2 PUSH1 0x8 DUP1 SLOAD PUSH1 0x0 DUP4 DUP2 MSTORE PUSH1 0x9 PUSH1 0x20 MSTORE PUSH1 0x40 DUP2 KECCAK256 DUP3 SWAP1 SSTORE PUSH1 0x1 DUP3 ADD DUP4 SSTORE SWAP2 SWAP1 SWAP2 MSTORE PUSH32 0xF3F7A9FE364FAAB93B216DA50A3214154F22A0A2B415B23A84C8169E8B636EE3 ADD SSTORE JUMP JUMPDEST PUSH2 0x13C1 JUMP JUMPDEST DUP2 PUSH1 0x1 PUSH1 0x1 PUSH1 0xA0 SHL SUB AND DUP4 PUSH1 0x1 PUSH1 0x1 PUSH1 0xA0 SHL SUB AND EQ PUSH2 0x13C1 JUMPI PUSH2 0x13C1 DUP4 DUP3 PUSH2 0x164B JUMP JUMPDEST PUSH1 0x1 PUSH1 0x1 PUSH1 0xA0 SHL SUB DUP3 AND PUSH2 0x13D8 JUMPI PUSH2 0x5A7 DUP2 PUSH2 0x16E8 JUMP JUMPDEST DUP3 PUSH1 0x1 PUSH1 0x1 PUSH1 0xA0 SHL SUB AND DUP3 PUSH1 0x1 PUSH1 0x1 PUSH1 0xA0 SHL SUB AND EQ PUSH2 0x5A7 JUMPI PUSH2 0x5A7 DUP3 DUP3 PUSH2 0x1797 JUMP JUMPDEST PUSH2 0xA23 DUP3 DUP3 PUSH1 0x40 MLOAD DUP1 PUSH1 0x20 ADD PUSH1 0x40 MSTORE DUP1 PUSH1 0x0 DUP2 MSTORE POP PUSH2 0x17DB JUMP JUMPDEST PUSH1 0x0 PUSH1 0x1 PUSH1 0x1 PUSH1 0xA0 SHL SUB DUP5 AND EXTCODESIZE ISZERO PUSH2 0x1517 JUMPI PUSH1 0x40 MLOAD PUSH4 0xA85BD01 PUSH1 0xE1 SHL DUP2 MSTORE PUSH1 0x1 PUSH1 0x1 PUSH1 0xA0 SHL SUB DUP6 AND SWAP1 PUSH4 0x150B7A02 SWAP1 PUSH2 0x1459 SWAP1 CALLER SWAP1 DUP10 SWAP1 DUP9 SWAP1 DUP9 SWAP1 PUSH1 0x4 ADD PUSH2 0x1D41 JUMP JUMPDEST PUSH1 0x20 PUSH1 0x40 MLOAD DUP1 DUP4 SUB DUP2 PUSH1 0x0 DUP8 DUP1 EXTCODESIZE ISZERO DUP1 ISZERO PUSH2 0x1473 JUMPI PUSH1 0x0 DUP1 REVERT JUMPDEST POP GAS CALL SWAP3 POP POP POP DUP1 ISZERO PUSH2 0x14A3 JUMPI POP PUSH1 0x40 DUP1 MLOAD PUSH1 0x1F RETURNDATASIZE SWAP1 DUP2 ADD PUSH1 0x1F NOT AND DUP3 ADD SWAP1 SWAP3 MSTORE PUSH2 0x14A0 SWAP2 DUP2 ADD SWAP1 PUSH2 0x1B61 JUMP JUMPDEST PUSH1 0x1 JUMPDEST PUSH2 0x14FD JUMPI RETURNDATASIZE DUP1 DUP1 ISZERO PUSH2 0x14D1 JUMPI PUSH1 0x40 MLOAD SWAP2 POP PUSH1 0x1F NOT PUSH1 0x3F RETURNDATASIZE ADD AND DUP3 ADD PUSH1 0x40 MSTORE RETURNDATASIZE DUP3 MSTORE RETURNDATASIZE PUSH1 0x0 PUSH1 0x20 DUP5 ADD RETURNDATACOPY PUSH2 0x14D6 JUMP JUMPDEST PUSH1 0x60 SWAP2 POP JUMPDEST POP DUP1 MLOAD PUSH2 0x14F5 JUMPI PUSH1 0x40 MLOAD PUSH3 0x461BCD PUSH1 0xE5 SHL DUP2 MSTORE PUSH1 0x4 ADD PUSH2 0x471 SWAP1 PUSH2 0x1DD5 JUMP JUMPDEST DUP1 MLOAD DUP2 PUSH1 0x20 ADD REVERT JUMPDEST PUSH1 0x1 PUSH1 0x1 PUSH1 0xE0 SHL SUB NOT AND PUSH4 0xA85BD01 PUSH1 0xE1 SHL EQ SWAP1 POP PUSH2 0xDCD JUMP JUMPDEST POP PUSH1 0x1 SWAP5 SWAP4 POP POP POP POP JUMP JUMPDEST PUSH1 0x60 DUP2 PUSH2 0x1546 JUMPI POP POP PUSH1 0x40 DUP1 MLOAD DUP1 DUP3 ADD SWAP1 SWAP2 MSTORE PUSH1 0x1 DUP2 MSTORE PUSH1 0x3 PUSH1 0xFC SHL PUSH1 0x20 DUP3 ADD MSTORE SWAP1 JUMP JUMPDEST DUP2 PUSH1 0x0 JUMPDEST DUP2 ISZERO PUSH2 0x1570 JUMPI DUP1 PUSH2 0x155A DUP2 PUSH2 0x1F74 JUMP JUMPDEST SWAP2 POP PUSH2 0x1569 SWAP1 POP PUSH1 0xA DUP4 PUSH2 0x1EB5 JUMP JUMPDEST SWAP2 POP PUSH2 0x154A JUMP JUMPDEST PUSH1 0x0 DUP2 PUSH8 0xFFFFFFFFFFFFFFFF DUP2 GT ISZERO PUSH2 0x158B JUMPI PUSH2 0x158B PUSH2 0x1FD1 JUMP JUMPDEST PUSH1 0x40 MLOAD SWAP1 DUP1 DUP3 MSTORE DUP1 PUSH1 0x1F ADD PUSH1 0x1F NOT AND PUSH1 0x20 ADD DUP3 ADD PUSH1 0x40 MSTORE DUP1 ISZERO PUSH2 0x15B5 JUMPI PUSH1 0x20 DUP3 ADD DUP2 DUP1 CALLDATASIZE DUP4 CALLDATACOPY ADD SWAP1 POP JUMPDEST POP SWAP1 POP DUP2 JUMPDEST DUP6 ISZERO PUSH2 0x1642 JUMPI PUSH2 0x15CB PUSH1 0x1 DUP3 PUSH2 0x1EF6 JUMP JUMPDEST SWAP1 POP PUSH1 0x0 PUSH2 0x15DA PUSH1 0xA DUP9 PUSH2 0x1EB5 JUMP JUMPDEST PUSH2 0x15E5 SWAP1 PUSH1 0xA PUSH2 0x1ED7 JUMP JUMPDEST PUSH2 0x15EF SWAP1 DUP9 PUSH2 0x1EF6 JUMP JUMPDEST PUSH2 0x15FA SWAP1 PUSH1 0x30 PUSH2 0x1E90 JUMP JUMPDEST SWAP1 POP PUSH1 0x0 DUP2 PUSH1 0xF8 SHL SWAP1 POP DUP1 DUP5 DUP5 DUP2 MLOAD DUP2 LT PUSH2 0x1617 JUMPI PUSH2 0x1617 PUSH2 0x1FBB JUMP JUMPDEST PUSH1 0x20 ADD ADD SWAP1 PUSH1 0x1 PUSH1 0x1 PUSH1 0xF8 SHL SUB NOT AND SWAP1 DUP2 PUSH1 0x0 BYTE SWAP1 MSTORE8 POP PUSH2 0x1639 PUSH1 0xA DUP10 PUSH2 0x1EB5 JUMP JUMPDEST SWAP8 POP POP POP PUSH2 0x15BA JUMP JUMPDEST POP SWAP5 SWAP4 POP POP POP POP JUMP JUMPDEST PUSH1 0x0 PUSH1 0x1 PUSH2 0x1658 DUP5 PUSH2 0x87A JUMP JUMPDEST PUSH2 0x1662 SWAP2 SWAP1 PUSH2 0x1EF6 JUMP JUMPDEST PUSH1 0x0 DUP4 DUP2 MSTORE PUSH1 0x7 PUSH1 0x20 MSTORE PUSH1 0x40 SWAP1 KECCAK256 SLOAD SWAP1 SWAP2 POP DUP1 DUP3 EQ PUSH2 0x16B5 JUMPI PUSH1 0x1 PUSH1 0x1 PUSH1 0xA0 SHL SUB DUP5 AND PUSH1 0x0 SWAP1 DUP2 MSTORE PUSH1 0x6 PUSH1 0x20 SWAP1 DUP2 MSTORE PUSH1 0x40 DUP1 DUP4 KECCAK256 DUP6 DUP5 MSTORE DUP3 MSTORE DUP1 DUP4 KECCAK256 SLOAD DUP5 DUP5 MSTORE DUP2 DUP5 KECCAK256 DUP2 SWAP1 SSTORE DUP4 MSTORE PUSH1 0x7 SWAP1 SWAP2 MSTORE SWAP1 KECCAK256 DUP2 SWAP1 SSTORE JUMPDEST POP PUSH1 0x0 SWAP2 DUP3 MSTORE PUSH1 0x7 PUSH1 0x20 SWAP1 DUP2 MSTORE PUSH1 0x40 DUP1 DUP5 KECCAK256 DUP5 SWAP1 SSTORE PUSH1 0x1 PUSH1 0x1 PUSH1 0xA0 SHL SUB SWAP1 SWAP5 AND DUP4 MSTORE PUSH1 0x6 DUP2 MSTORE DUP4 DUP4 KECCAK256 SWAP2 DUP4 MSTORE MSTORE SWAP1 DUP2 KECCAK256 SSTORE JUMP JUMPDEST PUSH1 0x8 SLOAD PUSH1 0x0 SWAP1 PUSH2 0x16FA SWAP1 PUSH1 0x1 SWAP1 PUSH2 0x1EF6 JUMP JUMPDEST PUSH1 0x0 DUP4 DUP2 MSTORE PUSH1 0x9 PUSH1 0x20 MSTORE PUSH1 0x40 DUP2 KECCAK256 SLOAD PUSH1 0x8 DUP1 SLOAD SWAP4 SWAP5 POP SWAP1 SWAP3 DUP5 SWAP1 DUP2 LT PUSH2 0x1722 JUMPI PUSH2 0x1722 PUSH2 0x1FBB JUMP JUMPDEST SWAP1 PUSH1 0x0 MSTORE PUSH1 0x20 PUSH1 0x0 KECCAK256 ADD SLOAD SWAP1 POP DUP1 PUSH1 0x8 DUP4 DUP2 SLOAD DUP2 LT PUSH2 0x1743 JUMPI PUSH2 0x1743 PUSH2 0x1FBB JUMP JUMPDEST PUSH1 0x0 SWAP2 DUP3 MSTORE PUSH1 0x20 DUP1 DUP4 KECCAK256 SWAP1 SWAP2 ADD SWAP3 SWAP1 SWAP3 SSTORE DUP3 DUP2 MSTORE PUSH1 0x9 SWAP1 SWAP2 MSTORE PUSH1 0x40 DUP1 DUP3 KECCAK256 DUP5 SWAP1 SSTORE DUP6 DUP3 MSTORE DUP2 KECCAK256 SSTORE PUSH1 0x8 DUP1 SLOAD DUP1 PUSH2 0x177B JUMPI PUSH2 0x177B PUSH2 0x1FA5 JUMP JUMPDEST PUSH1 0x1 SWAP1 SUB DUP2 DUP2 SWAP1 PUSH1 0x0 MSTORE PUSH1 0x20 PUSH1 0x0 KECCAK256 ADD PUSH1 0x0 SWAP1 SSTORE SWAP1 SSTORE POP POP POP POP JUMP JUMPDEST PUSH1 0x0 PUSH2 0x17A2 DUP4 PUSH2 0x87A JUMP JUMPDEST PUSH1 0x1 PUSH1 0x1 PUSH1 0xA0 SHL SUB SWAP1 SWAP4 AND PUSH1 0x0 SWAP1 DUP2 MSTORE PUSH1 0x6 PUSH1 0x20 SWAP1 DUP2 MSTORE PUSH1 0x40 DUP1 DUP4 KECCAK256 DUP7 DUP5 MSTORE DUP3 MSTORE DUP1 DUP4 KECCAK256 DUP6 SWAP1 SSTORE SWAP4 DUP3 MSTORE PUSH1 0x7 SWAP1 MSTORE SWAP2 SWAP1 SWAP2 KECCAK256 SWAP2 SWAP1 SWAP2 SSTORE POP JUMP JUMPDEST PUSH2 0x17E5 DUP4 DUP4 PUSH2 0x180E JUMP JUMPDEST PUSH2 0x17F2 PUSH1 0x0 DUP5 DUP5 DUP5 PUSH2 0x1415 JUMP JUMPDEST PUSH2 0x5A7 JUMPI PUSH1 0x40 MLOAD PUSH3 0x461BCD PUSH1 0xE5 SHL DUP2 MSTORE PUSH1 0x4 ADD PUSH2 0x471 SWAP1 PUSH2 0x1DD5 JUMP JUMPDEST PUSH1 0x1 PUSH1 0x1 PUSH1 0xA0 SHL SUB DUP3 AND PUSH2 0x1864 JUMPI PUSH1 0x40 MLOAD PUSH3 0x461BCD PUSH1 0xE5 SHL DUP2 MSTORE PUSH1 0x20 PUSH1 0x4 DUP3 ADD DUP2 SWAP1 MSTORE PUSH1 0x24 DUP3 ADD MSTORE PUSH32 0x4552433732313A206D696E7420746F20746865207A65726F2061646472657373 PUSH1 0x44 DUP3 ADD MSTORE PUSH1 0x64 ADD PUSH2 0x471 JUMP JUMPDEST PUSH1 0x0 DUP2 DUP2 MSTORE PUSH1 0x2 PUSH1 0x20 MSTORE PUSH1 0x40 SWAP1 KECCAK256 SLOAD PUSH1 0x1 PUSH1 0x1 PUSH1 0xA0 SHL SUB AND ISZERO PUSH2 0x18C9 JUMPI PUSH1 0x40 MLOAD PUSH3 0x461BCD PUSH1 0xE5 SHL DUP2 MSTORE PUSH1 0x20 PUSH1 0x4 DUP3 ADD MSTORE PUSH1 0x1C PUSH1 0x24 DUP3 ADD MSTORE PUSH32 0x4552433732313A20746F6B656E20616C7265616479206D696E74656400000000 PUSH1 0x44 DUP3 ADD MSTORE PUSH1 0x64 ADD PUSH2 0x471 JUMP JUMPDEST PUSH2 0x18D5 PUSH1 0x0 DUP4 DUP4 PUSH2 0x1343 JUMP JUMPDEST PUSH1 0x1 PUSH1 0x1 PUSH1 0xA0 SHL SUB DUP3 AND PUSH1 0x0 SWAP1 DUP2 MSTORE PUSH1 0x3 PUSH1 0x20 MSTORE PUSH1 0x40 DUP2 KECCAK256 DUP1 SLOAD PUSH1 0x1 SWAP3 SWAP1 PUSH2 0x18FE SWAP1 DUP5 SWAP1 PUSH2 0x1E78 JUMP JUMPDEST SWAP1 SWAP2 SSTORE POP POP PUSH1 0x0 DUP2 DUP2 MSTORE PUSH1 0x2 PUSH1 0x20 MSTORE PUSH1 0x40 DUP1 DUP3 KECCAK256 DUP1 SLOAD PUSH1 0x1 PUSH1 0x1 PUSH1 0xA0 SHL SUB NOT AND PUSH1 0x1 PUSH1 0x1 PUSH1 0xA0 SHL SUB DUP7 AND SWAP1 DUP2 OR SWAP1 SWAP2 SSTORE SWAP1 MLOAD DUP4 SWAP3 SWAP1 PUSH32 0xDDF252AD1BE2C89B69C2B068FC378DAA952BA7F163C4A11628F55A4DF523B3EF SWAP1 DUP3 SWAP1 LOG4 POP POP JUMP JUMPDEST DUP1 CALLDATALOAD PUSH1 0x1 PUSH1 0x1 PUSH1 0xA0 SHL SUB DUP2 AND DUP2 EQ PUSH2 0x1973 JUMPI PUSH1 0x0 DUP1 REVERT JUMPDEST SWAP2 SWAP1 POP JUMP JUMPDEST PUSH1 0x0 PUSH1 0x20 DUP3 DUP5 SUB SLT ISZERO PUSH2 0x198A JUMPI PUSH1 0x0 DUP1 REVERT JUMPDEST PUSH2 0xF88 DUP3 PUSH2 0x195C JUMP JUMPDEST PUSH1 0x0 DUP1 PUSH1 0x40 DUP4 DUP6 SUB SLT ISZERO PUSH2 0x19A6 JUMPI PUSH1 0x0 DUP1 REVERT JUMPDEST PUSH2 0x19AF DUP4 PUSH2 0x195C JUMP JUMPDEST SWAP2 POP PUSH2 0x19BD PUSH1 0x20 DUP5 ADD PUSH2 0x195C JUMP JUMPDEST SWAP1 POP SWAP3 POP SWAP3 SWAP1 POP JUMP JUMPDEST PUSH1 0x0 DUP1 PUSH1 0x0 PUSH1 0x60 DUP5 DUP7 SUB SLT ISZERO PUSH2 0x19DB JUMPI PUSH1 0x0 DUP1 REVERT JUMPDEST PUSH2 0x19E4 DUP5 PUSH2 0x195C JUMP JUMPDEST SWAP3 POP PUSH2 0x19F2 PUSH1 0x20 DUP6 ADD PUSH2 0x195C JUMP JUMPDEST SWAP2 POP PUSH1 0x40 DUP5 ADD CALLDATALOAD SWAP1 POP SWAP3 POP SWAP3 POP SWAP3 JUMP JUMPDEST PUSH1 0x0 DUP1 PUSH1 0x0 DUP1 PUSH1 0x80 DUP6 DUP8 SUB SLT ISZERO PUSH2 0x1A18 JUMPI PUSH1 0x0 DUP1 REVERT JUMPDEST PUSH2 0x1A21 DUP6 PUSH2 0x195C JUMP JUMPDEST SWAP4 POP PUSH2 0x1A2F PUSH1 0x20 DUP7 ADD PUSH2 0x195C JUMP JUMPDEST SWAP3 POP PUSH1 0x40 DUP6 ADD CALLDATALOAD SWAP2 POP PUSH1 0x60 DUP6 ADD CALLDATALOAD PUSH8 0xFFFFFFFFFFFFFFFF DUP1 DUP3 GT ISZERO PUSH2 0x1A53 JUMPI PUSH1 0x0 DUP1 REVERT JUMPDEST DUP2 DUP8 ADD SWAP2 POP DUP8 PUSH1 0x1F DUP4 ADD SLT PUSH2 0x1A67 JUMPI PUSH1 0x0 DUP1 REVERT JUMPDEST DUP2 CALLDATALOAD DUP2 DUP2 GT ISZERO PUSH2 0x1A79 JUMPI PUSH2 0x1A79 PUSH2 0x1FD1 JUMP JUMPDEST PUSH1 0x40 MLOAD PUSH1 0x1F DUP3 ADD PUSH1 0x1F NOT SWAP1 DUP2 AND PUSH1 0x3F ADD AND DUP2 ADD SWAP1 DUP4 DUP3 GT DUP2 DUP4 LT OR ISZERO PUSH2 0x1AA1 JUMPI PUSH2 0x1AA1 PUSH2 0x1FD1 JUMP JUMPDEST DUP2 PUSH1 0x40 MSTORE DUP3 DUP2 MSTORE DUP11 PUSH1 0x20 DUP5 DUP8 ADD ADD GT ISZERO PUSH2 0x1ABA JUMPI PUSH1 0x0 DUP1 REVERT JUMPDEST DUP3 PUSH1 0x20 DUP7 ADD PUSH1 0x20 DUP4 ADD CALLDATACOPY PUSH1 0x0 PUSH1 0x20 DUP5 DUP4 ADD ADD MSTORE DUP1 SWAP6 POP POP POP POP POP POP SWAP3 SWAP6 SWAP2 SWAP5 POP SWAP3 POP JUMP JUMPDEST PUSH1 0x0 DUP1 PUSH1 0x40 DUP4 DUP6 SUB SLT ISZERO PUSH2 0x1AF1 JUMPI PUSH1 0x0 DUP1 REVERT JUMPDEST PUSH2 0x1AFA DUP4 PUSH2 0x195C JUMP JUMPDEST SWAP2 POP PUSH1 0x20 DUP4 ADD CALLDATALOAD DUP1 ISZERO ISZERO DUP2 EQ PUSH2 0x1B0F JUMPI PUSH1 0x0 DUP1 REVERT JUMPDEST DUP1 SWAP2 POP POP SWAP3 POP SWAP3 SWAP1 POP JUMP JUMPDEST PUSH1 0x0 DUP1 PUSH1 0x40 DUP4 DUP6 SUB SLT ISZERO PUSH2 0x1B2D JUMPI PUSH1 0x0 DUP1 REVERT JUMPDEST PUSH2 0x1B36 DUP4 PUSH2 0x195C JUMP JUMPDEST SWAP5 PUSH1 0x20 SWAP4 SWAP1 SWAP4 ADD CALLDATALOAD SWAP4 POP POP POP JUMP JUMPDEST PUSH1 0x0 PUSH1 0x20 DUP3 DUP5 SUB SLT ISZERO PUSH2 0x1B56 JUMPI PUSH1 0x0 DUP1 REVERT JUMPDEST DUP2 CALLDATALOAD PUSH2 0xF88 DUP2 PUSH2 0x1FE7 JUMP JUMPDEST PUSH1 0x0 PUSH1 0x20 DUP3 DUP5 SUB SLT ISZERO PUSH2 0x1B73 JUMPI PUSH1 0x0 DUP1 REVERT JUMPDEST DUP2 MLOAD PUSH2 0xF88 DUP2 PUSH2 0x1FE7 JUMP JUMPDEST PUSH1 0x0 PUSH1 0x20 DUP3 DUP5 SUB SLT ISZERO PUSH2 0x1B90 JUMPI PUSH1 0x0 DUP1 REVERT JUMPDEST POP CALLDATALOAD SWAP2 SWAP1 POP JUMP JUMPDEST PUSH1 0x0 DUP2 MLOAD DUP1 DUP5 MSTORE PUSH2 0x1BAF DUP2 PUSH1 0x20 DUP7 ADD PUSH1 0x20 DUP7 ADD PUSH2 0x1F0D JUMP JUMPDEST PUSH1 0x1F ADD PUSH1 0x1F NOT AND SWAP3 SWAP1 SWAP3 ADD PUSH1 0x20 ADD SWAP3 SWAP2 POP POP JUMP JUMPDEST PUSH1 0x0 DUP5 MLOAD PUSH2 0x1BD5 DUP2 DUP5 PUSH1 0x20 DUP10 ADD PUSH2 0x1F0D JUMP JUMPDEST DUP5 MLOAD SWAP1 DUP4 ADD SWAP1 PUSH2 0x1BE9 DUP2 DUP4 PUSH1 0x20 DUP10 ADD PUSH2 0x1F0D JUMP JUMPDEST DUP5 MLOAD SWAP2 ADD SWAP1 PUSH2 0x1BFC DUP2 DUP4 PUSH1 0x20 DUP9 ADD PUSH2 0x1F0D JUMP JUMPDEST ADD SWAP6 SWAP5 POP POP POP POP POP JUMP JUMPDEST PUSH1 0x0 DUP4 MLOAD PUSH2 0x1C18 DUP2 DUP5 PUSH1 0x20 DUP9 ADD PUSH2 0x1F0D JUMP JUMPDEST PUSH1 0x23 PUSH1 0xF8 SHL SWAP1 DUP4 ADD SWAP1 DUP2 MSTORE DUP4 MLOAD PUSH2 0x1C36 DUP2 PUSH1 0x1 DUP5 ADD PUSH1 0x20 DUP9 ADD PUSH2 0x1F0D JUMP JUMPDEST ADD PUSH1 0x1 ADD SWAP5 SWAP4 POP POP POP POP JUMP JUMPDEST PUSH10 0x3D912730B6B2911D1011 PUSH1 0xB1 SHL DUP2 MSTORE DUP3 MLOAD PUSH1 0x0 SWAP1 PUSH2 0x1C68 DUP2 PUSH1 0xA DUP6 ADD PUSH1 0x20 DUP9 ADD PUSH2 0x1F0D JUMP JUMPDEST PUSH32 0x222C20226465736372697074696F6E223A20224120436F6C6C656374696F6E20 PUSH1 0xA SWAP2 DUP5 ADD SWAP2 DUP3 ADD MSTORE PUSH32 0x6F66203920546573744E6574204E46545320666F7220426C6F636B67616D6573 PUSH1 0x2A DUP3 ADD MSTORE PUSH13 0x1116101134B6B0B3B2911D1011 PUSH1 0x99 SHL PUSH1 0x4A DUP3 ADD MSTORE DUP4 MLOAD PUSH2 0x1CE1 DUP2 PUSH1 0x57 DUP5 ADD PUSH1 0x20 DUP9 ADD PUSH2 0x1F0D JUMP JUMPDEST PUSH2 0x227D PUSH1 0xF0 SHL PUSH1 0x57 SWAP3 SWAP1 SWAP2 ADD SWAP2 DUP3 ADD MSTORE PUSH1 0x59 ADD SWAP5 SWAP4 POP POP POP POP JUMP JUMPDEST PUSH32 0x646174613A6170706C69636174696F6E2F6A736F6E3B6261736536342C000000 DUP2 MSTORE PUSH1 0x0 DUP3 MLOAD PUSH2 0x1D34 DUP2 PUSH1 0x1D DUP6 ADD PUSH1 0x20 DUP8 ADD PUSH2 0x1F0D JUMP JUMPDEST SWAP2 SWAP1 SWAP2 ADD PUSH1 0x1D ADD SWAP3 SWAP2 POP POP JUMP JUMPDEST PUSH1 0x1 PUSH1 0x1 PUSH1 0xA0 SHL SUB DUP6 DUP2 AND DUP3 MSTORE DUP5 AND PUSH1 0x20 DUP3 ADD MSTORE PUSH1 0x40 DUP2 ADD DUP4 SWAP1 MSTORE PUSH1 0x80 PUSH1 0x60 DUP3 ADD DUP2 SWAP1 MSTORE PUSH1 0x0 SWAP1 PUSH2 0x1D74 SWAP1 DUP4 ADD DUP5 PUSH2 0x1B97 JUMP JUMPDEST SWAP7 SWAP6 POP POP POP POP POP POP JUMP JUMPDEST PUSH1 0x20 DUP1 DUP3 MSTORE DUP3 MLOAD DUP3 DUP3 ADD DUP2 SWAP1 MSTORE PUSH1 0x0 SWAP2 SWAP1 DUP5 DUP3 ADD SWAP1 PUSH1 0x40 DUP6 ADD SWAP1 DUP5 JUMPDEST DUP2 DUP2 LT ISZERO PUSH2 0x1DB6 JUMPI DUP4 MLOAD DUP4 MSTORE SWAP3 DUP5 ADD SWAP3 SWAP2 DUP5 ADD SWAP2 PUSH1 0x1 ADD PUSH2 0x1D9A JUMP JUMPDEST POP SWAP1 SWAP7 SWAP6 POP POP POP POP POP POP JUMP JUMPDEST PUSH1 0x20 DUP2 MSTORE PUSH1 0x0 PUSH2 0xF88 PUSH1 0x20 DUP4 ADD DUP5 PUSH2 0x1B97 JUMP JUMPDEST PUSH1 0x20 DUP1 DUP3 MSTORE PUSH1 0x32 SWAP1 DUP3 ADD MSTORE PUSH32 0x4552433732313A207472616E7366657220746F206E6F6E204552433732315265 PUSH1 0x40 DUP3 ADD MSTORE PUSH18 0x31B2B4BB32B91034B6B83632B6B2B73A32B9 PUSH1 0x71 SHL PUSH1 0x60 DUP3 ADD MSTORE PUSH1 0x80 ADD SWAP1 JUMP JUMPDEST PUSH1 0x20 DUP1 DUP3 MSTORE PUSH1 0x31 SWAP1 DUP3 ADD MSTORE PUSH32 0x4552433732313A207472616E736665722063616C6C6572206973206E6F74206F PUSH1 0x40 DUP3 ADD MSTORE PUSH17 0x1DDB995C881B9BDC88185C1C1C9BDD9959 PUSH1 0x7A SHL PUSH1 0x60 DUP3 ADD MSTORE PUSH1 0x80 ADD SWAP1 JUMP JUMPDEST PUSH1 0x0 DUP3 NOT DUP3 GT ISZERO PUSH2 0x1E8B JUMPI PUSH2 0x1E8B PUSH2 0x1F8F JUMP JUMPDEST POP ADD SWAP1 JUMP JUMPDEST PUSH1 0x0 PUSH1 0xFF DUP3 AND PUSH1 0xFF DUP5 AND DUP1 PUSH1 0xFF SUB DUP3 GT ISZERO PUSH2 0x1EAD JUMPI PUSH2 0x1EAD PUSH2 0x1F8F JUMP JUMPDEST ADD SWAP4 SWAP3 POP POP POP JUMP JUMPDEST PUSH1 0x0 DUP3 PUSH2 0x1ED2 JUMPI PUSH4 0x4E487B71 PUSH1 0xE0 SHL PUSH1 0x0 MSTORE PUSH1 0x12 PUSH1 0x4 MSTORE PUSH1 0x24 PUSH1 0x0 REVERT JUMPDEST POP DIV SWAP1 JUMP JUMPDEST PUSH1 0x0 DUP2 PUSH1 0x0 NOT DIV DUP4 GT DUP3 ISZERO ISZERO AND ISZERO PUSH2 0x1EF1 JUMPI PUSH2 0x1EF1 PUSH2 0x1F8F JUMP JUMPDEST POP MUL SWAP1 JUMP JUMPDEST PUSH1 0x0 DUP3 DUP3 LT ISZERO PUSH2 0x1F08 JUMPI PUSH2 0x1F08 PUSH2 0x1F8F JUMP JUMPDEST POP SUB SWAP1 JUMP JUMPDEST PUSH1 0x0 JUMPDEST DUP4 DUP2 LT ISZERO PUSH2 0x1F28 JUMPI DUP2 DUP2 ADD MLOAD DUP4 DUP3 ADD MSTORE PUSH1 0x20 ADD PUSH2 0x1F10 JUMP JUMPDEST DUP4 DUP2 GT ISZERO PUSH2 0xA59 JUMPI POP POP PUSH1 0x0 SWAP2 ADD MSTORE JUMP JUMPDEST PUSH1 0x1 DUP2 DUP2 SHR SWAP1 DUP3 AND DUP1 PUSH2 0x1F4D JUMPI PUSH1 0x7F DUP3 AND SWAP2 POP JUMPDEST PUSH1 0x20 DUP3 LT DUP2 EQ ISZERO PUSH2 0x1F6E JUMPI PUSH4 0x4E487B71 PUSH1 0xE0 SHL PUSH1 0x0 MSTORE PUSH1 0x22 PUSH1 0x4 MSTORE PUSH1 0x24 PUSH1 0x0 REVERT JUMPDEST POP SWAP2 SWAP1 POP JUMP JUMPDEST PUSH1 0x0 PUSH1 0x0 NOT DUP3 EQ ISZERO PUSH2 0x1F88 JUMPI PUSH2 0x1F88 PUSH2 0x1F8F JUMP JUMPDEST POP PUSH1 0x1 ADD SWAP1 JUMP JUMPDEST PUSH4 0x4E487B71 PUSH1 0xE0 SHL PUSH1 0x0 MSTORE PUSH1 0x11 PUSH1 0x4 MSTORE PUSH1 0x24 PUSH1 0x0 REVERT JUMPDEST PUSH4 0x4E487B71 PUSH1 0xE0 SHL PUSH1 0x0 MSTORE PUSH1 0x31 PUSH1 0x4 MSTORE PUSH1 0x24 PUSH1 0x0 REVERT JUMPDEST PUSH4 0x4E487B71 PUSH1 0xE0 SHL PUSH1 0x0 MSTORE PUSH1 0x32 PUSH1 0x4 MSTORE PUSH1 0x24 PUSH1 0x0 REVERT JUMPDEST PUSH4 0x4E487B71 PUSH1 0xE0 SHL PUSH1 0x0 MSTORE PUSH1 0x41 PUSH1 0x4 MSTORE PUSH1 0x24 PUSH1 0x0 REVERT JUMPDEST PUSH1 0x1 PUSH1 0x1 PUSH1 0xE0 SHL SUB NOT DUP2 AND DUP2 EQ PUSH2 0xC1D JUMPI PUSH1 0x0 DUP1 REVERT INVALID COINBASE TIMESTAMP NUMBER DIFFICULTY GASLIMIT CHAINID SELFBALANCE 0x48 0x49 0x4A 0x4B 0x4C 0x4D 0x4E 0x4F POP MLOAD MSTORE MSTORE8 SLOAD SSTORE JUMP JUMPI PC MSIZE GAS PUSH2 0x6263 PUSH5 0x6566676869 PUSH11 0x6B6C6D6E6F707172737475 PUSH23 0x7778797A303132333435363738392B2F68747470733A2F 0x2F PUSH10 0x7066732E696F2F697066 PUSH20 0x2F516D5061357138566E656D5731794C556B5176 0x4B PUSH23 0x6D58475158784C7435626238476A6933524C4768344458 PUSH24 0x572FA2646970667358221220D3CB8CE702E07DAB8F42A0B3 0x27 RETURNDATACOPY 0x28 PUSH24 0x71240A60468CE03B0F61CE888E1194CE64736F6C63430008 MOD STOP CALLER "
				},
				"gasEstimates": {
					"creation": {
						"codeDepositCost": "1675000",
						"executionCost": "infinite",
						"totalCost": "infinite"
					},
					"external": {
						"MAX_SUPPLY()": "262",
						"approve(address,uint256)": "infinite",
						"balanceOf(address)": "2634",
						"baseTokenURI()": "infinite",
						"getApproved(uint256)": "4760",
						"isApprovedForAll(address,address)": "infinite",
						"mintNFTs(uint256)": "infinite",
						"name()": "infinite",
						"owner()": "2442",
						"ownerOf(uint256)": "2579",
						"renounceOwnership()": "28184",
						"safeTransferFrom(address,address,uint256)": "infinite",
						"safeTransferFrom(address,address,uint256,bytes)": "infinite",
						"setApprovalForAll(address,bool)": "26708",
						"supportsInterface(bytes4)": "infinite",
						"symbol()": "infinite",
						"tokenByIndex(uint256)": "6848",
						"tokenOfOwnerByIndex(address,uint256)": "4975",
						"tokenURI(uint256)": "infinite",
						"tokensOfOwner(address)": "infinite",
						"totalSupply()": "2393",
						"transferFrom(address,address,uint256)": "infinite",
						"transferOwnership(address)": "28444"
					},
					"internal": {
						"_mintSingleNFT()": "infinite",
						"concatenate(uint256)": "infinite",
						"concatenateName(uint256)": "infinite",
						"uint2str(uint256)": "infinite"
					}
				},
				"methodIdentifiers": {
					"MAX_SUPPLY()": "32cb6b0c",
					"approve(address,uint256)": "095ea7b3",
					"balanceOf(address)": "70a08231",
					"baseTokenURI()": "d547cfb7",
					"getApproved(uint256)": "081812fc",
					"isApprovedForAll(address,address)": "e985e9c5",
					"mintNFTs(uint256)": "3b4b1381",
					"name()": "06fdde03",
					"owner()": "8da5cb5b",
					"ownerOf(uint256)": "6352211e",
					"renounceOwnership()": "715018a6",
					"safeTransferFrom(address,address,uint256)": "42842e0e",
					"safeTransferFrom(address,address,uint256,bytes)": "b88d4fde",
					"setApprovalForAll(address,bool)": "a22cb465",
					"supportsInterface(bytes4)": "01ffc9a7",
					"symbol()": "95d89b41",
					"tokenByIndex(uint256)": "4f6ccce7",
					"tokenOfOwnerByIndex(address,uint256)": "2f745c59",
					"tokenURI(uint256)": "c87b56dd",
					"tokensOfOwner(address)": "8462151c",
					"totalSupply()": "18160ddd",
					"transferFrom(address,address,uint256)": "23b872dd",
					"transferOwnership(address)": "f2fde38b"
				}
			},
			"userdoc": {
				"kind": "user",
				"methods": {},
				"version": 1
			}
		}
	}
}